{"abi":[{"type":"function","name":"createStorageContract","inputs":[],"outputs":[],"stateMutability":"nonpayable"},{"type":"function","name":"listOfsimplestorage","inputs":[{"name":"","type":"uint256","internalType":"uint256"}],"outputs":[{"name":"","type":"address","internalType":"contract SimpleStorage"}],"stateMutability":"view"},{"type":"function","name":"sfget","inputs":[{"name":"_simplestorageindex","type":"uint256","internalType":"uint256"}],"outputs":[{"name":"","type":"uint256","internalType":"uint256"}],"stateMutability":"view"},{"type":"function","name":"sfstore","inputs":[{"name":"_simplestorageindex","type":"uint256","internalType":"uint256"},{"name":"_newsimplestoragenumber","type":"uint256","internalType":"uint256"}],"outputs":[],"stateMutability":"nonpayable"}],"bytecode":{"object":"0x6080604052348015600e575f5ffd5b506108af8061001c5f395ff3fe608060405234801561000f575f5ffd5b506004361061004a575f3560e01c80630ad91b641461004e578063caec2a5a1461007e578063dc241df31461009a578063f817d6b8146100ca575b5f5ffd5b6100686004803603810190610063919061033a565b6100d4565b6040516100759190610374565b60405180910390f35b6100986004803603810190610093919061038d565b610188565b005b6100b460048036038101906100af919061033a565b610231565b6040516100c19190610445565b60405180910390f35b6100d261026b565b005b5f5f5f83815481106100e9576100e861045e565b5b905f5260205f20015f9054906101000a900473ffffffffffffffffffffffffffffffffffffffff1690508073ffffffffffffffffffffffffffffffffffffffff16632e64cec16040518163ffffffff1660e01b8152600401602060405180830381865afa15801561015c573d5f5f3e3d5ffd5b505050506040513d601f19601f82011682018060405250810190610180919061049f565b915050919050565b5f5f838154811061019c5761019b61045e565b5b905f5260205f20015f9054906101000a900473ffffffffffffffffffffffffffffffffffffffff1690508073ffffffffffffffffffffffffffffffffffffffff16636057361d836040518263ffffffff1660e01b81526004016101ff9190610374565b5f604051808303815f87803b158015610216575f5ffd5b505af1158015610228573d5f5f3e3d5ffd5b50505050505050565b5f818154811061023f575f80fd5b905f5260205f20015f915054906101000a900473ffffffffffffffffffffffffffffffffffffffff1681565b5f604051610278906102f6565b604051809103905ff080158015610291573d5f5f3e3d5ffd5b5090505f81908060018154018082558091505060019003905f5260205f20015f9091909190916101000a81548173ffffffffffffffffffffffffffffffffffffffff021916908373ffffffffffffffffffffffffffffffffffffffff16021790555050565b6103af806104cb83390190565b5f5ffd5b5f819050919050565b61031981610307565b8114610323575f5ffd5b50565b5f8135905061033481610310565b92915050565b5f6020828403121561034f5761034e610303565b5b5f61035c84828501610326565b91505092915050565b61036e81610307565b82525050565b5f6020820190506103875f830184610365565b92915050565b5f5f604083850312156103a3576103a2610303565b5b5f6103b085828601610326565b92505060206103c185828601610326565b9150509250929050565b5f73ffffffffffffffffffffffffffffffffffffffff82169050919050565b5f819050919050565b5f61040d610408610403846103cb565b6103ea565b6103cb565b9050919050565b5f61041e826103f3565b9050919050565b5f61042f82610414565b9050919050565b61043f81610425565b82525050565b5f6020820190506104585f830184610436565b92915050565b7f4e487b71000000000000000000000000000000000000000000000000000000005f52603260045260245ffd5b5f8151905061049981610310565b92915050565b5f602082840312156104b4576104b3610303565b5b5f6104c18482850161048b565b9150509291505056fe6080604052348015600e575f5ffd5b503360015f6101000a81548173ffffffffffffffffffffffffffffffffffffffff021916908373ffffffffffffffffffffffffffffffffffffffff1602179055506103538061005c5f395ff3fe608060405234801561000f575f5ffd5b5060043610610055575f3560e01c806320965255146100595780632e64cec11461007757806355241077146100955780636057361d146100b15780638da5cb5b146100cd575b5f5ffd5b6100616100eb565b60405161006e91906101db565b60405180910390f35b61007f6100f3565b60405161008c91906101db565b60405180910390f35b6100af60048036038101906100aa9190610222565b6100fc565b005b6100cb60048036038101906100c69190610222565b610194565b005b6100d561019e565b6040516100e2919061028c565b60405180910390f35b5f5f54905090565b5f600254905090565b60015f9054906101000a900473ffffffffffffffffffffffffffffffffffffffff1673ffffffffffffffffffffffffffffffffffffffff163373ffffffffffffffffffffffffffffffffffffffff161461018b576040517f08c379a0000000000000000000000000000000000000000000000000000000008152600401610182906102ff565b60405180910390fd5b805f8190555050565b8060028190555050565b60015f9054906101000a900473ffffffffffffffffffffffffffffffffffffffff1681565b5f819050919050565b6101d5816101c3565b82525050565b5f6020820190506101ee5f8301846101cc565b92915050565b5f5ffd5b610201816101c3565b811461020b575f5ffd5b50565b5f8135905061021c816101f8565b92915050565b5f60208284031215610237576102366101f4565b5b5f6102448482850161020e565b91505092915050565b5f73ffffffffffffffffffffffffffffffffffffffff82169050919050565b5f6102768261024d565b9050919050565b6102868161026c565b82525050565b5f60208201905061029f5f83018461027d565b92915050565b5f82825260208201905092915050565b7f4e6f74206f776e657200000000000000000000000000000000000000000000005f82015250565b5f6102e96009836102a5565b91506102f4826102b5565b602082019050919050565b5f6020820190508181035f830152610316816102dd565b905091905056fea2646970667358221220ebdf874b8206c4eea16a8864d0809221fdc80f83c6d61ae55e5258bb3bad1eb364736f6c63430008210033a2646970667358221220c4fd39ee5b5ddd3135ebe6f3421640f6aa27020f625c8e3a823b6d8b08e0117c64736f6c63430008210033","linkReferences":{}},"methodIdentifiers":{"createStorageContract()":"f817d6b8","listOfsimplestorage(uint256)":"dc241df3","sfget(uint256)":"0ad91b64","sfstore(uint256,uint256)":"caec2a5a"},"id":1}