{"abi":[{"type":"function","name":"createStorageContract","inputs":[],"outputs":[],"stateMutability":"nonpayable"},{"type":"function","name":"listOfsimplestorage","inputs":[{"name":"","type":"uint256","internalType":"uint256"}],"outputs":[{"name":"","type":"address","internalType":"contract SimpleStorage"}],"stateMutability":"view"}],"bytecode":{"object":"0x6080604052348015600e575f5ffd5b506105bb8061001c5f395ff3fe608060405234801561000f575f5ffd5b5060043610610034575f3560e01c8063dc241df314610038578063f817d6b814610068575b5f5ffd5b610052600480360381019061004d919061017b565b610072565b60405161005f9190610220565b60405180910390f35b6100706100ac565b005b5f8181548110610080575f80fd5b905f5260205f20015f915054906101000a900473ffffffffffffffffffffffffffffffffffffffff1681565b5f6040516100b990610137565b604051809103905ff0801580156100d2573d5f5f3e3d5ffd5b5090505f81908060018154018082558091505060019003905f5260205f20015f9091909190916101000a81548173ffffffffffffffffffffffffffffffffffffffff021916908373ffffffffffffffffffffffffffffffffffffffff16021790555050565b61034c8061023a83390190565b5f5ffd5b5f819050919050565b61015a81610148565b8114610164575f5ffd5b50565b5f8135905061017581610151565b92915050565b5f602082840312156101905761018f610144565b5b5f61019d84828501610167565b91505092915050565b5f73ffffffffffffffffffffffffffffffffffffffff82169050919050565b5f819050919050565b5f6101e86101e36101de846101a6565b6101c5565b6101a6565b9050919050565b5f6101f9826101ce565b9050919050565b5f61020a826101ef565b9050919050565b61021a81610200565b82525050565b5f6020820190506102335f830184610211565b9291505056fe6080604052348015600e575f5ffd5b503360015f6101000a81548173ffffffffffffffffffffffffffffffffffffffff021916908373ffffffffffffffffffffffffffffffffffffffff1602179055506102f08061005c5f395ff3fe608060405234801561000f575f5ffd5b506004361061003f575f3560e01c8063209652551461004357806355241077146100615780638da5cb5b1461007d575b5f5ffd5b61004b61009b565b6040516100589190610178565b60405180910390f35b61007b600480360381019061007691906101bf565b6100a3565b005b61008561013b565b6040516100929190610229565b60405180910390f35b5f5f54905090565b60015f9054906101000a900473ffffffffffffffffffffffffffffffffffffffff1673ffffffffffffffffffffffffffffffffffffffff163373ffffffffffffffffffffffffffffffffffffffff1614610132576040517f08c379a00000000000000000000000000000000000000000000000000000000081526004016101299061029c565b60405180910390fd5b805f8190555050565b60015f9054906101000a900473ffffffffffffffffffffffffffffffffffffffff1681565b5f819050919050565b61017281610160565b82525050565b5f60208201905061018b5f830184610169565b92915050565b5f5ffd5b61019e81610160565b81146101a8575f5ffd5b50565b5f813590506101b981610195565b92915050565b5f602082840312156101d4576101d3610191565b5b5f6101e1848285016101ab565b91505092915050565b5f73ffffffffffffffffffffffffffffffffffffffff82169050919050565b5f610213826101ea565b9050919050565b61022381610209565b82525050565b5f60208201905061023c5f83018461021a565b92915050565b5f82825260208201905092915050565b7f4e6f74206f776e657200000000000000000000000000000000000000000000005f82015250565b5f610286600983610242565b915061029182610252565b602082019050919050565b5f6020820190508181035f8301526102b38161027a565b905091905056fea26469706673582212201d47d4e650dc7d76e96302053efb675267dc59485a01fa3b8530d4853551bfa164736f6c63430008210033a2646970667358221220395181f1afb9e372419eee77cf239a9eb7a216fa02c718c4ea1c5e2b123fdde464736f6c63430008210033","linkReferences":{}},"methodIdentifiers":{"createStorageContract()":"f817d6b8","listOfsimplestorage(uint256)":"dc241df3"},"id":1}