{
	"if/sum10.sol": {
		"sum10": {
			"abi": [
				{
					"inputs": [
						{
							"internalType": "uint64",
							"name": "x",
							"type": "uint64"
						}
					],
					"name": "sum",
					"outputs": [
						{
							"internalType": "uint64",
							"name": "total",
							"type": "uint64"
						}
					],
					"stateMutability": "pure",
					"type": "function"
				}
			],
			"devdoc": {
				"kind": "dev",
				"methods": {},
				"version": 1
			},
			"evm": {
				"assembly": "    /* \"if/sum10.sol\":57:229  contract sum10{... */\n  mstore(0x40, 0x80)\n  callvalue\n  dup1\n  iszero\n  tag_1\n  jumpi\n  revert(0x00, 0x00)\ntag_1:\n  pop\n  dataSize(sub_0)\n  dup1\n  dataOffset(sub_0)\n  0x00\n  codecopy\n  0x00\n  return\nstop\n\nsub_0: assembly {\n        /* \"if/sum10.sol\":57:229  contract sum10{... */\n      mstore(0x40, 0x80)\n      callvalue\n      dup1\n      iszero\n      tag_1\n      jumpi\n      revert(0x00, 0x00)\n    tag_1:\n      pop\n      jumpi(tag_2, lt(calldatasize, 0x04))\n      shr(0xe0, calldataload(0x00))\n      dup1\n      0x39d5a028\n      eq\n      tag_3\n      jumpi\n    tag_2:\n      revert(0x00, 0x00)\n        /* \"if/sum10.sol\":84:226  function sum(uint64 x) external pure returns(uint64 total){... */\n    tag_3:\n      tag_4\n      0x04\n      dup1\n      calldatasize\n      sub\n      dup2\n      add\n      swap1\n      tag_5\n      swap2\n      swap1\n      tag_6\n      jump\t// in\n    tag_5:\n      tag_7\n      jump\t// in\n    tag_4:\n      mload(0x40)\n      tag_8\n      swap2\n      swap1\n      tag_9\n      jump\t// in\n    tag_8:\n      mload(0x40)\n      dup1\n      swap2\n      sub\n      swap1\n      return\n    tag_7:\n        /* \"if/sum10.sol\":129:141  uint64 total */\n      0x00\n        /* \"if/sum10.sol\":157:165  uint64 i */\n      0x00\n        /* \"if/sum10.sol\":166:167  0 */\n      0x00\n        /* \"if/sum10.sol\":157:167  uint64 i=0 */\n      swap1\n      pop\n        /* \"if/sum10.sol\":153:219  for(uint64 i=0;i<10;i++){... */\n    tag_11:\n        /* \"if/sum10.sol\":170:172  10 */\n      0x0a\n        /* \"if/sum10.sol\":168:169  i */\n      dup2\n        /* \"if/sum10.sol\":168:172  i<10 */\n      0xffffffffffffffff\n      and\n      lt\n        /* \"if/sum10.sol\":153:219  for(uint64 i=0;i<10;i++){... */\n      iszero\n      tag_12\n      jumpi\n        /* \"if/sum10.sol\":206:207  i */\n      dup1\n        /* \"if/sum10.sol\":202:203  x */\n      dup4\n        /* \"if/sum10.sol\":202:207  x + i */\n      tag_14\n      swap2\n      swap1\n      tag_15\n      jump\t// in\n    tag_14:\n        /* \"if/sum10.sol\":193:207  total += x + i */\n      dup3\n      tag_16\n      swap2\n      swap1\n      tag_15\n      jump\t// in\n    tag_16:\n      swap2\n      pop\n        /* \"if/sum10.sol\":173:176  i++ */\n      dup1\n      dup1\n      0x01\n      add\n      swap2\n      pop\n      pop\n        /* \"if/sum10.sol\":153:219  for(uint64 i=0;i<10;i++){... */\n      jump(tag_11)\n    tag_12:\n      pop\n        /* \"if/sum10.sol\":84:226  function sum(uint64 x) external pure returns(uint64 total){... */\n      swap2\n      swap1\n      pop\n      jump\t// out\n        /* \"#utility.yul\":88:205   */\n    tag_18:\n        /* \"#utility.yul\":197:198   */\n      0x00\n        /* \"#utility.yul\":194:195   */\n      0x00\n        /* \"#utility.yul\":187:199   */\n      revert\n        /* \"#utility.yul\":334:435   */\n    tag_20:\n        /* \"#utility.yul\":370:377   */\n      0x00\n        /* \"#utility.yul\":410:428   */\n      0xffffffffffffffff\n        /* \"#utility.yul\":403:408   */\n      dup3\n        /* \"#utility.yul\":399:429   */\n      and\n        /* \"#utility.yul\":388:429   */\n      swap1\n      pop\n        /* \"#utility.yul\":334:435   */\n      swap2\n      swap1\n      pop\n      jump\t// out\n        /* \"#utility.yul\":441:561   */\n    tag_21:\n        /* \"#utility.yul\":513:536   */\n      tag_31\n        /* \"#utility.yul\":530:535   */\n      dup2\n        /* \"#utility.yul\":513:536   */\n      tag_20\n      jump\t// in\n    tag_31:\n        /* \"#utility.yul\":506:511   */\n      dup2\n        /* \"#utility.yul\":503:537   */\n      eq\n        /* \"#utility.yul\":493:555   */\n      tag_32\n      jumpi\n        /* \"#utility.yul\":551:552   */\n      0x00\n        /* \"#utility.yul\":548:549   */\n      0x00\n        /* \"#utility.yul\":541:553   */\n      revert\n        /* \"#utility.yul\":493:555   */\n    tag_32:\n        /* \"#utility.yul\":441:561   */\n      pop\n      jump\t// out\n        /* \"#utility.yul\":567:704   */\n    tag_22:\n        /* \"#utility.yul\":612:617   */\n      0x00\n        /* \"#utility.yul\":650:656   */\n      dup2\n        /* \"#utility.yul\":637:657   */\n      calldataload\n        /* \"#utility.yul\":628:657   */\n      swap1\n      pop\n        /* \"#utility.yul\":666:698   */\n      tag_34\n        /* \"#utility.yul\":692:697   */\n      dup2\n        /* \"#utility.yul\":666:698   */\n      tag_21\n      jump\t// in\n    tag_34:\n        /* \"#utility.yul\":567:704   */\n      swap3\n      swap2\n      pop\n      pop\n      jump\t// out\n        /* \"#utility.yul\":710:1037   */\n    tag_6:\n        /* \"#utility.yul\":768:774   */\n      0x00\n        /* \"#utility.yul\":817:819   */\n      0x20\n        /* \"#utility.yul\":805:814   */\n      dup3\n        /* \"#utility.yul\":796:803   */\n      dup5\n        /* \"#utility.yul\":792:815   */\n      sub\n        /* \"#utility.yul\":788:820   */\n      slt\n        /* \"#utility.yul\":785:904   */\n      iszero\n      tag_36\n      jumpi\n        /* \"#utility.yul\":823:902   */\n      tag_37\n      tag_18\n      jump\t// in\n    tag_37:\n        /* \"#utility.yul\":785:904   */\n    tag_36:\n        /* \"#utility.yul\":943:944   */\n      0x00\n        /* \"#utility.yul\":968:1020   */\n      tag_38\n        /* \"#utility.yul\":1012:1019   */\n      dup5\n        /* \"#utility.yul\":1003:1009   */\n      dup3\n        /* \"#utility.yul\":992:1001   */\n      dup6\n        /* \"#utility.yul\":988:1010   */\n      add\n        /* \"#utility.yul\":968:1020   */\n      tag_22\n      jump\t// in\n    tag_38:\n        /* \"#utility.yul\":958:1020   */\n      swap2\n      pop\n        /* \"#utility.yul\":914:1030   */\n      pop\n        /* \"#utility.yul\":710:1037   */\n      swap3\n      swap2\n      pop\n      pop\n      jump\t// out\n        /* \"#utility.yul\":1043:1158   */\n    tag_23:\n        /* \"#utility.yul\":1128:1151   */\n      tag_40\n        /* \"#utility.yul\":1145:1150   */\n      dup2\n        /* \"#utility.yul\":1128:1151   */\n      tag_20\n      jump\t// in\n    tag_40:\n        /* \"#utility.yul\":1123:1126   */\n      dup3\n        /* \"#utility.yul\":1116:1152   */\n      mstore\n        /* \"#utility.yul\":1043:1158   */\n      pop\n      pop\n      jump\t// out\n        /* \"#utility.yul\":1164:1382   */\n    tag_9:\n        /* \"#utility.yul\":1255:1259   */\n      0x00\n        /* \"#utility.yul\":1293:1295   */\n      0x20\n        /* \"#utility.yul\":1282:1291   */\n      dup3\n        /* \"#utility.yul\":1278:1296   */\n      add\n        /* \"#utility.yul\":1270:1296   */\n      swap1\n      pop\n        /* \"#utility.yul\":1306:1375   */\n      tag_42\n        /* \"#utility.yul\":1372:1373   */\n      0x00\n        /* \"#utility.yul\":1361:1370   */\n      dup4\n        /* \"#utility.yul\":1357:1374   */\n      add\n        /* \"#utility.yul\":1348:1354   */\n      dup5\n        /* \"#utility.yul\":1306:1375   */\n      tag_23\n      jump\t// in\n    tag_42:\n        /* \"#utility.yul\":1164:1382   */\n      swap3\n      swap2\n      pop\n      pop\n      jump\t// out\n        /* \"#utility.yul\":1388:1568   */\n    tag_24:\n        /* \"#utility.yul\":1436:1513   */\n      0x4e487b7100000000000000000000000000000000000000000000000000000000\n        /* \"#utility.yul\":1433:1434   */\n      0x00\n        /* \"#utility.yul\":1426:1514   */\n      mstore\n        /* \"#utility.yul\":1533:1537   */\n      0x11\n        /* \"#utility.yul\":1530:1531   */\n      0x04\n        /* \"#utility.yul\":1523:1538   */\n      mstore\n        /* \"#utility.yul\":1557:1561   */\n      0x24\n        /* \"#utility.yul\":1554:1555   */\n      0x00\n        /* \"#utility.yul\":1547:1562   */\n      revert\n        /* \"#utility.yul\":1574:1779   */\n    tag_15:\n        /* \"#utility.yul\":1613:1616   */\n      0x00\n        /* \"#utility.yul\":1632:1651   */\n      tag_45\n        /* \"#utility.yul\":1649:1650   */\n      dup3\n        /* \"#utility.yul\":1632:1651   */\n      tag_20\n      jump\t// in\n    tag_45:\n        /* \"#utility.yul\":1627:1651   */\n      swap2\n      pop\n        /* \"#utility.yul\":1665:1684   */\n      tag_46\n        /* \"#utility.yul\":1682:1683   */\n      dup4\n        /* \"#utility.yul\":1665:1684   */\n      tag_20\n      jump\t// in\n    tag_46:\n        /* \"#utility.yul\":1660:1684   */\n      swap3\n      pop\n        /* \"#utility.yul\":1707:1708   */\n      dup3\n        /* \"#utility.yul\":1704:1705   */\n      dup3\n        /* \"#utility.yul\":1700:1709   */\n      add\n        /* \"#utility.yul\":1693:1709   */\n      swap1\n      pop\n        /* \"#utility.yul\":1730:1748   */\n      0xffffffffffffffff\n        /* \"#utility.yul\":1725:1728   */\n      dup2\n        /* \"#utility.yul\":1722:1749   */\n      gt\n        /* \"#utility.yul\":1719:1772   */\n      iszero\n      tag_47\n      jumpi\n        /* \"#utility.yul\":1752:1770   */\n      tag_48\n      tag_24\n      jump\t// in\n    tag_48:\n        /* \"#utility.yul\":1719:1772   */\n    tag_47:\n        /* \"#utility.yul\":1574:1779   */\n      swap3\n      swap2\n      pop\n      pop\n      jump\t// out\n\n    auxdata: 0xa2646970667358221220d4fa4d0fa72a32e08bf77e3f14e12d5de526250c4fb20c4d791cf1fd0a82343e64736f6c634300081f0033\n}\n",
				"bytecode": {
					"linkReferences": {},
					"object": "6080604052348015600e575f5ffd5b506101d48061001c5f395ff3fe608060405234801561000f575f5ffd5b5060043610610029575f3560e01c806339d5a0281461002d575b5f5ffd5b610047600480360381019061004291906100e3565b61005d565b604051610054919061011d565b60405180910390f35b5f5f5f90505b600a8167ffffffffffffffff16101561009c5780836100829190610163565b8261008d9190610163565b91508080600101915050610063565b50919050565b5f5ffd5b5f67ffffffffffffffff82169050919050565b6100c2816100a6565b81146100cc575f5ffd5b50565b5f813590506100dd816100b9565b92915050565b5f602082840312156100f8576100f76100a2565b5b5f610105848285016100cf565b91505092915050565b610117816100a6565b82525050565b5f6020820190506101305f83018461010e565b92915050565b7f4e487b71000000000000000000000000000000000000000000000000000000005f52601160045260245ffd5b5f61016d826100a6565b9150610178836100a6565b9250828201905067ffffffffffffffff81111561019857610197610136565b5b9291505056fea2646970667358221220d4fa4d0fa72a32e08bf77e3f14e12d5de526250c4fb20c4d791cf1fd0a82343e64736f6c634300081f0033",
					"opcodes": "PUSH1 0x80 PUSH1 0x40 MSTORE CALLVALUE DUP1 ISZERO PUSH1 0xE JUMPI PUSH0 PUSH0 REVERT JUMPDEST POP PUSH2 0x1D4 DUP1 PUSH2 0x1C PUSH0 CODECOPY PUSH0 RETURN INVALID PUSH1 0x80 PUSH1 0x40 MSTORE CALLVALUE DUP1 ISZERO PUSH2 0xF JUMPI PUSH0 PUSH0 REVERT JUMPDEST POP PUSH1 0x4 CALLDATASIZE LT PUSH2 0x29 JUMPI PUSH0 CALLDATALOAD PUSH1 0xE0 SHR DUP1 PUSH4 0x39D5A028 EQ PUSH2 0x2D JUMPI JUMPDEST PUSH0 PUSH0 REVERT JUMPDEST PUSH2 0x47 PUSH1 0x4 DUP1 CALLDATASIZE SUB DUP2 ADD SWAP1 PUSH2 0x42 SWAP2 SWAP1 PUSH2 0xE3 JUMP JUMPDEST PUSH2 0x5D JUMP JUMPDEST PUSH1 0x40 MLOAD PUSH2 0x54 SWAP2 SWAP1 PUSH2 0x11D JUMP JUMPDEST PUSH1 0x40 MLOAD DUP1 SWAP2 SUB SWAP1 RETURN JUMPDEST PUSH0 PUSH0 PUSH0 SWAP1 POP JUMPDEST PUSH1 0xA DUP2 PUSH8 0xFFFFFFFFFFFFFFFF AND LT ISZERO PUSH2 0x9C JUMPI DUP1 DUP4 PUSH2 0x82 SWAP2 SWAP1 PUSH2 0x163 JUMP JUMPDEST DUP3 PUSH2 0x8D SWAP2 SWAP1 PUSH2 0x163 JUMP JUMPDEST SWAP2 POP DUP1 DUP1 PUSH1 0x1 ADD SWAP2 POP POP PUSH2 0x63 JUMP JUMPDEST POP SWAP2 SWAP1 POP JUMP JUMPDEST PUSH0 PUSH0 REVERT JUMPDEST PUSH0 PUSH8 0xFFFFFFFFFFFFFFFF DUP3 AND SWAP1 POP SWAP2 SWAP1 POP JUMP JUMPDEST PUSH2 0xC2 DUP2 PUSH2 0xA6 JUMP JUMPDEST DUP2 EQ PUSH2 0xCC JUMPI PUSH0 PUSH0 REVERT JUMPDEST POP JUMP JUMPDEST PUSH0 DUP2 CALLDATALOAD SWAP1 POP PUSH2 0xDD DUP2 PUSH2 0xB9 JUMP JUMPDEST SWAP3 SWAP2 POP POP JUMP JUMPDEST PUSH0 PUSH1 0x20 DUP3 DUP5 SUB SLT ISZERO PUSH2 0xF8 JUMPI PUSH2 0xF7 PUSH2 0xA2 JUMP JUMPDEST JUMPDEST PUSH0 PUSH2 0x105 DUP5 DUP3 DUP6 ADD PUSH2 0xCF JUMP JUMPDEST SWAP2 POP POP SWAP3 SWAP2 POP POP JUMP JUMPDEST PUSH2 0x117 DUP2 PUSH2 0xA6 JUMP JUMPDEST DUP3 MSTORE POP POP JUMP JUMPDEST PUSH0 PUSH1 0x20 DUP3 ADD SWAP1 POP PUSH2 0x130 PUSH0 DUP4 ADD DUP5 PUSH2 0x10E JUMP JUMPDEST SWAP3 SWAP2 POP POP JUMP JUMPDEST PUSH32 0x4E487B7100000000000000000000000000000000000000000000000000000000 PUSH0 MSTORE PUSH1 0x11 PUSH1 0x4 MSTORE PUSH1 0x24 PUSH0 REVERT JUMPDEST PUSH0 PUSH2 0x16D DUP3 PUSH2 0xA6 JUMP JUMPDEST SWAP2 POP PUSH2 0x178 DUP4 PUSH2 0xA6 JUMP JUMPDEST SWAP3 POP DUP3 DUP3 ADD SWAP1 POP PUSH8 0xFFFFFFFFFFFFFFFF DUP2 GT ISZERO PUSH2 0x198 JUMPI PUSH2 0x197 PUSH2 0x136 JUMP JUMPDEST JUMPDEST SWAP3 SWAP2 POP POP JUMP INVALID LOG2 PUSH5 0x6970667358 0x22 SLT KECCAK256 0xD4 STATICCALL 0x4D 0xF 0xA7 0x2A ORIGIN RJUMP 0x8BF7 PUSH31 0x3F14E12D5DE526250C4FB20C4D791CF1FD0A82343E64736F6C634300081F00 CALLER "
				},
				"gasEstimates": {
					"creation": {
						"codeDepositCost": "93600",
						"executionCost": "139",
						"totalCost": "93739"
					},
					"external": {
						"sum(uint64)": "infinite"
					}
				},
				"methodIdentifiers": {
					"sum(uint64)": "39d5a028"
				}
			},
			"storageLayout": {
				"storage": [],
				"types": null
			},
			"userdoc": {
				"kind": "user",
				"methods": {},
				"version": 1
			}
		}
	}
}