{
	"crowdfund/crowdfund.sol": {
		"CrowdfundProject": {
			"abi": [
				{
					"inputs": [],
					"stateMutability": "nonpayable",
					"type": "constructor"
				},
				{
					"inputs": [],
					"name": "CampaignNotActive",
					"type": "error"
				},
				{
					"inputs": [],
					"name": "CampaignNotFailed",
					"type": "error"
				},
				{
					"inputs": [],
					"name": "CampaignNotSuccessful",
					"type": "error"
				},
				{
					"inputs": [],
					"name": "DeadlineNotReached",
					"type": "error"
				},
				{
					"inputs": [],
					"name": "NotCreator",
					"type": "error"
				},
				{
					"inputs": [],
					"name": "NotOwner",
					"type": "error"
				},
				{
					"inputs": [],
					"name": "ZeroValue",
					"type": "error"
				},
				{
					"anonymous": false,
					"inputs": [
						{
							"indexed": true,
							"internalType": "uint256",
							"name": "campaignId",
							"type": "uint256"
						},
						{
							"indexed": true,
							"internalType": "address",
							"name": "creator",
							"type": "address"
						}
					],
					"name": "CampaignCreated",
					"type": "event"
				},
				{
					"anonymous": false,
					"inputs": [
						{
							"indexed": true,
							"internalType": "uint256",
							"name": "campaignId",
							"type": "uint256"
						},
						{
							"indexed": false,
							"internalType": "enum CrowdfundProject.CampaignStatus",
							"name": "status",
							"type": "uint8"
						}
					],
					"name": "CampaignResolved",
					"type": "event"
				},
				{
					"anonymous": false,
					"inputs": [
						{
							"indexed": true,
							"internalType": "uint256",
							"name": "campaignId",
							"type": "uint256"
						},
						{
							"indexed": true,
							"internalType": "address",
							"name": "contributor",
							"type": "address"
						},
						{
							"indexed": false,
							"internalType": "uint256",
							"name": "amount",
							"type": "uint256"
						}
					],
					"name": "ContributionReceived",
					"type": "event"
				},
				{
					"anonymous": false,
					"inputs": [
						{
							"indexed": true,
							"internalType": "uint256",
							"name": "campaignId",
							"type": "uint256"
						},
						{
							"indexed": true,
							"internalType": "address",
							"name": "creator",
							"type": "address"
						},
						{
							"indexed": false,
							"internalType": "uint256",
							"name": "amount",
							"type": "uint256"
						}
					],
					"name": "FundsWithdrawn",
					"type": "event"
				},
				{
					"anonymous": false,
					"inputs": [
						{
							"indexed": true,
							"internalType": "address",
							"name": "owner",
							"type": "address"
						}
					],
					"name": "PlatformInitialized",
					"type": "event"
				},
				{
					"anonymous": false,
					"inputs": [
						{
							"indexed": true,
							"internalType": "uint256",
							"name": "campaignId",
							"type": "uint256"
						},
						{
							"indexed": true,
							"internalType": "address",
							"name": "contributor",
							"type": "address"
						},
						{
							"indexed": false,
							"internalType": "uint256",
							"name": "amount",
							"type": "uint256"
						}
					],
					"name": "RefundIssued",
					"type": "event"
				},
				{
					"inputs": [],
					"name": "PLATFORM_FEE_BPS",
					"outputs": [
						{
							"internalType": "uint256",
							"name": "",
							"type": "uint256"
						}
					],
					"stateMutability": "view",
					"type": "function"
				},
				{
					"inputs": [],
					"name": "campaignCount",
					"outputs": [
						{
							"internalType": "uint256",
							"name": "",
							"type": "uint256"
						}
					],
					"stateMutability": "view",
					"type": "function"
				},
				{
					"inputs": [
						{
							"internalType": "uint256",
							"name": "campaignId",
							"type": "uint256"
						}
					],
					"name": "claimRefund",
					"outputs": [],
					"stateMutability": "nonpayable",
					"type": "function"
				},
				{
					"inputs": [
						{
							"internalType": "uint256",
							"name": "campaignId",
							"type": "uint256"
						}
					],
					"name": "contribute",
					"outputs": [],
					"stateMutability": "payable",
					"type": "function"
				},
				{
					"inputs": [
						{
							"internalType": "uint256",
							"name": "goal",
							"type": "uint256"
						},
						{
							"internalType": "uint256",
							"name": "duration",
							"type": "uint256"
						}
					],
					"name": "createCampaign",
					"outputs": [
						{
							"internalType": "uint256",
							"name": "campaignId",
							"type": "uint256"
						}
					],
					"stateMutability": "nonpayable",
					"type": "function"
				},
				{
					"inputs": [
						{
							"internalType": "uint256",
							"name": "campaignId",
							"type": "uint256"
						}
					],
					"name": "getCampaign",
					"outputs": [
						{
							"internalType": "address",
							"name": "creator",
							"type": "address"
						},
						{
							"internalType": "uint256",
							"name": "goal",
							"type": "uint256"
						},
						{
							"internalType": "uint256",
							"name": "raised",
							"type": "uint256"
						},
						{
							"internalType": "uint256",
							"name": "deadline",
							"type": "uint256"
						},
						{
							"internalType": "enum CrowdfundProject.CampaignStatus",
							"name": "status",
							"type": "uint8"
						}
					],
					"stateMutability": "view",
					"type": "function"
				},
				{
					"inputs": [],
					"name": "owner",
					"outputs": [
						{
							"internalType": "address",
							"name": "",
							"type": "address"
						}
					],
					"stateMutability": "view",
					"type": "function"
				},
				{
					"inputs": [
						{
							"internalType": "uint256",
							"name": "campaignId",
							"type": "uint256"
						}
					],
					"name": "resolveCampaign",
					"outputs": [],
					"stateMutability": "nonpayable",
					"type": "function"
				},
				{
					"inputs": [
						{
							"internalType": "uint256",
							"name": "campaignId",
							"type": "uint256"
						}
					],
					"name": "withdrawFunds",
					"outputs": [],
					"stateMutability": "nonpayable",
					"type": "function"
				},
				{
					"stateMutability": "payable",
					"type": "receive"
				}
			],
			"devdoc": {
				"kind": "dev",
				"methods": {},
				"version": 1
			},
			"evm": {
				"assembly": "    /* \"crowdfund/crowdfund.sol\":63:4999  contract CrowdfundProject {... */\n  mstore(0x40, 0xa0)\n    /* \"crowdfund/crowdfund.sol\":1831:1924  constructor() {... */\n  callvalue\n  dup1\n  iszero\n  tag_1\n  jumpi\n  revert(0x00, 0x00)\ntag_1:\n  pop\n    /* \"crowdfund/crowdfund.sol\":1864:1874  msg.sender */\n  caller\n    /* \"crowdfund/crowdfund.sol\":1856:1874  owner = msg.sender */\n  0xffffffffffffffffffffffffffffffffffffffff\n  and\n  0x80\n  dup2\n  0xffffffffffffffffffffffffffffffffffffffff\n  and\n  dup2\n  mstore\n  pop\n  pop\n    /* \"crowdfund/crowdfund.sol\":1910:1915  owner */\n  mload(0x80)\n    /* \"crowdfund/crowdfund.sol\":1890:1916  PlatformInitialized(owner) */\n  0xffffffffffffffffffffffffffffffffffffffff\n  and\n  0xd3ec8e551f5cc391aa95b841e6ae06e84ce17e96ad450447fd963a51d5be0c74\n  mload(0x40)\n  mload(0x40)\n  dup1\n  swap2\n  sub\n  swap1\n  log2\n    /* \"crowdfund/crowdfund.sol\":63:4999  contract CrowdfundProject {... */\n  mload(0x80)\n  codecopy(0x00, dataOffset(sub_0), dataSize(sub_0))\n  0x00\n  assignImmutable(\"0xe455bf8ea6e7463a1046a0b52804526e119b4bf5136279614e0b1e8e296a4e2d\")\n  return(0x00, dataSize(sub_0))\nstop\n\nsub_0: assembly {\n        /* \"crowdfund/crowdfund.sol\":63:4999  contract CrowdfundProject {... */\n      mstore(0x40, 0x80)\n      jumpi(tag_1, lt(calldatasize, 0x04))\n      shr(0xe0, calldataload(0x00))\n      dup1\n      0x5598f8cc\n      gt\n      tag_12\n      jumpi\n      dup1\n      0x5598f8cc\n      eq\n      tag_7\n      jumpi\n      dup1\n      0x5b7baf64\n      eq\n      tag_8\n      jumpi\n      dup1\n      0x7274e30d\n      eq\n      tag_9\n      jumpi\n      dup1\n      0x8da5cb5b\n      eq\n      tag_10\n      jumpi\n      dup1\n      0xc1cbbca7\n      eq\n      tag_11\n      jumpi\n      jump(tag_2)\n    tag_12:\n      dup1\n      0x155dd5ee\n      eq\n      tag_3\n      jumpi\n      dup1\n      0x22502268\n      eq\n      tag_4\n      jumpi\n      dup1\n      0x4f2c84d1\n      eq\n      tag_5\n      jumpi\n      dup1\n      0x539aa77f\n      eq\n      tag_6\n      jumpi\n      jump(tag_2)\n    tag_1:\n      jumpi(tag_2, calldatasize)\n      stop\n    tag_2:\n      revert(0x00, 0x00)\n        /* \"crowdfund/crowdfund.sol\":3432:4020  function withdrawFunds(uint256 campaignId)... */\n    tag_3:\n      callvalue\n      dup1\n      iszero\n      tag_15\n      jumpi\n      revert(0x00, 0x00)\n    tag_15:\n      pop\n      tag_16\n      0x04\n      dup1\n      calldatasize\n      sub\n      dup2\n      add\n      swap1\n      tag_17\n      swap2\n      swap1\n      tag_18\n      jump\t// in\n    tag_17:\n      tag_19\n      jump\t// in\n    tag_16:\n      stop\n        /* \"crowdfund/crowdfund.sol\":1935:2407  function createCampaign(uint256 goal, uint256 duration)... */\n    tag_4:\n      callvalue\n      dup1\n      iszero\n      tag_20\n      jumpi\n      revert(0x00, 0x00)\n    tag_20:\n      pop\n      tag_21\n      0x04\n      dup1\n      calldatasize\n      sub\n      dup2\n      add\n      swap1\n      tag_22\n      swap2\n      swap1\n      tag_23\n      jump\t// in\n    tag_22:\n      tag_24\n      jump\t// in\n    tag_21:\n      mload(0x40)\n      tag_25\n      swap2\n      swap1\n      tag_26\n      jump\t// in\n    tag_25:\n      mload(0x40)\n      dup1\n      swap2\n      sub\n      swap1\n      return\n        /* \"crowdfund/crowdfund.sol\":2930:3419  function resolveCampaign(uint256 campaignId)... */\n    tag_5:\n      callvalue\n      dup1\n      iszero\n      tag_27\n      jumpi\n      revert(0x00, 0x00)\n    tag_27:\n      pop\n      tag_28\n      0x04\n      dup1\n      calldatasize\n      sub\n      dup2\n      add\n      swap1\n      tag_29\n      swap2\n      swap1\n      tag_18\n      jump\t// in\n    tag_29:\n      tag_30\n      jump\t// in\n    tag_28:\n      stop\n        /* \"crowdfund/crowdfund.sol\":104:150  uint256 public constant PLATFORM_FEE_BPS = 200 */\n    tag_6:\n      callvalue\n      dup1\n      iszero\n      tag_31\n      jumpi\n      revert(0x00, 0x00)\n    tag_31:\n      pop\n      tag_32\n      tag_33\n      jump\t// in\n    tag_32:\n      mload(0x40)\n      tag_34\n      swap2\n      swap1\n      tag_26\n      jump\t// in\n    tag_34:\n      mload(0x40)\n      dup1\n      swap2\n      sub\n      swap1\n      return\n        /* \"crowdfund/crowdfund.sol\":4569:4959  function getCampaign(uint256 campaignId)... */\n    tag_7:\n      callvalue\n      dup1\n      iszero\n      tag_35\n      jumpi\n      revert(0x00, 0x00)\n    tag_35:\n      pop\n      tag_36\n      0x04\n      dup1\n      calldatasize\n      sub\n      dup2\n      add\n      swap1\n      tag_37\n      swap2\n      swap1\n      tag_18\n      jump\t// in\n    tag_37:\n      tag_38\n      jump\t// in\n    tag_36:\n      mload(0x40)\n      tag_39\n      swap6\n      swap5\n      swap4\n      swap3\n      swap2\n      swap1\n      tag_40\n      jump\t// in\n    tag_39:\n      mload(0x40)\n      dup1\n      swap2\n      sub\n      swap1\n      return\n        /* \"crowdfund/crowdfund.sol\":4030:4561  function claimRefund(uint256 campaignId) external {... */\n    tag_8:\n      callvalue\n      dup1\n      iszero\n      tag_41\n      jumpi\n      revert(0x00, 0x00)\n    tag_41:\n      pop\n      tag_42\n      0x04\n      dup1\n      calldatasize\n      sub\n      dup2\n      add\n      swap1\n      tag_43\n      swap2\n      swap1\n      tag_18\n      jump\t// in\n    tag_43:\n      tag_44\n      jump\t// in\n    tag_42:\n      stop\n        /* \"crowdfund/crowdfund.sol\":488:516  uint256 public campaignCount */\n    tag_9:\n      callvalue\n      dup1\n      iszero\n      tag_45\n      jumpi\n      revert(0x00, 0x00)\n    tag_45:\n      pop\n      tag_46\n      tag_47\n      jump\t// in\n    tag_46:\n      mload(0x40)\n      tag_48\n      swap2\n      swap1\n      tag_26\n      jump\t// in\n    tag_48:\n      mload(0x40)\n      dup1\n      swap2\n      sub\n      swap1\n      return\n        /* \"crowdfund/crowdfund.sol\":166:196  address public immutable owner */\n    tag_10:\n      callvalue\n      dup1\n      iszero\n      tag_49\n      jumpi\n      revert(0x00, 0x00)\n    tag_49:\n      pop\n      tag_50\n      tag_51\n      jump\t// in\n    tag_50:\n      mload(0x40)\n      tag_52\n      swap2\n      swap1\n      tag_53\n      jump\t// in\n    tag_52:\n      mload(0x40)\n      dup1\n      swap2\n      sub\n      swap1\n      return\n        /* \"crowdfund/crowdfund.sol\":2418:2918  function contribute(uint256 campaignId)external payable    campaignActive(campaignId){... */\n    tag_11:\n      tag_54\n      0x04\n      dup1\n      calldatasize\n      sub\n      dup2\n      add\n      swap1\n      tag_55\n      swap2\n      swap1\n      tag_18\n      jump\t// in\n    tag_55:\n      tag_56\n      jump\t// in\n    tag_54:\n      stop\n        /* \"crowdfund/crowdfund.sol\":3432:4020  function withdrawFunds(uint256 campaignId)... */\n    tag_19:\n        /* \"crowdfund/crowdfund.sol\":3514:3524  campaignId */\n      dup1\n        /* \"crowdfund/crowdfund.sol\":1566:1575  campaigns */\n      0x01\n        /* \"crowdfund/crowdfund.sol\":1566:1587  campaigns[campaignId] */\n      0x00\n        /* \"crowdfund/crowdfund.sol\":1576:1586  campaignId */\n      dup3\n        /* \"crowdfund/crowdfund.sol\":1566:1587  campaigns[campaignId] */\n      dup2\n      mstore\n      0x20\n      add\n      swap1\n      dup2\n      mstore\n      0x20\n      add\n      0x00\n      keccak256\n        /* \"crowdfund/crowdfund.sol\":1566:1595  campaigns[campaignId].creator */\n      0x00\n      add\n      0x00\n      swap1\n      sload\n      swap1\n      0x0100\n      exp\n      swap1\n      div\n      0xffffffffffffffffffffffffffffffffffffffff\n      and\n        /* \"crowdfund/crowdfund.sol\":1552:1595  msg.sender != campaigns[campaignId].creator */\n      0xffffffffffffffffffffffffffffffffffffffff\n      and\n        /* \"crowdfund/crowdfund.sol\":1552:1562  msg.sender */\n      caller\n        /* \"crowdfund/crowdfund.sol\":1552:1595  msg.sender != campaigns[campaignId].creator */\n      0xffffffffffffffffffffffffffffffffffffffff\n      and\n      eq\n        /* \"crowdfund/crowdfund.sol\":1548:1616  if (msg.sender != campaigns[campaignId].creator) revert NotCreator() */\n      tag_58\n      jumpi\n        /* \"crowdfund/crowdfund.sol\":1604:1616  NotCreator() */\n      mload(0x40)\n      0x93687c0b00000000000000000000000000000000000000000000000000000000\n      dup2\n      mstore\n      0x04\n      add\n      mload(0x40)\n      dup1\n      swap2\n      sub\n      swap1\n      revert\n        /* \"crowdfund/crowdfund.sol\":1548:1616  if (msg.sender != campaigns[campaignId].creator) revert NotCreator() */\n    tag_58:\n        /* \"crowdfund/crowdfund.sol\":3542:3560  Campaign storage c */\n      0x00\n        /* \"crowdfund/crowdfund.sol\":3563:3572  campaigns */\n      0x01\n        /* \"crowdfund/crowdfund.sol\":3563:3584  campaigns[campaignId] */\n      0x00\n        /* \"crowdfund/crowdfund.sol\":3573:3583  campaignId */\n      dup5\n        /* \"crowdfund/crowdfund.sol\":3563:3584  campaigns[campaignId] */\n      dup2\n      mstore\n      0x20\n      add\n      swap1\n      dup2\n      mstore\n      0x20\n      add\n      0x00\n      keccak256\n        /* \"crowdfund/crowdfund.sol\":3542:3584  Campaign storage c = campaigns[campaignId] */\n      swap1\n      pop\n        /* \"crowdfund/crowdfund.sol\":3613:3635  CampaignStatus.SUCCESS */\n      0x01\n        /* \"crowdfund/crowdfund.sol\":3601:3635  c.status != CampaignStatus.SUCCESS */\n      0x02\n      dup2\n      gt\n      iszero\n      tag_60\n      jumpi\n      tag_61\n      tag_62\n      jump\t// in\n    tag_61:\n    tag_60:\n        /* \"crowdfund/crowdfund.sol\":3601:3602  c */\n      dup2\n        /* \"crowdfund/crowdfund.sol\":3601:3609  c.status */\n      0x04\n      add\n      0x00\n      swap1\n      sload\n      swap1\n      0x0100\n      exp\n      swap1\n      div\n      0xff\n      and\n        /* \"crowdfund/crowdfund.sol\":3601:3635  c.status != CampaignStatus.SUCCESS */\n      0x02\n      dup2\n      gt\n      iszero\n      tag_63\n      jumpi\n      tag_64\n      tag_62\n      jump\t// in\n    tag_64:\n    tag_63:\n      eq\n        /* \"crowdfund/crowdfund.sol\":3597:3680  if (c.status != CampaignStatus.SUCCESS)... */\n      tag_65\n      jumpi\n        /* \"crowdfund/crowdfund.sol\":3657:3680  CampaignNotSuccessful() */\n      mload(0x40)\n      0x0f7fe27100000000000000000000000000000000000000000000000000000000\n      dup2\n      mstore\n      0x04\n      add\n      mload(0x40)\n      dup1\n      swap2\n      sub\n      swap1\n      revert\n        /* \"crowdfund/crowdfund.sol\":3597:3680  if (c.status != CampaignStatus.SUCCESS)... */\n    tag_65:\n        /* \"crowdfund/crowdfund.sol\":3693:3704  uint256 fee */\n      0x00\n        /* \"crowdfund/crowdfund.sol\":3739:3745  10_000 */\n      0x2710\n        /* \"crowdfund/crowdfund.sol\":147:150  200 */\n      0xc8\n        /* \"crowdfund/crowdfund.sol\":3708:3709  c */\n      dup4\n        /* \"crowdfund/crowdfund.sol\":3708:3716  c.raised */\n      0x02\n      add\n      sload\n        /* \"crowdfund/crowdfund.sol\":3708:3735  c.raised * PLATFORM_FEE_BPS */\n      tag_66\n      swap2\n      swap1\n      tag_67\n      jump\t// in\n    tag_66:\n        /* \"crowdfund/crowdfund.sol\":3707:3745  (c.raised * PLATFORM_FEE_BPS) / 10_000 */\n      tag_68\n      swap2\n      swap1\n      tag_69\n      jump\t// in\n    tag_68:\n        /* \"crowdfund/crowdfund.sol\":3693:3745  uint256 fee = (c.raised * PLATFORM_FEE_BPS) / 10_000 */\n      swap1\n      pop\n        /* \"crowdfund/crowdfund.sol\":3756:3770  uint256 payout */\n      0x00\n        /* \"crowdfund/crowdfund.sol\":3784:3787  fee */\n      dup2\n        /* \"crowdfund/crowdfund.sol\":3773:3774  c */\n      dup4\n        /* \"crowdfund/crowdfund.sol\":3773:3781  c.raised */\n      0x02\n      add\n      sload\n        /* \"crowdfund/crowdfund.sol\":3773:3787  c.raised - fee */\n      tag_70\n      swap2\n      swap1\n      tag_71\n      jump\t// in\n    tag_70:\n        /* \"crowdfund/crowdfund.sol\":3756:3787  uint256 payout = c.raised - fee */\n      swap1\n      pop\n        /* \"crowdfund/crowdfund.sol\":3811:3812  0 */\n      0x00\n        /* \"crowdfund/crowdfund.sol\":3800:3801  c */\n      dup4\n        /* \"crowdfund/crowdfund.sol\":3800:3808  c.raised */\n      0x02\n      add\n        /* \"crowdfund/crowdfund.sol\":3800:3812  c.raised = 0 */\n      dup2\n      swap1\n      sstore\n      pop\n        /* \"crowdfund/crowdfund.sol\":3858:3865  bool ok */\n      0x00\n        /* \"crowdfund/crowdfund.sol\":3871:3872  c */\n      dup4\n        /* \"crowdfund/crowdfund.sol\":3871:3880  c.creator */\n      0x00\n      add\n      0x00\n      swap1\n      sload\n      swap1\n      0x0100\n      exp\n      swap1\n      div\n      0xffffffffffffffffffffffffffffffffffffffff\n      and\n        /* \"crowdfund/crowdfund.sol\":3871:3885  c.creator.call */\n      0xffffffffffffffffffffffffffffffffffffffff\n      and\n        /* \"crowdfund/crowdfund.sol\":3893:3899  payout */\n      dup3\n        /* \"crowdfund/crowdfund.sol\":3871:3904  c.creator.call{value: payout}(\"\") */\n      mload(0x40)\n      tag_72\n      swap1\n      tag_73\n      jump\t// in\n    tag_72:\n      0x00\n      mload(0x40)\n      dup1\n      dup4\n      sub\n      dup2\n      dup6\n      dup8\n      gas\n      call\n      swap3\n      pop\n      pop\n      pop\n      returndatasize\n      dup1\n      0x00\n      dup2\n      eq\n      tag_76\n      jumpi\n      mload(0x40)\n      swap2\n      pop\n      and(add(returndatasize, 0x3f), not(0x1f))\n      dup3\n      add\n      0x40\n      mstore\n      returndatasize\n      dup3\n      mstore\n      returndatasize\n      0x00\n      0x20\n      dup5\n      add\n      returndatacopy\n      jump(tag_75)\n    tag_76:\n      0x60\n      swap2\n      pop\n    tag_75:\n      pop\n        /* \"crowdfund/crowdfund.sol\":3857:3904  (bool ok, ) = c.creator.call{value: payout}(\"\") */\n      pop\n      swap1\n      pop\n        /* \"crowdfund/crowdfund.sol\":3923:3925  ok */\n      dup1\n        /* \"crowdfund/crowdfund.sol\":3915:3949  require(ok, \"ETH transfer failed\") */\n      tag_77\n      jumpi\n      mload(0x40)\n      0x08c379a000000000000000000000000000000000000000000000000000000000\n      dup2\n      mstore\n      0x04\n      add\n      tag_78\n      swap1\n      tag_79\n      jump\t// in\n    tag_78:\n      mload(0x40)\n      dup1\n      swap2\n      sub\n      swap1\n      revert\n    tag_77:\n        /* \"crowdfund/crowdfund.sol\":3994:3995  c */\n      dup4\n        /* \"crowdfund/crowdfund.sol\":3994:4003  c.creator */\n      0x00\n      add\n      0x00\n      swap1\n      sload\n      swap1\n      0x0100\n      exp\n      swap1\n      div\n      0xffffffffffffffffffffffffffffffffffffffff\n      and\n        /* \"crowdfund/crowdfund.sol\":3967:4012  FundsWithdrawn(campaignId, c.creator, payout) */\n      0xffffffffffffffffffffffffffffffffffffffff\n      and\n        /* \"crowdfund/crowdfund.sol\":3982:3992  campaignId */\n      dup7\n        /* \"crowdfund/crowdfund.sol\":3967:4012  FundsWithdrawn(campaignId, c.creator, payout) */\n      0xf440aec6b52895984d061d622e6edeba6210f7c3e059be920663140c084560d7\n        /* \"crowdfund/crowdfund.sol\":4005:4011  payout */\n      dup5\n        /* \"crowdfund/crowdfund.sol\":3967:4012  FundsWithdrawn(campaignId, c.creator, payout) */\n      mload(0x40)\n      tag_80\n      swap2\n      swap1\n      tag_26\n      jump\t// in\n    tag_80:\n      mload(0x40)\n      dup1\n      swap2\n      sub\n      swap1\n      log3\n        /* \"crowdfund/crowdfund.sol\":3531:4020  {... */\n      pop\n      pop\n      pop\n      pop\n        /* \"crowdfund/crowdfund.sol\":3432:4020  function withdrawFunds(uint256 campaignId)... */\n      pop\n      pop\n      jump\t// out\n        /* \"crowdfund/crowdfund.sol\":1935:2407  function createCampaign(uint256 goal, uint256 duration)... */\n    tag_24:\n        /* \"crowdfund/crowdfund.sol\":2027:2045  uint256 campaignId */\n      0x00\n        /* \"crowdfund/crowdfund.sol\":2075:2076  0 */\n      0x00\n        /* \"crowdfund/crowdfund.sol\":2067:2071  goal */\n      dup4\n        /* \"crowdfund/crowdfund.sol\":2067:2076  goal == 0 */\n      sub\n        /* \"crowdfund/crowdfund.sol\":2063:2096  if (goal == 0) revert ZeroValue() */\n      tag_82\n      jumpi\n        /* \"crowdfund/crowdfund.sol\":2085:2096  ZeroValue() */\n      mload(0x40)\n      0x7c946ed700000000000000000000000000000000000000000000000000000000\n      dup2\n      mstore\n      0x04\n      add\n      mload(0x40)\n      dup1\n      swap2\n      sub\n      swap1\n      revert\n        /* \"crowdfund/crowdfund.sol\":2063:2096  if (goal == 0) revert ZeroValue() */\n    tag_82:\n        /* \"crowdfund/crowdfund.sol\":2124:2137  campaignCount */\n      0x00\n      0x00\n        /* \"crowdfund/crowdfund.sol\":2122:2137  ++campaignCount */\n      dup2\n      sload\n      tag_83\n      swap1\n      tag_84\n      jump\t// in\n    tag_83:\n      swap2\n      swap1\n      pop\n      dup2\n      swap1\n      sstore\n        /* \"crowdfund/crowdfund.sol\":2109:2137  campaignId = ++campaignCount */\n      swap1\n      pop\n        /* \"crowdfund/crowdfund.sol\":2150:2168  Campaign storage c */\n      0x00\n        /* \"crowdfund/crowdfund.sol\":2171:2180  campaigns */\n      0x01\n        /* \"crowdfund/crowdfund.sol\":2171:2192  campaigns[campaignId] */\n      0x00\n        /* \"crowdfund/crowdfund.sol\":2181:2191  campaignId */\n      dup4\n        /* \"crowdfund/crowdfund.sol\":2171:2192  campaigns[campaignId] */\n      dup2\n      mstore\n      0x20\n      add\n      swap1\n      dup2\n      mstore\n      0x20\n      add\n      0x00\n      keccak256\n        /* \"crowdfund/crowdfund.sol\":2150:2192  Campaign storage c = campaigns[campaignId] */\n      swap1\n      pop\n        /* \"crowdfund/crowdfund.sol\":2215:2225  msg.sender */\n      caller\n        /* \"crowdfund/crowdfund.sol\":2203:2204  c */\n      dup2\n        /* \"crowdfund/crowdfund.sol\":2203:2212  c.creator */\n      0x00\n      add\n      0x00\n        /* \"crowdfund/crowdfund.sol\":2203:2225  c.creator = msg.sender */\n      0x0100\n      exp\n      dup2\n      sload\n      dup2\n      0xffffffffffffffffffffffffffffffffffffffff\n      mul\n      not\n      and\n      swap1\n      dup4\n      0xffffffffffffffffffffffffffffffffffffffff\n      and\n      mul\n      or\n      swap1\n      sstore\n      pop\n        /* \"crowdfund/crowdfund.sol\":2245:2249  goal */\n      dup4\n        /* \"crowdfund/crowdfund.sol\":2236:2237  c */\n      dup2\n        /* \"crowdfund/crowdfund.sol\":2236:2242  c.goal */\n      0x01\n      add\n        /* \"crowdfund/crowdfund.sol\":2236:2249  c.goal = goal */\n      dup2\n      swap1\n      sstore\n      pop\n        /* \"crowdfund/crowdfund.sol\":2291:2299  duration */\n      dup3\n        /* \"crowdfund/crowdfund.sol\":2273:2288  block.timestamp */\n      timestamp\n        /* \"crowdfund/crowdfund.sol\":2273:2299  block.timestamp + duration */\n      tag_85\n      swap2\n      swap1\n      tag_86\n      jump\t// in\n    tag_85:\n        /* \"crowdfund/crowdfund.sol\":2260:2261  c */\n      dup2\n        /* \"crowdfund/crowdfund.sol\":2260:2270  c.deadline */\n      0x03\n      add\n        /* \"crowdfund/crowdfund.sol\":2260:2299  c.deadline = block.timestamp + duration */\n      dup2\n      swap1\n      sstore\n      pop\n        /* \"crowdfund/crowdfund.sol\":2321:2342  CampaignStatus.ACTIVE */\n      0x00\n        /* \"crowdfund/crowdfund.sol\":2310:2311  c */\n      dup2\n        /* \"crowdfund/crowdfund.sol\":2310:2318  c.status */\n      0x04\n      add\n      0x00\n        /* \"crowdfund/crowdfund.sol\":2310:2342  c.status = CampaignStatus.ACTIVE */\n      0x0100\n      exp\n      dup2\n      sload\n      dup2\n      0xff\n      mul\n      not\n      and\n      swap1\n      dup4\n      0x02\n      dup2\n      gt\n      iszero\n      tag_87\n      jumpi\n      tag_88\n      tag_62\n      jump\t// in\n    tag_88:\n    tag_87:\n      mul\n      or\n      swap1\n      sstore\n      pop\n        /* \"crowdfund/crowdfund.sol\":2388:2398  msg.sender */\n      caller\n        /* \"crowdfund/crowdfund.sol\":2360:2399  CampaignCreated(campaignId, msg.sender) */\n      0xffffffffffffffffffffffffffffffffffffffff\n      and\n        /* \"crowdfund/crowdfund.sol\":2376:2386  campaignId */\n      dup3\n        /* \"crowdfund/crowdfund.sol\":2360:2399  CampaignCreated(campaignId, msg.sender) */\n      0x633109eec20320eded000fc1e2634211aa7e92ba3f5b15faf6dcdafca05094e4\n      mload(0x40)\n      mload(0x40)\n      dup1\n      swap2\n      sub\n      swap1\n      log3\n        /* \"crowdfund/crowdfund.sol\":2052:2407  {... */\n      pop\n        /* \"crowdfund/crowdfund.sol\":1935:2407  function createCampaign(uint256 goal, uint256 duration)... */\n      swap3\n      swap2\n      pop\n      pop\n      jump\t// out\n        /* \"crowdfund/crowdfund.sol\":2930:3419  function resolveCampaign(uint256 campaignId)... */\n    tag_30:\n        /* \"crowdfund/crowdfund.sol\":3014:3024  campaignId */\n      dup1\n        /* \"crowdfund/crowdfund.sol\":1566:1575  campaigns */\n      0x01\n        /* \"crowdfund/crowdfund.sol\":1566:1587  campaigns[campaignId] */\n      0x00\n        /* \"crowdfund/crowdfund.sol\":1576:1586  campaignId */\n      dup3\n        /* \"crowdfund/crowdfund.sol\":1566:1587  campaigns[campaignId] */\n      dup2\n      mstore\n      0x20\n      add\n      swap1\n      dup2\n      mstore\n      0x20\n      add\n      0x00\n      keccak256\n        /* \"crowdfund/crowdfund.sol\":1566:1595  campaigns[campaignId].creator */\n      0x00\n      add\n      0x00\n      swap1\n      sload\n      swap1\n      0x0100\n      exp\n      swap1\n      div\n      0xffffffffffffffffffffffffffffffffffffffff\n      and\n        /* \"crowdfund/crowdfund.sol\":1552:1595  msg.sender != campaigns[campaignId].creator */\n      0xffffffffffffffffffffffffffffffffffffffff\n      and\n        /* \"crowdfund/crowdfund.sol\":1552:1562  msg.sender */\n      caller\n        /* \"crowdfund/crowdfund.sol\":1552:1595  msg.sender != campaigns[campaignId].creator */\n      0xffffffffffffffffffffffffffffffffffffffff\n      and\n      eq\n        /* \"crowdfund/crowdfund.sol\":1548:1616  if (msg.sender != campaigns[campaignId].creator) revert NotCreator() */\n      tag_90\n      jumpi\n        /* \"crowdfund/crowdfund.sol\":1604:1616  NotCreator() */\n      mload(0x40)\n      0x93687c0b00000000000000000000000000000000000000000000000000000000\n      dup2\n      mstore\n      0x04\n      add\n      mload(0x40)\n      dup1\n      swap2\n      sub\n      swap1\n      revert\n        /* \"crowdfund/crowdfund.sol\":1548:1616  if (msg.sender != campaigns[campaignId].creator) revert NotCreator() */\n    tag_90:\n        /* \"crowdfund/crowdfund.sol\":3050:3060  campaignId */\n      dup2\n        /* \"crowdfund/crowdfund.sol\":1735:1756  CampaignStatus.ACTIVE */\n      0x00\n        /* \"crowdfund/crowdfund.sol\":1703:1756  campaigns[campaignId].status != CampaignStatus.ACTIVE */\n      0x02\n      dup2\n      gt\n      iszero\n      tag_92\n      jumpi\n      tag_93\n      tag_62\n      jump\t// in\n    tag_93:\n    tag_92:\n        /* \"crowdfund/crowdfund.sol\":1703:1712  campaigns */\n      0x01\n        /* \"crowdfund/crowdfund.sol\":1703:1724  campaigns[campaignId] */\n      0x00\n        /* \"crowdfund/crowdfund.sol\":1713:1723  campaignId */\n      dup4\n        /* \"crowdfund/crowdfund.sol\":1703:1724  campaigns[campaignId] */\n      dup2\n      mstore\n      0x20\n      add\n      swap1\n      dup2\n      mstore\n      0x20\n      add\n      0x00\n      keccak256\n        /* \"crowdfund/crowdfund.sol\":1703:1731  campaigns[campaignId].status */\n      0x04\n      add\n      0x00\n      swap1\n      sload\n      swap1\n      0x0100\n      exp\n      swap1\n      div\n      0xff\n      and\n        /* \"crowdfund/crowdfund.sol\":1703:1756  campaigns[campaignId].status != CampaignStatus.ACTIVE */\n      0x02\n      dup2\n      gt\n      iszero\n      tag_94\n      jumpi\n      tag_95\n      tag_62\n      jump\t// in\n    tag_95:\n    tag_94:\n      eq\n        /* \"crowdfund/crowdfund.sol\":1699:1797  if (campaigns[campaignId].status != CampaignStatus.ACTIVE)... */\n      tag_96\n      jumpi\n        /* \"crowdfund/crowdfund.sol\":1778:1797  CampaignNotActive() */\n      mload(0x40)\n      0x433528b600000000000000000000000000000000000000000000000000000000\n      dup2\n      mstore\n      0x04\n      add\n      mload(0x40)\n      dup1\n      swap2\n      sub\n      swap1\n      revert\n        /* \"crowdfund/crowdfund.sol\":1699:1797  if (campaigns[campaignId].status != CampaignStatus.ACTIVE)... */\n    tag_96:\n        /* \"crowdfund/crowdfund.sol\":3078:3096  Campaign storage c */\n      0x00\n        /* \"crowdfund/crowdfund.sol\":3099:3108  campaigns */\n      0x01\n        /* \"crowdfund/crowdfund.sol\":3099:3120  campaigns[campaignId] */\n      0x00\n        /* \"crowdfund/crowdfund.sol\":3109:3119  campaignId */\n      dup6\n        /* \"crowdfund/crowdfund.sol\":3099:3120  campaigns[campaignId] */\n      dup2\n      mstore\n      0x20\n      add\n      swap1\n      dup2\n      mstore\n      0x20\n      add\n      0x00\n      keccak256\n        /* \"crowdfund/crowdfund.sol\":3078:3120  Campaign storage c = campaigns[campaignId] */\n      swap1\n      pop\n        /* \"crowdfund/crowdfund.sol\":3155:3156  c */\n      dup1\n        /* \"crowdfund/crowdfund.sol\":3155:3165  c.deadline */\n      0x03\n      add\n      sload\n        /* \"crowdfund/crowdfund.sol\":3137:3152  block.timestamp */\n      timestamp\n        /* \"crowdfund/crowdfund.sol\":3137:3165  block.timestamp < c.deadline */\n      lt\n        /* \"crowdfund/crowdfund.sol\":3133:3194  if (block.timestamp < c.deadline) revert DeadlineNotReached() */\n      iszero\n      tag_98\n      jumpi\n        /* \"crowdfund/crowdfund.sol\":3174:3194  DeadlineNotReached() */\n      mload(0x40)\n      0x66ec4ee600000000000000000000000000000000000000000000000000000000\n      dup2\n      mstore\n      0x04\n      add\n      mload(0x40)\n      dup1\n      swap2\n      sub\n      swap1\n      revert\n        /* \"crowdfund/crowdfund.sol\":3133:3194  if (block.timestamp < c.deadline) revert DeadlineNotReached() */\n    tag_98:\n        /* \"crowdfund/crowdfund.sol\":3223:3224  c */\n      dup1\n        /* \"crowdfund/crowdfund.sol\":3223:3229  c.goal */\n      0x01\n      add\n      sload\n        /* \"crowdfund/crowdfund.sol\":3211:3212  c */\n      dup2\n        /* \"crowdfund/crowdfund.sol\":3211:3219  c.raised */\n      0x02\n      add\n      sload\n        /* \"crowdfund/crowdfund.sol\":3211:3229  c.raised >= c.goal */\n      lt\n        /* \"crowdfund/crowdfund.sol\":3207:3356  if (c.raised >= c.goal) {... */\n      tag_99\n      jumpi\n        /* \"crowdfund/crowdfund.sol\":3257:3279  CampaignStatus.SUCCESS */\n      0x01\n        /* \"crowdfund/crowdfund.sol\":3246:3247  c */\n      dup2\n        /* \"crowdfund/crowdfund.sol\":3246:3254  c.status */\n      0x04\n      add\n      0x00\n        /* \"crowdfund/crowdfund.sol\":3246:3279  c.status = CampaignStatus.SUCCESS */\n      0x0100\n      exp\n      dup2\n      sload\n      dup2\n      0xff\n      mul\n      not\n      and\n      swap1\n      dup4\n      0x02\n      dup2\n      gt\n      iszero\n      tag_100\n      jumpi\n      tag_101\n      tag_62\n      jump\t// in\n    tag_101:\n    tag_100:\n      mul\n      or\n      swap1\n      sstore\n      pop\n        /* \"crowdfund/crowdfund.sol\":3207:3356  if (c.raised >= c.goal) {... */\n      jump(tag_102)\n    tag_99:\n        /* \"crowdfund/crowdfund.sol\":3323:3344  CampaignStatus.FAILED */\n      0x02\n        /* \"crowdfund/crowdfund.sol\":3312:3313  c */\n      dup2\n        /* \"crowdfund/crowdfund.sol\":3312:3320  c.status */\n      0x04\n      add\n      0x00\n        /* \"crowdfund/crowdfund.sol\":3312:3344  c.status = CampaignStatus.FAILED */\n      0x0100\n      exp\n      dup2\n      sload\n      dup2\n      0xff\n      mul\n      not\n      and\n      swap1\n      dup4\n      0x02\n      dup2\n      gt\n      iszero\n      tag_103\n      jumpi\n      tag_104\n      tag_62\n      jump\t// in\n    tag_104:\n    tag_103:\n      mul\n      or\n      swap1\n      sstore\n      pop\n        /* \"crowdfund/crowdfund.sol\":3207:3356  if (c.raised >= c.goal) {... */\n    tag_102:\n        /* \"crowdfund/crowdfund.sol\":3390:3400  campaignId */\n      dup4\n        /* \"crowdfund/crowdfund.sol\":3373:3411  CampaignResolved(campaignId, c.status) */\n      0x715224f5b965221887e084e1cdffe100bf184993e777d3b6d52abf8827623986\n        /* \"crowdfund/crowdfund.sol\":3402:3403  c */\n      dup3\n        /* \"crowdfund/crowdfund.sol\":3402:3410  c.status */\n      0x04\n      add\n      0x00\n      swap1\n      sload\n      swap1\n      0x0100\n      exp\n      swap1\n      div\n      0xff\n      and\n        /* \"crowdfund/crowdfund.sol\":3373:3411  CampaignResolved(campaignId, c.status) */\n      mload(0x40)\n      tag_105\n      swap2\n      swap1\n      tag_106\n      jump\t// in\n    tag_105:\n      mload(0x40)\n      dup1\n      swap2\n      sub\n      swap1\n      log2\n        /* \"crowdfund/crowdfund.sol\":3067:3419  {... */\n      pop\n        /* \"crowdfund/crowdfund.sol\":1627:1628  _ */\n      pop\n        /* \"crowdfund/crowdfund.sol\":2930:3419  function resolveCampaign(uint256 campaignId)... */\n      pop\n      pop\n      jump\t// out\n        /* \"crowdfund/crowdfund.sol\":104:150  uint256 public constant PLATFORM_FEE_BPS = 200 */\n    tag_33:\n        /* \"crowdfund/crowdfund.sol\":147:150  200 */\n      0xc8\n        /* \"crowdfund/crowdfund.sol\":104:150  uint256 public constant PLATFORM_FEE_BPS = 200 */\n      dup2\n      jump\t// out\n        /* \"crowdfund/crowdfund.sol\":4569:4959  function getCampaign(uint256 campaignId)... */\n    tag_38:\n        /* \"crowdfund/crowdfund.sol\":4674:4689  address creator */\n      0x00\n        /* \"crowdfund/crowdfund.sol\":4704:4716  uint256 goal */\n      0x00\n        /* \"crowdfund/crowdfund.sol\":4731:4745  uint256 raised */\n      0x00\n        /* \"crowdfund/crowdfund.sol\":4760:4776  uint256 deadline */\n      0x00\n        /* \"crowdfund/crowdfund.sol\":4791:4812  CampaignStatus status */\n      0x00\n        /* \"crowdfund/crowdfund.sol\":4840:4858  Campaign storage c */\n      0x00\n        /* \"crowdfund/crowdfund.sol\":4861:4870  campaigns */\n      0x01\n        /* \"crowdfund/crowdfund.sol\":4861:4882  campaigns[campaignId] */\n      0x00\n        /* \"crowdfund/crowdfund.sol\":4871:4881  campaignId */\n      dup9\n        /* \"crowdfund/crowdfund.sol\":4861:4882  campaigns[campaignId] */\n      dup2\n      mstore\n      0x20\n      add\n      swap1\n      dup2\n      mstore\n      0x20\n      add\n      0x00\n      keccak256\n        /* \"crowdfund/crowdfund.sol\":4840:4882  Campaign storage c = campaigns[campaignId] */\n      swap1\n      pop\n        /* \"crowdfund/crowdfund.sol\":4901:4902  c */\n      dup1\n        /* \"crowdfund/crowdfund.sol\":4901:4910  c.creator */\n      0x00\n      add\n      0x00\n      swap1\n      sload\n      swap1\n      0x0100\n      exp\n      swap1\n      div\n      0xffffffffffffffffffffffffffffffffffffffff\n      and\n        /* \"crowdfund/crowdfund.sol\":4912:4913  c */\n      dup2\n        /* \"crowdfund/crowdfund.sol\":4912:4918  c.goal */\n      0x01\n      add\n      sload\n        /* \"crowdfund/crowdfund.sol\":4920:4921  c */\n      dup3\n        /* \"crowdfund/crowdfund.sol\":4920:4928  c.raised */\n      0x02\n      add\n      sload\n        /* \"crowdfund/crowdfund.sol\":4930:4931  c */\n      dup4\n        /* \"crowdfund/crowdfund.sol\":4930:4940  c.deadline */\n      0x03\n      add\n      sload\n        /* \"crowdfund/crowdfund.sol\":4942:4943  c */\n      dup5\n        /* \"crowdfund/crowdfund.sol\":4942:4950  c.status */\n      0x04\n      add\n      0x00\n      swap1\n      sload\n      swap1\n      0x0100\n      exp\n      swap1\n      div\n      0xff\n      and\n        /* \"crowdfund/crowdfund.sol\":4893:4951  return (c.creator, c.goal, c.raised, c.deadline, c.status) */\n      swap6\n      pop\n      swap6\n      pop\n      swap6\n      pop\n      swap6\n      pop\n      swap6\n      pop\n      pop\n        /* \"crowdfund/crowdfund.sol\":4569:4959  function getCampaign(uint256 campaignId)... */\n      swap2\n      swap4\n      swap6\n      swap1\n      swap3\n      swap5\n      pop\n      jump\t// out\n        /* \"crowdfund/crowdfund.sol\":4030:4561  function claimRefund(uint256 campaignId) external {... */\n    tag_44:\n        /* \"crowdfund/crowdfund.sol\":4091:4109  Campaign storage c */\n      0x00\n        /* \"crowdfund/crowdfund.sol\":4112:4121  campaigns */\n      0x01\n        /* \"crowdfund/crowdfund.sol\":4112:4133  campaigns[campaignId] */\n      0x00\n        /* \"crowdfund/crowdfund.sol\":4122:4132  campaignId */\n      dup4\n        /* \"crowdfund/crowdfund.sol\":4112:4133  campaigns[campaignId] */\n      dup2\n      mstore\n      0x20\n      add\n      swap1\n      dup2\n      mstore\n      0x20\n      add\n      0x00\n      keccak256\n        /* \"crowdfund/crowdfund.sol\":4091:4133  Campaign storage c = campaigns[campaignId] */\n      swap1\n      pop\n        /* \"crowdfund/crowdfund.sol\":4162:4183  CampaignStatus.FAILED */\n      0x02\n        /* \"crowdfund/crowdfund.sol\":4150:4183  c.status != CampaignStatus.FAILED */\n      dup1\n      dup2\n      gt\n      iszero\n      tag_109\n      jumpi\n      tag_110\n      tag_62\n      jump\t// in\n    tag_110:\n    tag_109:\n        /* \"crowdfund/crowdfund.sol\":4150:4151  c */\n      dup2\n        /* \"crowdfund/crowdfund.sol\":4150:4158  c.status */\n      0x04\n      add\n      0x00\n      swap1\n      sload\n      swap1\n      0x0100\n      exp\n      swap1\n      div\n      0xff\n      and\n        /* \"crowdfund/crowdfund.sol\":4150:4183  c.status != CampaignStatus.FAILED */\n      0x02\n      dup2\n      gt\n      iszero\n      tag_111\n      jumpi\n      tag_112\n      tag_62\n      jump\t// in\n    tag_112:\n    tag_111:\n      eq\n        /* \"crowdfund/crowdfund.sol\":4146:4224  if (c.status != CampaignStatus.FAILED)... */\n      tag_113\n      jumpi\n        /* \"crowdfund/crowdfund.sol\":4205:4224  CampaignNotFailed() */\n      mload(0x40)\n      0x0eeb982f00000000000000000000000000000000000000000000000000000000\n      dup2\n      mstore\n      0x04\n      add\n      mload(0x40)\n      dup1\n      swap2\n      sub\n      swap1\n      revert\n        /* \"crowdfund/crowdfund.sol\":4146:4224  if (c.status != CampaignStatus.FAILED)... */\n    tag_113:\n        /* \"crowdfund/crowdfund.sol\":4237:4251  uint256 amount */\n      0x00\n        /* \"crowdfund/crowdfund.sol\":4254:4267  contributions */\n      0x02\n        /* \"crowdfund/crowdfund.sol\":4254:4279  contributions[campaignId] */\n      0x00\n        /* \"crowdfund/crowdfund.sol\":4268:4278  campaignId */\n      dup5\n        /* \"crowdfund/crowdfund.sol\":4254:4279  contributions[campaignId] */\n      dup2\n      mstore\n      0x20\n      add\n      swap1\n      dup2\n      mstore\n      0x20\n      add\n      0x00\n      keccak256\n        /* \"crowdfund/crowdfund.sol\":4254:4291  contributions[campaignId][msg.sender] */\n      0x00\n        /* \"crowdfund/crowdfund.sol\":4280:4290  msg.sender */\n      caller\n        /* \"crowdfund/crowdfund.sol\":4254:4291  contributions[campaignId][msg.sender] */\n      0xffffffffffffffffffffffffffffffffffffffff\n      and\n      0xffffffffffffffffffffffffffffffffffffffff\n      and\n      dup2\n      mstore\n      0x20\n      add\n      swap1\n      dup2\n      mstore\n      0x20\n      add\n      0x00\n      keccak256\n      sload\n        /* \"crowdfund/crowdfund.sol\":4237:4291  uint256 amount = contributions[campaignId][msg.sender] */\n      swap1\n      pop\n        /* \"crowdfund/crowdfund.sol\":4316:4317  0 */\n      0x00\n        /* \"crowdfund/crowdfund.sol\":4306:4312  amount */\n      dup2\n        /* \"crowdfund/crowdfund.sol\":4306:4317  amount == 0 */\n      sub\n        /* \"crowdfund/crowdfund.sol\":4302:4337  if (amount == 0) revert ZeroValue() */\n      tag_114\n      jumpi\n        /* \"crowdfund/crowdfund.sol\":4326:4337  ZeroValue() */\n      mload(0x40)\n      0x7c946ed700000000000000000000000000000000000000000000000000000000\n      dup2\n      mstore\n      0x04\n      add\n      mload(0x40)\n      dup1\n      swap2\n      sub\n      swap1\n      revert\n        /* \"crowdfund/crowdfund.sol\":4302:4337  if (amount == 0) revert ZeroValue() */\n    tag_114:\n        /* \"crowdfund/crowdfund.sol\":4390:4391  0 */\n      0x00\n        /* \"crowdfund/crowdfund.sol\":4350:4363  contributions */\n      0x02\n        /* \"crowdfund/crowdfund.sol\":4350:4375  contributions[campaignId] */\n      0x00\n        /* \"crowdfund/crowdfund.sol\":4364:4374  campaignId */\n      dup6\n        /* \"crowdfund/crowdfund.sol\":4350:4375  contributions[campaignId] */\n      dup2\n      mstore\n      0x20\n      add\n      swap1\n      dup2\n      mstore\n      0x20\n      add\n      0x00\n      keccak256\n        /* \"crowdfund/crowdfund.sol\":4350:4387  contributions[campaignId][msg.sender] */\n      0x00\n        /* \"crowdfund/crowdfund.sol\":4376:4386  msg.sender */\n      caller\n        /* \"crowdfund/crowdfund.sol\":4350:4387  contributions[campaignId][msg.sender] */\n      0xffffffffffffffffffffffffffffffffffffffff\n      and\n      0xffffffffffffffffffffffffffffffffffffffff\n      and\n      dup2\n      mstore\n      0x20\n      add\n      swap1\n      dup2\n      mstore\n      0x20\n      add\n      0x00\n      keccak256\n        /* \"crowdfund/crowdfund.sol\":4350:4391  contributions[campaignId][msg.sender] = 0 */\n      dup2\n      swap1\n      sstore\n      pop\n        /* \"crowdfund/crowdfund.sol\":4405:4412  bool ok */\n      0x00\n        /* \"crowdfund/crowdfund.sol\":4418:4428  msg.sender */\n      caller\n        /* \"crowdfund/crowdfund.sol\":4418:4433  msg.sender.call */\n      0xffffffffffffffffffffffffffffffffffffffff\n      and\n        /* \"crowdfund/crowdfund.sol\":4441:4447  amount */\n      dup3\n        /* \"crowdfund/crowdfund.sol\":4418:4452  msg.sender.call{value: amount}(\"\") */\n      mload(0x40)\n      tag_115\n      swap1\n      tag_73\n      jump\t// in\n    tag_115:\n      0x00\n      mload(0x40)\n      dup1\n      dup4\n      sub\n      dup2\n      dup6\n      dup8\n      gas\n      call\n      swap3\n      pop\n      pop\n      pop\n      returndatasize\n      dup1\n      0x00\n      dup2\n      eq\n      tag_118\n      jumpi\n      mload(0x40)\n      swap2\n      pop\n      and(add(returndatasize, 0x3f), not(0x1f))\n      dup3\n      add\n      0x40\n      mstore\n      returndatasize\n      dup3\n      mstore\n      returndatasize\n      0x00\n      0x20\n      dup5\n      add\n      returndatacopy\n      jump(tag_117)\n    tag_118:\n      0x60\n      swap2\n      pop\n    tag_117:\n      pop\n        /* \"crowdfund/crowdfund.sol\":4404:4452  (bool ok, ) = msg.sender.call{value: amount}(\"\") */\n      pop\n      swap1\n      pop\n        /* \"crowdfund/crowdfund.sol\":4471:4473  ok */\n      dup1\n        /* \"crowdfund/crowdfund.sol\":4463:4491  require(ok, \"Refund failed\") */\n      tag_119\n      jumpi\n      mload(0x40)\n      0x08c379a000000000000000000000000000000000000000000000000000000000\n      dup2\n      mstore\n      0x04\n      add\n      tag_120\n      swap1\n      tag_121\n      jump\t// in\n    tag_120:\n      mload(0x40)\n      dup1\n      swap2\n      sub\n      swap1\n      revert\n    tag_119:\n        /* \"crowdfund/crowdfund.sol\":4534:4544  msg.sender */\n      caller\n        /* \"crowdfund/crowdfund.sol\":4509:4553  RefundIssued(campaignId, msg.sender, amount) */\n      0xffffffffffffffffffffffffffffffffffffffff\n      and\n        /* \"crowdfund/crowdfund.sol\":4522:4532  campaignId */\n      dup5\n        /* \"crowdfund/crowdfund.sol\":4509:4553  RefundIssued(campaignId, msg.sender, amount) */\n      0x7a482fdeb6bc9a1376f597068a214a7a39472bb2eff1b8cad21ba04f49ddca1b\n        /* \"crowdfund/crowdfund.sol\":4546:4552  amount */\n      dup5\n        /* \"crowdfund/crowdfund.sol\":4509:4553  RefundIssued(campaignId, msg.sender, amount) */\n      mload(0x40)\n      tag_122\n      swap2\n      swap1\n      tag_26\n      jump\t// in\n    tag_122:\n      mload(0x40)\n      dup1\n      swap2\n      sub\n      swap1\n      log3\n        /* \"crowdfund/crowdfund.sol\":4080:4561  {... */\n      pop\n      pop\n      pop\n        /* \"crowdfund/crowdfund.sol\":4030:4561  function claimRefund(uint256 campaignId) external {... */\n      pop\n      jump\t// out\n        /* \"crowdfund/crowdfund.sol\":488:516  uint256 public campaignCount */\n    tag_47:\n      sload(0x00)\n      dup2\n      jump\t// out\n        /* \"crowdfund/crowdfund.sol\":166:196  address public immutable owner */\n    tag_51:\n      immutable(\"0xe455bf8ea6e7463a1046a0b52804526e119b4bf5136279614e0b1e8e296a4e2d\")\n      dup2\n      jump\t// out\n        /* \"crowdfund/crowdfund.sol\":2418:2918  function contribute(uint256 campaignId)external payable    campaignActive(campaignId){... */\n    tag_56:\n        /* \"crowdfund/crowdfund.sol\":2492:2502  campaignId */\n      dup1\n        /* \"crowdfund/crowdfund.sol\":1735:1756  CampaignStatus.ACTIVE */\n      0x00\n        /* \"crowdfund/crowdfund.sol\":1703:1756  campaigns[campaignId].status != CampaignStatus.ACTIVE */\n      0x02\n      dup2\n      gt\n      iszero\n      tag_124\n      jumpi\n      tag_125\n      tag_62\n      jump\t// in\n    tag_125:\n    tag_124:\n        /* \"crowdfund/crowdfund.sol\":1703:1712  campaigns */\n      0x01\n        /* \"crowdfund/crowdfund.sol\":1703:1724  campaigns[campaignId] */\n      0x00\n        /* \"crowdfund/crowdfund.sol\":1713:1723  campaignId */\n      dup4\n        /* \"crowdfund/crowdfund.sol\":1703:1724  campaigns[campaignId] */\n      dup2\n      mstore\n      0x20\n      add\n      swap1\n      dup2\n      mstore\n      0x20\n      add\n      0x00\n      keccak256\n        /* \"crowdfund/crowdfund.sol\":1703:1731  campaigns[campaignId].status */\n      0x04\n      add\n      0x00\n      swap1\n      sload\n      swap1\n      0x0100\n      exp\n      swap1\n      div\n      0xff\n      and\n        /* \"crowdfund/crowdfund.sol\":1703:1756  campaigns[campaignId].status != CampaignStatus.ACTIVE */\n      0x02\n      dup2\n      gt\n      iszero\n      tag_126\n      jumpi\n      tag_127\n      tag_62\n      jump\t// in\n    tag_127:\n    tag_126:\n      eq\n        /* \"crowdfund/crowdfund.sol\":1699:1797  if (campaigns[campaignId].status != CampaignStatus.ACTIVE)... */\n      tag_128\n      jumpi\n        /* \"crowdfund/crowdfund.sol\":1778:1797  CampaignNotActive() */\n      mload(0x40)\n      0x433528b600000000000000000000000000000000000000000000000000000000\n      dup2\n      mstore\n      0x04\n      add\n      mload(0x40)\n      dup1\n      swap2\n      sub\n      swap1\n      revert\n        /* \"crowdfund/crowdfund.sol\":1699:1797  if (campaigns[campaignId].status != CampaignStatus.ACTIVE)... */\n    tag_128:\n        /* \"crowdfund/crowdfund.sol\":2541:2542  0 */\n      0x00\n        /* \"crowdfund/crowdfund.sol\":2528:2537  msg.value */\n      callvalue\n        /* \"crowdfund/crowdfund.sol\":2528:2542  msg.value == 0 */\n      sub\n        /* \"crowdfund/crowdfund.sol\":2524:2562  if (msg.value == 0) revert ZeroValue() */\n      tag_130\n      jumpi\n        /* \"crowdfund/crowdfund.sol\":2551:2562  ZeroValue() */\n      mload(0x40)\n      0x7c946ed700000000000000000000000000000000000000000000000000000000\n      dup2\n      mstore\n      0x04\n      add\n      mload(0x40)\n      dup1\n      swap2\n      sub\n      swap1\n      revert\n        /* \"crowdfund/crowdfund.sol\":2524:2562  if (msg.value == 0) revert ZeroValue() */\n    tag_130:\n        /* \"crowdfund/crowdfund.sol\":2575:2593  Campaign storage c */\n      0x00\n        /* \"crowdfund/crowdfund.sol\":2596:2605  campaigns */\n      0x01\n        /* \"crowdfund/crowdfund.sol\":2596:2617  campaigns[campaignId] */\n      0x00\n        /* \"crowdfund/crowdfund.sol\":2606:2616  campaignId */\n      dup5\n        /* \"crowdfund/crowdfund.sol\":2596:2617  campaigns[campaignId] */\n      dup2\n      mstore\n      0x20\n      add\n      swap1\n      dup2\n      mstore\n      0x20\n      add\n      0x00\n      keccak256\n        /* \"crowdfund/crowdfund.sol\":2575:2617  Campaign storage c = campaigns[campaignId] */\n      swap1\n      pop\n        /* \"crowdfund/crowdfund.sol\":2682:2683  0 */\n      0x00\n        /* \"crowdfund/crowdfund.sol\":2641:2654  contributions */\n      0x02\n        /* \"crowdfund/crowdfund.sol\":2641:2666  contributions[campaignId] */\n      0x00\n        /* \"crowdfund/crowdfund.sol\":2655:2665  campaignId */\n      dup6\n        /* \"crowdfund/crowdfund.sol\":2641:2666  contributions[campaignId] */\n      dup2\n      mstore\n      0x20\n      add\n      swap1\n      dup2\n      mstore\n      0x20\n      add\n      0x00\n      keccak256\n        /* \"crowdfund/crowdfund.sol\":2641:2678  contributions[campaignId][msg.sender] */\n      0x00\n        /* \"crowdfund/crowdfund.sol\":2667:2677  msg.sender */\n      caller\n        /* \"crowdfund/crowdfund.sol\":2641:2678  contributions[campaignId][msg.sender] */\n      0xffffffffffffffffffffffffffffffffffffffff\n      and\n      0xffffffffffffffffffffffffffffffffffffffff\n      and\n      dup2\n      mstore\n      0x20\n      add\n      swap1\n      dup2\n      mstore\n      0x20\n      add\n      0x00\n      keccak256\n      sload\n        /* \"crowdfund/crowdfund.sol\":2641:2683  contributions[campaignId][msg.sender] == 0 */\n      sub\n        /* \"crowdfund/crowdfund.sol\":2637:2743  if (contributions[campaignId][msg.sender] == 0) {... */\n      tag_131\n      jumpi\n        /* \"crowdfund/crowdfund.sol\":2700:2701  c */\n      dup1\n        /* \"crowdfund/crowdfund.sol\":2700:2714  c.contributors */\n      0x05\n      add\n        /* \"crowdfund/crowdfund.sol\":2720:2730  msg.sender */\n      caller\n        /* \"crowdfund/crowdfund.sol\":2700:2731  c.contributors.push(msg.sender) */\n      swap1\n      dup1\n      0x01\n      dup2\n      sload\n      add\n      dup1\n      dup3\n      sstore\n      dup1\n      swap2\n      pop\n      pop\n      0x01\n      swap1\n      sub\n      swap1\n      0x00\n      mstore\n      keccak256(0x00, 0x20)\n      add\n      0x00\n      swap1\n      swap2\n      swap1\n      swap2\n      swap1\n      swap2\n      0x0100\n      exp\n      dup2\n      sload\n      dup2\n      0xffffffffffffffffffffffffffffffffffffffff\n      mul\n      not\n      and\n      swap1\n      dup4\n      0xffffffffffffffffffffffffffffffffffffffff\n      and\n      mul\n      or\n      swap1\n      sstore\n      pop\n        /* \"crowdfund/crowdfund.sol\":2637:2743  if (contributions[campaignId][msg.sender] == 0) {... */\n    tag_131:\n        /* \"crowdfund/crowdfund.sol\":2796:2805  msg.value */\n      callvalue\n        /* \"crowdfund/crowdfund.sol\":2755:2768  contributions */\n      0x02\n        /* \"crowdfund/crowdfund.sol\":2755:2780  contributions[campaignId] */\n      0x00\n        /* \"crowdfund/crowdfund.sol\":2769:2779  campaignId */\n      dup6\n        /* \"crowdfund/crowdfund.sol\":2755:2780  contributions[campaignId] */\n      dup2\n      mstore\n      0x20\n      add\n      swap1\n      dup2\n      mstore\n      0x20\n      add\n      0x00\n      keccak256\n        /* \"crowdfund/crowdfund.sol\":2755:2792  contributions[campaignId][msg.sender] */\n      0x00\n        /* \"crowdfund/crowdfund.sol\":2781:2791  msg.sender */\n      caller\n        /* \"crowdfund/crowdfund.sol\":2755:2792  contributions[campaignId][msg.sender] */\n      0xffffffffffffffffffffffffffffffffffffffff\n      and\n      0xffffffffffffffffffffffffffffffffffffffff\n      and\n      dup2\n      mstore\n      0x20\n      add\n      swap1\n      dup2\n      mstore\n      0x20\n      add\n      0x00\n      keccak256\n      0x00\n        /* \"crowdfund/crowdfund.sol\":2755:2805  contributions[campaignId][msg.sender] += msg.value */\n      dup3\n      dup3\n      sload\n      tag_133\n      swap2\n      swap1\n      tag_86\n      jump\t// in\n    tag_133:\n      swap3\n      pop\n      pop\n      dup2\n      swap1\n      sstore\n      pop\n        /* \"crowdfund/crowdfund.sol\":2828:2837  msg.value */\n      callvalue\n        /* \"crowdfund/crowdfund.sol\":2816:2817  c */\n      dup2\n        /* \"crowdfund/crowdfund.sol\":2816:2824  c.raised */\n      0x02\n      add\n      0x00\n        /* \"crowdfund/crowdfund.sol\":2816:2837  c.raised += msg.value */\n      dup3\n      dup3\n      sload\n      tag_134\n      swap2\n      swap1\n      tag_86\n      jump\t// in\n    tag_134:\n      swap3\n      pop\n      pop\n      dup2\n      swap1\n      sstore\n      pop\n        /* \"crowdfund/crowdfund.sol\":2888:2898  msg.sender */\n      caller\n        /* \"crowdfund/crowdfund.sol\":2855:2910  ContributionReceived(campaignId, msg.sender, msg.value) */\n      0xffffffffffffffffffffffffffffffffffffffff\n      and\n        /* \"crowdfund/crowdfund.sol\":2876:2886  campaignId */\n      dup4\n        /* \"crowdfund/crowdfund.sol\":2855:2910  ContributionReceived(campaignId, msg.sender, msg.value) */\n      0x865c884d49c8cecaef108efb20f7d282f26c0f9b0d24dd48e5592d4e02ec658d\n        /* \"crowdfund/crowdfund.sol\":2900:2909  msg.value */\n      callvalue\n        /* \"crowdfund/crowdfund.sol\":2855:2910  ContributionReceived(campaignId, msg.sender, msg.value) */\n      mload(0x40)\n      tag_135\n      swap2\n      swap1\n      tag_26\n      jump\t// in\n    tag_135:\n      mload(0x40)\n      dup1\n      swap2\n      sub\n      swap1\n      log3\n        /* \"crowdfund/crowdfund.sol\":2503:2918  {... */\n      pop\n        /* \"crowdfund/crowdfund.sol\":2418:2918  function contribute(uint256 campaignId)external payable    campaignActive(campaignId){... */\n      pop\n      pop\n      jump\t// out\n        /* \"#utility.yul\":88:205   */\n    tag_137:\n        /* \"#utility.yul\":197:198   */\n      0x00\n        /* \"#utility.yul\":194:195   */\n      0x00\n        /* \"#utility.yul\":187:199   */\n      revert\n        /* \"#utility.yul\":334:411   */\n    tag_139:\n        /* \"#utility.yul\":371:378   */\n      0x00\n        /* \"#utility.yul\":400:405   */\n      dup2\n        /* \"#utility.yul\":389:405   */\n      swap1\n      pop\n        /* \"#utility.yul\":334:411   */\n      swap2\n      swap1\n      pop\n      jump\t// out\n        /* \"#utility.yul\":417:539   */\n    tag_140:\n        /* \"#utility.yul\":490:514   */\n      tag_166\n        /* \"#utility.yul\":508:513   */\n      dup2\n        /* \"#utility.yul\":490:514   */\n      tag_139\n      jump\t// in\n    tag_166:\n        /* \"#utility.yul\":483:488   */\n      dup2\n        /* \"#utility.yul\":480:515   */\n      eq\n        /* \"#utility.yul\":470:533   */\n      tag_167\n      jumpi\n        /* \"#utility.yul\":529:530   */\n      0x00\n        /* \"#utility.yul\":526:527   */\n      0x00\n        /* \"#utility.yul\":519:531   */\n      revert\n        /* \"#utility.yul\":470:533   */\n    tag_167:\n        /* \"#utility.yul\":417:539   */\n      pop\n      jump\t// out\n        /* \"#utility.yul\":545:684   */\n    tag_141:\n        /* \"#utility.yul\":591:596   */\n      0x00\n        /* \"#utility.yul\":629:635   */\n      dup2\n        /* \"#utility.yul\":616:636   */\n      calldataload\n        /* \"#utility.yul\":607:636   */\n      swap1\n      pop\n        /* \"#utility.yul\":645:678   */\n      tag_169\n        /* \"#utility.yul\":672:677   */\n      dup2\n        /* \"#utility.yul\":645:678   */\n      tag_140\n      jump\t// in\n    tag_169:\n        /* \"#utility.yul\":545:684   */\n      swap3\n      swap2\n      pop\n      pop\n      jump\t// out\n        /* \"#utility.yul\":690:1019   */\n    tag_18:\n        /* \"#utility.yul\":749:755   */\n      0x00\n        /* \"#utility.yul\":798:800   */\n      0x20\n        /* \"#utility.yul\":786:795   */\n      dup3\n        /* \"#utility.yul\":777:784   */\n      dup5\n        /* \"#utility.yul\":773:796   */\n      sub\n        /* \"#utility.yul\":769:801   */\n      slt\n        /* \"#utility.yul\":766:885   */\n      iszero\n      tag_171\n      jumpi\n        /* \"#utility.yul\":804:883   */\n      tag_172\n      tag_137\n      jump\t// in\n    tag_172:\n        /* \"#utility.yul\":766:885   */\n    tag_171:\n        /* \"#utility.yul\":924:925   */\n      0x00\n        /* \"#utility.yul\":949:1002   */\n      tag_173\n        /* \"#utility.yul\":994:1001   */\n      dup5\n        /* \"#utility.yul\":985:991   */\n      dup3\n        /* \"#utility.yul\":974:983   */\n      dup6\n        /* \"#utility.yul\":970:992   */\n      add\n        /* \"#utility.yul\":949:1002   */\n      tag_141\n      jump\t// in\n    tag_173:\n        /* \"#utility.yul\":939:1002   */\n      swap2\n      pop\n        /* \"#utility.yul\":895:1012   */\n      pop\n        /* \"#utility.yul\":690:1019   */\n      swap3\n      swap2\n      pop\n      pop\n      jump\t// out\n        /* \"#utility.yul\":1025:1499   */\n    tag_23:\n        /* \"#utility.yul\":1093:1099   */\n      0x00\n        /* \"#utility.yul\":1101:1107   */\n      0x00\n        /* \"#utility.yul\":1150:1152   */\n      0x40\n        /* \"#utility.yul\":1138:1147   */\n      dup4\n        /* \"#utility.yul\":1129:1136   */\n      dup6\n        /* \"#utility.yul\":1125:1148   */\n      sub\n        /* \"#utility.yul\":1121:1153   */\n      slt\n        /* \"#utility.yul\":1118:1237   */\n      iszero\n      tag_175\n      jumpi\n        /* \"#utility.yul\":1156:1235   */\n      tag_176\n      tag_137\n      jump\t// in\n    tag_176:\n        /* \"#utility.yul\":1118:1237   */\n    tag_175:\n        /* \"#utility.yul\":1276:1277   */\n      0x00\n        /* \"#utility.yul\":1301:1354   */\n      tag_177\n        /* \"#utility.yul\":1346:1353   */\n      dup6\n        /* \"#utility.yul\":1337:1343   */\n      dup3\n        /* \"#utility.yul\":1326:1335   */\n      dup7\n        /* \"#utility.yul\":1322:1344   */\n      add\n        /* \"#utility.yul\":1301:1354   */\n      tag_141\n      jump\t// in\n    tag_177:\n        /* \"#utility.yul\":1291:1354   */\n      swap3\n      pop\n        /* \"#utility.yul\":1247:1364   */\n      pop\n        /* \"#utility.yul\":1403:1405   */\n      0x20\n        /* \"#utility.yul\":1429:1482   */\n      tag_178\n        /* \"#utility.yul\":1474:1481   */\n      dup6\n        /* \"#utility.yul\":1465:1471   */\n      dup3\n        /* \"#utility.yul\":1454:1463   */\n      dup7\n        /* \"#utility.yul\":1450:1472   */\n      add\n        /* \"#utility.yul\":1429:1482   */\n      tag_141\n      jump\t// in\n    tag_178:\n        /* \"#utility.yul\":1419:1482   */\n      swap2\n      pop\n        /* \"#utility.yul\":1374:1492   */\n      pop\n        /* \"#utility.yul\":1025:1499   */\n      swap3\n      pop\n      swap3\n      swap1\n      pop\n      jump\t// out\n        /* \"#utility.yul\":1505:1623   */\n    tag_142:\n        /* \"#utility.yul\":1592:1616   */\n      tag_180\n        /* \"#utility.yul\":1610:1615   */\n      dup2\n        /* \"#utility.yul\":1592:1616   */\n      tag_139\n      jump\t// in\n    tag_180:\n        /* \"#utility.yul\":1587:1590   */\n      dup3\n        /* \"#utility.yul\":1580:1617   */\n      mstore\n        /* \"#utility.yul\":1505:1623   */\n      pop\n      pop\n      jump\t// out\n        /* \"#utility.yul\":1629:1851   */\n    tag_26:\n        /* \"#utility.yul\":1722:1726   */\n      0x00\n        /* \"#utility.yul\":1760:1762   */\n      0x20\n        /* \"#utility.yul\":1749:1758   */\n      dup3\n        /* \"#utility.yul\":1745:1763   */\n      add\n        /* \"#utility.yul\":1737:1763   */\n      swap1\n      pop\n        /* \"#utility.yul\":1773:1844   */\n      tag_182\n        /* \"#utility.yul\":1841:1842   */\n      0x00\n        /* \"#utility.yul\":1830:1839   */\n      dup4\n        /* \"#utility.yul\":1826:1843   */\n      add\n        /* \"#utility.yul\":1817:1823   */\n      dup5\n        /* \"#utility.yul\":1773:1844   */\n      tag_142\n      jump\t// in\n    tag_182:\n        /* \"#utility.yul\":1629:1851   */\n      swap3\n      swap2\n      pop\n      pop\n      jump\t// out\n        /* \"#utility.yul\":1857:1983   */\n    tag_143:\n        /* \"#utility.yul\":1894:1901   */\n      0x00\n        /* \"#utility.yul\":1934:1976   */\n      0xffffffffffffffffffffffffffffffffffffffff\n        /* \"#utility.yul\":1927:1932   */\n      dup3\n        /* \"#utility.yul\":1923:1977   */\n      and\n        /* \"#utility.yul\":1912:1977   */\n      swap1\n      pop\n        /* \"#utility.yul\":1857:1983   */\n      swap2\n      swap1\n      pop\n      jump\t// out\n        /* \"#utility.yul\":1989:2085   */\n    tag_144:\n        /* \"#utility.yul\":2026:2033   */\n      0x00\n        /* \"#utility.yul\":2055:2079   */\n      tag_185\n        /* \"#utility.yul\":2073:2078   */\n      dup3\n        /* \"#utility.yul\":2055:2079   */\n      tag_143\n      jump\t// in\n    tag_185:\n        /* \"#utility.yul\":2044:2079   */\n      swap1\n      pop\n        /* \"#utility.yul\":1989:2085   */\n      swap2\n      swap1\n      pop\n      jump\t// out\n        /* \"#utility.yul\":2091:2209   */\n    tag_145:\n        /* \"#utility.yul\":2178:2202   */\n      tag_187\n        /* \"#utility.yul\":2196:2201   */\n      dup2\n        /* \"#utility.yul\":2178:2202   */\n      tag_144\n      jump\t// in\n    tag_187:\n        /* \"#utility.yul\":2173:2176   */\n      dup3\n        /* \"#utility.yul\":2166:2203   */\n      mstore\n        /* \"#utility.yul\":2091:2209   */\n      pop\n      pop\n      jump\t// out\n        /* \"#utility.yul\":2215:2395   */\n    tag_62:\n        /* \"#utility.yul\":2263:2340   */\n      0x4e487b7100000000000000000000000000000000000000000000000000000000\n        /* \"#utility.yul\":2260:2261   */\n      0x00\n        /* \"#utility.yul\":2253:2341   */\n      mstore\n        /* \"#utility.yul\":2360:2364   */\n      0x21\n        /* \"#utility.yul\":2357:2358   */\n      0x04\n        /* \"#utility.yul\":2350:2365   */\n      mstore\n        /* \"#utility.yul\":2384:2388   */\n      0x24\n        /* \"#utility.yul\":2381:2382   */\n      0x00\n        /* \"#utility.yul\":2374:2389   */\n      revert\n        /* \"#utility.yul\":2401:2523   */\n    tag_146:\n        /* \"#utility.yul\":2491:2492   */\n      0x03\n        /* \"#utility.yul\":2484:2489   */\n      dup2\n        /* \"#utility.yul\":2481:2493   */\n      lt\n        /* \"#utility.yul\":2471:2517   */\n      tag_190\n      jumpi\n        /* \"#utility.yul\":2497:2515   */\n      tag_191\n      tag_62\n      jump\t// in\n    tag_191:\n        /* \"#utility.yul\":2471:2517   */\n    tag_190:\n        /* \"#utility.yul\":2401:2523   */\n      pop\n      jump\t// out\n        /* \"#utility.yul\":2529:2674   */\n    tag_147:\n        /* \"#utility.yul\":2583:2590   */\n      0x00\n        /* \"#utility.yul\":2612:2617   */\n      dup2\n        /* \"#utility.yul\":2601:2617   */\n      swap1\n      pop\n        /* \"#utility.yul\":2618:2668   */\n      tag_193\n        /* \"#utility.yul\":2662:2667   */\n      dup3\n        /* \"#utility.yul\":2618:2668   */\n      tag_146\n      jump\t// in\n    tag_193:\n        /* \"#utility.yul\":2529:2674   */\n      swap2\n      swap1\n      pop\n      jump\t// out\n        /* \"#utility.yul\":2680:2825   */\n    tag_148:\n        /* \"#utility.yul\":2745:2754   */\n      0x00\n        /* \"#utility.yul\":2778:2819   */\n      tag_195\n        /* \"#utility.yul\":2813:2818   */\n      dup3\n        /* \"#utility.yul\":2778:2819   */\n      tag_147\n      jump\t// in\n    tag_195:\n        /* \"#utility.yul\":2765:2819   */\n      swap1\n      pop\n        /* \"#utility.yul\":2680:2825   */\n      swap2\n      swap1\n      pop\n      jump\t// out\n        /* \"#utility.yul\":2831:2992   */\n    tag_149:\n        /* \"#utility.yul\":2933:2985   */\n      tag_197\n        /* \"#utility.yul\":2979:2984   */\n      dup2\n        /* \"#utility.yul\":2933:2985   */\n      tag_148\n      jump\t// in\n    tag_197:\n        /* \"#utility.yul\":2928:2931   */\n      dup3\n        /* \"#utility.yul\":2921:2986   */\n      mstore\n        /* \"#utility.yul\":2831:2992   */\n      pop\n      pop\n      jump\t// out\n        /* \"#utility.yul\":2998:3692   */\n    tag_40:\n        /* \"#utility.yul\":3218:3222   */\n      0x00\n        /* \"#utility.yul\":3256:3259   */\n      0xa0\n        /* \"#utility.yul\":3245:3254   */\n      dup3\n        /* \"#utility.yul\":3241:3260   */\n      add\n        /* \"#utility.yul\":3233:3260   */\n      swap1\n      pop\n        /* \"#utility.yul\":3270:3341   */\n      tag_199\n        /* \"#utility.yul\":3338:3339   */\n      0x00\n        /* \"#utility.yul\":3327:3336   */\n      dup4\n        /* \"#utility.yul\":3323:3340   */\n      add\n        /* \"#utility.yul\":3314:3320   */\n      dup9\n        /* \"#utility.yul\":3270:3341   */\n      tag_145\n      jump\t// in\n    tag_199:\n        /* \"#utility.yul\":3351:3423   */\n      tag_200\n        /* \"#utility.yul\":3419:3421   */\n      0x20\n        /* \"#utility.yul\":3408:3417   */\n      dup4\n        /* \"#utility.yul\":3404:3422   */\n      add\n        /* \"#utility.yul\":3395:3401   */\n      dup8\n        /* \"#utility.yul\":3351:3423   */\n      tag_142\n      jump\t// in\n    tag_200:\n        /* \"#utility.yul\":3433:3505   */\n      tag_201\n        /* \"#utility.yul\":3501:3503   */\n      0x40\n        /* \"#utility.yul\":3490:3499   */\n      dup4\n        /* \"#utility.yul\":3486:3504   */\n      add\n        /* \"#utility.yul\":3477:3483   */\n      dup7\n        /* \"#utility.yul\":3433:3505   */\n      tag_142\n      jump\t// in\n    tag_201:\n        /* \"#utility.yul\":3515:3587   */\n      tag_202\n        /* \"#utility.yul\":3583:3585   */\n      0x60\n        /* \"#utility.yul\":3572:3581   */\n      dup4\n        /* \"#utility.yul\":3568:3586   */\n      add\n        /* \"#utility.yul\":3559:3565   */\n      dup6\n        /* \"#utility.yul\":3515:3587   */\n      tag_142\n      jump\t// in\n    tag_202:\n        /* \"#utility.yul\":3597:3685   */\n      tag_203\n        /* \"#utility.yul\":3680:3683   */\n      0x80\n        /* \"#utility.yul\":3669:3678   */\n      dup4\n        /* \"#utility.yul\":3665:3684   */\n      add\n        /* \"#utility.yul\":3656:3662   */\n      dup5\n        /* \"#utility.yul\":3597:3685   */\n      tag_149\n      jump\t// in\n    tag_203:\n        /* \"#utility.yul\":2998:3692   */\n      swap7\n      swap6\n      pop\n      pop\n      pop\n      pop\n      pop\n      pop\n      jump\t// out\n        /* \"#utility.yul\":3698:3920   */\n    tag_53:\n        /* \"#utility.yul\":3791:3795   */\n      0x00\n        /* \"#utility.yul\":3829:3831   */\n      0x20\n        /* \"#utility.yul\":3818:3827   */\n      dup3\n        /* \"#utility.yul\":3814:3832   */\n      add\n        /* \"#utility.yul\":3806:3832   */\n      swap1\n      pop\n        /* \"#utility.yul\":3842:3913   */\n      tag_205\n        /* \"#utility.yul\":3910:3911   */\n      0x00\n        /* \"#utility.yul\":3899:3908   */\n      dup4\n        /* \"#utility.yul\":3895:3912   */\n      add\n        /* \"#utility.yul\":3886:3892   */\n      dup5\n        /* \"#utility.yul\":3842:3913   */\n      tag_145\n      jump\t// in\n    tag_205:\n        /* \"#utility.yul\":3698:3920   */\n      swap3\n      swap2\n      pop\n      pop\n      jump\t// out\n        /* \"#utility.yul\":3926:4106   */\n    tag_150:\n        /* \"#utility.yul\":3974:4051   */\n      0x4e487b7100000000000000000000000000000000000000000000000000000000\n        /* \"#utility.yul\":3971:3972   */\n      0x00\n        /* \"#utility.yul\":3964:4052   */\n      mstore\n        /* \"#utility.yul\":4071:4075   */\n      0x11\n        /* \"#utility.yul\":4068:4069   */\n      0x04\n        /* \"#utility.yul\":4061:4076   */\n      mstore\n        /* \"#utility.yul\":4095:4099   */\n      0x24\n        /* \"#utility.yul\":4092:4093   */\n      0x00\n        /* \"#utility.yul\":4085:4100   */\n      revert\n        /* \"#utility.yul\":4112:4522   */\n    tag_67:\n        /* \"#utility.yul\":4152:4159   */\n      0x00\n        /* \"#utility.yul\":4175:4195   */\n      tag_208\n        /* \"#utility.yul\":4193:4194   */\n      dup3\n        /* \"#utility.yul\":4175:4195   */\n      tag_139\n      jump\t// in\n    tag_208:\n        /* \"#utility.yul\":4170:4195   */\n      swap2\n      pop\n        /* \"#utility.yul\":4209:4229   */\n      tag_209\n        /* \"#utility.yul\":4227:4228   */\n      dup4\n        /* \"#utility.yul\":4209:4229   */\n      tag_139\n      jump\t// in\n    tag_209:\n        /* \"#utility.yul\":4204:4229   */\n      swap3\n      pop\n        /* \"#utility.yul\":4264:4265   */\n      dup3\n        /* \"#utility.yul\":4261:4262   */\n      dup3\n        /* \"#utility.yul\":4257:4266   */\n      mul\n        /* \"#utility.yul\":4286:4316   */\n      tag_210\n        /* \"#utility.yul\":4304:4315   */\n      dup2\n        /* \"#utility.yul\":4286:4316   */\n      tag_139\n      jump\t// in\n    tag_210:\n        /* \"#utility.yul\":4275:4316   */\n      swap2\n      pop\n        /* \"#utility.yul\":4465:4466   */\n      dup3\n        /* \"#utility.yul\":4456:4463   */\n      dup3\n        /* \"#utility.yul\":4452:4467   */\n      div\n        /* \"#utility.yul\":4449:4450   */\n      dup5\n        /* \"#utility.yul\":4446:4468   */\n      eq\n        /* \"#utility.yul\":4426:4427   */\n      dup4\n        /* \"#utility.yul\":4419:4428   */\n      iszero\n        /* \"#utility.yul\":4399:4482   */\n      or\n        /* \"#utility.yul\":4376:4515   */\n      tag_211\n      jumpi\n        /* \"#utility.yul\":4495:4513   */\n      tag_212\n      tag_150\n      jump\t// in\n    tag_212:\n        /* \"#utility.yul\":4376:4515   */\n    tag_211:\n        /* \"#utility.yul\":4160:4522   */\n      pop\n        /* \"#utility.yul\":4112:4522   */\n      swap3\n      swap2\n      pop\n      pop\n      jump\t// out\n        /* \"#utility.yul\":4528:4708   */\n    tag_151:\n        /* \"#utility.yul\":4576:4653   */\n      0x4e487b7100000000000000000000000000000000000000000000000000000000\n        /* \"#utility.yul\":4573:4574   */\n      0x00\n        /* \"#utility.yul\":4566:4654   */\n      mstore\n        /* \"#utility.yul\":4673:4677   */\n      0x12\n        /* \"#utility.yul\":4670:4671   */\n      0x04\n        /* \"#utility.yul\":4663:4678   */\n      mstore\n        /* \"#utility.yul\":4697:4701   */\n      0x24\n        /* \"#utility.yul\":4694:4695   */\n      0x00\n        /* \"#utility.yul\":4687:4702   */\n      revert\n        /* \"#utility.yul\":4714:4899   */\n    tag_69:\n        /* \"#utility.yul\":4754:4755   */\n      0x00\n        /* \"#utility.yul\":4771:4791   */\n      tag_215\n        /* \"#utility.yul\":4789:4790   */\n      dup3\n        /* \"#utility.yul\":4771:4791   */\n      tag_139\n      jump\t// in\n    tag_215:\n        /* \"#utility.yul\":4766:4791   */\n      swap2\n      pop\n        /* \"#utility.yul\":4805:4825   */\n      tag_216\n        /* \"#utility.yul\":4823:4824   */\n      dup4\n        /* \"#utility.yul\":4805:4825   */\n      tag_139\n      jump\t// in\n    tag_216:\n        /* \"#utility.yul\":4800:4825   */\n      swap3\n      pop\n        /* \"#utility.yul\":4844:4845   */\n      dup3\n        /* \"#utility.yul\":4834:4869   */\n      tag_217\n      jumpi\n        /* \"#utility.yul\":4849:4867   */\n      tag_218\n      tag_151\n      jump\t// in\n    tag_218:\n        /* \"#utility.yul\":4834:4869   */\n    tag_217:\n        /* \"#utility.yul\":4891:4892   */\n      dup3\n        /* \"#utility.yul\":4888:4889   */\n      dup3\n        /* \"#utility.yul\":4884:4893   */\n      div\n        /* \"#utility.yul\":4879:4893   */\n      swap1\n      pop\n        /* \"#utility.yul\":4714:4899   */\n      swap3\n      swap2\n      pop\n      pop\n      jump\t// out\n        /* \"#utility.yul\":4905:5099   */\n    tag_71:\n        /* \"#utility.yul\":4945:4949   */\n      0x00\n        /* \"#utility.yul\":4965:4985   */\n      tag_220\n        /* \"#utility.yul\":4983:4984   */\n      dup3\n        /* \"#utility.yul\":4965:4985   */\n      tag_139\n      jump\t// in\n    tag_220:\n        /* \"#utility.yul\":4960:4985   */\n      swap2\n      pop\n        /* \"#utility.yul\":4999:5019   */\n      tag_221\n        /* \"#utility.yul\":5017:5018   */\n      dup4\n        /* \"#utility.yul\":4999:5019   */\n      tag_139\n      jump\t// in\n    tag_221:\n        /* \"#utility.yul\":4994:5019   */\n      swap3\n      pop\n        /* \"#utility.yul\":5043:5044   */\n      dup3\n        /* \"#utility.yul\":5040:5041   */\n      dup3\n        /* \"#utility.yul\":5036:5045   */\n      sub\n        /* \"#utility.yul\":5028:5045   */\n      swap1\n      pop\n        /* \"#utility.yul\":5067:5068   */\n      dup2\n        /* \"#utility.yul\":5061:5065   */\n      dup2\n        /* \"#utility.yul\":5058:5069   */\n      gt\n        /* \"#utility.yul\":5055:5092   */\n      iszero\n      tag_222\n      jumpi\n        /* \"#utility.yul\":5072:5090   */\n      tag_223\n      tag_150\n      jump\t// in\n    tag_223:\n        /* \"#utility.yul\":5055:5092   */\n    tag_222:\n        /* \"#utility.yul\":4905:5099   */\n      swap3\n      swap2\n      pop\n      pop\n      jump\t// out\n        /* \"#utility.yul\":5105:5252   */\n    tag_152:\n        /* \"#utility.yul\":5206:5217   */\n      0x00\n        /* \"#utility.yul\":5243:5246   */\n      dup2\n        /* \"#utility.yul\":5228:5246   */\n      swap1\n      pop\n        /* \"#utility.yul\":5105:5252   */\n      swap3\n      swap2\n      pop\n      pop\n      jump\t// out\n        /* \"#utility.yul\":5258:5372   */\n    tag_153:\n      pop\n      jump\t// out\n        /* \"#utility.yul\":5378:5776   */\n    tag_154:\n        /* \"#utility.yul\":5537:5540   */\n      0x00\n        /* \"#utility.yul\":5558:5641   */\n      tag_227\n        /* \"#utility.yul\":5639:5640   */\n      0x00\n        /* \"#utility.yul\":5634:5637   */\n      dup4\n        /* \"#utility.yul\":5558:5641   */\n      tag_152\n      jump\t// in\n    tag_227:\n        /* \"#utility.yul\":5551:5641   */\n      swap2\n      pop\n        /* \"#utility.yul\":5650:5743   */\n      tag_228\n        /* \"#utility.yul\":5739:5742   */\n      dup3\n        /* \"#utility.yul\":5650:5743   */\n      tag_153\n      jump\t// in\n    tag_228:\n        /* \"#utility.yul\":5768:5769   */\n      0x00\n        /* \"#utility.yul\":5763:5766   */\n      dup3\n        /* \"#utility.yul\":5759:5770   */\n      add\n        /* \"#utility.yul\":5752:5770   */\n      swap1\n      pop\n        /* \"#utility.yul\":5378:5776   */\n      swap2\n      swap1\n      pop\n      jump\t// out\n        /* \"#utility.yul\":5782:6161   */\n    tag_73:\n        /* \"#utility.yul\":5966:5969   */\n      0x00\n        /* \"#utility.yul\":5988:6135   */\n      tag_230\n        /* \"#utility.yul\":6131:6134   */\n      dup3\n        /* \"#utility.yul\":5988:6135   */\n      tag_154\n      jump\t// in\n    tag_230:\n        /* \"#utility.yul\":5981:6135   */\n      swap2\n      pop\n        /* \"#utility.yul\":6152:6155   */\n      dup2\n        /* \"#utility.yul\":6145:6155   */\n      swap1\n      pop\n        /* \"#utility.yul\":5782:6161   */\n      swap2\n      swap1\n      pop\n      jump\t// out\n        /* \"#utility.yul\":6167:6336   */\n    tag_155:\n        /* \"#utility.yul\":6251:6262   */\n      0x00\n        /* \"#utility.yul\":6285:6291   */\n      dup3\n        /* \"#utility.yul\":6280:6283   */\n      dup3\n        /* \"#utility.yul\":6273:6292   */\n      mstore\n        /* \"#utility.yul\":6325:6329   */\n      0x20\n        /* \"#utility.yul\":6320:6323   */\n      dup3\n        /* \"#utility.yul\":6316:6330   */\n      add\n        /* \"#utility.yul\":6301:6330   */\n      swap1\n      pop\n        /* \"#utility.yul\":6167:6336   */\n      swap3\n      swap2\n      pop\n      pop\n      jump\t// out\n        /* \"#utility.yul\":6342:6511   */\n    tag_156:\n        /* \"#utility.yul\":6482:6503   */\n      0x455448207472616e73666572206661696c656400000000000000000000000000\n        /* \"#utility.yul\":6478:6479   */\n      0x00\n        /* \"#utility.yul\":6470:6476   */\n      dup3\n        /* \"#utility.yul\":6466:6480   */\n      add\n        /* \"#utility.yul\":6459:6504   */\n      mstore\n        /* \"#utility.yul\":6342:6511   */\n      pop\n      jump\t// out\n        /* \"#utility.yul\":6517:6883   */\n    tag_157:\n        /* \"#utility.yul\":6659:6662   */\n      0x00\n        /* \"#utility.yul\":6680:6747   */\n      tag_234\n        /* \"#utility.yul\":6744:6746   */\n      0x13\n        /* \"#utility.yul\":6739:6742   */\n      dup4\n        /* \"#utility.yul\":6680:6747   */\n      tag_155\n      jump\t// in\n    tag_234:\n        /* \"#utility.yul\":6673:6747   */\n      swap2\n      pop\n        /* \"#utility.yul\":6756:6849   */\n      tag_235\n        /* \"#utility.yul\":6845:6848   */\n      dup3\n        /* \"#utility.yul\":6756:6849   */\n      tag_156\n      jump\t// in\n    tag_235:\n        /* \"#utility.yul\":6874:6876   */\n      0x20\n        /* \"#utility.yul\":6869:6872   */\n      dup3\n        /* \"#utility.yul\":6865:6877   */\n      add\n        /* \"#utility.yul\":6858:6877   */\n      swap1\n      pop\n        /* \"#utility.yul\":6517:6883   */\n      swap2\n      swap1\n      pop\n      jump\t// out\n        /* \"#utility.yul\":6889:7308   */\n    tag_79:\n        /* \"#utility.yul\":7055:7059   */\n      0x00\n        /* \"#utility.yul\":7093:7095   */\n      0x20\n        /* \"#utility.yul\":7082:7091   */\n      dup3\n        /* \"#utility.yul\":7078:7096   */\n      add\n        /* \"#utility.yul\":7070:7096   */\n      swap1\n      pop\n        /* \"#utility.yul\":7142:7151   */\n      dup2\n        /* \"#utility.yul\":7136:7140   */\n      dup2\n        /* \"#utility.yul\":7132:7152   */\n      sub\n        /* \"#utility.yul\":7128:7129   */\n      0x00\n        /* \"#utility.yul\":7117:7126   */\n      dup4\n        /* \"#utility.yul\":7113:7130   */\n      add\n        /* \"#utility.yul\":7106:7153   */\n      mstore\n        /* \"#utility.yul\":7170:7301   */\n      tag_237\n        /* \"#utility.yul\":7296:7300   */\n      dup2\n        /* \"#utility.yul\":7170:7301   */\n      tag_157\n      jump\t// in\n    tag_237:\n        /* \"#utility.yul\":7162:7301   */\n      swap1\n      pop\n        /* \"#utility.yul\":6889:7308   */\n      swap2\n      swap1\n      pop\n      jump\t// out\n        /* \"#utility.yul\":7314:7547   */\n    tag_84:\n        /* \"#utility.yul\":7353:7356   */\n      0x00\n        /* \"#utility.yul\":7376:7400   */\n      tag_239\n        /* \"#utility.yul\":7394:7399   */\n      dup3\n        /* \"#utility.yul\":7376:7400   */\n      tag_139\n      jump\t// in\n    tag_239:\n        /* \"#utility.yul\":7367:7400   */\n      swap2\n      pop\n        /* \"#utility.yul\":7422:7488   */\n      0xffffffffffffffffffffffffffffffffffffffffffffffffffffffffffffffff\n        /* \"#utility.yul\":7415:7420   */\n      dup3\n        /* \"#utility.yul\":7412:7489   */\n      sub\n        /* \"#utility.yul\":7409:7512   */\n      tag_240\n      jumpi\n        /* \"#utility.yul\":7492:7510   */\n      tag_241\n      tag_150\n      jump\t// in\n    tag_241:\n        /* \"#utility.yul\":7409:7512   */\n    tag_240:\n        /* \"#utility.yul\":7539:7540   */\n      0x01\n        /* \"#utility.yul\":7532:7537   */\n      dup3\n        /* \"#utility.yul\":7528:7541   */\n      add\n        /* \"#utility.yul\":7521:7541   */\n      swap1\n      pop\n        /* \"#utility.yul\":7314:7547   */\n      swap2\n      swap1\n      pop\n      jump\t// out\n        /* \"#utility.yul\":7553:7744   */\n    tag_86:\n        /* \"#utility.yul\":7593:7596   */\n      0x00\n        /* \"#utility.yul\":7612:7632   */\n      tag_243\n        /* \"#utility.yul\":7630:7631   */\n      dup3\n        /* \"#utility.yul\":7612:7632   */\n      tag_139\n      jump\t// in\n    tag_243:\n        /* \"#utility.yul\":7607:7632   */\n      swap2\n      pop\n        /* \"#utility.yul\":7646:7666   */\n      tag_244\n        /* \"#utility.yul\":7664:7665   */\n      dup4\n        /* \"#utility.yul\":7646:7666   */\n      tag_139\n      jump\t// in\n    tag_244:\n        /* \"#utility.yul\":7641:7666   */\n      swap3\n      pop\n        /* \"#utility.yul\":7689:7690   */\n      dup3\n        /* \"#utility.yul\":7686:7687   */\n      dup3\n        /* \"#utility.yul\":7682:7691   */\n      add\n        /* \"#utility.yul\":7675:7691   */\n      swap1\n      pop\n        /* \"#utility.yul\":7710:7713   */\n      dup1\n        /* \"#utility.yul\":7707:7708   */\n      dup3\n        /* \"#utility.yul\":7704:7714   */\n      gt\n        /* \"#utility.yul\":7701:7737   */\n      iszero\n      tag_245\n      jumpi\n        /* \"#utility.yul\":7717:7735   */\n      tag_246\n      tag_150\n      jump\t// in\n    tag_246:\n        /* \"#utility.yul\":7701:7737   */\n    tag_245:\n        /* \"#utility.yul\":7553:7744   */\n      swap3\n      swap2\n      pop\n      pop\n      jump\t// out\n        /* \"#utility.yul\":7750:8002   */\n    tag_106:\n        /* \"#utility.yul\":7858:7862   */\n      0x00\n        /* \"#utility.yul\":7896:7898   */\n      0x20\n        /* \"#utility.yul\":7885:7894   */\n      dup3\n        /* \"#utility.yul\":7881:7899   */\n      add\n        /* \"#utility.yul\":7873:7899   */\n      swap1\n      pop\n        /* \"#utility.yul\":7909:7995   */\n      tag_248\n        /* \"#utility.yul\":7992:7993   */\n      0x00\n        /* \"#utility.yul\":7981:7990   */\n      dup4\n        /* \"#utility.yul\":7977:7994   */\n      add\n        /* \"#utility.yul\":7968:7974   */\n      dup5\n        /* \"#utility.yul\":7909:7995   */\n      tag_149\n      jump\t// in\n    tag_248:\n        /* \"#utility.yul\":7750:8002   */\n      swap3\n      swap2\n      pop\n      pop\n      jump\t// out\n        /* \"#utility.yul\":8008:8171   */\n    tag_158:\n        /* \"#utility.yul\":8148:8163   */\n      0x526566756e64206661696c656400000000000000000000000000000000000000\n        /* \"#utility.yul\":8144:8145   */\n      0x00\n        /* \"#utility.yul\":8136:8142   */\n      dup3\n        /* \"#utility.yul\":8132:8146   */\n      add\n        /* \"#utility.yul\":8125:8164   */\n      mstore\n        /* \"#utility.yul\":8008:8171   */\n      pop\n      jump\t// out\n        /* \"#utility.yul\":8177:8543   */\n    tag_159:\n        /* \"#utility.yul\":8319:8322   */\n      0x00\n        /* \"#utility.yul\":8340:8407   */\n      tag_251\n        /* \"#utility.yul\":8404:8406   */\n      0x0d\n        /* \"#utility.yul\":8399:8402   */\n      dup4\n        /* \"#utility.yul\":8340:8407   */\n      tag_155\n      jump\t// in\n    tag_251:\n        /* \"#utility.yul\":8333:8407   */\n      swap2\n      pop\n        /* \"#utility.yul\":8416:8509   */\n      tag_252\n        /* \"#utility.yul\":8505:8508   */\n      dup3\n        /* \"#utility.yul\":8416:8509   */\n      tag_158\n      jump\t// in\n    tag_252:\n        /* \"#utility.yul\":8534:8536   */\n      0x20\n        /* \"#utility.yul\":8529:8532   */\n      dup3\n        /* \"#utility.yul\":8525:8537   */\n      add\n        /* \"#utility.yul\":8518:8537   */\n      swap1\n      pop\n        /* \"#utility.yul\":8177:8543   */\n      swap2\n      swap1\n      pop\n      jump\t// out\n        /* \"#utility.yul\":8549:8968   */\n    tag_121:\n        /* \"#utility.yul\":8715:8719   */\n      0x00\n        /* \"#utility.yul\":8753:8755   */\n      0x20\n        /* \"#utility.yul\":8742:8751   */\n      dup3\n        /* \"#utility.yul\":8738:8756   */\n      add\n        /* \"#utility.yul\":8730:8756   */\n      swap1\n      pop\n        /* \"#utility.yul\":8802:8811   */\n      dup2\n        /* \"#utility.yul\":8796:8800   */\n      dup2\n        /* \"#utility.yul\":8792:8812   */\n      sub\n        /* \"#utility.yul\":8788:8789   */\n      0x00\n        /* \"#utility.yul\":8777:8786   */\n      dup4\n        /* \"#utility.yul\":8773:8790   */\n      add\n        /* \"#utility.yul\":8766:8813   */\n      mstore\n        /* \"#utility.yul\":8830:8961   */\n      tag_254\n        /* \"#utility.yul\":8956:8960   */\n      dup2\n        /* \"#utility.yul\":8830:8961   */\n      tag_159\n      jump\t// in\n    tag_254:\n        /* \"#utility.yul\":8822:8961   */\n      swap1\n      pop\n        /* \"#utility.yul\":8549:8968   */\n      swap2\n      swap1\n      pop\n      jump\t// out\n\n    auxdata: 0xa26469706673582212206278ba9b59e9f58c76140f9ec90c11ffcc14d64fc0c95bfc50489c39604e4dd964736f6c63430008210033\n}\n",
				"bytecode": {
					"linkReferences": {},
					"object": "60a0604052348015600e575f5ffd5b503373ffffffffffffffffffffffffffffffffffffffff1660808173ffffffffffffffffffffffffffffffffffffffff168152505060805173ffffffffffffffffffffffffffffffffffffffff167fd3ec8e551f5cc391aa95b841e6ae06e84ce17e96ad450447fd963a51d5be0c7460405160405180910390a26080516112296100a05f395f610aea01526112295ff3fe608060405260043610610089575f3560e01c80635598f8cc116100585780635598f8cc1461014a5780635b7baf641461018a5780637274e30d146101b25780638da5cb5b146101dc578063c1cbbca71461020657610090565b8063155dd5ee1461009457806322502268146100bc5780634f2c84d1146100f8578063539aa77f1461012057610090565b3661009057005b5f5ffd5b34801561009f575f5ffd5b506100ba60048036038101906100b59190610d94565b610222565b005b3480156100c7575f5ffd5b506100e260048036038101906100dd9190610dbf565b6104bc565b6040516100ef9190610e0c565b60405180910390f35b348015610103575f5ffd5b5061011e60048036038101906101199190610d94565b6105f3565b005b34801561012b575f5ffd5b50610134610816565b6040516101419190610e0c565b60405180910390f35b348015610155575f5ffd5b50610170600480360381019061016b9190610d94565b61081b565b604051610181959493929190610ed7565b60405180910390f35b348015610195575f5ffd5b506101b060048036038101906101ab9190610d94565b61088b565b005b3480156101bd575f5ffd5b506101c6610ae3565b6040516101d39190610e0c565b60405180910390f35b3480156101e7575f5ffd5b506101f0610ae8565b6040516101fd9190610f28565b60405180910390f35b610220600480360381019061021b9190610d94565b610b0c565b005b8060015f8281526020019081526020015f205f015f9054906101000a900473ffffffffffffffffffffffffffffffffffffffff1673ffffffffffffffffffffffffffffffffffffffff163373ffffffffffffffffffffffffffffffffffffffff16146102ba576040517f93687c0b00000000000000000000000000000000000000000000000000000000815260040160405180910390fd5b5f60015f8481526020019081526020015f209050600160028111156102e2576102e1610e64565b5b816004015f9054906101000a900460ff16600281111561030557610304610e64565b5b1461033c576040517f0f7fe27100000000000000000000000000000000000000000000000000000000815260040160405180910390fd5b5f61271060c883600201546103519190610f6e565b61035b9190610fdc565b90505f81836002015461036e919061100c565b90505f83600201819055505f835f015f9054906101000a900473ffffffffffffffffffffffffffffffffffffffff1673ffffffffffffffffffffffffffffffffffffffff16826040516103c09061106c565b5f6040518083038185875af1925050503d805f81146103fa576040519150601f19603f3d011682016040523d82523d5f602084013e6103ff565b606091505b5050905080610443576040517f08c379a000000000000000000000000000000000000000000000000000000000815260040161043a906110da565b60405180910390fd5b835f015f9054906101000a900473ffffffffffffffffffffffffffffffffffffffff1673ffffffffffffffffffffffffffffffffffffffff16867ff440aec6b52895984d061d622e6edeba6210f7c3e059be920663140c084560d7846040516104ac9190610e0c565b60405180910390a3505050505050565b5f5f83036104f6576040517f7c946ed700000000000000000000000000000000000000000000000000000000815260040160405180910390fd5b5f5f8154610503906110f8565b91905081905590505f60015f8381526020019081526020015f20905033815f015f6101000a81548173ffffffffffffffffffffffffffffffffffffffff021916908373ffffffffffffffffffffffffffffffffffffffff1602179055508381600101819055508242610575919061113f565b81600301819055505f816004015f6101000a81548160ff021916908360028111156105a3576105a2610e64565b5b02179055503373ffffffffffffffffffffffffffffffffffffffff16827f633109eec20320eded000fc1e2634211aa7e92ba3f5b15faf6dcdafca05094e460405160405180910390a35092915050565b8060015f8281526020019081526020015f205f015f9054906101000a900473ffffffffffffffffffffffffffffffffffffffff1673ffffffffffffffffffffffffffffffffffffffff163373ffffffffffffffffffffffffffffffffffffffff161461068b576040517f93687c0b00000000000000000000000000000000000000000000000000000000815260040160405180910390fd5b815f600281111561069f5761069e610e64565b5b60015f8381526020019081526020015f206004015f9054906101000a900460ff1660028111156106d2576106d1610e64565b5b14610709576040517f433528b600000000000000000000000000000000000000000000000000000000815260040160405180910390fd5b5f60015f8581526020019081526020015f209050806003015442101561075b576040517f66ec4ee600000000000000000000000000000000000000000000000000000000815260040160405180910390fd5b806001015481600201541061079b576001816004015f6101000a81548160ff0219169083600281111561079157610790610e64565b5b02179055506107c8565b6002816004015f6101000a81548160ff021916908360028111156107c2576107c1610e64565b5b02179055505b837f715224f5b965221887e084e1cdffe100bf184993e777d3b6d52abf8827623986826004015f9054906101000a900460ff166040516108089190611172565b60405180910390a250505050565b60c881565b5f5f5f5f5f5f60015f8881526020019081526020015f209050805f015f9054906101000a900473ffffffffffffffffffffffffffffffffffffffff16816001015482600201548360030154846004015f9054906101000a900460ff16955095509550955095505091939590929450565b5f60015f8381526020019081526020015f2090506002808111156108b2576108b1610e64565b5b816004015f9054906101000a900460ff1660028111156108d5576108d4610e64565b5b1461090c576040517f0eeb982f00000000000000000000000000000000000000000000000000000000815260040160405180910390fd5b5f60025f8481526020019081526020015f205f3373ffffffffffffffffffffffffffffffffffffffff1673ffffffffffffffffffffffffffffffffffffffff1681526020019081526020015f205490505f8103610995576040517f7c946ed700000000000000000000000000000000000000000000000000000000815260040160405180910390fd5b5f60025f8581526020019081526020015f205f3373ffffffffffffffffffffffffffffffffffffffff1673ffffffffffffffffffffffffffffffffffffffff1681526020019081526020015f20819055505f3373ffffffffffffffffffffffffffffffffffffffff1682604051610a0b9061106c565b5f6040518083038185875af1925050503d805f8114610a45576040519150601f19603f3d011682016040523d82523d5f602084013e610a4a565b606091505b5050905080610a8e576040517f08c379a0000000000000000000000000000000000000000000000000000000008152600401610a85906111d5565b60405180910390fd5b3373ffffffffffffffffffffffffffffffffffffffff16847f7a482fdeb6bc9a1376f597068a214a7a39472bb2eff1b8cad21ba04f49ddca1b84604051610ad59190610e0c565b60405180910390a350505050565b5f5481565b7f000000000000000000000000000000000000000000000000000000000000000081565b805f6002811115610b2057610b1f610e64565b5b60015f8381526020019081526020015f206004015f9054906101000a900460ff166002811115610b5357610b52610e64565b5b14610b8a576040517f433528b600000000000000000000000000000000000000000000000000000000815260040160405180910390fd5b5f3403610bc3576040517f7c946ed700000000000000000000000000000000000000000000000000000000815260040160405180910390fd5b5f60015f8481526020019081526020015f2090505f60025f8581526020019081526020015f205f3373ffffffffffffffffffffffffffffffffffffffff1673ffffffffffffffffffffffffffffffffffffffff1681526020019081526020015f205403610c8d578060050133908060018154018082558091505060019003905f5260205f20015f9091909190916101000a81548173ffffffffffffffffffffffffffffffffffffffff021916908373ffffffffffffffffffffffffffffffffffffffff1602179055505b3460025f8581526020019081526020015f205f3373ffffffffffffffffffffffffffffffffffffffff1673ffffffffffffffffffffffffffffffffffffffff1681526020019081526020015f205f828254610ce8919061113f565b9250508190555034816002015f828254610d02919061113f565b925050819055503373ffffffffffffffffffffffffffffffffffffffff16837f865c884d49c8cecaef108efb20f7d282f26c0f9b0d24dd48e5592d4e02ec658d34604051610d509190610e0c565b60405180910390a3505050565b5f5ffd5b5f819050919050565b610d7381610d61565b8114610d7d575f5ffd5b50565b5f81359050610d8e81610d6a565b92915050565b5f60208284031215610da957610da8610d5d565b5b5f610db684828501610d80565b91505092915050565b5f5f60408385031215610dd557610dd4610d5d565b5b5f610de285828601610d80565b9250506020610df385828601610d80565b9150509250929050565b610e0681610d61565b82525050565b5f602082019050610e1f5f830184610dfd565b92915050565b5f73ffffffffffffffffffffffffffffffffffffffff82169050919050565b5f610e4e82610e25565b9050919050565b610e5e81610e44565b82525050565b7f4e487b71000000000000000000000000000000000000000000000000000000005f52602160045260245ffd5b60038110610ea257610ea1610e64565b5b50565b5f819050610eb282610e91565b919050565b5f610ec182610ea5565b9050919050565b610ed181610eb7565b82525050565b5f60a082019050610eea5f830188610e55565b610ef76020830187610dfd565b610f046040830186610dfd565b610f116060830185610dfd565b610f1e6080830184610ec8565b9695505050505050565b5f602082019050610f3b5f830184610e55565b92915050565b7f4e487b71000000000000000000000000000000000000000000000000000000005f52601160045260245ffd5b5f610f7882610d61565b9150610f8383610d61565b9250828202610f9181610d61565b91508282048414831517610fa857610fa7610f41565b5b5092915050565b7f4e487b71000000000000000000000000000000000000000000000000000000005f52601260045260245ffd5b5f610fe682610d61565b9150610ff183610d61565b92508261100157611000610faf565b5b828204905092915050565b5f61101682610d61565b915061102183610d61565b925082820390508181111561103957611038610f41565b5b92915050565b5f81905092915050565b50565b5f6110575f8361103f565b915061106282611049565b5f82019050919050565b5f6110768261104c565b9150819050919050565b5f82825260208201905092915050565b7f455448207472616e73666572206661696c6564000000000000000000000000005f82015250565b5f6110c4601383611080565b91506110cf82611090565b602082019050919050565b5f6020820190508181035f8301526110f1816110b8565b9050919050565b5f61110282610d61565b91507fffffffffffffffffffffffffffffffffffffffffffffffffffffffffffffffff820361113457611133610f41565b5b600182019050919050565b5f61114982610d61565b915061115483610d61565b925082820190508082111561116c5761116b610f41565b5b92915050565b5f6020820190506111855f830184610ec8565b92915050565b7f526566756e64206661696c6564000000000000000000000000000000000000005f82015250565b5f6111bf600d83611080565b91506111ca8261118b565b602082019050919050565b5f6020820190508181035f8301526111ec816111b3565b905091905056fea26469706673582212206278ba9b59e9f58c76140f9ec90c11ffcc14d64fc0c95bfc50489c39604e4dd964736f6c63430008210033",
					"opcodes": "PUSH1 0xA0 PUSH1 0x40 MSTORE CALLVALUE DUP1 ISZERO PUSH1 0xE JUMPI PUSH0 PUSH0 REVERT JUMPDEST POP CALLER PUSH20 0xFFFFFFFFFFFFFFFFFFFFFFFFFFFFFFFFFFFFFFFF AND PUSH1 0x80 DUP2 PUSH20 0xFFFFFFFFFFFFFFFFFFFFFFFFFFFFFFFFFFFFFFFF AND DUP2 MSTORE POP POP PUSH1 0x80 MLOAD PUSH20 0xFFFFFFFFFFFFFFFFFFFFFFFFFFFFFFFFFFFFFFFF AND PUSH32 0xD3EC8E551F5CC391AA95B841E6AE06E84CE17E96AD450447FD963A51D5BE0C74 PUSH1 0x40 MLOAD PUSH1 0x40 MLOAD DUP1 SWAP2 SUB SWAP1 LOG2 PUSH1 0x80 MLOAD PUSH2 0x1229 PUSH2 0xA0 PUSH0 CODECOPY PUSH0 PUSH2 0xAEA ADD MSTORE PUSH2 0x1229 PUSH0 RETURN INVALID PUSH1 0x80 PUSH1 0x40 MSTORE PUSH1 0x4 CALLDATASIZE LT PUSH2 0x89 JUMPI PUSH0 CALLDATALOAD PUSH1 0xE0 SHR DUP1 PUSH4 0x5598F8CC GT PUSH2 0x58 JUMPI DUP1 PUSH4 0x5598F8CC EQ PUSH2 0x14A JUMPI DUP1 PUSH4 0x5B7BAF64 EQ PUSH2 0x18A JUMPI DUP1 PUSH4 0x7274E30D EQ PUSH2 0x1B2 JUMPI DUP1 PUSH4 0x8DA5CB5B EQ PUSH2 0x1DC JUMPI DUP1 PUSH4 0xC1CBBCA7 EQ PUSH2 0x206 JUMPI PUSH2 0x90 JUMP JUMPDEST DUP1 PUSH4 0x155DD5EE EQ PUSH2 0x94 JUMPI DUP1 PUSH4 0x22502268 EQ PUSH2 0xBC JUMPI DUP1 PUSH4 0x4F2C84D1 EQ PUSH2 0xF8 JUMPI DUP1 PUSH4 0x539AA77F EQ PUSH2 0x120 JUMPI PUSH2 0x90 JUMP JUMPDEST CALLDATASIZE PUSH2 0x90 JUMPI STOP JUMPDEST PUSH0 PUSH0 REVERT JUMPDEST CALLVALUE DUP1 ISZERO PUSH2 0x9F JUMPI PUSH0 PUSH0 REVERT JUMPDEST POP PUSH2 0xBA PUSH1 0x4 DUP1 CALLDATASIZE SUB DUP2 ADD SWAP1 PUSH2 0xB5 SWAP2 SWAP1 PUSH2 0xD94 JUMP JUMPDEST PUSH2 0x222 JUMP JUMPDEST STOP JUMPDEST CALLVALUE DUP1 ISZERO PUSH2 0xC7 JUMPI PUSH0 PUSH0 REVERT JUMPDEST POP PUSH2 0xE2 PUSH1 0x4 DUP1 CALLDATASIZE SUB DUP2 ADD SWAP1 PUSH2 0xDD SWAP2 SWAP1 PUSH2 0xDBF JUMP JUMPDEST PUSH2 0x4BC JUMP JUMPDEST PUSH1 0x40 MLOAD PUSH2 0xEF SWAP2 SWAP1 PUSH2 0xE0C JUMP JUMPDEST PUSH1 0x40 MLOAD DUP1 SWAP2 SUB SWAP1 RETURN JUMPDEST CALLVALUE DUP1 ISZERO PUSH2 0x103 JUMPI PUSH0 PUSH0 REVERT JUMPDEST POP PUSH2 0x11E PUSH1 0x4 DUP1 CALLDATASIZE SUB DUP2 ADD SWAP1 PUSH2 0x119 SWAP2 SWAP1 PUSH2 0xD94 JUMP JUMPDEST PUSH2 0x5F3 JUMP JUMPDEST STOP JUMPDEST CALLVALUE DUP1 ISZERO PUSH2 0x12B JUMPI PUSH0 PUSH0 REVERT JUMPDEST POP PUSH2 0x134 PUSH2 0x816 JUMP JUMPDEST PUSH1 0x40 MLOAD PUSH2 0x141 SWAP2 SWAP1 PUSH2 0xE0C JUMP JUMPDEST PUSH1 0x40 MLOAD DUP1 SWAP2 SUB SWAP1 RETURN JUMPDEST CALLVALUE DUP1 ISZERO PUSH2 0x155 JUMPI PUSH0 PUSH0 REVERT JUMPDEST POP PUSH2 0x170 PUSH1 0x4 DUP1 CALLDATASIZE SUB DUP2 ADD SWAP1 PUSH2 0x16B SWAP2 SWAP1 PUSH2 0xD94 JUMP JUMPDEST PUSH2 0x81B JUMP JUMPDEST PUSH1 0x40 MLOAD PUSH2 0x181 SWAP6 SWAP5 SWAP4 SWAP3 SWAP2 SWAP1 PUSH2 0xED7 JUMP JUMPDEST PUSH1 0x40 MLOAD DUP1 SWAP2 SUB SWAP1 RETURN JUMPDEST CALLVALUE DUP1 ISZERO PUSH2 0x195 JUMPI PUSH0 PUSH0 REVERT JUMPDEST POP PUSH2 0x1B0 PUSH1 0x4 DUP1 CALLDATASIZE SUB DUP2 ADD SWAP1 PUSH2 0x1AB SWAP2 SWAP1 PUSH2 0xD94 JUMP JUMPDEST PUSH2 0x88B JUMP JUMPDEST STOP JUMPDEST CALLVALUE DUP1 ISZERO PUSH2 0x1BD JUMPI PUSH0 PUSH0 REVERT JUMPDEST POP PUSH2 0x1C6 PUSH2 0xAE3 JUMP JUMPDEST PUSH1 0x40 MLOAD PUSH2 0x1D3 SWAP2 SWAP1 PUSH2 0xE0C JUMP JUMPDEST PUSH1 0x40 MLOAD DUP1 SWAP2 SUB SWAP1 RETURN JUMPDEST CALLVALUE DUP1 ISZERO PUSH2 0x1E7 JUMPI PUSH0 PUSH0 REVERT JUMPDEST POP PUSH2 0x1F0 PUSH2 0xAE8 JUMP JUMPDEST PUSH1 0x40 MLOAD PUSH2 0x1FD SWAP2 SWAP1 PUSH2 0xF28 JUMP JUMPDEST PUSH1 0x40 MLOAD DUP1 SWAP2 SUB SWAP1 RETURN JUMPDEST PUSH2 0x220 PUSH1 0x4 DUP1 CALLDATASIZE SUB DUP2 ADD SWAP1 PUSH2 0x21B SWAP2 SWAP1 PUSH2 0xD94 JUMP JUMPDEST PUSH2 0xB0C JUMP JUMPDEST STOP JUMPDEST DUP1 PUSH1 0x1 PUSH0 DUP3 DUP2 MSTORE PUSH1 0x20 ADD SWAP1 DUP2 MSTORE PUSH1 0x20 ADD PUSH0 KECCAK256 PUSH0 ADD PUSH0 SWAP1 SLOAD SWAP1 PUSH2 0x100 EXP SWAP1 DIV PUSH20 0xFFFFFFFFFFFFFFFFFFFFFFFFFFFFFFFFFFFFFFFF AND PUSH20 0xFFFFFFFFFFFFFFFFFFFFFFFFFFFFFFFFFFFFFFFF AND CALLER PUSH20 0xFFFFFFFFFFFFFFFFFFFFFFFFFFFFFFFFFFFFFFFF AND EQ PUSH2 0x2BA JUMPI PUSH1 0x40 MLOAD PUSH32 0x93687C0B00000000000000000000000000000000000000000000000000000000 DUP2 MSTORE PUSH1 0x4 ADD PUSH1 0x40 MLOAD DUP1 SWAP2 SUB SWAP1 REVERT JUMPDEST PUSH0 PUSH1 0x1 PUSH0 DUP5 DUP2 MSTORE PUSH1 0x20 ADD SWAP1 DUP2 MSTORE PUSH1 0x20 ADD PUSH0 KECCAK256 SWAP1 POP PUSH1 0x1 PUSH1 0x2 DUP2 GT ISZERO PUSH2 0x2E2 JUMPI PUSH2 0x2E1 PUSH2 0xE64 JUMP JUMPDEST JUMPDEST DUP2 PUSH1 0x4 ADD PUSH0 SWAP1 SLOAD SWAP1 PUSH2 0x100 EXP SWAP1 DIV PUSH1 0xFF AND PUSH1 0x2 DUP2 GT ISZERO PUSH2 0x305 JUMPI PUSH2 0x304 PUSH2 0xE64 JUMP JUMPDEST JUMPDEST EQ PUSH2 0x33C JUMPI PUSH1 0x40 MLOAD PUSH32 0xF7FE27100000000000000000000000000000000000000000000000000000000 DUP2 MSTORE PUSH1 0x4 ADD PUSH1 0x40 MLOAD DUP1 SWAP2 SUB SWAP1 REVERT JUMPDEST PUSH0 PUSH2 0x2710 PUSH1 0xC8 DUP4 PUSH1 0x2 ADD SLOAD PUSH2 0x351 SWAP2 SWAP1 PUSH2 0xF6E JUMP JUMPDEST PUSH2 0x35B SWAP2 SWAP1 PUSH2 0xFDC JUMP JUMPDEST SWAP1 POP PUSH0 DUP2 DUP4 PUSH1 0x2 ADD SLOAD PUSH2 0x36E SWAP2 SWAP1 PUSH2 0x100C JUMP JUMPDEST SWAP1 POP PUSH0 DUP4 PUSH1 0x2 ADD DUP2 SWAP1 SSTORE POP PUSH0 DUP4 PUSH0 ADD PUSH0 SWAP1 SLOAD SWAP1 PUSH2 0x100 EXP SWAP1 DIV PUSH20 0xFFFFFFFFFFFFFFFFFFFFFFFFFFFFFFFFFFFFFFFF AND PUSH20 0xFFFFFFFFFFFFFFFFFFFFFFFFFFFFFFFFFFFFFFFF AND DUP3 PUSH1 0x40 MLOAD PUSH2 0x3C0 SWAP1 PUSH2 0x106C JUMP JUMPDEST PUSH0 PUSH1 0x40 MLOAD DUP1 DUP4 SUB DUP2 DUP6 DUP8 GAS CALL SWAP3 POP POP POP RETURNDATASIZE DUP1 PUSH0 DUP2 EQ PUSH2 0x3FA JUMPI PUSH1 0x40 MLOAD SWAP2 POP PUSH1 0x1F NOT PUSH1 0x3F RETURNDATASIZE ADD AND DUP3 ADD PUSH1 0x40 MSTORE RETURNDATASIZE DUP3 MSTORE RETURNDATASIZE PUSH0 PUSH1 0x20 DUP5 ADD RETURNDATACOPY PUSH2 0x3FF JUMP JUMPDEST PUSH1 0x60 SWAP2 POP JUMPDEST POP POP SWAP1 POP DUP1 PUSH2 0x443 JUMPI PUSH1 0x40 MLOAD PUSH32 0x8C379A000000000000000000000000000000000000000000000000000000000 DUP2 MSTORE PUSH1 0x4 ADD PUSH2 0x43A SWAP1 PUSH2 0x10DA JUMP JUMPDEST PUSH1 0x40 MLOAD DUP1 SWAP2 SUB SWAP1 REVERT JUMPDEST DUP4 PUSH0 ADD PUSH0 SWAP1 SLOAD SWAP1 PUSH2 0x100 EXP SWAP1 DIV PUSH20 0xFFFFFFFFFFFFFFFFFFFFFFFFFFFFFFFFFFFFFFFF AND PUSH20 0xFFFFFFFFFFFFFFFFFFFFFFFFFFFFFFFFFFFFFFFF AND DUP7 PUSH32 0xF440AEC6B52895984D061D622E6EDEBA6210F7C3E059BE920663140C084560D7 DUP5 PUSH1 0x40 MLOAD PUSH2 0x4AC SWAP2 SWAP1 PUSH2 0xE0C JUMP JUMPDEST PUSH1 0x40 MLOAD DUP1 SWAP2 SUB SWAP1 LOG3 POP POP POP POP POP POP JUMP JUMPDEST PUSH0 PUSH0 DUP4 SUB PUSH2 0x4F6 JUMPI PUSH1 0x40 MLOAD PUSH32 0x7C946ED700000000000000000000000000000000000000000000000000000000 DUP2 MSTORE PUSH1 0x4 ADD PUSH1 0x40 MLOAD DUP1 SWAP2 SUB SWAP1 REVERT JUMPDEST PUSH0 PUSH0 DUP2 SLOAD PUSH2 0x503 SWAP1 PUSH2 0x10F8 JUMP JUMPDEST SWAP2 SWAP1 POP DUP2 SWAP1 SSTORE SWAP1 POP PUSH0 PUSH1 0x1 PUSH0 DUP4 DUP2 MSTORE PUSH1 0x20 ADD SWAP1 DUP2 MSTORE PUSH1 0x20 ADD PUSH0 KECCAK256 SWAP1 POP CALLER DUP2 PUSH0 ADD PUSH0 PUSH2 0x100 EXP DUP2 SLOAD DUP2 PUSH20 0xFFFFFFFFFFFFFFFFFFFFFFFFFFFFFFFFFFFFFFFF MUL NOT AND SWAP1 DUP4 PUSH20 0xFFFFFFFFFFFFFFFFFFFFFFFFFFFFFFFFFFFFFFFF AND MUL OR SWAP1 SSTORE POP DUP4 DUP2 PUSH1 0x1 ADD DUP2 SWAP1 SSTORE POP DUP3 TIMESTAMP PUSH2 0x575 SWAP2 SWAP1 PUSH2 0x113F JUMP JUMPDEST DUP2 PUSH1 0x3 ADD DUP2 SWAP1 SSTORE POP PUSH0 DUP2 PUSH1 0x4 ADD PUSH0 PUSH2 0x100 EXP DUP2 SLOAD DUP2 PUSH1 0xFF MUL NOT AND SWAP1 DUP4 PUSH1 0x2 DUP2 GT ISZERO PUSH2 0x5A3 JUMPI PUSH2 0x5A2 PUSH2 0xE64 JUMP JUMPDEST JUMPDEST MUL OR SWAP1 SSTORE POP CALLER PUSH20 0xFFFFFFFFFFFFFFFFFFFFFFFFFFFFFFFFFFFFFFFF AND DUP3 PUSH32 0x633109EEC20320EDED000FC1E2634211AA7E92BA3F5B15FAF6DCDAFCA05094E4 PUSH1 0x40 MLOAD PUSH1 0x40 MLOAD DUP1 SWAP2 SUB SWAP1 LOG3 POP SWAP3 SWAP2 POP POP JUMP JUMPDEST DUP1 PUSH1 0x1 PUSH0 DUP3 DUP2 MSTORE PUSH1 0x20 ADD SWAP1 DUP2 MSTORE PUSH1 0x20 ADD PUSH0 KECCAK256 PUSH0 ADD PUSH0 SWAP1 SLOAD SWAP1 PUSH2 0x100 EXP SWAP1 DIV PUSH20 0xFFFFFFFFFFFFFFFFFFFFFFFFFFFFFFFFFFFFFFFF AND PUSH20 0xFFFFFFFFFFFFFFFFFFFFFFFFFFFFFFFFFFFFFFFF AND CALLER PUSH20 0xFFFFFFFFFFFFFFFFFFFFFFFFFFFFFFFFFFFFFFFF AND EQ PUSH2 0x68B JUMPI PUSH1 0x40 MLOAD PUSH32 0x93687C0B00000000000000000000000000000000000000000000000000000000 DUP2 MSTORE PUSH1 0x4 ADD PUSH1 0x40 MLOAD DUP1 SWAP2 SUB SWAP1 REVERT JUMPDEST DUP2 PUSH0 PUSH1 0x2 DUP2 GT ISZERO PUSH2 0x69F JUMPI PUSH2 0x69E PUSH2 0xE64 JUMP JUMPDEST JUMPDEST PUSH1 0x1 PUSH0 DUP4 DUP2 MSTORE PUSH1 0x20 ADD SWAP1 DUP2 MSTORE PUSH1 0x20 ADD PUSH0 KECCAK256 PUSH1 0x4 ADD PUSH0 SWAP1 SLOAD SWAP1 PUSH2 0x100 EXP SWAP1 DIV PUSH1 0xFF AND PUSH1 0x2 DUP2 GT ISZERO PUSH2 0x6D2 JUMPI PUSH2 0x6D1 PUSH2 0xE64 JUMP JUMPDEST JUMPDEST EQ PUSH2 0x709 JUMPI PUSH1 0x40 MLOAD PUSH32 0x433528B600000000000000000000000000000000000000000000000000000000 DUP2 MSTORE PUSH1 0x4 ADD PUSH1 0x40 MLOAD DUP1 SWAP2 SUB SWAP1 REVERT JUMPDEST PUSH0 PUSH1 0x1 PUSH0 DUP6 DUP2 MSTORE PUSH1 0x20 ADD SWAP1 DUP2 MSTORE PUSH1 0x20 ADD PUSH0 KECCAK256 SWAP1 POP DUP1 PUSH1 0x3 ADD SLOAD TIMESTAMP LT ISZERO PUSH2 0x75B JUMPI PUSH1 0x40 MLOAD PUSH32 0x66EC4EE600000000000000000000000000000000000000000000000000000000 DUP2 MSTORE PUSH1 0x4 ADD PUSH1 0x40 MLOAD DUP1 SWAP2 SUB SWAP1 REVERT JUMPDEST DUP1 PUSH1 0x1 ADD SLOAD DUP2 PUSH1 0x2 ADD SLOAD LT PUSH2 0x79B JUMPI PUSH1 0x1 DUP2 PUSH1 0x4 ADD PUSH0 PUSH2 0x100 EXP DUP2 SLOAD DUP2 PUSH1 0xFF MUL NOT AND SWAP1 DUP4 PUSH1 0x2 DUP2 GT ISZERO PUSH2 0x791 JUMPI PUSH2 0x790 PUSH2 0xE64 JUMP JUMPDEST JUMPDEST MUL OR SWAP1 SSTORE POP PUSH2 0x7C8 JUMP JUMPDEST PUSH1 0x2 DUP2 PUSH1 0x4 ADD PUSH0 PUSH2 0x100 EXP DUP2 SLOAD DUP2 PUSH1 0xFF MUL NOT AND SWAP1 DUP4 PUSH1 0x2 DUP2 GT ISZERO PUSH2 0x7C2 JUMPI PUSH2 0x7C1 PUSH2 0xE64 JUMP JUMPDEST JUMPDEST MUL OR SWAP1 SSTORE POP JUMPDEST DUP4 PUSH32 0x715224F5B965221887E084E1CDFFE100BF184993E777D3B6D52ABF8827623986 DUP3 PUSH1 0x4 ADD PUSH0 SWAP1 SLOAD SWAP1 PUSH2 0x100 EXP SWAP1 DIV PUSH1 0xFF AND PUSH1 0x40 MLOAD PUSH2 0x808 SWAP2 SWAP1 PUSH2 0x1172 JUMP JUMPDEST PUSH1 0x40 MLOAD DUP1 SWAP2 SUB SWAP1 LOG2 POP POP POP POP JUMP JUMPDEST PUSH1 0xC8 DUP2 JUMP JUMPDEST PUSH0 PUSH0 PUSH0 PUSH0 PUSH0 PUSH0 PUSH1 0x1 PUSH0 DUP9 DUP2 MSTORE PUSH1 0x20 ADD SWAP1 DUP2 MSTORE PUSH1 0x20 ADD PUSH0 KECCAK256 SWAP1 POP DUP1 PUSH0 ADD PUSH0 SWAP1 SLOAD SWAP1 PUSH2 0x100 EXP SWAP1 DIV PUSH20 0xFFFFFFFFFFFFFFFFFFFFFFFFFFFFFFFFFFFFFFFF AND DUP2 PUSH1 0x1 ADD SLOAD DUP3 PUSH1 0x2 ADD SLOAD DUP4 PUSH1 0x3 ADD SLOAD DUP5 PUSH1 0x4 ADD PUSH0 SWAP1 SLOAD SWAP1 PUSH2 0x100 EXP SWAP1 DIV PUSH1 0xFF AND SWAP6 POP SWAP6 POP SWAP6 POP SWAP6 POP SWAP6 POP POP SWAP2 SWAP4 SWAP6 SWAP1 SWAP3 SWAP5 POP JUMP JUMPDEST PUSH0 PUSH1 0x1 PUSH0 DUP4 DUP2 MSTORE PUSH1 0x20 ADD SWAP1 DUP2 MSTORE PUSH1 0x20 ADD PUSH0 KECCAK256 SWAP1 POP PUSH1 0x2 DUP1 DUP2 GT ISZERO PUSH2 0x8B2 JUMPI PUSH2 0x8B1 PUSH2 0xE64 JUMP JUMPDEST JUMPDEST DUP2 PUSH1 0x4 ADD PUSH0 SWAP1 SLOAD SWAP1 PUSH2 0x100 EXP SWAP1 DIV PUSH1 0xFF AND PUSH1 0x2 DUP2 GT ISZERO PUSH2 0x8D5 JUMPI PUSH2 0x8D4 PUSH2 0xE64 JUMP JUMPDEST JUMPDEST EQ PUSH2 0x90C JUMPI PUSH1 0x40 MLOAD PUSH32 0xEEB982F00000000000000000000000000000000000000000000000000000000 DUP2 MSTORE PUSH1 0x4 ADD PUSH1 0x40 MLOAD DUP1 SWAP2 SUB SWAP1 REVERT JUMPDEST PUSH0 PUSH1 0x2 PUSH0 DUP5 DUP2 MSTORE PUSH1 0x20 ADD SWAP1 DUP2 MSTORE PUSH1 0x20 ADD PUSH0 KECCAK256 PUSH0 CALLER PUSH20 0xFFFFFFFFFFFFFFFFFFFFFFFFFFFFFFFFFFFFFFFF AND PUSH20 0xFFFFFFFFFFFFFFFFFFFFFFFFFFFFFFFFFFFFFFFF AND DUP2 MSTORE PUSH1 0x20 ADD SWAP1 DUP2 MSTORE PUSH1 0x20 ADD PUSH0 KECCAK256 SLOAD SWAP1 POP PUSH0 DUP2 SUB PUSH2 0x995 JUMPI PUSH1 0x40 MLOAD PUSH32 0x7C946ED700000000000000000000000000000000000000000000000000000000 DUP2 MSTORE PUSH1 0x4 ADD PUSH1 0x40 MLOAD DUP1 SWAP2 SUB SWAP1 REVERT JUMPDEST PUSH0 PUSH1 0x2 PUSH0 DUP6 DUP2 MSTORE PUSH1 0x20 ADD SWAP1 DUP2 MSTORE PUSH1 0x20 ADD PUSH0 KECCAK256 PUSH0 CALLER PUSH20 0xFFFFFFFFFFFFFFFFFFFFFFFFFFFFFFFFFFFFFFFF AND PUSH20 0xFFFFFFFFFFFFFFFFFFFFFFFFFFFFFFFFFFFFFFFF AND DUP2 MSTORE PUSH1 0x20 ADD SWAP1 DUP2 MSTORE PUSH1 0x20 ADD PUSH0 KECCAK256 DUP2 SWAP1 SSTORE POP PUSH0 CALLER PUSH20 0xFFFFFFFFFFFFFFFFFFFFFFFFFFFFFFFFFFFFFFFF AND DUP3 PUSH1 0x40 MLOAD PUSH2 0xA0B SWAP1 PUSH2 0x106C JUMP JUMPDEST PUSH0 PUSH1 0x40 MLOAD DUP1 DUP4 SUB DUP2 DUP6 DUP8 GAS CALL SWAP3 POP POP POP RETURNDATASIZE DUP1 PUSH0 DUP2 EQ PUSH2 0xA45 JUMPI PUSH1 0x40 MLOAD SWAP2 POP PUSH1 0x1F NOT PUSH1 0x3F RETURNDATASIZE ADD AND DUP3 ADD PUSH1 0x40 MSTORE RETURNDATASIZE DUP3 MSTORE RETURNDATASIZE PUSH0 PUSH1 0x20 DUP5 ADD RETURNDATACOPY PUSH2 0xA4A JUMP JUMPDEST PUSH1 0x60 SWAP2 POP JUMPDEST POP POP SWAP1 POP DUP1 PUSH2 0xA8E JUMPI PUSH1 0x40 MLOAD PUSH32 0x8C379A000000000000000000000000000000000000000000000000000000000 DUP2 MSTORE PUSH1 0x4 ADD PUSH2 0xA85 SWAP1 PUSH2 0x11D5 JUMP JUMPDEST PUSH1 0x40 MLOAD DUP1 SWAP2 SUB SWAP1 REVERT JUMPDEST CALLER PUSH20 0xFFFFFFFFFFFFFFFFFFFFFFFFFFFFFFFFFFFFFFFF AND DUP5 PUSH32 0x7A482FDEB6BC9A1376F597068A214A7A39472BB2EFF1B8CAD21BA04F49DDCA1B DUP5 PUSH1 0x40 MLOAD PUSH2 0xAD5 SWAP2 SWAP1 PUSH2 0xE0C JUMP JUMPDEST PUSH1 0x40 MLOAD DUP1 SWAP2 SUB SWAP1 LOG3 POP POP POP POP JUMP JUMPDEST PUSH0 SLOAD DUP2 JUMP JUMPDEST PUSH32 0x0 DUP2 JUMP JUMPDEST DUP1 PUSH0 PUSH1 0x2 DUP2 GT ISZERO PUSH2 0xB20 JUMPI PUSH2 0xB1F PUSH2 0xE64 JUMP JUMPDEST JUMPDEST PUSH1 0x1 PUSH0 DUP4 DUP2 MSTORE PUSH1 0x20 ADD SWAP1 DUP2 MSTORE PUSH1 0x20 ADD PUSH0 KECCAK256 PUSH1 0x4 ADD PUSH0 SWAP1 SLOAD SWAP1 PUSH2 0x100 EXP SWAP1 DIV PUSH1 0xFF AND PUSH1 0x2 DUP2 GT ISZERO PUSH2 0xB53 JUMPI PUSH2 0xB52 PUSH2 0xE64 JUMP JUMPDEST JUMPDEST EQ PUSH2 0xB8A JUMPI PUSH1 0x40 MLOAD PUSH32 0x433528B600000000000000000000000000000000000000000000000000000000 DUP2 MSTORE PUSH1 0x4 ADD PUSH1 0x40 MLOAD DUP1 SWAP2 SUB SWAP1 REVERT JUMPDEST PUSH0 CALLVALUE SUB PUSH2 0xBC3 JUMPI PUSH1 0x40 MLOAD PUSH32 0x7C946ED700000000000000000000000000000000000000000000000000000000 DUP2 MSTORE PUSH1 0x4 ADD PUSH1 0x40 MLOAD DUP1 SWAP2 SUB SWAP1 REVERT JUMPDEST PUSH0 PUSH1 0x1 PUSH0 DUP5 DUP2 MSTORE PUSH1 0x20 ADD SWAP1 DUP2 MSTORE PUSH1 0x20 ADD PUSH0 KECCAK256 SWAP1 POP PUSH0 PUSH1 0x2 PUSH0 DUP6 DUP2 MSTORE PUSH1 0x20 ADD SWAP1 DUP2 MSTORE PUSH1 0x20 ADD PUSH0 KECCAK256 PUSH0 CALLER PUSH20 0xFFFFFFFFFFFFFFFFFFFFFFFFFFFFFFFFFFFFFFFF AND PUSH20 0xFFFFFFFFFFFFFFFFFFFFFFFFFFFFFFFFFFFFFFFF AND DUP2 MSTORE PUSH1 0x20 ADD SWAP1 DUP2 MSTORE PUSH1 0x20 ADD PUSH0 KECCAK256 SLOAD SUB PUSH2 0xC8D JUMPI DUP1 PUSH1 0x5 ADD CALLER SWAP1 DUP1 PUSH1 0x1 DUP2 SLOAD ADD DUP1 DUP3 SSTORE DUP1 SWAP2 POP POP PUSH1 0x1 SWAP1 SUB SWAP1 PUSH0 MSTORE PUSH1 0x20 PUSH0 KECCAK256 ADD PUSH0 SWAP1 SWAP2 SWAP1 SWAP2 SWAP1 SWAP2 PUSH2 0x100 EXP DUP2 SLOAD DUP2 PUSH20 0xFFFFFFFFFFFFFFFFFFFFFFFFFFFFFFFFFFFFFFFF MUL NOT AND SWAP1 DUP4 PUSH20 0xFFFFFFFFFFFFFFFFFFFFFFFFFFFFFFFFFFFFFFFF AND MUL OR SWAP1 SSTORE POP JUMPDEST CALLVALUE PUSH1 0x2 PUSH0 DUP6 DUP2 MSTORE PUSH1 0x20 ADD SWAP1 DUP2 MSTORE PUSH1 0x20 ADD PUSH0 KECCAK256 PUSH0 CALLER PUSH20 0xFFFFFFFFFFFFFFFFFFFFFFFFFFFFFFFFFFFFFFFF AND PUSH20 0xFFFFFFFFFFFFFFFFFFFFFFFFFFFFFFFFFFFFFFFF AND DUP2 MSTORE PUSH1 0x20 ADD SWAP1 DUP2 MSTORE PUSH1 0x20 ADD PUSH0 KECCAK256 PUSH0 DUP3 DUP3 SLOAD PUSH2 0xCE8 SWAP2 SWAP1 PUSH2 0x113F JUMP JUMPDEST SWAP3 POP POP DUP2 SWAP1 SSTORE POP CALLVALUE DUP2 PUSH1 0x2 ADD PUSH0 DUP3 DUP3 SLOAD PUSH2 0xD02 SWAP2 SWAP1 PUSH2 0x113F JUMP JUMPDEST SWAP3 POP POP DUP2 SWAP1 SSTORE POP CALLER PUSH20 0xFFFFFFFFFFFFFFFFFFFFFFFFFFFFFFFFFFFFFFFF AND DUP4 PUSH32 0x865C884D49C8CECAEF108EFB20F7D282F26C0F9B0D24DD48E5592D4E02EC658D CALLVALUE PUSH1 0x40 MLOAD PUSH2 0xD50 SWAP2 SWAP1 PUSH2 0xE0C JUMP JUMPDEST PUSH1 0x40 MLOAD DUP1 SWAP2 SUB SWAP1 LOG3 POP POP POP JUMP JUMPDEST PUSH0 PUSH0 REVERT JUMPDEST PUSH0 DUP2 SWAP1 POP SWAP2 SWAP1 POP JUMP JUMPDEST PUSH2 0xD73 DUP2 PUSH2 0xD61 JUMP JUMPDEST DUP2 EQ PUSH2 0xD7D JUMPI PUSH0 PUSH0 REVERT JUMPDEST POP JUMP JUMPDEST PUSH0 DUP2 CALLDATALOAD SWAP1 POP PUSH2 0xD8E DUP2 PUSH2 0xD6A JUMP JUMPDEST SWAP3 SWAP2 POP POP JUMP JUMPDEST PUSH0 PUSH1 0x20 DUP3 DUP5 SUB SLT ISZERO PUSH2 0xDA9 JUMPI PUSH2 0xDA8 PUSH2 0xD5D JUMP JUMPDEST JUMPDEST PUSH0 PUSH2 0xDB6 DUP5 DUP3 DUP6 ADD PUSH2 0xD80 JUMP JUMPDEST SWAP2 POP POP SWAP3 SWAP2 POP POP JUMP JUMPDEST PUSH0 PUSH0 PUSH1 0x40 DUP4 DUP6 SUB SLT ISZERO PUSH2 0xDD5 JUMPI PUSH2 0xDD4 PUSH2 0xD5D JUMP JUMPDEST JUMPDEST PUSH0 PUSH2 0xDE2 DUP6 DUP3 DUP7 ADD PUSH2 0xD80 JUMP JUMPDEST SWAP3 POP POP PUSH1 0x20 PUSH2 0xDF3 DUP6 DUP3 DUP7 ADD PUSH2 0xD80 JUMP JUMPDEST SWAP2 POP POP SWAP3 POP SWAP3 SWAP1 POP JUMP JUMPDEST PUSH2 0xE06 DUP2 PUSH2 0xD61 JUMP JUMPDEST DUP3 MSTORE POP POP JUMP JUMPDEST PUSH0 PUSH1 0x20 DUP3 ADD SWAP1 POP PUSH2 0xE1F PUSH0 DUP4 ADD DUP5 PUSH2 0xDFD JUMP JUMPDEST SWAP3 SWAP2 POP POP JUMP JUMPDEST PUSH0 PUSH20 0xFFFFFFFFFFFFFFFFFFFFFFFFFFFFFFFFFFFFFFFF DUP3 AND SWAP1 POP SWAP2 SWAP1 POP JUMP JUMPDEST PUSH0 PUSH2 0xE4E DUP3 PUSH2 0xE25 JUMP JUMPDEST SWAP1 POP SWAP2 SWAP1 POP JUMP JUMPDEST PUSH2 0xE5E DUP2 PUSH2 0xE44 JUMP JUMPDEST DUP3 MSTORE POP POP JUMP JUMPDEST PUSH32 0x4E487B7100000000000000000000000000000000000000000000000000000000 PUSH0 MSTORE PUSH1 0x21 PUSH1 0x4 MSTORE PUSH1 0x24 PUSH0 REVERT JUMPDEST PUSH1 0x3 DUP2 LT PUSH2 0xEA2 JUMPI PUSH2 0xEA1 PUSH2 0xE64 JUMP JUMPDEST JUMPDEST POP JUMP JUMPDEST PUSH0 DUP2 SWAP1 POP PUSH2 0xEB2 DUP3 PUSH2 0xE91 JUMP JUMPDEST SWAP2 SWAP1 POP JUMP JUMPDEST PUSH0 PUSH2 0xEC1 DUP3 PUSH2 0xEA5 JUMP JUMPDEST SWAP1 POP SWAP2 SWAP1 POP JUMP JUMPDEST PUSH2 0xED1 DUP2 PUSH2 0xEB7 JUMP JUMPDEST DUP3 MSTORE POP POP JUMP JUMPDEST PUSH0 PUSH1 0xA0 DUP3 ADD SWAP1 POP PUSH2 0xEEA PUSH0 DUP4 ADD DUP9 PUSH2 0xE55 JUMP JUMPDEST PUSH2 0xEF7 PUSH1 0x20 DUP4 ADD DUP8 PUSH2 0xDFD JUMP JUMPDEST PUSH2 0xF04 PUSH1 0x40 DUP4 ADD DUP7 PUSH2 0xDFD JUMP JUMPDEST PUSH2 0xF11 PUSH1 0x60 DUP4 ADD DUP6 PUSH2 0xDFD JUMP JUMPDEST PUSH2 0xF1E PUSH1 0x80 DUP4 ADD DUP5 PUSH2 0xEC8 JUMP JUMPDEST SWAP7 SWAP6 POP POP POP POP POP POP JUMP JUMPDEST PUSH0 PUSH1 0x20 DUP3 ADD SWAP1 POP PUSH2 0xF3B PUSH0 DUP4 ADD DUP5 PUSH2 0xE55 JUMP JUMPDEST SWAP3 SWAP2 POP POP JUMP JUMPDEST PUSH32 0x4E487B7100000000000000000000000000000000000000000000000000000000 PUSH0 MSTORE PUSH1 0x11 PUSH1 0x4 MSTORE PUSH1 0x24 PUSH0 REVERT JUMPDEST PUSH0 PUSH2 0xF78 DUP3 PUSH2 0xD61 JUMP JUMPDEST SWAP2 POP PUSH2 0xF83 DUP4 PUSH2 0xD61 JUMP JUMPDEST SWAP3 POP DUP3 DUP3 MUL PUSH2 0xF91 DUP2 PUSH2 0xD61 JUMP JUMPDEST SWAP2 POP DUP3 DUP3 DIV DUP5 EQ DUP4 ISZERO OR PUSH2 0xFA8 JUMPI PUSH2 0xFA7 PUSH2 0xF41 JUMP JUMPDEST JUMPDEST POP SWAP3 SWAP2 POP POP JUMP JUMPDEST PUSH32 0x4E487B7100000000000000000000000000000000000000000000000000000000 PUSH0 MSTORE PUSH1 0x12 PUSH1 0x4 MSTORE PUSH1 0x24 PUSH0 REVERT JUMPDEST PUSH0 PUSH2 0xFE6 DUP3 PUSH2 0xD61 JUMP JUMPDEST SWAP2 POP PUSH2 0xFF1 DUP4 PUSH2 0xD61 JUMP JUMPDEST SWAP3 POP DUP3 PUSH2 0x1001 JUMPI PUSH2 0x1000 PUSH2 0xFAF JUMP JUMPDEST JUMPDEST DUP3 DUP3 DIV SWAP1 POP SWAP3 SWAP2 POP POP JUMP JUMPDEST PUSH0 PUSH2 0x1016 DUP3 PUSH2 0xD61 JUMP JUMPDEST SWAP2 POP PUSH2 0x1021 DUP4 PUSH2 0xD61 JUMP JUMPDEST SWAP3 POP DUP3 DUP3 SUB SWAP1 POP DUP2 DUP2 GT ISZERO PUSH2 0x1039 JUMPI PUSH2 0x1038 PUSH2 0xF41 JUMP JUMPDEST JUMPDEST SWAP3 SWAP2 POP POP JUMP JUMPDEST PUSH0 DUP2 SWAP1 POP SWAP3 SWAP2 POP POP JUMP JUMPDEST POP JUMP JUMPDEST PUSH0 PUSH2 0x1057 PUSH0 DUP4 PUSH2 0x103F JUMP JUMPDEST SWAP2 POP PUSH2 0x1062 DUP3 PUSH2 0x1049 JUMP JUMPDEST PUSH0 DUP3 ADD SWAP1 POP SWAP2 SWAP1 POP JUMP JUMPDEST PUSH0 PUSH2 0x1076 DUP3 PUSH2 0x104C JUMP JUMPDEST SWAP2 POP DUP2 SWAP1 POP SWAP2 SWAP1 POP JUMP JUMPDEST PUSH0 DUP3 DUP3 MSTORE PUSH1 0x20 DUP3 ADD SWAP1 POP SWAP3 SWAP2 POP POP JUMP JUMPDEST PUSH32 0x455448207472616E73666572206661696C656400000000000000000000000000 PUSH0 DUP3 ADD MSTORE POP JUMP JUMPDEST PUSH0 PUSH2 0x10C4 PUSH1 0x13 DUP4 PUSH2 0x1080 JUMP JUMPDEST SWAP2 POP PUSH2 0x10CF DUP3 PUSH2 0x1090 JUMP JUMPDEST PUSH1 0x20 DUP3 ADD SWAP1 POP SWAP2 SWAP1 POP JUMP JUMPDEST PUSH0 PUSH1 0x20 DUP3 ADD SWAP1 POP DUP2 DUP2 SUB PUSH0 DUP4 ADD MSTORE PUSH2 0x10F1 DUP2 PUSH2 0x10B8 JUMP JUMPDEST SWAP1 POP SWAP2 SWAP1 POP JUMP JUMPDEST PUSH0 PUSH2 0x1102 DUP3 PUSH2 0xD61 JUMP JUMPDEST SWAP2 POP PUSH32 0xFFFFFFFFFFFFFFFFFFFFFFFFFFFFFFFFFFFFFFFFFFFFFFFFFFFFFFFFFFFFFFFF DUP3 SUB PUSH2 0x1134 JUMPI PUSH2 0x1133 PUSH2 0xF41 JUMP JUMPDEST JUMPDEST PUSH1 0x1 DUP3 ADD SWAP1 POP SWAP2 SWAP1 POP JUMP JUMPDEST PUSH0 PUSH2 0x1149 DUP3 PUSH2 0xD61 JUMP JUMPDEST SWAP2 POP PUSH2 0x1154 DUP4 PUSH2 0xD61 JUMP JUMPDEST SWAP3 POP DUP3 DUP3 ADD SWAP1 POP DUP1 DUP3 GT ISZERO PUSH2 0x116C JUMPI PUSH2 0x116B PUSH2 0xF41 JUMP JUMPDEST JUMPDEST SWAP3 SWAP2 POP POP JUMP JUMPDEST PUSH0 PUSH1 0x20 DUP3 ADD SWAP1 POP PUSH2 0x1185 PUSH0 DUP4 ADD DUP5 PUSH2 0xEC8 JUMP JUMPDEST SWAP3 SWAP2 POP POP JUMP JUMPDEST PUSH32 0x526566756E64206661696C656400000000000000000000000000000000000000 PUSH0 DUP3 ADD MSTORE POP JUMP JUMPDEST PUSH0 PUSH2 0x11BF PUSH1 0xD DUP4 PUSH2 0x1080 JUMP JUMPDEST SWAP2 POP PUSH2 0x11CA DUP3 PUSH2 0x118B JUMP JUMPDEST PUSH1 0x20 DUP3 ADD SWAP1 POP SWAP2 SWAP1 POP JUMP JUMPDEST PUSH0 PUSH1 0x20 DUP3 ADD SWAP1 POP DUP2 DUP2 SUB PUSH0 DUP4 ADD MSTORE PUSH2 0x11EC DUP2 PUSH2 0x11B3 JUMP JUMPDEST SWAP1 POP SWAP2 SWAP1 POP JUMP INVALID LOG2 PUSH5 0x6970667358 0x22 SLT KECCAK256 PUSH3 0x78BA9B MSIZE 0xE9 CREATE2 DUP13 PUSH23 0x140F9EC90C11FFCC14D64FC0C95BFC50489C39604E4DD9 PUSH5 0x736F6C6343 STOP ADDMOD 0x21 STOP CALLER "
				},
				"gasEstimates": {
					"creation": {
						"codeDepositCost": "929800",
						"executionCost": "infinite",
						"totalCost": "infinite"
					},
					"external": {
						"PLATFORM_FEE_BPS()": "392",
						"campaignCount()": "2468",
						"claimRefund(uint256)": "infinite",
						"contribute(uint256)": "infinite",
						"createCampaign(uint256,uint256)": "infinite",
						"getCampaign(uint256)": "infinite",
						"owner()": "infinite",
						"resolveCampaign(uint256)": "39555",
						"withdrawFunds(uint256)": "infinite"
					}
				},
				"methodIdentifiers": {
					"PLATFORM_FEE_BPS()": "539aa77f",
					"campaignCount()": "7274e30d",
					"claimRefund(uint256)": "5b7baf64",
					"contribute(uint256)": "c1cbbca7",
					"createCampaign(uint256,uint256)": "22502268",
					"getCampaign(uint256)": "5598f8cc",
					"owner()": "8da5cb5b",
					"resolveCampaign(uint256)": "4f2c84d1",
					"withdrawFunds(uint256)": "155dd5ee"
				}
			},
			"storageLayout": {
				"storage": [
					{
						"astId": 27,
						"contract": "crowdfund/crowdfund.sol:CrowdfundProject",
						"label": "campaignCount",
						"offset": 0,
						"slot": "0",
						"type": "t_uint256"
					},
					{
						"astId": 32,
						"contract": "crowdfund/crowdfund.sol:CrowdfundProject",
						"label": "campaigns",
						"offset": 0,
						"slot": "1",
						"type": "t_mapping(t_uint256,t_struct(Campaign)25_storage)"
					},
					{
						"astId": 38,
						"contract": "crowdfund/crowdfund.sol:CrowdfundProject",
						"label": "contributions",
						"offset": 0,
						"slot": "2",
						"type": "t_mapping(t_uint256,t_mapping(t_address,t_uint256))"
					}
				],
				"types": {
					"t_address": {
						"encoding": "inplace",
						"label": "address",
						"numberOfBytes": "20"
					},
					"t_array(t_address)dyn_storage": {
						"base": "t_address",
						"encoding": "dynamic_array",
						"label": "address[]",
						"numberOfBytes": "32"
					},
					"t_enum(CampaignStatus)10": {
						"encoding": "inplace",
						"label": "enum CrowdfundProject.CampaignStatus",
						"numberOfBytes": "1"
					},
					"t_mapping(t_address,t_uint256)": {
						"encoding": "mapping",
						"key": "t_address",
						"label": "mapping(address => uint256)",
						"numberOfBytes": "32",
						"value": "t_uint256"
					},
					"t_mapping(t_uint256,t_mapping(t_address,t_uint256))": {
						"encoding": "mapping",
						"key": "t_uint256",
						"label": "mapping(uint256 => mapping(address => uint256))",
						"numberOfBytes": "32",
						"value": "t_mapping(t_address,t_uint256)"
					},
					"t_mapping(t_uint256,t_struct(Campaign)25_storage)": {
						"encoding": "mapping",
						"key": "t_uint256",
						"label": "mapping(uint256 => struct CrowdfundProject.Campaign)",
						"numberOfBytes": "32",
						"value": "t_struct(Campaign)25_storage"
					},
					"t_struct(Campaign)25_storage": {
						"encoding": "inplace",
						"label": "struct CrowdfundProject.Campaign",
						"members": [
							{
								"astId": 12,
								"contract": "crowdfund/crowdfund.sol:CrowdfundProject",
								"label": "creator",
								"offset": 0,
								"slot": "0",
								"type": "t_address"
							},
							{
								"astId": 14,
								"contract": "crowdfund/crowdfund.sol:CrowdfundProject",
								"label": "goal",
								"offset": 0,
								"slot": "1",
								"type": "t_uint256"
							},
							{
								"astId": 16,
								"contract": "crowdfund/crowdfund.sol:CrowdfundProject",
								"label": "raised",
								"offset": 0,
								"slot": "2",
								"type": "t_uint256"
							},
							{
								"astId": 18,
								"contract": "crowdfund/crowdfund.sol:CrowdfundProject",
								"label": "deadline",
								"offset": 0,
								"slot": "3",
								"type": "t_uint256"
							},
							{
								"astId": 21,
								"contract": "crowdfund/crowdfund.sol:CrowdfundProject",
								"label": "status",
								"offset": 0,
								"slot": "4",
								"type": "t_enum(CampaignStatus)10"
							},
							{
								"astId": 24,
								"contract": "crowdfund/crowdfund.sol:CrowdfundProject",
								"label": "contributors",
								"offset": 0,
								"slot": "5",
								"type": "t_array(t_address)dyn_storage"
							}
						],
						"numberOfBytes": "192"
					},
					"t_uint256": {
						"encoding": "inplace",
						"label": "uint256",
						"numberOfBytes": "32"
					}
				}
			},
			"userdoc": {
				"kind": "user",
				"methods": {},
				"version": 1
			}
		}
	}
}