{
	"if/loop.sol": {
		"Loop": {
			"abi": [
				{
					"inputs": [],
					"name": "executewhileloop",
					"outputs": [],
					"stateMutability": "nonpayable",
					"type": "function"
				},
				{
					"inputs": [
						{
							"internalType": "uint256",
							"name": "",
							"type": "uint256"
						}
					],
					"name": "forloopresult",
					"outputs": [
						{
							"internalType": "uint256",
							"name": "",
							"type": "uint256"
						}
					],
					"stateMutability": "view",
					"type": "function"
				},
				{
					"inputs": [],
					"name": "getforloopresult",
					"outputs": [
						{
							"internalType": "uint256[]",
							"name": "",
							"type": "uint256[]"
						}
					],
					"stateMutability": "view",
					"type": "function"
				},
				{
					"inputs": [],
					"name": "loop",
					"outputs": [],
					"stateMutability": "nonpayable",
					"type": "function"
				},
				{
					"inputs": [],
					"name": "whileloopcounter",
					"outputs": [
						{
							"internalType": "uint256",
							"name": "",
							"type": "uint256"
						}
					],
					"stateMutability": "view",
					"type": "function"
				}
			],
			"devdoc": {
				"kind": "dev",
				"methods": {},
				"version": 1
			},
			"evm": {
				"assembly": "    /* \"if/loop.sol\":61:909  contract Loop {... */\n  mstore(0x40, 0x80)\n  callvalue\n  dup1\n  iszero\n  tag_1\n  jumpi\n  revert(0x00, 0x00)\ntag_1:\n  pop\n  dataSize(sub_0)\n  dup1\n  dataOffset(sub_0)\n  0x00\n  codecopy\n  0x00\n  return\nstop\n\nsub_0: assembly {\n        /* \"if/loop.sol\":61:909  contract Loop {... */\n      mstore(0x40, 0x80)\n      callvalue\n      dup1\n      iszero\n      tag_1\n      jumpi\n      revert(0x00, 0x00)\n    tag_1:\n      pop\n      jumpi(tag_2, lt(calldatasize, 0x04))\n      shr(0xe0, calldataload(0x00))\n      dup1\n      0x0c49ed8c\n      eq\n      tag_3\n      jumpi\n      dup1\n      0x945629ab\n      eq\n      tag_4\n      jumpi\n      dup1\n      0xa92100cb\n      eq\n      tag_5\n      jumpi\n      dup1\n      0xdc98d602\n      eq\n      tag_6\n      jumpi\n      dup1\n      0xed5a411f\n      eq\n      tag_7\n      jumpi\n    tag_2:\n      revert(0x00, 0x00)\n        /* \"if/loop.sol\":116:144  uint public whileloopcounter */\n    tag_3:\n      tag_8\n      tag_9\n      jump\t// in\n    tag_8:\n      mload(0x40)\n      tag_10\n      swap2\n      swap1\n      tag_11\n      jump\t// in\n    tag_10:\n      mload(0x40)\n      dup1\n      swap2\n      sub\n      swap1\n      return\n        /* \"if/loop.sol\":782:898  function getforloopresult() public view returns ( uint256[] memory ) {... */\n    tag_4:\n      tag_12\n      tag_13\n      jump\t// in\n    tag_12:\n      mload(0x40)\n      tag_14\n      swap2\n      swap1\n      tag_15\n      jump\t// in\n    tag_14:\n      mload(0x40)\n      dup1\n      swap2\n      sub\n      swap1\n      return\n        /* \"if/loop.sol\":153:595  function loop() public  {... */\n    tag_5:\n      tag_16\n      tag_17\n      jump\t// in\n    tag_16:\n      stop\n        /* \"if/loop.sol\":628:772  function executewhileloop() public{... */\n    tag_6:\n      tag_18\n      tag_19\n      jump\t// in\n    tag_18:\n      stop\n        /* \"if/loop.sol\":82:109  uint[] public forloopresult */\n    tag_7:\n      tag_20\n      0x04\n      dup1\n      calldatasize\n      sub\n      dup2\n      add\n      swap1\n      tag_21\n      swap2\n      swap1\n      tag_22\n      jump\t// in\n    tag_21:\n      tag_23\n      jump\t// in\n    tag_20:\n      mload(0x40)\n      tag_24\n      swap2\n      swap1\n      tag_11\n      jump\t// in\n    tag_24:\n      mload(0x40)\n      dup1\n      swap2\n      sub\n      swap1\n      return\n        /* \"if/loop.sol\":116:144  uint public whileloopcounter */\n    tag_9:\n      sload(0x01)\n      dup2\n      jump\t// out\n        /* \"if/loop.sol\":782:898  function getforloopresult() public view returns ( uint256[] memory ) {... */\n    tag_13:\n        /* \"if/loop.sol\":832:848  uint256[] memory */\n      0x60\n        /* \"if/loop.sol\":873:886  forloopresult */\n      0x00\n        /* \"if/loop.sol\":866:886  return forloopresult */\n      dup1\n      sload\n      dup1\n      0x20\n      mul\n      0x20\n      add\n      mload(0x40)\n      swap1\n      dup2\n      add\n      0x40\n      mstore\n      dup1\n      swap3\n      swap2\n      swap1\n      dup2\n      dup2\n      mstore\n      0x20\n      add\n      dup3\n      dup1\n      sload\n      dup1\n      iszero\n      tag_26\n      jumpi\n      0x20\n      mul\n      dup3\n      add\n      swap2\n      swap1\n      0x00\n      mstore\n      keccak256(0x00, 0x20)\n      swap1\n    tag_27:\n      dup2\n      sload\n      dup2\n      mstore\n      0x20\n      add\n      swap1\n      0x01\n      add\n      swap1\n      dup1\n      dup4\n      gt\n      tag_27\n      jumpi\n    tag_26:\n      pop\n      pop\n      pop\n      pop\n      pop\n      swap1\n      pop\n        /* \"if/loop.sol\":782:898  function getforloopresult() public view returns ( uint256[] memory ) {... */\n      swap1\n      jump\t// out\n        /* \"if/loop.sol\":153:595  function loop() public  {... */\n    tag_17:\n        /* \"if/loop.sol\":195:208  forloopresult */\n      0x00\n      0x00\n        /* \"if/loop.sol\":188:208  delete forloopresult */\n      tag_29\n      swap2\n      swap1\n      tag_30\n      jump\t// in\n    tag_29:\n        /* \"if/loop.sol\":279:288  uint256 i */\n      0x00\n        /* \"if/loop.sol\":291:292  0 */\n      0x00\n        /* \"if/loop.sol\":279:292  uint256 i = 0 */\n      swap1\n      pop\n        /* \"if/loop.sol\":274:588  for (uint256 i = 0; i < 10; i++) {... */\n    tag_31:\n        /* \"if/loop.sol\":298:300  10 */\n      0x0a\n        /* \"if/loop.sol\":294:295  i */\n      dup2\n        /* \"if/loop.sol\":294:300  i < 10 */\n      lt\n        /* \"if/loop.sol\":274:588  for (uint256 i = 0; i < 10; i++) {... */\n      iszero\n      tag_32\n      jumpi\n        /* \"if/loop.sol\":331:332  3 */\n      0x03\n        /* \"if/loop.sol\":326:327  i */\n      dup2\n        /* \"if/loop.sol\":326:332  i == 3 */\n      sub\n        /* \"if/loop.sol\":322:434  if (i == 3) {... */\n      iszero\n        /* \"if/loop.sol\":410:418  continue */\n      tag_33\n        /* \"if/loop.sol\":322:434  if (i == 3) {... */\n      jumpi\n        /* \"if/loop.sol\":457:458  5 */\n      0x05\n        /* \"if/loop.sol\":452:453  i */\n      dup2\n        /* \"if/loop.sol\":452:458  i == 5 */\n      sub\n        /* \"if/loop.sol\":448:541  if (i == 5) {... */\n      iszero\n        /* \"if/loop.sol\":520:525  break */\n      tag_32\n        /* \"if/loop.sol\":448:541  if (i == 5) {... */\n      jumpi\n        /* \"if/loop.sol\":555:568  forloopresult */\n      0x00\n        /* \"if/loop.sol\":574:575  i */\n      dup2\n        /* \"if/loop.sol\":555:576  forloopresult.push(i) */\n      swap1\n      dup1\n      0x01\n      dup2\n      sload\n      add\n      dup1\n      dup3\n      sstore\n      dup1\n      swap2\n      pop\n      pop\n      0x01\n      swap1\n      sub\n      swap1\n      0x00\n      mstore\n      keccak256(0x00, 0x20)\n      add\n      0x00\n      swap1\n      swap2\n      swap1\n      swap2\n      swap1\n      swap2\n      pop\n      sstore\n        /* \"if/loop.sol\":274:588  for (uint256 i = 0; i < 10; i++) {... */\n    tag_33:\n        /* \"if/loop.sol\":302:305  i++ */\n      dup1\n      dup1\n      0x01\n      add\n      swap2\n      pop\n      pop\n        /* \"if/loop.sol\":274:588  for (uint256 i = 0; i < 10; i++) {... */\n      jump(tag_31)\n    tag_32:\n      pop\n        /* \"if/loop.sol\":153:595  function loop() public  {... */\n      jump\t// out\n        /* \"if/loop.sol\":628:772  function executewhileloop() public{... */\n    tag_19:\n        /* \"if/loop.sol\":694:695  0 */\n      0x00\n        /* \"if/loop.sol\":677:693  whileloopcounter */\n      0x01\n        /* \"if/loop.sol\":677:695  whileloopcounter=0 */\n      dup2\n      swap1\n      sstore\n      pop\n        /* \"if/loop.sol\":706:715  uint256 j */\n      0x00\n        /* \"if/loop.sol\":726:771  while (j < 10) {... */\n    tag_38:\n        /* \"if/loop.sol\":737:739  10 */\n      0x0a\n        /* \"if/loop.sol\":733:734  j */\n      dup2\n        /* \"if/loop.sol\":733:739  j < 10 */\n      lt\n        /* \"if/loop.sol\":726:771  while (j < 10) {... */\n      iszero\n      tag_39\n      jumpi\n        /* \"if/loop.sol\":756:759  j++ */\n      dup1\n      dup1\n      tag_40\n      swap1\n      tag_41\n      jump\t// in\n    tag_40:\n      swap2\n      pop\n      pop\n        /* \"if/loop.sol\":726:771  while (j < 10) {... */\n      jump(tag_38)\n    tag_39:\n        /* \"if/loop.sol\":662:772  {... */\n      pop\n        /* \"if/loop.sol\":628:772  function executewhileloop() public{... */\n      jump\t// out\n        /* \"if/loop.sol\":82:109  uint[] public forloopresult */\n    tag_23:\n      0x00\n      dup2\n      dup2\n      sload\n      dup2\n      lt\n      tag_42\n      jumpi\n      0x00\n      dup1\n      revert\n    tag_42:\n      swap1\n      0x00\n      mstore\n      keccak256(0x00, 0x20)\n      add\n      0x00\n      swap2\n      pop\n      swap1\n      pop\n      sload\n      dup2\n      jump\t// out\n    tag_30:\n      pop\n      dup1\n      sload\n      0x00\n      dup3\n      sstore\n      swap1\n      0x00\n      mstore\n      keccak256(0x00, 0x20)\n      swap1\n      dup2\n      add\n      swap1\n      tag_45\n      swap2\n      swap1\n      tag_46\n      jump\t// in\n    tag_45:\n      pop\n      jump\t// out\n    tag_46:\n    tag_47:\n      dup1\n      dup3\n      gt\n      iszero\n      tag_48\n      jumpi\n      0x00\n      dup2\n      0x00\n      swap1\n      sstore\n      pop\n      0x01\n      add\n      jump(tag_47)\n    tag_48:\n      pop\n      swap1\n      jump\t// out\n        /* \"#utility.yul\":7:84   */\n    tag_49:\n        /* \"#utility.yul\":44:51   */\n      0x00\n        /* \"#utility.yul\":73:78   */\n      dup2\n        /* \"#utility.yul\":62:78   */\n      swap1\n      pop\n        /* \"#utility.yul\":7:84   */\n      swap2\n      swap1\n      pop\n      jump\t// out\n        /* \"#utility.yul\":90:208   */\n    tag_50:\n        /* \"#utility.yul\":177:201   */\n      tag_67\n        /* \"#utility.yul\":195:200   */\n      dup2\n        /* \"#utility.yul\":177:201   */\n      tag_49\n      jump\t// in\n    tag_67:\n        /* \"#utility.yul\":172:175   */\n      dup3\n        /* \"#utility.yul\":165:202   */\n      mstore\n        /* \"#utility.yul\":90:208   */\n      pop\n      pop\n      jump\t// out\n        /* \"#utility.yul\":214:436   */\n    tag_11:\n        /* \"#utility.yul\":307:311   */\n      0x00\n        /* \"#utility.yul\":345:347   */\n      0x20\n        /* \"#utility.yul\":334:343   */\n      dup3\n        /* \"#utility.yul\":330:348   */\n      add\n        /* \"#utility.yul\":322:348   */\n      swap1\n      pop\n        /* \"#utility.yul\":358:429   */\n      tag_69\n        /* \"#utility.yul\":426:427   */\n      0x00\n        /* \"#utility.yul\":415:424   */\n      dup4\n        /* \"#utility.yul\":411:428   */\n      add\n        /* \"#utility.yul\":402:408   */\n      dup5\n        /* \"#utility.yul\":358:429   */\n      tag_50\n      jump\t// in\n    tag_69:\n        /* \"#utility.yul\":214:436   */\n      swap3\n      swap2\n      pop\n      pop\n      jump\t// out\n        /* \"#utility.yul\":442:556   */\n    tag_51:\n        /* \"#utility.yul\":509:515   */\n      0x00\n        /* \"#utility.yul\":543:548   */\n      dup2\n        /* \"#utility.yul\":537:549   */\n      mload\n        /* \"#utility.yul\":527:549   */\n      swap1\n      pop\n        /* \"#utility.yul\":442:556   */\n      swap2\n      swap1\n      pop\n      jump\t// out\n        /* \"#utility.yul\":562:746   */\n    tag_52:\n        /* \"#utility.yul\":661:672   */\n      0x00\n        /* \"#utility.yul\":695:701   */\n      dup3\n        /* \"#utility.yul\":690:693   */\n      dup3\n        /* \"#utility.yul\":683:702   */\n      mstore\n        /* \"#utility.yul\":735:739   */\n      0x20\n        /* \"#utility.yul\":730:733   */\n      dup3\n        /* \"#utility.yul\":726:740   */\n      add\n        /* \"#utility.yul\":711:740   */\n      swap1\n      pop\n        /* \"#utility.yul\":562:746   */\n      swap3\n      swap2\n      pop\n      pop\n      jump\t// out\n        /* \"#utility.yul\":752:884   */\n    tag_53:\n        /* \"#utility.yul\":819:823   */\n      0x00\n        /* \"#utility.yul\":842:845   */\n      dup2\n        /* \"#utility.yul\":834:845   */\n      swap1\n      pop\n        /* \"#utility.yul\":872:876   */\n      0x20\n        /* \"#utility.yul\":867:870   */\n      dup3\n        /* \"#utility.yul\":863:877   */\n      add\n        /* \"#utility.yul\":855:877   */\n      swap1\n      pop\n        /* \"#utility.yul\":752:884   */\n      swap2\n      swap1\n      pop\n      jump\t// out\n        /* \"#utility.yul\":890:998   */\n    tag_54:\n        /* \"#utility.yul\":967:991   */\n      tag_74\n        /* \"#utility.yul\":985:990   */\n      dup2\n        /* \"#utility.yul\":967:991   */\n      tag_49\n      jump\t// in\n    tag_74:\n        /* \"#utility.yul\":962:965   */\n      dup3\n        /* \"#utility.yul\":955:992   */\n      mstore\n        /* \"#utility.yul\":890:998   */\n      pop\n      pop\n      jump\t// out\n        /* \"#utility.yul\":1004:1183   */\n    tag_55:\n        /* \"#utility.yul\":1073:1083   */\n      0x00\n        /* \"#utility.yul\":1094:1140   */\n      tag_76\n        /* \"#utility.yul\":1136:1139   */\n      dup4\n        /* \"#utility.yul\":1128:1134   */\n      dup4\n        /* \"#utility.yul\":1094:1140   */\n      tag_54\n      jump\t// in\n    tag_76:\n        /* \"#utility.yul\":1172:1176   */\n      0x20\n        /* \"#utility.yul\":1167:1170   */\n      dup4\n        /* \"#utility.yul\":1163:1177   */\n      add\n        /* \"#utility.yul\":1149:1177   */\n      swap1\n      pop\n        /* \"#utility.yul\":1004:1183   */\n      swap3\n      swap2\n      pop\n      pop\n      jump\t// out\n        /* \"#utility.yul\":1189:1302   */\n    tag_56:\n        /* \"#utility.yul\":1259:1263   */\n      0x00\n        /* \"#utility.yul\":1291:1295   */\n      0x20\n        /* \"#utility.yul\":1286:1289   */\n      dup3\n        /* \"#utility.yul\":1282:1296   */\n      add\n        /* \"#utility.yul\":1274:1296   */\n      swap1\n      pop\n        /* \"#utility.yul\":1189:1302   */\n      swap2\n      swap1\n      pop\n      jump\t// out\n        /* \"#utility.yul\":1338:2070   */\n    tag_57:\n        /* \"#utility.yul\":1457:1460   */\n      0x00\n        /* \"#utility.yul\":1486:1540   */\n      tag_79\n        /* \"#utility.yul\":1534:1539   */\n      dup3\n        /* \"#utility.yul\":1486:1540   */\n      tag_51\n      jump\t// in\n    tag_79:\n        /* \"#utility.yul\":1556:1642   */\n      tag_80\n        /* \"#utility.yul\":1635:1641   */\n      dup2\n        /* \"#utility.yul\":1630:1633   */\n      dup6\n        /* \"#utility.yul\":1556:1642   */\n      tag_52\n      jump\t// in\n    tag_80:\n        /* \"#utility.yul\":1549:1642   */\n      swap4\n      pop\n        /* \"#utility.yul\":1666:1722   */\n      tag_81\n        /* \"#utility.yul\":1716:1721   */\n      dup4\n        /* \"#utility.yul\":1666:1722   */\n      tag_53\n      jump\t// in\n    tag_81:\n        /* \"#utility.yul\":1745:1752   */\n      dup1\n        /* \"#utility.yul\":1776:1777   */\n      0x00\n        /* \"#utility.yul\":1761:2045   */\n    tag_82:\n        /* \"#utility.yul\":1786:1792   */\n      dup4\n        /* \"#utility.yul\":1783:1784   */\n      dup2\n        /* \"#utility.yul\":1780:1793   */\n      lt\n        /* \"#utility.yul\":1761:2045   */\n      iszero\n      tag_84\n      jumpi\n        /* \"#utility.yul\":1862:1868   */\n      dup2\n        /* \"#utility.yul\":1856:1869   */\n      mload\n        /* \"#utility.yul\":1889:1952   */\n      tag_85\n        /* \"#utility.yul\":1948:1951   */\n      dup9\n        /* \"#utility.yul\":1933:1946   */\n      dup3\n        /* \"#utility.yul\":1889:1952   */\n      tag_55\n      jump\t// in\n    tag_85:\n        /* \"#utility.yul\":1882:1952   */\n      swap8\n      pop\n        /* \"#utility.yul\":1975:2035   */\n      tag_86\n        /* \"#utility.yul\":2028:2034   */\n      dup4\n        /* \"#utility.yul\":1975:2035   */\n      tag_56\n      jump\t// in\n    tag_86:\n        /* \"#utility.yul\":1965:2035   */\n      swap3\n      pop\n        /* \"#utility.yul\":1821:2045   */\n      pop\n        /* \"#utility.yul\":1808:1809   */\n      0x01\n        /* \"#utility.yul\":1805:1806   */\n      dup2\n        /* \"#utility.yul\":1801:1810   */\n      add\n        /* \"#utility.yul\":1796:1810   */\n      swap1\n      pop\n        /* \"#utility.yul\":1761:2045   */\n      jump(tag_82)\n    tag_84:\n        /* \"#utility.yul\":1765:1779   */\n      pop\n        /* \"#utility.yul\":2061:2064   */\n      dup6\n        /* \"#utility.yul\":2054:2064   */\n      swap4\n      pop\n        /* \"#utility.yul\":1462:2070   */\n      pop\n      pop\n      pop\n        /* \"#utility.yul\":1338:2070   */\n      swap3\n      swap2\n      pop\n      pop\n      jump\t// out\n        /* \"#utility.yul\":2076:2449   */\n    tag_15:\n        /* \"#utility.yul\":2219:2223   */\n      0x00\n        /* \"#utility.yul\":2257:2259   */\n      0x20\n        /* \"#utility.yul\":2246:2255   */\n      dup3\n        /* \"#utility.yul\":2242:2260   */\n      add\n        /* \"#utility.yul\":2234:2260   */\n      swap1\n      pop\n        /* \"#utility.yul\":2306:2315   */\n      dup2\n        /* \"#utility.yul\":2300:2304   */\n      dup2\n        /* \"#utility.yul\":2296:2316   */\n      sub\n        /* \"#utility.yul\":2292:2293   */\n      0x00\n        /* \"#utility.yul\":2281:2290   */\n      dup4\n        /* \"#utility.yul\":2277:2294   */\n      add\n        /* \"#utility.yul\":2270:2317   */\n      mstore\n        /* \"#utility.yul\":2334:2442   */\n      tag_88\n        /* \"#utility.yul\":2437:2441   */\n      dup2\n        /* \"#utility.yul\":2428:2434   */\n      dup5\n        /* \"#utility.yul\":2334:2442   */\n      tag_57\n      jump\t// in\n    tag_88:\n        /* \"#utility.yul\":2326:2442   */\n      swap1\n      pop\n        /* \"#utility.yul\":2076:2449   */\n      swap3\n      swap2\n      pop\n      pop\n      jump\t// out\n        /* \"#utility.yul\":2536:2653   */\n    tag_59:\n        /* \"#utility.yul\":2645:2646   */\n      0x00\n        /* \"#utility.yul\":2642:2643   */\n      0x00\n        /* \"#utility.yul\":2635:2647   */\n      revert\n        /* \"#utility.yul\":2782:2904   */\n    tag_61:\n        /* \"#utility.yul\":2855:2879   */\n      tag_93\n        /* \"#utility.yul\":2873:2878   */\n      dup2\n        /* \"#utility.yul\":2855:2879   */\n      tag_49\n      jump\t// in\n    tag_93:\n        /* \"#utility.yul\":2848:2853   */\n      dup2\n        /* \"#utility.yul\":2845:2880   */\n      eq\n        /* \"#utility.yul\":2835:2898   */\n      tag_94\n      jumpi\n        /* \"#utility.yul\":2894:2895   */\n      0x00\n        /* \"#utility.yul\":2891:2892   */\n      0x00\n        /* \"#utility.yul\":2884:2896   */\n      revert\n        /* \"#utility.yul\":2835:2898   */\n    tag_94:\n        /* \"#utility.yul\":2782:2904   */\n      pop\n      jump\t// out\n        /* \"#utility.yul\":2910:3049   */\n    tag_62:\n        /* \"#utility.yul\":2956:2961   */\n      0x00\n        /* \"#utility.yul\":2994:3000   */\n      dup2\n        /* \"#utility.yul\":2981:3001   */\n      calldataload\n        /* \"#utility.yul\":2972:3001   */\n      swap1\n      pop\n        /* \"#utility.yul\":3010:3043   */\n      tag_96\n        /* \"#utility.yul\":3037:3042   */\n      dup2\n        /* \"#utility.yul\":3010:3043   */\n      tag_61\n      jump\t// in\n    tag_96:\n        /* \"#utility.yul\":2910:3049   */\n      swap3\n      swap2\n      pop\n      pop\n      jump\t// out\n        /* \"#utility.yul\":3055:3384   */\n    tag_22:\n        /* \"#utility.yul\":3114:3120   */\n      0x00\n        /* \"#utility.yul\":3163:3165   */\n      0x20\n        /* \"#utility.yul\":3151:3160   */\n      dup3\n        /* \"#utility.yul\":3142:3149   */\n      dup5\n        /* \"#utility.yul\":3138:3161   */\n      sub\n        /* \"#utility.yul\":3134:3166   */\n      slt\n        /* \"#utility.yul\":3131:3250   */\n      iszero\n      tag_98\n      jumpi\n        /* \"#utility.yul\":3169:3248   */\n      tag_99\n      tag_59\n      jump\t// in\n    tag_99:\n        /* \"#utility.yul\":3131:3250   */\n    tag_98:\n        /* \"#utility.yul\":3289:3290   */\n      0x00\n        /* \"#utility.yul\":3314:3367   */\n      tag_100\n        /* \"#utility.yul\":3359:3366   */\n      dup5\n        /* \"#utility.yul\":3350:3356   */\n      dup3\n        /* \"#utility.yul\":3339:3348   */\n      dup6\n        /* \"#utility.yul\":3335:3357   */\n      add\n        /* \"#utility.yul\":3314:3367   */\n      tag_62\n      jump\t// in\n    tag_100:\n        /* \"#utility.yul\":3304:3367   */\n      swap2\n      pop\n        /* \"#utility.yul\":3260:3377   */\n      pop\n        /* \"#utility.yul\":3055:3384   */\n      swap3\n      swap2\n      pop\n      pop\n      jump\t// out\n        /* \"#utility.yul\":3390:3570   */\n    tag_63:\n        /* \"#utility.yul\":3438:3515   */\n      0x4e487b7100000000000000000000000000000000000000000000000000000000\n        /* \"#utility.yul\":3435:3436   */\n      0x00\n        /* \"#utility.yul\":3428:3516   */\n      mstore\n        /* \"#utility.yul\":3535:3539   */\n      0x11\n        /* \"#utility.yul\":3532:3533   */\n      0x04\n        /* \"#utility.yul\":3525:3540   */\n      mstore\n        /* \"#utility.yul\":3559:3563   */\n      0x24\n        /* \"#utility.yul\":3556:3557   */\n      0x00\n        /* \"#utility.yul\":3549:3564   */\n      revert\n        /* \"#utility.yul\":3576:3809   */\n    tag_41:\n        /* \"#utility.yul\":3615:3618   */\n      0x00\n        /* \"#utility.yul\":3638:3662   */\n      tag_103\n        /* \"#utility.yul\":3656:3661   */\n      dup3\n        /* \"#utility.yul\":3638:3662   */\n      tag_49\n      jump\t// in\n    tag_103:\n        /* \"#utility.yul\":3629:3662   */\n      swap2\n      pop\n        /* \"#utility.yul\":3684:3750   */\n      0xffffffffffffffffffffffffffffffffffffffffffffffffffffffffffffffff\n        /* \"#utility.yul\":3677:3682   */\n      dup3\n        /* \"#utility.yul\":3674:3751   */\n      sub\n        /* \"#utility.yul\":3671:3774   */\n      tag_104\n      jumpi\n        /* \"#utility.yul\":3754:3772   */\n      tag_105\n      tag_63\n      jump\t// in\n    tag_105:\n        /* \"#utility.yul\":3671:3774   */\n    tag_104:\n        /* \"#utility.yul\":3801:3802   */\n      0x01\n        /* \"#utility.yul\":3794:3799   */\n      dup3\n        /* \"#utility.yul\":3790:3803   */\n      add\n        /* \"#utility.yul\":3783:3803   */\n      swap1\n      pop\n        /* \"#utility.yul\":3576:3809   */\n      swap2\n      swap1\n      pop\n      jump\t// out\n\n    auxdata: 0xa26469706673582212201f447f985adf7261bd58ff1d7932b0160b66d7c93b8e27fd80495f833fa26f0464736f6c634300081e0033\n}\n",
				"bytecode": {
					"linkReferences": {},
					"object": "6080604052348015600e575f5ffd5b506104218061001c5f395ff3fe608060405234801561000f575f5ffd5b5060043610610055575f3560e01c80630c49ed8c14610059578063945629ab14610077578063a92100cb14610095578063dc98d6021461009f578063ed5a411f146100a9575b5f5ffd5b6100616100d9565b60405161006e919061022e565b60405180910390f35b61007f6100df565b60405161008c91906102fe565b60405180910390f35b61009d610134565b005b6100a7610196565b005b6100c360048036038101906100be919061034c565b6101be565b6040516100d0919061022e565b60405180910390f35b60015481565b60605f80548060200260200160405190810160405280929190818152602001828054801561012a57602002820191905f5260205f20905b815481526020019060010190808311610116575b5050505050905090565b5f5f61014091906101dd565b5f5f90505b600a811015610193576003810315610186576005810315610193575f81908060018154018082558091505060019003905f5260205f20015f90919091909150555b8080600101915050610145565b50565b5f6001819055505f5b600a8110156101bb5780806101b3906103a4565b91505061019f565b50565b5f81815481106101cc575f80fd5b905f5260205f20015f915090505481565b5080545f8255905f5260205f20908101906101f891906101fb565b50565b5b80821115610212575f815f9055506001016101fc565b5090565b5f819050919050565b61022881610216565b82525050565b5f6020820190506102415f83018461021f565b92915050565b5f81519050919050565b5f82825260208201905092915050565b5f819050602082019050919050565b61027981610216565b82525050565b5f61028a8383610270565b60208301905092915050565b5f602082019050919050565b5f6102ac82610247565b6102b68185610251565b93506102c183610261565b805f5b838110156102f15781516102d8888261027f565b97506102e383610296565b9250506001810190506102c4565b5085935050505092915050565b5f6020820190508181035f83015261031681846102a2565b905092915050565b5f5ffd5b61032b81610216565b8114610335575f5ffd5b50565b5f8135905061034681610322565b92915050565b5f602082840312156103615761036061031e565b5b5f61036e84828501610338565b91505092915050565b7f4e487b71000000000000000000000000000000000000000000000000000000005f52601160045260245ffd5b5f6103ae82610216565b91507fffffffffffffffffffffffffffffffffffffffffffffffffffffffffffffffff82036103e0576103df610377565b5b60018201905091905056fea26469706673582212201f447f985adf7261bd58ff1d7932b0160b66d7c93b8e27fd80495f833fa26f0464736f6c634300081e0033",
					"opcodes": "PUSH1 0x80 PUSH1 0x40 MSTORE CALLVALUE DUP1 ISZERO PUSH1 0xE JUMPI PUSH0 PUSH0 REVERT JUMPDEST POP PUSH2 0x421 DUP1 PUSH2 0x1C PUSH0 CODECOPY PUSH0 RETURN INVALID PUSH1 0x80 PUSH1 0x40 MSTORE CALLVALUE DUP1 ISZERO PUSH2 0xF JUMPI PUSH0 PUSH0 REVERT JUMPDEST POP PUSH1 0x4 CALLDATASIZE LT PUSH2 0x55 JUMPI PUSH0 CALLDATALOAD PUSH1 0xE0 SHR DUP1 PUSH4 0xC49ED8C EQ PUSH2 0x59 JUMPI DUP1 PUSH4 0x945629AB EQ PUSH2 0x77 JUMPI DUP1 PUSH4 0xA92100CB EQ PUSH2 0x95 JUMPI DUP1 PUSH4 0xDC98D602 EQ PUSH2 0x9F JUMPI DUP1 PUSH4 0xED5A411F EQ PUSH2 0xA9 JUMPI JUMPDEST PUSH0 PUSH0 REVERT JUMPDEST PUSH2 0x61 PUSH2 0xD9 JUMP JUMPDEST PUSH1 0x40 MLOAD PUSH2 0x6E SWAP2 SWAP1 PUSH2 0x22E JUMP JUMPDEST PUSH1 0x40 MLOAD DUP1 SWAP2 SUB SWAP1 RETURN JUMPDEST PUSH2 0x7F PUSH2 0xDF JUMP JUMPDEST PUSH1 0x40 MLOAD PUSH2 0x8C SWAP2 SWAP1 PUSH2 0x2FE JUMP JUMPDEST PUSH1 0x40 MLOAD DUP1 SWAP2 SUB SWAP1 RETURN JUMPDEST PUSH2 0x9D PUSH2 0x134 JUMP JUMPDEST STOP JUMPDEST PUSH2 0xA7 PUSH2 0x196 JUMP JUMPDEST STOP JUMPDEST PUSH2 0xC3 PUSH1 0x4 DUP1 CALLDATASIZE SUB DUP2 ADD SWAP1 PUSH2 0xBE SWAP2 SWAP1 PUSH2 0x34C JUMP JUMPDEST PUSH2 0x1BE JUMP JUMPDEST PUSH1 0x40 MLOAD PUSH2 0xD0 SWAP2 SWAP1 PUSH2 0x22E JUMP JUMPDEST PUSH1 0x40 MLOAD DUP1 SWAP2 SUB SWAP1 RETURN JUMPDEST PUSH1 0x1 SLOAD DUP2 JUMP JUMPDEST PUSH1 0x60 PUSH0 DUP1 SLOAD DUP1 PUSH1 0x20 MUL PUSH1 0x20 ADD PUSH1 0x40 MLOAD SWAP1 DUP2 ADD PUSH1 0x40 MSTORE DUP1 SWAP3 SWAP2 SWAP1 DUP2 DUP2 MSTORE PUSH1 0x20 ADD DUP3 DUP1 SLOAD DUP1 ISZERO PUSH2 0x12A JUMPI PUSH1 0x20 MUL DUP3 ADD SWAP2 SWAP1 PUSH0 MSTORE PUSH1 0x20 PUSH0 KECCAK256 SWAP1 JUMPDEST DUP2 SLOAD DUP2 MSTORE PUSH1 0x20 ADD SWAP1 PUSH1 0x1 ADD SWAP1 DUP1 DUP4 GT PUSH2 0x116 JUMPI JUMPDEST POP POP POP POP POP SWAP1 POP SWAP1 JUMP JUMPDEST PUSH0 PUSH0 PUSH2 0x140 SWAP2 SWAP1 PUSH2 0x1DD JUMP JUMPDEST PUSH0 PUSH0 SWAP1 POP JUMPDEST PUSH1 0xA DUP2 LT ISZERO PUSH2 0x193 JUMPI PUSH1 0x3 DUP2 SUB ISZERO PUSH2 0x186 JUMPI PUSH1 0x5 DUP2 SUB ISZERO PUSH2 0x193 JUMPI PUSH0 DUP2 SWAP1 DUP1 PUSH1 0x1 DUP2 SLOAD ADD DUP1 DUP3 SSTORE DUP1 SWAP2 POP POP PUSH1 0x1 SWAP1 SUB SWAP1 PUSH0 MSTORE PUSH1 0x20 PUSH0 KECCAK256 ADD PUSH0 SWAP1 SWAP2 SWAP1 SWAP2 SWAP1 SWAP2 POP SSTORE JUMPDEST DUP1 DUP1 PUSH1 0x1 ADD SWAP2 POP POP PUSH2 0x145 JUMP JUMPDEST POP JUMP JUMPDEST PUSH0 PUSH1 0x1 DUP2 SWAP1 SSTORE POP PUSH0 JUMPDEST PUSH1 0xA DUP2 LT ISZERO PUSH2 0x1BB JUMPI DUP1 DUP1 PUSH2 0x1B3 SWAP1 PUSH2 0x3A4 JUMP JUMPDEST SWAP2 POP POP PUSH2 0x19F JUMP JUMPDEST POP JUMP JUMPDEST PUSH0 DUP2 DUP2 SLOAD DUP2 LT PUSH2 0x1CC JUMPI PUSH0 DUP1 REVERT JUMPDEST SWAP1 PUSH0 MSTORE PUSH1 0x20 PUSH0 KECCAK256 ADD PUSH0 SWAP2 POP SWAP1 POP SLOAD DUP2 JUMP JUMPDEST POP DUP1 SLOAD PUSH0 DUP3 SSTORE SWAP1 PUSH0 MSTORE PUSH1 0x20 PUSH0 KECCAK256 SWAP1 DUP2 ADD SWAP1 PUSH2 0x1F8 SWAP2 SWAP1 PUSH2 0x1FB JUMP JUMPDEST POP JUMP JUMPDEST JUMPDEST DUP1 DUP3 GT ISZERO PUSH2 0x212 JUMPI PUSH0 DUP2 PUSH0 SWAP1 SSTORE POP PUSH1 0x1 ADD PUSH2 0x1FC JUMP JUMPDEST POP SWAP1 JUMP JUMPDEST PUSH0 DUP2 SWAP1 POP SWAP2 SWAP1 POP JUMP JUMPDEST PUSH2 0x228 DUP2 PUSH2 0x216 JUMP JUMPDEST DUP3 MSTORE POP POP JUMP JUMPDEST PUSH0 PUSH1 0x20 DUP3 ADD SWAP1 POP PUSH2 0x241 PUSH0 DUP4 ADD DUP5 PUSH2 0x21F JUMP JUMPDEST SWAP3 SWAP2 POP POP JUMP JUMPDEST PUSH0 DUP2 MLOAD SWAP1 POP SWAP2 SWAP1 POP JUMP JUMPDEST PUSH0 DUP3 DUP3 MSTORE PUSH1 0x20 DUP3 ADD SWAP1 POP SWAP3 SWAP2 POP POP JUMP JUMPDEST PUSH0 DUP2 SWAP1 POP PUSH1 0x20 DUP3 ADD SWAP1 POP SWAP2 SWAP1 POP JUMP JUMPDEST PUSH2 0x279 DUP2 PUSH2 0x216 JUMP JUMPDEST DUP3 MSTORE POP POP JUMP JUMPDEST PUSH0 PUSH2 0x28A DUP4 DUP4 PUSH2 0x270 JUMP JUMPDEST PUSH1 0x20 DUP4 ADD SWAP1 POP SWAP3 SWAP2 POP POP JUMP JUMPDEST PUSH0 PUSH1 0x20 DUP3 ADD SWAP1 POP SWAP2 SWAP1 POP JUMP JUMPDEST PUSH0 PUSH2 0x2AC DUP3 PUSH2 0x247 JUMP JUMPDEST PUSH2 0x2B6 DUP2 DUP6 PUSH2 0x251 JUMP JUMPDEST SWAP4 POP PUSH2 0x2C1 DUP4 PUSH2 0x261 JUMP JUMPDEST DUP1 PUSH0 JUMPDEST DUP4 DUP2 LT ISZERO PUSH2 0x2F1 JUMPI DUP2 MLOAD PUSH2 0x2D8 DUP9 DUP3 PUSH2 0x27F JUMP JUMPDEST SWAP8 POP PUSH2 0x2E3 DUP4 PUSH2 0x296 JUMP JUMPDEST SWAP3 POP POP PUSH1 0x1 DUP2 ADD SWAP1 POP PUSH2 0x2C4 JUMP JUMPDEST POP DUP6 SWAP4 POP POP POP POP SWAP3 SWAP2 POP POP JUMP JUMPDEST PUSH0 PUSH1 0x20 DUP3 ADD SWAP1 POP DUP2 DUP2 SUB PUSH0 DUP4 ADD MSTORE PUSH2 0x316 DUP2 DUP5 PUSH2 0x2A2 JUMP JUMPDEST SWAP1 POP SWAP3 SWAP2 POP POP JUMP JUMPDEST PUSH0 PUSH0 REVERT JUMPDEST PUSH2 0x32B DUP2 PUSH2 0x216 JUMP JUMPDEST DUP2 EQ PUSH2 0x335 JUMPI PUSH0 PUSH0 REVERT JUMPDEST POP JUMP JUMPDEST PUSH0 DUP2 CALLDATALOAD SWAP1 POP PUSH2 0x346 DUP2 PUSH2 0x322 JUMP JUMPDEST SWAP3 SWAP2 POP POP JUMP JUMPDEST PUSH0 PUSH1 0x20 DUP3 DUP5 SUB SLT ISZERO PUSH2 0x361 JUMPI PUSH2 0x360 PUSH2 0x31E JUMP JUMPDEST JUMPDEST PUSH0 PUSH2 0x36E DUP5 DUP3 DUP6 ADD PUSH2 0x338 JUMP JUMPDEST SWAP2 POP POP SWAP3 SWAP2 POP POP JUMP JUMPDEST PUSH32 0x4E487B7100000000000000000000000000000000000000000000000000000000 PUSH0 MSTORE PUSH1 0x11 PUSH1 0x4 MSTORE PUSH1 0x24 PUSH0 REVERT JUMPDEST PUSH0 PUSH2 0x3AE DUP3 PUSH2 0x216 JUMP JUMPDEST SWAP2 POP PUSH32 0xFFFFFFFFFFFFFFFFFFFFFFFFFFFFFFFFFFFFFFFFFFFFFFFFFFFFFFFFFFFFFFFF DUP3 SUB PUSH2 0x3E0 JUMPI PUSH2 0x3DF PUSH2 0x377 JUMP JUMPDEST JUMPDEST PUSH1 0x1 DUP3 ADD SWAP1 POP SWAP2 SWAP1 POP JUMP INVALID LOG2 PUSH5 0x6970667358 0x22 SLT KECCAK256 0x1F PREVRANDAO PUSH32 0x985ADF7261BD58FF1D7932B0160B66D7C93B8E27FD80495F833FA26F0464736F PUSH13 0x634300081E0033000000000000 "
				},
				"gasEstimates": {
					"creation": {
						"codeDepositCost": "211400",
						"executionCost": "255",
						"totalCost": "211655"
					},
					"external": {
						"executewhileloop()": "infinite",
						"forloopresult(uint256)": "infinite",
						"getforloopresult()": "infinite",
						"loop()": "infinite",
						"whileloopcounter()": "2403"
					}
				},
				"methodIdentifiers": {
					"executewhileloop()": "dc98d602",
					"forloopresult(uint256)": "ed5a411f",
					"getforloopresult()": "945629ab",
					"loop()": "a92100cb",
					"whileloopcounter()": "0c49ed8c"
				}
			},
			"storageLayout": {
				"storage": [
					{
						"astId": 4,
						"contract": "if/loop.sol:Loop",
						"label": "forloopresult",
						"offset": 0,
						"slot": "0",
						"type": "t_array(t_uint256)dyn_storage"
					},
					{
						"astId": 6,
						"contract": "if/loop.sol:Loop",
						"label": "whileloopcounter",
						"offset": 0,
						"slot": "1",
						"type": "t_uint256"
					}
				],
				"types": {
					"t_array(t_uint256)dyn_storage": {
						"base": "t_uint256",
						"encoding": "dynamic_array",
						"label": "uint256[]",
						"numberOfBytes": "32"
					},
					"t_uint256": {
						"encoding": "inplace",
						"label": "uint256",
						"numberOfBytes": "32"
					}
				}
			},
			"userdoc": {
				"kind": "user",
				"methods": {},
				"version": 1
			}
		}
	}
}