{
	"practice.sol": {
		"greet": {
			"abi": [
				{
					"inputs": [],
					"name": "birthdayboy",
					"outputs": [
						{
							"internalType": "address",
							"name": "",
							"type": "address"
						}
					],
					"stateMutability": "view",
					"type": "function"
				},
				{
					"inputs": [],
					"name": "changevalue",
					"outputs": [],
					"stateMutability": "nonpayable",
					"type": "function"
				},
				{
					"inputs": [],
					"name": "date",
					"outputs": [
						{
							"internalType": "uint256",
							"name": "",
							"type": "uint256"
						}
					],
					"stateMutability": "view",
					"type": "function"
				},
				{
					"inputs": [],
					"name": "greetings",
					"outputs": [
						{
							"internalType": "string",
							"name": "",
							"type": "string"
						}
					],
					"stateMutability": "view",
					"type": "function"
				},
				{
					"inputs": [],
					"name": "isyear",
					"outputs": [
						{
							"internalType": "bool",
							"name": "",
							"type": "bool"
						}
					],
					"stateMutability": "view",
					"type": "function"
				},
				{
					"inputs": [],
					"name": "localvariable",
					"outputs": [
						{
							"internalType": "uint256",
							"name": "",
							"type": "uint256"
						}
					],
					"stateMutability": "pure",
					"type": "function"
				},
				{
					"inputs": [],
					"name": "num",
					"outputs": [
						{
							"internalType": "string",
							"name": "",
							"type": "string"
						}
					],
					"stateMutability": "view",
					"type": "function"
				},
				{
					"inputs": [],
					"name": "year",
					"outputs": [
						{
							"internalType": "int256",
							"name": "",
							"type": "int256"
						}
					],
					"stateMutability": "view",
					"type": "function"
				}
			],
			"devdoc": {
				"kind": "dev",
				"methods": {},
				"version": 1
			},
			"evm": {
				"assembly": "    /* \"practice.sol\":82:735  contract greet{... */\n  mstore(0x40, 0x80)\n    /* \"practice.sol\":103:143  string public greetings=\"happy birthday\" */\n  mload(0x40)\n  dup1\n  0x40\n  add\n  0x40\n  mstore\n  dup1\n  0x0e\n  dup2\n  mstore\n  0x20\n  add\n  0x6861707079206269727468646179000000000000000000000000000000000000\n  dup2\n  mstore\n  pop\n  0x00\n  swap1\n  dup2\n  tag_1\n  swap2\n  swap1\n  tag_2\n  jump\t// in\ntag_1:\n  pop\n    /* \"practice.sol\":167:169  15 */\n  0x0f\n    /* \"practice.sol\":150:169  uint public date=15 */\n  0x01\n  sstore\n    /* \"practice.sol\":192:197  -2004 */\n  0xfffffffffffffffffffffffffffffffffffffffffffffffffffffffffffff82c\n    /* \"practice.sol\":176:197  int public year=-2004 */\n  0x02\n  sstore\n    /* \"practice.sol\":223:228  false */\n  0x00\n    /* \"practice.sol\":204:228  bool public isyear=false */\n  0x03\n  exp(0x0100, 0x00)\n  dup2\n  sload\n  dup2\n  0xff\n  mul\n  not\n  and\n  swap1\n  dup4\n  iszero\n  iszero\n  mul\n  or\n  swap1\n  sstore\n  pop\n    /* \"practice.sol\":262:304  0x5B38Da6a701c568545dCfcB03FcB875f56beddC4 */\n  0x5b38da6a701c568545dcfcb03fcb875f56beddc4\n    /* \"practice.sol\":235:304  address public birthdayboy=0x5B38Da6a701c568545dCfcB03FcB875f56beddC4 */\n  0x03\n  exp(0x0100, 0x01)\n  dup2\n  sload\n  dup2\n  0xffffffffffffffffffffffffffffffffffffffff\n  mul\n  not\n  and\n  swap1\n  dup4\n  0xffffffffffffffffffffffffffffffffffffffff\n  and\n  mul\n  or\n  swap1\n  sstore\n  pop\n    /* \"practice.sol\":412:435  string public num=\"two\" */\n  mload(0x40)\n  dup1\n  0x40\n  add\n  0x40\n  mstore\n  dup1\n  0x03\n  dup2\n  mstore\n  0x20\n  add\n  0x74776f0000000000000000000000000000000000000000000000000000000000\n  dup2\n  mstore\n  pop\n  0x04\n  swap1\n  dup2\n  tag_3\n  swap2\n  swap1\n  tag_2\n  jump\t// in\ntag_3:\n  pop\n    /* \"practice.sol\":82:735  contract greet{... */\n  callvalue\n  dup1\n  iszero\n  tag_4\n  jumpi\n  revert(0x00, 0x00)\ntag_4:\n  pop\n  jump(tag_5)\n    /* \"#utility.yul\":7:106   */\ntag_6:\n    /* \"#utility.yul\":59:65   */\n  0x00\n    /* \"#utility.yul\":93:98   */\n  dup2\n    /* \"#utility.yul\":87:99   */\n  mload\n    /* \"#utility.yul\":77:99   */\n  swap1\n  pop\n    /* \"#utility.yul\":7:106   */\n  swap2\n  swap1\n  pop\n  jump\t// out\n    /* \"#utility.yul\":112:292   */\ntag_7:\n    /* \"#utility.yul\":160:237   */\n  0x4e487b7100000000000000000000000000000000000000000000000000000000\n    /* \"#utility.yul\":157:158   */\n  0x00\n    /* \"#utility.yul\":150:238   */\n  mstore\n    /* \"#utility.yul\":257:261   */\n  0x41\n    /* \"#utility.yul\":254:255   */\n  0x04\n    /* \"#utility.yul\":247:262   */\n  mstore\n    /* \"#utility.yul\":281:285   */\n  0x24\n    /* \"#utility.yul\":278:279   */\n  0x00\n    /* \"#utility.yul\":271:286   */\n  revert\n    /* \"#utility.yul\":298:478   */\ntag_8:\n    /* \"#utility.yul\":346:423   */\n  0x4e487b7100000000000000000000000000000000000000000000000000000000\n    /* \"#utility.yul\":343:344   */\n  0x00\n    /* \"#utility.yul\":336:424   */\n  mstore\n    /* \"#utility.yul\":443:447   */\n  0x22\n    /* \"#utility.yul\":440:441   */\n  0x04\n    /* \"#utility.yul\":433:448   */\n  mstore\n    /* \"#utility.yul\":467:471   */\n  0x24\n    /* \"#utility.yul\":464:465   */\n  0x00\n    /* \"#utility.yul\":457:472   */\n  revert\n    /* \"#utility.yul\":484:804   */\ntag_9:\n    /* \"#utility.yul\":528:534   */\n  0x00\n    /* \"#utility.yul\":565:566   */\n  0x02\n    /* \"#utility.yul\":559:563   */\n  dup3\n    /* \"#utility.yul\":555:567   */\n  div\n    /* \"#utility.yul\":545:567   */\n  swap1\n  pop\n    /* \"#utility.yul\":612:613   */\n  0x01\n    /* \"#utility.yul\":606:610   */\n  dup3\n    /* \"#utility.yul\":602:614   */\n  and\n    /* \"#utility.yul\":633:651   */\n  dup1\n    /* \"#utility.yul\":623:704   */\n  tag_31\n  jumpi\n    /* \"#utility.yul\":689:693   */\n  0x7f\n    /* \"#utility.yul\":681:687   */\n  dup3\n    /* \"#utility.yul\":677:694   */\n  and\n    /* \"#utility.yul\":667:694   */\n  swap2\n  pop\n    /* \"#utility.yul\":623:704   */\ntag_31:\n    /* \"#utility.yul\":751:753   */\n  0x20\n    /* \"#utility.yul\":743:749   */\n  dup3\n    /* \"#utility.yul\":740:754   */\n  lt\n    /* \"#utility.yul\":720:738   */\n  dup2\n    /* \"#utility.yul\":717:755   */\n  sub\n    /* \"#utility.yul\":714:798   */\n  tag_32\n  jumpi\n    /* \"#utility.yul\":770:788   */\n  tag_33\n  tag_8\n  jump\t// in\ntag_33:\n    /* \"#utility.yul\":714:798   */\ntag_32:\n    /* \"#utility.yul\":535:804   */\n  pop\n    /* \"#utility.yul\":484:804   */\n  swap2\n  swap1\n  pop\n  jump\t// out\n    /* \"#utility.yul\":810:951   */\ntag_10:\n    /* \"#utility.yul\":859:863   */\n  0x00\n    /* \"#utility.yul\":882:885   */\n  dup2\n    /* \"#utility.yul\":874:885   */\n  swap1\n  pop\n    /* \"#utility.yul\":905:908   */\n  dup2\n    /* \"#utility.yul\":902:903   */\n  0x00\n    /* \"#utility.yul\":895:909   */\n  mstore\n    /* \"#utility.yul\":939:943   */\n  0x20\n    /* \"#utility.yul\":936:937   */\n  0x00\n    /* \"#utility.yul\":926:944   */\n  keccak256\n    /* \"#utility.yul\":918:944   */\n  swap1\n  pop\n    /* \"#utility.yul\":810:951   */\n  swap2\n  swap1\n  pop\n  jump\t// out\n    /* \"#utility.yul\":957:1050   */\ntag_11:\n    /* \"#utility.yul\":994:1000   */\n  0x00\n    /* \"#utility.yul\":1041:1043   */\n  0x20\n    /* \"#utility.yul\":1036:1038   */\n  0x1f\n    /* \"#utility.yul\":1029:1034   */\n  dup4\n    /* \"#utility.yul\":1025:1039   */\n  add\n    /* \"#utility.yul\":1021:1044   */\n  div\n    /* \"#utility.yul\":1011:1044   */\n  swap1\n  pop\n    /* \"#utility.yul\":957:1050   */\n  swap2\n  swap1\n  pop\n  jump\t// out\n    /* \"#utility.yul\":1056:1163   */\ntag_12:\n    /* \"#utility.yul\":1100:1108   */\n  0x00\n    /* \"#utility.yul\":1150:1155   */\n  dup3\n    /* \"#utility.yul\":1144:1148   */\n  dup3\n    /* \"#utility.yul\":1140:1156   */\n  shl\n    /* \"#utility.yul\":1119:1156   */\n  swap1\n  pop\n    /* \"#utility.yul\":1056:1163   */\n  swap3\n  swap2\n  pop\n  pop\n  jump\t// out\n    /* \"#utility.yul\":1169:1562   */\ntag_13:\n    /* \"#utility.yul\":1238:1244   */\n  0x00\n    /* \"#utility.yul\":1288:1289   */\n  0x08\n    /* \"#utility.yul\":1276:1286   */\n  dup4\n    /* \"#utility.yul\":1272:1290   */\n  mul\n    /* \"#utility.yul\":1311:1408   */\n  tag_38\n    /* \"#utility.yul\":1341:1407   */\n  0xffffffffffffffffffffffffffffffffffffffffffffffffffffffffffffffff\n    /* \"#utility.yul\":1330:1339   */\n  dup3\n    /* \"#utility.yul\":1311:1408   */\n  tag_12\n  jump\t// in\ntag_38:\n    /* \"#utility.yul\":1429:1468   */\n  tag_39\n    /* \"#utility.yul\":1459:1467   */\n  dup7\n    /* \"#utility.yul\":1448:1457   */\n  dup4\n    /* \"#utility.yul\":1429:1468   */\n  tag_12\n  jump\t// in\ntag_39:\n    /* \"#utility.yul\":1417:1468   */\n  swap6\n  pop\n    /* \"#utility.yul\":1501:1505   */\n  dup1\n    /* \"#utility.yul\":1497:1506   */\n  not\n    /* \"#utility.yul\":1490:1495   */\n  dup5\n    /* \"#utility.yul\":1486:1507   */\n  and\n    /* \"#utility.yul\":1477:1507   */\n  swap4\n  pop\n    /* \"#utility.yul\":1550:1554   */\n  dup1\n    /* \"#utility.yul\":1540:1548   */\n  dup7\n    /* \"#utility.yul\":1536:1555   */\n  and\n    /* \"#utility.yul\":1529:1534   */\n  dup5\n    /* \"#utility.yul\":1526:1556   */\n  or\n    /* \"#utility.yul\":1516:1556   */\n  swap3\n  pop\n    /* \"#utility.yul\":1245:1562   */\n  pop\n  pop\n    /* \"#utility.yul\":1169:1562   */\n  swap4\n  swap3\n  pop\n  pop\n  pop\n  jump\t// out\n    /* \"#utility.yul\":1568:1645   */\ntag_14:\n    /* \"#utility.yul\":1605:1612   */\n  0x00\n    /* \"#utility.yul\":1634:1639   */\n  dup2\n    /* \"#utility.yul\":1623:1639   */\n  swap1\n  pop\n    /* \"#utility.yul\":1568:1645   */\n  swap2\n  swap1\n  pop\n  jump\t// out\n    /* \"#utility.yul\":1651:1711   */\ntag_15:\n    /* \"#utility.yul\":1679:1682   */\n  0x00\n    /* \"#utility.yul\":1700:1705   */\n  dup2\n    /* \"#utility.yul\":1693:1705   */\n  swap1\n  pop\n    /* \"#utility.yul\":1651:1711   */\n  swap2\n  swap1\n  pop\n  jump\t// out\n    /* \"#utility.yul\":1717:1859   */\ntag_16:\n    /* \"#utility.yul\":1767:1776   */\n  0x00\n    /* \"#utility.yul\":1800:1853   */\n  tag_43\n    /* \"#utility.yul\":1818:1852   */\n  tag_44\n    /* \"#utility.yul\":1827:1851   */\n  tag_45\n    /* \"#utility.yul\":1845:1850   */\n  dup5\n    /* \"#utility.yul\":1827:1851   */\n  tag_14\n  jump\t// in\ntag_45:\n    /* \"#utility.yul\":1818:1852   */\n  tag_15\n  jump\t// in\ntag_44:\n    /* \"#utility.yul\":1800:1853   */\n  tag_14\n  jump\t// in\ntag_43:\n    /* \"#utility.yul\":1787:1853   */\n  swap1\n  pop\n    /* \"#utility.yul\":1717:1859   */\n  swap2\n  swap1\n  pop\n  jump\t// out\n    /* \"#utility.yul\":1865:1940   */\ntag_17:\n    /* \"#utility.yul\":1908:1911   */\n  0x00\n    /* \"#utility.yul\":1929:1934   */\n  dup2\n    /* \"#utility.yul\":1922:1934   */\n  swap1\n  pop\n    /* \"#utility.yul\":1865:1940   */\n  swap2\n  swap1\n  pop\n  jump\t// out\n    /* \"#utility.yul\":1946:2215   */\ntag_18:\n    /* \"#utility.yul\":2056:2095   */\n  tag_48\n    /* \"#utility.yul\":2087:2094   */\n  dup4\n    /* \"#utility.yul\":2056:2095   */\n  tag_16\n  jump\t// in\ntag_48:\n    /* \"#utility.yul\":2117:2208   */\n  tag_49\n    /* \"#utility.yul\":2166:2207   */\n  tag_50\n    /* \"#utility.yul\":2190:2206   */\n  dup3\n    /* \"#utility.yul\":2166:2207   */\n  tag_17\n  jump\t// in\ntag_50:\n    /* \"#utility.yul\":2158:2164   */\n  dup5\n    /* \"#utility.yul\":2151:2155   */\n  dup5\n    /* \"#utility.yul\":2145:2156   */\n  sload\n    /* \"#utility.yul\":2117:2208   */\n  tag_13\n  jump\t// in\ntag_49:\n    /* \"#utility.yul\":2111:2115   */\n  dup3\n    /* \"#utility.yul\":2104:2209   */\n  sstore\n    /* \"#utility.yul\":2022:2215   */\n  pop\n    /* \"#utility.yul\":1946:2215   */\n  pop\n  pop\n  pop\n  jump\t// out\n    /* \"#utility.yul\":2221:2294   */\ntag_19:\n    /* \"#utility.yul\":2266:2269   */\n  0x00\n    /* \"#utility.yul\":2287:2288   */\n  0x00\n    /* \"#utility.yul\":2280:2288   */\n  swap1\n  pop\n    /* \"#utility.yul\":2221:2294   */\n  swap1\n  jump\t// out\n    /* \"#utility.yul\":2300:2489   */\ntag_20:\n    /* \"#utility.yul\":2377:2409   */\n  tag_53\n  tag_19\n  jump\t// in\ntag_53:\n    /* \"#utility.yul\":2418:2483   */\n  tag_54\n    /* \"#utility.yul\":2476:2482   */\n  dup2\n    /* \"#utility.yul\":2468:2474   */\n  dup5\n    /* \"#utility.yul\":2462:2466   */\n  dup5\n    /* \"#utility.yul\":2418:2483   */\n  tag_18\n  jump\t// in\ntag_54:\n    /* \"#utility.yul\":2353:2489   */\n  pop\n    /* \"#utility.yul\":2300:2489   */\n  pop\n  pop\n  jump\t// out\n    /* \"#utility.yul\":2495:2709   */\ntag_21:\n    /* \"#utility.yul\":2580:2581   */\n  0x00\n    /* \"#utility.yul\":2565:2703   */\ntag_56:\n    /* \"#utility.yul\":2590:2599   */\n  dup3\n    /* \"#utility.yul\":2587:2588   */\n  dup2\n    /* \"#utility.yul\":2584:2600   */\n  lt\n    /* \"#utility.yul\":2565:2703   */\n  iszero\n  tag_58\n  jumpi\n    /* \"#utility.yul\":2642:2693   */\n  tag_59\n    /* \"#utility.yul\":2691:2692   */\n  0x00\n    /* \"#utility.yul\":2687:2688   */\n  dup3\n    /* \"#utility.yul\":2676:2685   */\n  dup5\n    /* \"#utility.yul\":2672:2689   */\n  add\n    /* \"#utility.yul\":2642:2693   */\n  tag_20\n  jump\t// in\ntag_59:\n    /* \"#utility.yul\":2615:2616   */\n  0x01\n    /* \"#utility.yul\":2612:2613   */\n  dup2\n    /* \"#utility.yul\":2608:2617   */\n  add\n    /* \"#utility.yul\":2603:2617   */\n  swap1\n  pop\n    /* \"#utility.yul\":2565:2703   */\n  jump(tag_56)\ntag_58:\n    /* \"#utility.yul\":2569:2583   */\n  pop\n    /* \"#utility.yul\":2495:2709   */\n  pop\n  pop\n  jump\t// out\n    /* \"#utility.yul\":2715:3461   */\ntag_22:\n    /* \"#utility.yul\":2816:2818   */\n  0x1f\n    /* \"#utility.yul\":2811:2814   */\n  dup3\n    /* \"#utility.yul\":2808:2819   */\n  gt\n    /* \"#utility.yul\":2805:3454   */\n  iszero\n  tag_61\n  jumpi\n    /* \"#utility.yul\":2845:2855   */\n  dup3\n    /* \"#utility.yul\":2840:2843   */\n  dup3\n    /* \"#utility.yul\":2837:2856   */\n  gt\n    /* \"#utility.yul\":2834:3444   */\n  iszero\n  tag_62\n  jumpi\n    /* \"#utility.yul\":2891:2929   */\n  tag_63\n    /* \"#utility.yul\":2923:2928   */\n  dup2\n    /* \"#utility.yul\":2891:2929   */\n  tag_10\n  jump\t// in\ntag_63:\n    /* \"#utility.yul\":2966:2988   */\n  tag_64\n    /* \"#utility.yul\":2984:2987   */\n  dup4\n    /* \"#utility.yul\":2966:2988   */\n  tag_11\n  jump\t// in\ntag_64:\n    /* \"#utility.yul\":3025:3054   */\n  tag_65\n    /* \"#utility.yul\":3043:3053   */\n  dup6\n    /* \"#utility.yul\":3025:3054   */\n  tag_11\n  jump\t// in\ntag_65:\n    /* \"#utility.yul\":3215:3217   */\n  0x20\n    /* \"#utility.yul\":3203:3213   */\n  dup7\n    /* \"#utility.yul\":3200:3218   */\n  lt\n    /* \"#utility.yul\":3197:3276   */\n  iszero\n  tag_66\n  jumpi\n    /* \"#utility.yul\":3257:3258   */\n  0x00\n    /* \"#utility.yul\":3241:3258   */\n  swap1\n  pop\n    /* \"#utility.yul\":3197:3276   */\ntag_66:\n    /* \"#utility.yul\":3326:3338   */\n  dup1\n    /* \"#utility.yul\":3316:3324   */\n  dup4\n    /* \"#utility.yul\":3312:3339   */\n  add\n    /* \"#utility.yul\":3356:3430   */\n  tag_67\n    /* \"#utility.yul\":3416:3428   */\n  dup3\n    /* \"#utility.yul\":3402:3414   */\n  dup5\n    /* \"#utility.yul\":3398:3429   */\n  sub\n    /* \"#utility.yul\":3385:3396   */\n  dup3\n    /* \"#utility.yul\":3356:3430   */\n  tag_21\n  jump\t// in\ntag_67:\n    /* \"#utility.yul\":2857:3444   */\n  pop\n  pop\n  pop\n  pop\n    /* \"#utility.yul\":2834:3444   */\ntag_62:\n    /* \"#utility.yul\":2805:3454   */\ntag_61:\n    /* \"#utility.yul\":2715:3461   */\n  pop\n  pop\n  pop\n  jump\t// out\n    /* \"#utility.yul\":3467:3584   */\ntag_23:\n    /* \"#utility.yul\":3521:3529   */\n  0x00\n    /* \"#utility.yul\":3571:3576   */\n  dup3\n    /* \"#utility.yul\":3565:3569   */\n  dup3\n    /* \"#utility.yul\":3561:3577   */\n  shr\n    /* \"#utility.yul\":3540:3577   */\n  swap1\n  pop\n    /* \"#utility.yul\":3467:3584   */\n  swap3\n  swap2\n  pop\n  pop\n  jump\t// out\n    /* \"#utility.yul\":3590:3759   */\ntag_24:\n    /* \"#utility.yul\":3634:3640   */\n  0x00\n    /* \"#utility.yul\":3667:3718   */\n  tag_70\n    /* \"#utility.yul\":3715:3716   */\n  0x00\n    /* \"#utility.yul\":3711:3717   */\n  not\n    /* \"#utility.yul\":3703:3708   */\n  dup5\n    /* \"#utility.yul\":3700:3701   */\n  0x08\n    /* \"#utility.yul\":3696:3709   */\n  mul\n    /* \"#utility.yul\":3667:3718   */\n  tag_23\n  jump\t// in\ntag_70:\n    /* \"#utility.yul\":3663:3719   */\n  not\n    /* \"#utility.yul\":3748:3752   */\n  dup1\n    /* \"#utility.yul\":3742:3746   */\n  dup4\n    /* \"#utility.yul\":3738:3753   */\n  and\n    /* \"#utility.yul\":3728:3753   */\n  swap2\n  pop\n    /* \"#utility.yul\":3641:3759   */\n  pop\n    /* \"#utility.yul\":3590:3759   */\n  swap3\n  swap2\n  pop\n  pop\n  jump\t// out\n    /* \"#utility.yul\":3764:4059   */\ntag_25:\n    /* \"#utility.yul\":3840:3844   */\n  0x00\n    /* \"#utility.yul\":3986:4015   */\n  tag_72\n    /* \"#utility.yul\":4011:4014   */\n  dup4\n    /* \"#utility.yul\":4005:4009   */\n  dup4\n    /* \"#utility.yul\":3986:4015   */\n  tag_24\n  jump\t// in\ntag_72:\n    /* \"#utility.yul\":3978:4015   */\n  swap2\n  pop\n    /* \"#utility.yul\":4048:4051   */\n  dup3\n    /* \"#utility.yul\":4045:4046   */\n  0x02\n    /* \"#utility.yul\":4041:4052   */\n  mul\n    /* \"#utility.yul\":4035:4039   */\n  dup3\n    /* \"#utility.yul\":4032:4053   */\n  or\n    /* \"#utility.yul\":4024:4053   */\n  swap1\n  pop\n    /* \"#utility.yul\":3764:4059   */\n  swap3\n  swap2\n  pop\n  pop\n  jump\t// out\n    /* \"#utility.yul\":4064:5459   */\ntag_2:\n    /* \"#utility.yul\":4181:4218   */\n  tag_74\n    /* \"#utility.yul\":4214:4217   */\n  dup3\n    /* \"#utility.yul\":4181:4218   */\n  tag_6\n  jump\t// in\ntag_74:\n    /* \"#utility.yul\":4283:4301   */\n  0xffffffffffffffff\n    /* \"#utility.yul\":4275:4281   */\n  dup2\n    /* \"#utility.yul\":4272:4302   */\n  gt\n    /* \"#utility.yul\":4269:4325   */\n  iszero\n  tag_75\n  jumpi\n    /* \"#utility.yul\":4305:4323   */\n  tag_76\n  tag_7\n  jump\t// in\ntag_76:\n    /* \"#utility.yul\":4269:4325   */\ntag_75:\n    /* \"#utility.yul\":4349:4387   */\n  tag_77\n    /* \"#utility.yul\":4381:4385   */\n  dup3\n    /* \"#utility.yul\":4375:4386   */\n  sload\n    /* \"#utility.yul\":4349:4387   */\n  tag_9\n  jump\t// in\ntag_77:\n    /* \"#utility.yul\":4434:4501   */\n  tag_78\n    /* \"#utility.yul\":4494:4500   */\n  dup3\n    /* \"#utility.yul\":4486:4492   */\n  dup3\n    /* \"#utility.yul\":4480:4484   */\n  dup6\n    /* \"#utility.yul\":4434:4501   */\n  tag_22\n  jump\t// in\ntag_78:\n    /* \"#utility.yul\":4528:4529   */\n  0x00\n    /* \"#utility.yul\":4552:4556   */\n  0x20\n    /* \"#utility.yul\":4539:4556   */\n  swap1\n  pop\n    /* \"#utility.yul\":4584:4586   */\n  0x1f\n    /* \"#utility.yul\":4576:4582   */\n  dup4\n    /* \"#utility.yul\":4573:4587   */\n  gt\n    /* \"#utility.yul\":4601:4602   */\n  0x01\n    /* \"#utility.yul\":4596:5214   */\n  dup2\n  eq\n  tag_80\n  jumpi\n    /* \"#utility.yul\":5258:5259   */\n  0x00\n    /* \"#utility.yul\":5275:5281   */\n  dup5\n    /* \"#utility.yul\":5272:5349   */\n  iszero\n  tag_81\n  jumpi\n    /* \"#utility.yul\":5324:5333   */\n  dup3\n    /* \"#utility.yul\":5319:5322   */\n  dup8\n    /* \"#utility.yul\":5315:5334   */\n  add\n    /* \"#utility.yul\":5309:5335   */\n  mload\n    /* \"#utility.yul\":5300:5335   */\n  swap1\n  pop\n    /* \"#utility.yul\":5272:5349   */\ntag_81:\n    /* \"#utility.yul\":5375:5442   */\n  tag_82\n    /* \"#utility.yul\":5435:5441   */\n  dup6\n    /* \"#utility.yul\":5428:5433   */\n  dup3\n    /* \"#utility.yul\":5375:5442   */\n  tag_25\n  jump\t// in\ntag_82:\n    /* \"#utility.yul\":5369:5373   */\n  dup7\n    /* \"#utility.yul\":5362:5443   */\n  sstore\n    /* \"#utility.yul\":5231:5453   */\n  pop\n    /* \"#utility.yul\":4566:5453   */\n  jump(tag_79)\n    /* \"#utility.yul\":4596:5214   */\ntag_80:\n    /* \"#utility.yul\":4648:4652   */\n  0x1f\n    /* \"#utility.yul\":4644:4653   */\n  not\n    /* \"#utility.yul\":4636:4642   */\n  dup5\n    /* \"#utility.yul\":4632:4654   */\n  and\n    /* \"#utility.yul\":4682:4719   */\n  tag_83\n    /* \"#utility.yul\":4714:4718   */\n  dup7\n    /* \"#utility.yul\":4682:4719   */\n  tag_10\n  jump\t// in\ntag_83:\n    /* \"#utility.yul\":4741:4742   */\n  0x00\n    /* \"#utility.yul\":4755:4963   */\ntag_84:\n    /* \"#utility.yul\":4769:4776   */\n  dup3\n    /* \"#utility.yul\":4766:4767   */\n  dup2\n    /* \"#utility.yul\":4763:4777   */\n  lt\n    /* \"#utility.yul\":4755:4963   */\n  iszero\n  tag_86\n  jumpi\n    /* \"#utility.yul\":4848:4857   */\n  dup5\n    /* \"#utility.yul\":4843:4846   */\n  dup10\n    /* \"#utility.yul\":4839:4858   */\n  add\n    /* \"#utility.yul\":4833:4859   */\n  mload\n    /* \"#utility.yul\":4825:4831   */\n  dup3\n    /* \"#utility.yul\":4818:4860   */\n  sstore\n    /* \"#utility.yul\":4899:4900   */\n  0x01\n    /* \"#utility.yul\":4891:4897   */\n  dup3\n    /* \"#utility.yul\":4887:4901   */\n  add\n    /* \"#utility.yul\":4877:4901   */\n  swap2\n  pop\n    /* \"#utility.yul\":4946:4948   */\n  0x20\n    /* \"#utility.yul\":4935:4944   */\n  dup6\n    /* \"#utility.yul\":4931:4949   */\n  add\n    /* \"#utility.yul\":4918:4949   */\n  swap5\n  pop\n    /* \"#utility.yul\":4792:4796   */\n  0x20\n    /* \"#utility.yul\":4789:4790   */\n  dup2\n    /* \"#utility.yul\":4785:4797   */\n  add\n    /* \"#utility.yul\":4780:4797   */\n  swap1\n  pop\n    /* \"#utility.yul\":4755:4963   */\n  jump(tag_84)\ntag_86:\n    /* \"#utility.yul\":4991:4997   */\n  dup7\n    /* \"#utility.yul\":4982:4989   */\n  dup4\n    /* \"#utility.yul\":4979:4998   */\n  lt\n    /* \"#utility.yul\":4976:5155   */\n  iszero\n  tag_87\n  jumpi\n    /* \"#utility.yul\":5049:5058   */\n  dup5\n    /* \"#utility.yul\":5044:5047   */\n  dup10\n    /* \"#utility.yul\":5040:5059   */\n  add\n    /* \"#utility.yul\":5034:5060   */\n  mload\n    /* \"#utility.yul\":5092:5140   */\n  tag_88\n    /* \"#utility.yul\":5134:5138   */\n  0x1f\n    /* \"#utility.yul\":5126:5132   */\n  dup10\n    /* \"#utility.yul\":5122:5139   */\n  and\n    /* \"#utility.yul\":5111:5120   */\n  dup3\n    /* \"#utility.yul\":5092:5140   */\n  tag_24\n  jump\t// in\ntag_88:\n    /* \"#utility.yul\":5084:5090   */\n  dup4\n    /* \"#utility.yul\":5077:5141   */\n  sstore\n    /* \"#utility.yul\":4999:5155   */\n  pop\n    /* \"#utility.yul\":4976:5155   */\ntag_87:\n    /* \"#utility.yul\":5201:5202   */\n  0x01\n    /* \"#utility.yul\":5197:5198   */\n  0x02\n    /* \"#utility.yul\":5189:5195   */\n  dup9\n    /* \"#utility.yul\":5185:5199   */\n  mul\n    /* \"#utility.yul\":5181:5203   */\n  add\n    /* \"#utility.yul\":5175:5179   */\n  dup9\n    /* \"#utility.yul\":5168:5204   */\n  sstore\n    /* \"#utility.yul\":4603:5214   */\n  pop\n  pop\n  pop\n    /* \"#utility.yul\":4566:5453   */\ntag_79:\n  pop\n    /* \"#utility.yul\":4156:5459   */\n  pop\n  pop\n  pop\n    /* \"#utility.yul\":4064:5459   */\n  pop\n  pop\n  jump\t// out\n    /* \"practice.sol\":82:735  contract greet{... */\ntag_5:\n  dataSize(sub_0)\n  dup1\n  dataOffset(sub_0)\n  0x00\n  codecopy\n  0x00\n  return\nstop\n\nsub_0: assembly {\n        /* \"practice.sol\":82:735  contract greet{... */\n      mstore(0x40, 0x80)\n      callvalue\n      dup1\n      iszero\n      tag_1\n      jumpi\n      revert(0x00, 0x00)\n    tag_1:\n      pop\n      jumpi(tag_2, lt(calldatasize, 0x04))\n      shr(0xe0, calldataload(0x00))\n      dup1\n      0x5ce9a367\n      gt\n      tag_11\n      jumpi\n      dup1\n      0x5ce9a367\n      eq\n      tag_7\n      jumpi\n      dup1\n      0x84e5b831\n      eq\n      tag_8\n      jumpi\n      dup1\n      0xacb34ce8\n      eq\n      tag_9\n      jumpi\n      dup1\n      0xf3269716\n      eq\n      tag_10\n      jumpi\n      jump(tag_2)\n    tag_11:\n      dup1\n      0x0685d0b3\n      eq\n      tag_3\n      jumpi\n      dup1\n      0x323046b1\n      eq\n      tag_4\n      jumpi\n      dup1\n      0x4e70b1dc\n      eq\n      tag_5\n      jumpi\n      dup1\n      0x54c6d890\n      eq\n      tag_6\n      jumpi\n    tag_2:\n      revert(0x00, 0x00)\n        /* \"practice.sol\":235:304  address public birthdayboy=0x5B38Da6a701c568545dCfcB03FcB875f56beddC4 */\n    tag_3:\n      tag_12\n      tag_13\n      jump\t// in\n    tag_12:\n      mload(0x40)\n      tag_14\n      swap2\n      swap1\n      tag_15\n      jump\t// in\n    tag_14:\n      mload(0x40)\n      dup1\n      swap2\n      sub\n      swap1\n      return\n        /* \"practice.sol\":150:169  uint public date=15 */\n    tag_4:\n      tag_16\n      tag_17\n      jump\t// in\n    tag_16:\n      mload(0x40)\n      tag_18\n      swap2\n      swap1\n      tag_19\n      jump\t// in\n    tag_18:\n      mload(0x40)\n      dup1\n      swap2\n      sub\n      swap1\n      return\n        /* \"practice.sol\":412:435  string public num=\"two\" */\n    tag_5:\n      tag_20\n      tag_21\n      jump\t// in\n    tag_20:\n      mload(0x40)\n      tag_22\n      swap2\n      swap1\n      tag_23\n      jump\t// in\n    tag_22:\n      mload(0x40)\n      dup1\n      swap2\n      sub\n      swap1\n      return\n        /* \"practice.sol\":647:727  function changevalue()public{... */\n    tag_6:\n      tag_24\n      tag_25\n      jump\t// in\n    tag_24:\n      stop\n        /* \"practice.sol\":461:593  function localvariable()public pure returns(uint) {... */\n    tag_7:\n      tag_26\n      tag_27\n      jump\t// in\n    tag_26:\n      mload(0x40)\n      tag_28\n      swap2\n      swap1\n      tag_19\n      jump\t// in\n    tag_28:\n      mload(0x40)\n      dup1\n      swap2\n      sub\n      swap1\n      return\n        /* \"practice.sol\":204:228  bool public isyear=false */\n    tag_8:\n      tag_29\n      tag_30\n      jump\t// in\n    tag_29:\n      mload(0x40)\n      tag_31\n      swap2\n      swap1\n      tag_32\n      jump\t// in\n    tag_31:\n      mload(0x40)\n      dup1\n      swap2\n      sub\n      swap1\n      return\n        /* \"practice.sol\":103:143  string public greetings=\"happy birthday\" */\n    tag_9:\n      tag_33\n      tag_34\n      jump\t// in\n    tag_33:\n      mload(0x40)\n      tag_35\n      swap2\n      swap1\n      tag_23\n      jump\t// in\n    tag_35:\n      mload(0x40)\n      dup1\n      swap2\n      sub\n      swap1\n      return\n        /* \"practice.sol\":176:197  int public year=-2004 */\n    tag_10:\n      tag_36\n      tag_37\n      jump\t// in\n    tag_36:\n      mload(0x40)\n      tag_38\n      swap2\n      swap1\n      tag_39\n      jump\t// in\n    tag_38:\n      mload(0x40)\n      dup1\n      swap2\n      sub\n      swap1\n      return\n        /* \"practice.sol\":235:304  address public birthdayboy=0x5B38Da6a701c568545dCfcB03FcB875f56beddC4 */\n    tag_13:\n      0x03\n      0x01\n      swap1\n      sload\n      swap1\n      0x0100\n      exp\n      swap1\n      div\n      0xffffffffffffffffffffffffffffffffffffffff\n      and\n      dup2\n      jump\t// out\n        /* \"practice.sol\":150:169  uint public date=15 */\n    tag_17:\n      sload(0x01)\n      dup2\n      jump\t// out\n        /* \"practice.sol\":412:435  string public num=\"two\" */\n    tag_21:\n      0x04\n      dup1\n      sload\n      tag_40\n      swap1\n      tag_41\n      jump\t// in\n    tag_40:\n      dup1\n      0x1f\n      add\n      0x20\n      dup1\n      swap2\n      div\n      mul\n      0x20\n      add\n      mload(0x40)\n      swap1\n      dup2\n      add\n      0x40\n      mstore\n      dup1\n      swap3\n      swap2\n      swap1\n      dup2\n      dup2\n      mstore\n      0x20\n      add\n      dup3\n      dup1\n      sload\n      tag_42\n      swap1\n      tag_41\n      jump\t// in\n    tag_42:\n      dup1\n      iszero\n      tag_43\n      jumpi\n      dup1\n      0x1f\n      lt\n      tag_44\n      jumpi\n      0x0100\n      dup1\n      dup4\n      sload\n      div\n      mul\n      dup4\n      mstore\n      swap2\n      0x20\n      add\n      swap2\n      jump(tag_43)\n    tag_44:\n      dup3\n      add\n      swap2\n      swap1\n      0x00\n      mstore\n      keccak256(0x00, 0x20)\n      swap1\n    tag_45:\n      dup2\n      sload\n      dup2\n      mstore\n      swap1\n      0x01\n      add\n      swap1\n      0x20\n      add\n      dup1\n      dup4\n      gt\n      tag_45\n      jumpi\n      dup3\n      swap1\n      sub\n      0x1f\n      and\n      dup3\n      add\n      swap2\n    tag_43:\n      pop\n      pop\n      pop\n      pop\n      pop\n      dup2\n      jump\t// out\n        /* \"practice.sol\":647:727  function changevalue()public{... */\n    tag_25:\n        /* \"practice.sol\":686:719  greetings=\"happy birthday to you\" */\n      mload(0x40)\n      dup1\n      0x40\n      add\n      0x40\n      mstore\n      dup1\n      0x15\n      dup2\n      mstore\n      0x20\n      add\n      0x686170707920626972746864617920746f20796f750000000000000000000000\n      dup2\n      mstore\n      pop\n        /* \"practice.sol\":686:695  greetings */\n      0x00\n        /* \"practice.sol\":686:719  greetings=\"happy birthday to you\" */\n      swap1\n      dup2\n      tag_47\n      swap2\n      swap1\n      tag_48\n      jump\t// in\n    tag_47:\n      pop\n        /* \"practice.sol\":647:727  function changevalue()public{... */\n      jump\t// out\n        /* \"practice.sol\":461:593  function localvariable()public pure returns(uint) {... */\n    tag_27:\n        /* \"practice.sol\":505:509  uint */\n      0x00\n        /* \"practice.sol\":518:524  uint i */\n      0x00\n        /* \"practice.sol\":525:527  25 */\n      0x19\n        /* \"practice.sol\":518:527  uint i=25 */\n      swap1\n      pop\n        /* \"practice.sol\":537:543  uint j */\n      0x00\n        /* \"practice.sol\":544:546  25 */\n      0x19\n        /* \"practice.sol\":537:546  uint j=25 */\n      swap1\n      pop\n        /* \"practice.sol\":556:562  uint k */\n      0x00\n        /* \"practice.sol\":565:566  j */\n      dup2\n        /* \"practice.sol\":563:564  i */\n      dup4\n        /* \"practice.sol\":563:566  i+j */\n      tag_50\n      swap2\n      swap1\n      tag_51\n      jump\t// in\n    tag_50:\n        /* \"practice.sol\":556:566  uint k=i+j */\n      swap1\n      pop\n        /* \"practice.sol\":583:584  k */\n      dup1\n        /* \"practice.sol\":576:585  return(k) */\n      swap4\n      pop\n      pop\n      pop\n      pop\n        /* \"practice.sol\":461:593  function localvariable()public pure returns(uint) {... */\n      swap1\n      jump\t// out\n        /* \"practice.sol\":204:228  bool public isyear=false */\n    tag_30:\n      0x03\n      0x00\n      swap1\n      sload\n      swap1\n      0x0100\n      exp\n      swap1\n      div\n      0xff\n      and\n      dup2\n      jump\t// out\n        /* \"practice.sol\":103:143  string public greetings=\"happy birthday\" */\n    tag_34:\n      0x00\n      dup1\n      sload\n      tag_52\n      swap1\n      tag_41\n      jump\t// in\n    tag_52:\n      dup1\n      0x1f\n      add\n      0x20\n      dup1\n      swap2\n      div\n      mul\n      0x20\n      add\n      mload(0x40)\n      swap1\n      dup2\n      add\n      0x40\n      mstore\n      dup1\n      swap3\n      swap2\n      swap1\n      dup2\n      dup2\n      mstore\n      0x20\n      add\n      dup3\n      dup1\n      sload\n      tag_53\n      swap1\n      tag_41\n      jump\t// in\n    tag_53:\n      dup1\n      iszero\n      tag_54\n      jumpi\n      dup1\n      0x1f\n      lt\n      tag_55\n      jumpi\n      0x0100\n      dup1\n      dup4\n      sload\n      div\n      mul\n      dup4\n      mstore\n      swap2\n      0x20\n      add\n      swap2\n      jump(tag_54)\n    tag_55:\n      dup3\n      add\n      swap2\n      swap1\n      0x00\n      mstore\n      keccak256(0x00, 0x20)\n      swap1\n    tag_56:\n      dup2\n      sload\n      dup2\n      mstore\n      swap1\n      0x01\n      add\n      swap1\n      0x20\n      add\n      dup1\n      dup4\n      gt\n      tag_56\n      jumpi\n      dup3\n      swap1\n      sub\n      0x1f\n      and\n      dup3\n      add\n      swap2\n    tag_54:\n      pop\n      pop\n      pop\n      pop\n      pop\n      dup2\n      jump\t// out\n        /* \"practice.sol\":176:197  int public year=-2004 */\n    tag_37:\n      sload(0x02)\n      dup2\n      jump\t// out\n        /* \"#utility.yul\":7:133   */\n    tag_57:\n        /* \"#utility.yul\":44:51   */\n      0x00\n        /* \"#utility.yul\":84:126   */\n      0xffffffffffffffffffffffffffffffffffffffff\n        /* \"#utility.yul\":77:82   */\n      dup3\n        /* \"#utility.yul\":73:127   */\n      and\n        /* \"#utility.yul\":62:127   */\n      swap1\n      pop\n        /* \"#utility.yul\":7:133   */\n      swap2\n      swap1\n      pop\n      jump\t// out\n        /* \"#utility.yul\":139:235   */\n    tag_58:\n        /* \"#utility.yul\":176:183   */\n      0x00\n        /* \"#utility.yul\":205:229   */\n      tag_92\n        /* \"#utility.yul\":223:228   */\n      dup3\n        /* \"#utility.yul\":205:229   */\n      tag_57\n      jump\t// in\n    tag_92:\n        /* \"#utility.yul\":194:229   */\n      swap1\n      pop\n        /* \"#utility.yul\":139:235   */\n      swap2\n      swap1\n      pop\n      jump\t// out\n        /* \"#utility.yul\":241:359   */\n    tag_59:\n        /* \"#utility.yul\":328:352   */\n      tag_94\n        /* \"#utility.yul\":346:351   */\n      dup2\n        /* \"#utility.yul\":328:352   */\n      tag_58\n      jump\t// in\n    tag_94:\n        /* \"#utility.yul\":323:326   */\n      dup3\n        /* \"#utility.yul\":316:353   */\n      mstore\n        /* \"#utility.yul\":241:359   */\n      pop\n      pop\n      jump\t// out\n        /* \"#utility.yul\":365:587   */\n    tag_15:\n        /* \"#utility.yul\":458:462   */\n      0x00\n        /* \"#utility.yul\":496:498   */\n      0x20\n        /* \"#utility.yul\":485:494   */\n      dup3\n        /* \"#utility.yul\":481:499   */\n      add\n        /* \"#utility.yul\":473:499   */\n      swap1\n      pop\n        /* \"#utility.yul\":509:580   */\n      tag_96\n        /* \"#utility.yul\":577:578   */\n      0x00\n        /* \"#utility.yul\":566:575   */\n      dup4\n        /* \"#utility.yul\":562:579   */\n      add\n        /* \"#utility.yul\":553:559   */\n      dup5\n        /* \"#utility.yul\":509:580   */\n      tag_59\n      jump\t// in\n    tag_96:\n        /* \"#utility.yul\":365:587   */\n      swap3\n      swap2\n      pop\n      pop\n      jump\t// out\n        /* \"#utility.yul\":593:670   */\n    tag_60:\n        /* \"#utility.yul\":630:637   */\n      0x00\n        /* \"#utility.yul\":659:664   */\n      dup2\n        /* \"#utility.yul\":648:664   */\n      swap1\n      pop\n        /* \"#utility.yul\":593:670   */\n      swap2\n      swap1\n      pop\n      jump\t// out\n        /* \"#utility.yul\":676:794   */\n    tag_61:\n        /* \"#utility.yul\":763:787   */\n      tag_99\n        /* \"#utility.yul\":781:786   */\n      dup2\n        /* \"#utility.yul\":763:787   */\n      tag_60\n      jump\t// in\n    tag_99:\n        /* \"#utility.yul\":758:761   */\n      dup3\n        /* \"#utility.yul\":751:788   */\n      mstore\n        /* \"#utility.yul\":676:794   */\n      pop\n      pop\n      jump\t// out\n        /* \"#utility.yul\":800:1022   */\n    tag_19:\n        /* \"#utility.yul\":893:897   */\n      0x00\n        /* \"#utility.yul\":931:933   */\n      0x20\n        /* \"#utility.yul\":920:929   */\n      dup3\n        /* \"#utility.yul\":916:934   */\n      add\n        /* \"#utility.yul\":908:934   */\n      swap1\n      pop\n        /* \"#utility.yul\":944:1015   */\n      tag_101\n        /* \"#utility.yul\":1012:1013   */\n      0x00\n        /* \"#utility.yul\":1001:1010   */\n      dup4\n        /* \"#utility.yul\":997:1014   */\n      add\n        /* \"#utility.yul\":988:994   */\n      dup5\n        /* \"#utility.yul\":944:1015   */\n      tag_61\n      jump\t// in\n    tag_101:\n        /* \"#utility.yul\":800:1022   */\n      swap3\n      swap2\n      pop\n      pop\n      jump\t// out\n        /* \"#utility.yul\":1028:1127   */\n    tag_62:\n        /* \"#utility.yul\":1080:1086   */\n      0x00\n        /* \"#utility.yul\":1114:1119   */\n      dup2\n        /* \"#utility.yul\":1108:1120   */\n      mload\n        /* \"#utility.yul\":1098:1120   */\n      swap1\n      pop\n        /* \"#utility.yul\":1028:1127   */\n      swap2\n      swap1\n      pop\n      jump\t// out\n        /* \"#utility.yul\":1133:1302   */\n    tag_63:\n        /* \"#utility.yul\":1217:1228   */\n      0x00\n        /* \"#utility.yul\":1251:1257   */\n      dup3\n        /* \"#utility.yul\":1246:1249   */\n      dup3\n        /* \"#utility.yul\":1239:1258   */\n      mstore\n        /* \"#utility.yul\":1291:1295   */\n      0x20\n        /* \"#utility.yul\":1286:1289   */\n      dup3\n        /* \"#utility.yul\":1282:1296   */\n      add\n        /* \"#utility.yul\":1267:1296   */\n      swap1\n      pop\n        /* \"#utility.yul\":1133:1302   */\n      swap3\n      swap2\n      pop\n      pop\n      jump\t// out\n        /* \"#utility.yul\":1308:1447   */\n    tag_64:\n        /* \"#utility.yul\":1397:1403   */\n      dup3\n        /* \"#utility.yul\":1392:1395   */\n      dup2\n        /* \"#utility.yul\":1387:1390   */\n      dup4\n        /* \"#utility.yul\":1381:1404   */\n      mcopy\n        /* \"#utility.yul\":1438:1439   */\n      0x00\n        /* \"#utility.yul\":1429:1435   */\n      dup4\n        /* \"#utility.yul\":1424:1427   */\n      dup4\n        /* \"#utility.yul\":1420:1436   */\n      add\n        /* \"#utility.yul\":1413:1440   */\n      mstore\n        /* \"#utility.yul\":1308:1447   */\n      pop\n      pop\n      pop\n      jump\t// out\n        /* \"#utility.yul\":1453:1555   */\n    tag_65:\n        /* \"#utility.yul\":1494:1500   */\n      0x00\n        /* \"#utility.yul\":1545:1547   */\n      0x1f\n        /* \"#utility.yul\":1541:1548   */\n      not\n        /* \"#utility.yul\":1536:1538   */\n      0x1f\n        /* \"#utility.yul\":1529:1534   */\n      dup4\n        /* \"#utility.yul\":1525:1539   */\n      add\n        /* \"#utility.yul\":1521:1549   */\n      and\n        /* \"#utility.yul\":1511:1549   */\n      swap1\n      pop\n        /* \"#utility.yul\":1453:1555   */\n      swap2\n      swap1\n      pop\n      jump\t// out\n        /* \"#utility.yul\":1561:1938   */\n    tag_66:\n        /* \"#utility.yul\":1649:1652   */\n      0x00\n        /* \"#utility.yul\":1677:1716   */\n      tag_107\n        /* \"#utility.yul\":1710:1715   */\n      dup3\n        /* \"#utility.yul\":1677:1716   */\n      tag_62\n      jump\t// in\n    tag_107:\n        /* \"#utility.yul\":1732:1803   */\n      tag_108\n        /* \"#utility.yul\":1796:1802   */\n      dup2\n        /* \"#utility.yul\":1791:1794   */\n      dup6\n        /* \"#utility.yul\":1732:1803   */\n      tag_63\n      jump\t// in\n    tag_108:\n        /* \"#utility.yul\":1725:1803   */\n      swap4\n      pop\n        /* \"#utility.yul\":1812:1877   */\n      tag_109\n        /* \"#utility.yul\":1870:1876   */\n      dup2\n        /* \"#utility.yul\":1865:1868   */\n      dup6\n        /* \"#utility.yul\":1858:1862   */\n      0x20\n        /* \"#utility.yul\":1851:1856   */\n      dup7\n        /* \"#utility.yul\":1847:1863   */\n      add\n        /* \"#utility.yul\":1812:1877   */\n      tag_64\n      jump\t// in\n    tag_109:\n        /* \"#utility.yul\":1902:1931   */\n      tag_110\n        /* \"#utility.yul\":1924:1930   */\n      dup2\n        /* \"#utility.yul\":1902:1931   */\n      tag_65\n      jump\t// in\n    tag_110:\n        /* \"#utility.yul\":1897:1900   */\n      dup5\n        /* \"#utility.yul\":1893:1932   */\n      add\n        /* \"#utility.yul\":1886:1932   */\n      swap2\n      pop\n        /* \"#utility.yul\":1653:1938   */\n      pop\n        /* \"#utility.yul\":1561:1938   */\n      swap3\n      swap2\n      pop\n      pop\n      jump\t// out\n        /* \"#utility.yul\":1944:2257   */\n    tag_23:\n        /* \"#utility.yul\":2057:2061   */\n      0x00\n        /* \"#utility.yul\":2095:2097   */\n      0x20\n        /* \"#utility.yul\":2084:2093   */\n      dup3\n        /* \"#utility.yul\":2080:2098   */\n      add\n        /* \"#utility.yul\":2072:2098   */\n      swap1\n      pop\n        /* \"#utility.yul\":2144:2153   */\n      dup2\n        /* \"#utility.yul\":2138:2142   */\n      dup2\n        /* \"#utility.yul\":2134:2154   */\n      sub\n        /* \"#utility.yul\":2130:2131   */\n      0x00\n        /* \"#utility.yul\":2119:2128   */\n      dup4\n        /* \"#utility.yul\":2115:2132   */\n      add\n        /* \"#utility.yul\":2108:2155   */\n      mstore\n        /* \"#utility.yul\":2172:2250   */\n      tag_112\n        /* \"#utility.yul\":2245:2249   */\n      dup2\n        /* \"#utility.yul\":2236:2242   */\n      dup5\n        /* \"#utility.yul\":2172:2250   */\n      tag_66\n      jump\t// in\n    tag_112:\n        /* \"#utility.yul\":2164:2250   */\n      swap1\n      pop\n        /* \"#utility.yul\":1944:2257   */\n      swap3\n      swap2\n      pop\n      pop\n      jump\t// out\n        /* \"#utility.yul\":2263:2353   */\n    tag_67:\n        /* \"#utility.yul\":2297:2304   */\n      0x00\n        /* \"#utility.yul\":2340:2345   */\n      dup2\n        /* \"#utility.yul\":2333:2346   */\n      iszero\n        /* \"#utility.yul\":2326:2347   */\n      iszero\n        /* \"#utility.yul\":2315:2347   */\n      swap1\n      pop\n        /* \"#utility.yul\":2263:2353   */\n      swap2\n      swap1\n      pop\n      jump\t// out\n        /* \"#utility.yul\":2359:2468   */\n    tag_68:\n        /* \"#utility.yul\":2440:2461   */\n      tag_115\n        /* \"#utility.yul\":2455:2460   */\n      dup2\n        /* \"#utility.yul\":2440:2461   */\n      tag_67\n      jump\t// in\n    tag_115:\n        /* \"#utility.yul\":2435:2438   */\n      dup3\n        /* \"#utility.yul\":2428:2462   */\n      mstore\n        /* \"#utility.yul\":2359:2468   */\n      pop\n      pop\n      jump\t// out\n        /* \"#utility.yul\":2474:2684   */\n    tag_32:\n        /* \"#utility.yul\":2561:2565   */\n      0x00\n        /* \"#utility.yul\":2599:2601   */\n      0x20\n        /* \"#utility.yul\":2588:2597   */\n      dup3\n        /* \"#utility.yul\":2584:2602   */\n      add\n        /* \"#utility.yul\":2576:2602   */\n      swap1\n      pop\n        /* \"#utility.yul\":2612:2677   */\n      tag_117\n        /* \"#utility.yul\":2674:2675   */\n      0x00\n        /* \"#utility.yul\":2663:2672   */\n      dup4\n        /* \"#utility.yul\":2659:2676   */\n      add\n        /* \"#utility.yul\":2650:2656   */\n      dup5\n        /* \"#utility.yul\":2612:2677   */\n      tag_68\n      jump\t// in\n    tag_117:\n        /* \"#utility.yul\":2474:2684   */\n      swap3\n      swap2\n      pop\n      pop\n      jump\t// out\n        /* \"#utility.yul\":2690:2766   */\n    tag_69:\n        /* \"#utility.yul\":2726:2733   */\n      0x00\n        /* \"#utility.yul\":2755:2760   */\n      dup2\n        /* \"#utility.yul\":2744:2760   */\n      swap1\n      pop\n        /* \"#utility.yul\":2690:2766   */\n      swap2\n      swap1\n      pop\n      jump\t// out\n        /* \"#utility.yul\":2772:2887   */\n    tag_70:\n        /* \"#utility.yul\":2857:2880   */\n      tag_120\n        /* \"#utility.yul\":2874:2879   */\n      dup2\n        /* \"#utility.yul\":2857:2880   */\n      tag_69\n      jump\t// in\n    tag_120:\n        /* \"#utility.yul\":2852:2855   */\n      dup3\n        /* \"#utility.yul\":2845:2881   */\n      mstore\n        /* \"#utility.yul\":2772:2887   */\n      pop\n      pop\n      jump\t// out\n        /* \"#utility.yul\":2893:3111   */\n    tag_39:\n        /* \"#utility.yul\":2984:2988   */\n      0x00\n        /* \"#utility.yul\":3022:3024   */\n      0x20\n        /* \"#utility.yul\":3011:3020   */\n      dup3\n        /* \"#utility.yul\":3007:3025   */\n      add\n        /* \"#utility.yul\":2999:3025   */\n      swap1\n      pop\n        /* \"#utility.yul\":3035:3104   */\n      tag_122\n        /* \"#utility.yul\":3101:3102   */\n      0x00\n        /* \"#utility.yul\":3090:3099   */\n      dup4\n        /* \"#utility.yul\":3086:3103   */\n      add\n        /* \"#utility.yul\":3077:3083   */\n      dup5\n        /* \"#utility.yul\":3035:3104   */\n      tag_70\n      jump\t// in\n    tag_122:\n        /* \"#utility.yul\":2893:3111   */\n      swap3\n      swap2\n      pop\n      pop\n      jump\t// out\n        /* \"#utility.yul\":3117:3297   */\n    tag_71:\n        /* \"#utility.yul\":3165:3242   */\n      0x4e487b7100000000000000000000000000000000000000000000000000000000\n        /* \"#utility.yul\":3162:3163   */\n      0x00\n        /* \"#utility.yul\":3155:3243   */\n      mstore\n        /* \"#utility.yul\":3262:3266   */\n      0x22\n        /* \"#utility.yul\":3259:3260   */\n      0x04\n        /* \"#utility.yul\":3252:3267   */\n      mstore\n        /* \"#utility.yul\":3286:3290   */\n      0x24\n        /* \"#utility.yul\":3283:3284   */\n      0x00\n        /* \"#utility.yul\":3276:3291   */\n      revert\n        /* \"#utility.yul\":3303:3623   */\n    tag_41:\n        /* \"#utility.yul\":3347:3353   */\n      0x00\n        /* \"#utility.yul\":3384:3385   */\n      0x02\n        /* \"#utility.yul\":3378:3382   */\n      dup3\n        /* \"#utility.yul\":3374:3386   */\n      div\n        /* \"#utility.yul\":3364:3386   */\n      swap1\n      pop\n        /* \"#utility.yul\":3431:3432   */\n      0x01\n        /* \"#utility.yul\":3425:3429   */\n      dup3\n        /* \"#utility.yul\":3421:3433   */\n      and\n        /* \"#utility.yul\":3452:3470   */\n      dup1\n        /* \"#utility.yul\":3442:3523   */\n      tag_125\n      jumpi\n        /* \"#utility.yul\":3508:3512   */\n      0x7f\n        /* \"#utility.yul\":3500:3506   */\n      dup3\n        /* \"#utility.yul\":3496:3513   */\n      and\n        /* \"#utility.yul\":3486:3513   */\n      swap2\n      pop\n        /* \"#utility.yul\":3442:3523   */\n    tag_125:\n        /* \"#utility.yul\":3570:3572   */\n      0x20\n        /* \"#utility.yul\":3562:3568   */\n      dup3\n        /* \"#utility.yul\":3559:3573   */\n      lt\n        /* \"#utility.yul\":3539:3557   */\n      dup2\n        /* \"#utility.yul\":3536:3574   */\n      sub\n        /* \"#utility.yul\":3533:3617   */\n      tag_126\n      jumpi\n        /* \"#utility.yul\":3589:3607   */\n      tag_127\n      tag_71\n      jump\t// in\n    tag_127:\n        /* \"#utility.yul\":3533:3617   */\n    tag_126:\n        /* \"#utility.yul\":3354:3623   */\n      pop\n        /* \"#utility.yul\":3303:3623   */\n      swap2\n      swap1\n      pop\n      jump\t// out\n        /* \"#utility.yul\":3629:3809   */\n    tag_72:\n        /* \"#utility.yul\":3677:3754   */\n      0x4e487b7100000000000000000000000000000000000000000000000000000000\n        /* \"#utility.yul\":3674:3675   */\n      0x00\n        /* \"#utility.yul\":3667:3755   */\n      mstore\n        /* \"#utility.yul\":3774:3778   */\n      0x41\n        /* \"#utility.yul\":3771:3772   */\n      0x04\n        /* \"#utility.yul\":3764:3779   */\n      mstore\n        /* \"#utility.yul\":3798:3802   */\n      0x24\n        /* \"#utility.yul\":3795:3796   */\n      0x00\n        /* \"#utility.yul\":3788:3803   */\n      revert\n        /* \"#utility.yul\":3815:3956   */\n    tag_73:\n        /* \"#utility.yul\":3864:3868   */\n      0x00\n        /* \"#utility.yul\":3887:3890   */\n      dup2\n        /* \"#utility.yul\":3879:3890   */\n      swap1\n      pop\n        /* \"#utility.yul\":3910:3913   */\n      dup2\n        /* \"#utility.yul\":3907:3908   */\n      0x00\n        /* \"#utility.yul\":3900:3914   */\n      mstore\n        /* \"#utility.yul\":3944:3948   */\n      0x20\n        /* \"#utility.yul\":3941:3942   */\n      0x00\n        /* \"#utility.yul\":3931:3949   */\n      keccak256\n        /* \"#utility.yul\":3923:3949   */\n      swap1\n      pop\n        /* \"#utility.yul\":3815:3956   */\n      swap2\n      swap1\n      pop\n      jump\t// out\n        /* \"#utility.yul\":3962:4055   */\n    tag_74:\n        /* \"#utility.yul\":3999:4005   */\n      0x00\n        /* \"#utility.yul\":4046:4048   */\n      0x20\n        /* \"#utility.yul\":4041:4043   */\n      0x1f\n        /* \"#utility.yul\":4034:4039   */\n      dup4\n        /* \"#utility.yul\":4030:4044   */\n      add\n        /* \"#utility.yul\":4026:4049   */\n      div\n        /* \"#utility.yul\":4016:4049   */\n      swap1\n      pop\n        /* \"#utility.yul\":3962:4055   */\n      swap2\n      swap1\n      pop\n      jump\t// out\n        /* \"#utility.yul\":4061:4168   */\n    tag_75:\n        /* \"#utility.yul\":4105:4113   */\n      0x00\n        /* \"#utility.yul\":4155:4160   */\n      dup3\n        /* \"#utility.yul\":4149:4153   */\n      dup3\n        /* \"#utility.yul\":4145:4161   */\n      shl\n        /* \"#utility.yul\":4124:4161   */\n      swap1\n      pop\n        /* \"#utility.yul\":4061:4168   */\n      swap3\n      swap2\n      pop\n      pop\n      jump\t// out\n        /* \"#utility.yul\":4174:4567   */\n    tag_76:\n        /* \"#utility.yul\":4243:4249   */\n      0x00\n        /* \"#utility.yul\":4293:4294   */\n      0x08\n        /* \"#utility.yul\":4281:4291   */\n      dup4\n        /* \"#utility.yul\":4277:4295   */\n      mul\n        /* \"#utility.yul\":4316:4413   */\n      tag_133\n        /* \"#utility.yul\":4346:4412   */\n      0xffffffffffffffffffffffffffffffffffffffffffffffffffffffffffffffff\n        /* \"#utility.yul\":4335:4344   */\n      dup3\n        /* \"#utility.yul\":4316:4413   */\n      tag_75\n      jump\t// in\n    tag_133:\n        /* \"#utility.yul\":4434:4473   */\n      tag_134\n        /* \"#utility.yul\":4464:4472   */\n      dup7\n        /* \"#utility.yul\":4453:4462   */\n      dup4\n        /* \"#utility.yul\":4434:4473   */\n      tag_75\n      jump\t// in\n    tag_134:\n        /* \"#utility.yul\":4422:4473   */\n      swap6\n      pop\n        /* \"#utility.yul\":4506:4510   */\n      dup1\n        /* \"#utility.yul\":4502:4511   */\n      not\n        /* \"#utility.yul\":4495:4500   */\n      dup5\n        /* \"#utility.yul\":4491:4512   */\n      and\n        /* \"#utility.yul\":4482:4512   */\n      swap4\n      pop\n        /* \"#utility.yul\":4555:4559   */\n      dup1\n        /* \"#utility.yul\":4545:4553   */\n      dup7\n        /* \"#utility.yul\":4541:4560   */\n      and\n        /* \"#utility.yul\":4534:4539   */\n      dup5\n        /* \"#utility.yul\":4531:4561   */\n      or\n        /* \"#utility.yul\":4521:4561   */\n      swap3\n      pop\n        /* \"#utility.yul\":4250:4567   */\n      pop\n      pop\n        /* \"#utility.yul\":4174:4567   */\n      swap4\n      swap3\n      pop\n      pop\n      pop\n      jump\t// out\n        /* \"#utility.yul\":4573:4633   */\n    tag_77:\n        /* \"#utility.yul\":4601:4604   */\n      0x00\n        /* \"#utility.yul\":4622:4627   */\n      dup2\n        /* \"#utility.yul\":4615:4627   */\n      swap1\n      pop\n        /* \"#utility.yul\":4573:4633   */\n      swap2\n      swap1\n      pop\n      jump\t// out\n        /* \"#utility.yul\":4639:4781   */\n    tag_78:\n        /* \"#utility.yul\":4689:4698   */\n      0x00\n        /* \"#utility.yul\":4722:4775   */\n      tag_137\n        /* \"#utility.yul\":4740:4774   */\n      tag_138\n        /* \"#utility.yul\":4749:4773   */\n      tag_139\n        /* \"#utility.yul\":4767:4772   */\n      dup5\n        /* \"#utility.yul\":4749:4773   */\n      tag_60\n      jump\t// in\n    tag_139:\n        /* \"#utility.yul\":4740:4774   */\n      tag_77\n      jump\t// in\n    tag_138:\n        /* \"#utility.yul\":4722:4775   */\n      tag_60\n      jump\t// in\n    tag_137:\n        /* \"#utility.yul\":4709:4775   */\n      swap1\n      pop\n        /* \"#utility.yul\":4639:4781   */\n      swap2\n      swap1\n      pop\n      jump\t// out\n        /* \"#utility.yul\":4787:4862   */\n    tag_79:\n        /* \"#utility.yul\":4830:4833   */\n      0x00\n        /* \"#utility.yul\":4851:4856   */\n      dup2\n        /* \"#utility.yul\":4844:4856   */\n      swap1\n      pop\n        /* \"#utility.yul\":4787:4862   */\n      swap2\n      swap1\n      pop\n      jump\t// out\n        /* \"#utility.yul\":4868:5137   */\n    tag_80:\n        /* \"#utility.yul\":4978:5017   */\n      tag_142\n        /* \"#utility.yul\":5009:5016   */\n      dup4\n        /* \"#utility.yul\":4978:5017   */\n      tag_78\n      jump\t// in\n    tag_142:\n        /* \"#utility.yul\":5039:5130   */\n      tag_143\n        /* \"#utility.yul\":5088:5129   */\n      tag_144\n        /* \"#utility.yul\":5112:5128   */\n      dup3\n        /* \"#utility.yul\":5088:5129   */\n      tag_79\n      jump\t// in\n    tag_144:\n        /* \"#utility.yul\":5080:5086   */\n      dup5\n        /* \"#utility.yul\":5073:5077   */\n      dup5\n        /* \"#utility.yul\":5067:5078   */\n      sload\n        /* \"#utility.yul\":5039:5130   */\n      tag_76\n      jump\t// in\n    tag_143:\n        /* \"#utility.yul\":5033:5037   */\n      dup3\n        /* \"#utility.yul\":5026:5131   */\n      sstore\n        /* \"#utility.yul\":4944:5137   */\n      pop\n        /* \"#utility.yul\":4868:5137   */\n      pop\n      pop\n      pop\n      jump\t// out\n        /* \"#utility.yul\":5143:5216   */\n    tag_81:\n        /* \"#utility.yul\":5188:5191   */\n      0x00\n        /* \"#utility.yul\":5209:5210   */\n      0x00\n        /* \"#utility.yul\":5202:5210   */\n      swap1\n      pop\n        /* \"#utility.yul\":5143:5216   */\n      swap1\n      jump\t// out\n        /* \"#utility.yul\":5222:5411   */\n    tag_82:\n        /* \"#utility.yul\":5299:5331   */\n      tag_147\n      tag_81\n      jump\t// in\n    tag_147:\n        /* \"#utility.yul\":5340:5405   */\n      tag_148\n        /* \"#utility.yul\":5398:5404   */\n      dup2\n        /* \"#utility.yul\":5390:5396   */\n      dup5\n        /* \"#utility.yul\":5384:5388   */\n      dup5\n        /* \"#utility.yul\":5340:5405   */\n      tag_80\n      jump\t// in\n    tag_148:\n        /* \"#utility.yul\":5275:5411   */\n      pop\n        /* \"#utility.yul\":5222:5411   */\n      pop\n      pop\n      jump\t// out\n        /* \"#utility.yul\":5417:5631   */\n    tag_83:\n        /* \"#utility.yul\":5502:5503   */\n      0x00\n        /* \"#utility.yul\":5487:5625   */\n    tag_150:\n        /* \"#utility.yul\":5512:5521   */\n      dup3\n        /* \"#utility.yul\":5509:5510   */\n      dup2\n        /* \"#utility.yul\":5506:5522   */\n      lt\n        /* \"#utility.yul\":5487:5625   */\n      iszero\n      tag_152\n      jumpi\n        /* \"#utility.yul\":5564:5615   */\n      tag_153\n        /* \"#utility.yul\":5613:5614   */\n      0x00\n        /* \"#utility.yul\":5609:5610   */\n      dup3\n        /* \"#utility.yul\":5598:5607   */\n      dup5\n        /* \"#utility.yul\":5594:5611   */\n      add\n        /* \"#utility.yul\":5564:5615   */\n      tag_82\n      jump\t// in\n    tag_153:\n        /* \"#utility.yul\":5537:5538   */\n      0x01\n        /* \"#utility.yul\":5534:5535   */\n      dup2\n        /* \"#utility.yul\":5530:5539   */\n      add\n        /* \"#utility.yul\":5525:5539   */\n      swap1\n      pop\n        /* \"#utility.yul\":5487:5625   */\n      jump(tag_150)\n    tag_152:\n        /* \"#utility.yul\":5491:5505   */\n      pop\n        /* \"#utility.yul\":5417:5631   */\n      pop\n      pop\n      jump\t// out\n        /* \"#utility.yul\":5637:6383   */\n    tag_84:\n        /* \"#utility.yul\":5738:5740   */\n      0x1f\n        /* \"#utility.yul\":5733:5736   */\n      dup3\n        /* \"#utility.yul\":5730:5741   */\n      gt\n        /* \"#utility.yul\":5727:6376   */\n      iszero\n      tag_155\n      jumpi\n        /* \"#utility.yul\":5767:5777   */\n      dup3\n        /* \"#utility.yul\":5762:5765   */\n      dup3\n        /* \"#utility.yul\":5759:5778   */\n      gt\n        /* \"#utility.yul\":5756:6366   */\n      iszero\n      tag_156\n      jumpi\n        /* \"#utility.yul\":5813:5851   */\n      tag_157\n        /* \"#utility.yul\":5845:5850   */\n      dup2\n        /* \"#utility.yul\":5813:5851   */\n      tag_73\n      jump\t// in\n    tag_157:\n        /* \"#utility.yul\":5888:5910   */\n      tag_158\n        /* \"#utility.yul\":5906:5909   */\n      dup4\n        /* \"#utility.yul\":5888:5910   */\n      tag_74\n      jump\t// in\n    tag_158:\n        /* \"#utility.yul\":5947:5976   */\n      tag_159\n        /* \"#utility.yul\":5965:5975   */\n      dup6\n        /* \"#utility.yul\":5947:5976   */\n      tag_74\n      jump\t// in\n    tag_159:\n        /* \"#utility.yul\":6137:6139   */\n      0x20\n        /* \"#utility.yul\":6125:6135   */\n      dup7\n        /* \"#utility.yul\":6122:6140   */\n      lt\n        /* \"#utility.yul\":6119:6198   */\n      iszero\n      tag_160\n      jumpi\n        /* \"#utility.yul\":6179:6180   */\n      0x00\n        /* \"#utility.yul\":6163:6180   */\n      swap1\n      pop\n        /* \"#utility.yul\":6119:6198   */\n    tag_160:\n        /* \"#utility.yul\":6248:6260   */\n      dup1\n        /* \"#utility.yul\":6238:6246   */\n      dup4\n        /* \"#utility.yul\":6234:6261   */\n      add\n        /* \"#utility.yul\":6278:6352   */\n      tag_161\n        /* \"#utility.yul\":6338:6350   */\n      dup3\n        /* \"#utility.yul\":6324:6336   */\n      dup5\n        /* \"#utility.yul\":6320:6351   */\n      sub\n        /* \"#utility.yul\":6307:6318   */\n      dup3\n        /* \"#utility.yul\":6278:6352   */\n      tag_83\n      jump\t// in\n    tag_161:\n        /* \"#utility.yul\":5779:6366   */\n      pop\n      pop\n      pop\n      pop\n        /* \"#utility.yul\":5756:6366   */\n    tag_156:\n        /* \"#utility.yul\":5727:6376   */\n    tag_155:\n        /* \"#utility.yul\":5637:6383   */\n      pop\n      pop\n      pop\n      jump\t// out\n        /* \"#utility.yul\":6389:6506   */\n    tag_85:\n        /* \"#utility.yul\":6443:6451   */\n      0x00\n        /* \"#utility.yul\":6493:6498   */\n      dup3\n        /* \"#utility.yul\":6487:6491   */\n      dup3\n        /* \"#utility.yul\":6483:6499   */\n      shr\n        /* \"#utility.yul\":6462:6499   */\n      swap1\n      pop\n        /* \"#utility.yul\":6389:6506   */\n      swap3\n      swap2\n      pop\n      pop\n      jump\t// out\n        /* \"#utility.yul\":6512:6681   */\n    tag_86:\n        /* \"#utility.yul\":6556:6562   */\n      0x00\n        /* \"#utility.yul\":6589:6640   */\n      tag_164\n        /* \"#utility.yul\":6637:6638   */\n      0x00\n        /* \"#utility.yul\":6633:6639   */\n      not\n        /* \"#utility.yul\":6625:6630   */\n      dup5\n        /* \"#utility.yul\":6622:6623   */\n      0x08\n        /* \"#utility.yul\":6618:6631   */\n      mul\n        /* \"#utility.yul\":6589:6640   */\n      tag_85\n      jump\t// in\n    tag_164:\n        /* \"#utility.yul\":6585:6641   */\n      not\n        /* \"#utility.yul\":6670:6674   */\n      dup1\n        /* \"#utility.yul\":6664:6668   */\n      dup4\n        /* \"#utility.yul\":6660:6675   */\n      and\n        /* \"#utility.yul\":6650:6675   */\n      swap2\n      pop\n        /* \"#utility.yul\":6563:6681   */\n      pop\n        /* \"#utility.yul\":6512:6681   */\n      swap3\n      swap2\n      pop\n      pop\n      jump\t// out\n        /* \"#utility.yul\":6686:6981   */\n    tag_87:\n        /* \"#utility.yul\":6762:6766   */\n      0x00\n        /* \"#utility.yul\":6908:6937   */\n      tag_166\n        /* \"#utility.yul\":6933:6936   */\n      dup4\n        /* \"#utility.yul\":6927:6931   */\n      dup4\n        /* \"#utility.yul\":6908:6937   */\n      tag_86\n      jump\t// in\n    tag_166:\n        /* \"#utility.yul\":6900:6937   */\n      swap2\n      pop\n        /* \"#utility.yul\":6970:6973   */\n      dup3\n        /* \"#utility.yul\":6967:6968   */\n      0x02\n        /* \"#utility.yul\":6963:6974   */\n      mul\n        /* \"#utility.yul\":6957:6961   */\n      dup3\n        /* \"#utility.yul\":6954:6975   */\n      or\n        /* \"#utility.yul\":6946:6975   */\n      swap1\n      pop\n        /* \"#utility.yul\":6686:6981   */\n      swap3\n      swap2\n      pop\n      pop\n      jump\t// out\n        /* \"#utility.yul\":6986:8381   */\n    tag_48:\n        /* \"#utility.yul\":7103:7140   */\n      tag_168\n        /* \"#utility.yul\":7136:7139   */\n      dup3\n        /* \"#utility.yul\":7103:7140   */\n      tag_62\n      jump\t// in\n    tag_168:\n        /* \"#utility.yul\":7205:7223   */\n      0xffffffffffffffff\n        /* \"#utility.yul\":7197:7203   */\n      dup2\n        /* \"#utility.yul\":7194:7224   */\n      gt\n        /* \"#utility.yul\":7191:7247   */\n      iszero\n      tag_169\n      jumpi\n        /* \"#utility.yul\":7227:7245   */\n      tag_170\n      tag_72\n      jump\t// in\n    tag_170:\n        /* \"#utility.yul\":7191:7247   */\n    tag_169:\n        /* \"#utility.yul\":7271:7309   */\n      tag_171\n        /* \"#utility.yul\":7303:7307   */\n      dup3\n        /* \"#utility.yul\":7297:7308   */\n      sload\n        /* \"#utility.yul\":7271:7309   */\n      tag_41\n      jump\t// in\n    tag_171:\n        /* \"#utility.yul\":7356:7423   */\n      tag_172\n        /* \"#utility.yul\":7416:7422   */\n      dup3\n        /* \"#utility.yul\":7408:7414   */\n      dup3\n        /* \"#utility.yul\":7402:7406   */\n      dup6\n        /* \"#utility.yul\":7356:7423   */\n      tag_84\n      jump\t// in\n    tag_172:\n        /* \"#utility.yul\":7450:7451   */\n      0x00\n        /* \"#utility.yul\":7474:7478   */\n      0x20\n        /* \"#utility.yul\":7461:7478   */\n      swap1\n      pop\n        /* \"#utility.yul\":7506:7508   */\n      0x1f\n        /* \"#utility.yul\":7498:7504   */\n      dup4\n        /* \"#utility.yul\":7495:7509   */\n      gt\n        /* \"#utility.yul\":7523:7524   */\n      0x01\n        /* \"#utility.yul\":7518:8136   */\n      dup2\n      eq\n      tag_174\n      jumpi\n        /* \"#utility.yul\":8180:8181   */\n      0x00\n        /* \"#utility.yul\":8197:8203   */\n      dup5\n        /* \"#utility.yul\":8194:8271   */\n      iszero\n      tag_175\n      jumpi\n        /* \"#utility.yul\":8246:8255   */\n      dup3\n        /* \"#utility.yul\":8241:8244   */\n      dup8\n        /* \"#utility.yul\":8237:8256   */\n      add\n        /* \"#utility.yul\":8231:8257   */\n      mload\n        /* \"#utility.yul\":8222:8257   */\n      swap1\n      pop\n        /* \"#utility.yul\":8194:8271   */\n    tag_175:\n        /* \"#utility.yul\":8297:8364   */\n      tag_176\n        /* \"#utility.yul\":8357:8363   */\n      dup6\n        /* \"#utility.yul\":8350:8355   */\n      dup3\n        /* \"#utility.yul\":8297:8364   */\n      tag_87\n      jump\t// in\n    tag_176:\n        /* \"#utility.yul\":8291:8295   */\n      dup7\n        /* \"#utility.yul\":8284:8365   */\n      sstore\n        /* \"#utility.yul\":8153:8375   */\n      pop\n        /* \"#utility.yul\":7488:8375   */\n      jump(tag_173)\n        /* \"#utility.yul\":7518:8136   */\n    tag_174:\n        /* \"#utility.yul\":7570:7574   */\n      0x1f\n        /* \"#utility.yul\":7566:7575   */\n      not\n        /* \"#utility.yul\":7558:7564   */\n      dup5\n        /* \"#utility.yul\":7554:7576   */\n      and\n        /* \"#utility.yul\":7604:7641   */\n      tag_177\n        /* \"#utility.yul\":7636:7640   */\n      dup7\n        /* \"#utility.yul\":7604:7641   */\n      tag_73\n      jump\t// in\n    tag_177:\n        /* \"#utility.yul\":7663:7664   */\n      0x00\n        /* \"#utility.yul\":7677:7885   */\n    tag_178:\n        /* \"#utility.yul\":7691:7698   */\n      dup3\n        /* \"#utility.yul\":7688:7689   */\n      dup2\n        /* \"#utility.yul\":7685:7699   */\n      lt\n        /* \"#utility.yul\":7677:7885   */\n      iszero\n      tag_180\n      jumpi\n        /* \"#utility.yul\":7770:7779   */\n      dup5\n        /* \"#utility.yul\":7765:7768   */\n      dup10\n        /* \"#utility.yul\":7761:7780   */\n      add\n        /* \"#utility.yul\":7755:7781   */\n      mload\n        /* \"#utility.yul\":7747:7753   */\n      dup3\n        /* \"#utility.yul\":7740:7782   */\n      sstore\n        /* \"#utility.yul\":7821:7822   */\n      0x01\n        /* \"#utility.yul\":7813:7819   */\n      dup3\n        /* \"#utility.yul\":7809:7823   */\n      add\n        /* \"#utility.yul\":7799:7823   */\n      swap2\n      pop\n        /* \"#utility.yul\":7868:7870   */\n      0x20\n        /* \"#utility.yul\":7857:7866   */\n      dup6\n        /* \"#utility.yul\":7853:7871   */\n      add\n        /* \"#utility.yul\":7840:7871   */\n      swap5\n      pop\n        /* \"#utility.yul\":7714:7718   */\n      0x20\n        /* \"#utility.yul\":7711:7712   */\n      dup2\n        /* \"#utility.yul\":7707:7719   */\n      add\n        /* \"#utility.yul\":7702:7719   */\n      swap1\n      pop\n        /* \"#utility.yul\":7677:7885   */\n      jump(tag_178)\n    tag_180:\n        /* \"#utility.yul\":7913:7919   */\n      dup7\n        /* \"#utility.yul\":7904:7911   */\n      dup4\n        /* \"#utility.yul\":7901:7920   */\n      lt\n        /* \"#utility.yul\":7898:8077   */\n      iszero\n      tag_181\n      jumpi\n        /* \"#utility.yul\":7971:7980   */\n      dup5\n        /* \"#utility.yul\":7966:7969   */\n      dup10\n        /* \"#utility.yul\":7962:7981   */\n      add\n        /* \"#utility.yul\":7956:7982   */\n      mload\n        /* \"#utility.yul\":8014:8062   */\n      tag_182\n        /* \"#utility.yul\":8056:8060   */\n      0x1f\n        /* \"#utility.yul\":8048:8054   */\n      dup10\n        /* \"#utility.yul\":8044:8061   */\n      and\n        /* \"#utility.yul\":8033:8042   */\n      dup3\n        /* \"#utility.yul\":8014:8062   */\n      tag_86\n      jump\t// in\n    tag_182:\n        /* \"#utility.yul\":8006:8012   */\n      dup4\n        /* \"#utility.yul\":7999:8063   */\n      sstore\n        /* \"#utility.yul\":7921:8077   */\n      pop\n        /* \"#utility.yul\":7898:8077   */\n    tag_181:\n        /* \"#utility.yul\":8123:8124   */\n      0x01\n        /* \"#utility.yul\":8119:8120   */\n      0x02\n        /* \"#utility.yul\":8111:8117   */\n      dup9\n        /* \"#utility.yul\":8107:8121   */\n      mul\n        /* \"#utility.yul\":8103:8125   */\n      add\n        /* \"#utility.yul\":8097:8101   */\n      dup9\n        /* \"#utility.yul\":8090:8126   */\n      sstore\n        /* \"#utility.yul\":7525:8136   */\n      pop\n      pop\n      pop\n        /* \"#utility.yul\":7488:8375   */\n    tag_173:\n      pop\n        /* \"#utility.yul\":7078:8381   */\n      pop\n      pop\n      pop\n        /* \"#utility.yul\":6986:8381   */\n      pop\n      pop\n      jump\t// out\n        /* \"#utility.yul\":8387:8567   */\n    tag_88:\n        /* \"#utility.yul\":8435:8512   */\n      0x4e487b7100000000000000000000000000000000000000000000000000000000\n        /* \"#utility.yul\":8432:8433   */\n      0x00\n        /* \"#utility.yul\":8425:8513   */\n      mstore\n        /* \"#utility.yul\":8532:8536   */\n      0x11\n        /* \"#utility.yul\":8529:8530   */\n      0x04\n        /* \"#utility.yul\":8522:8537   */\n      mstore\n        /* \"#utility.yul\":8556:8560   */\n      0x24\n        /* \"#utility.yul\":8553:8554   */\n      0x00\n        /* \"#utility.yul\":8546:8561   */\n      revert\n        /* \"#utility.yul\":8573:8764   */\n    tag_51:\n        /* \"#utility.yul\":8613:8616   */\n      0x00\n        /* \"#utility.yul\":8632:8652   */\n      tag_185\n        /* \"#utility.yul\":8650:8651   */\n      dup3\n        /* \"#utility.yul\":8632:8652   */\n      tag_60\n      jump\t// in\n    tag_185:\n        /* \"#utility.yul\":8627:8652   */\n      swap2\n      pop\n        /* \"#utility.yul\":8666:8686   */\n      tag_186\n        /* \"#utility.yul\":8684:8685   */\n      dup4\n        /* \"#utility.yul\":8666:8686   */\n      tag_60\n      jump\t// in\n    tag_186:\n        /* \"#utility.yul\":8661:8686   */\n      swap3\n      pop\n        /* \"#utility.yul\":8709:8710   */\n      dup3\n        /* \"#utility.yul\":8706:8707   */\n      dup3\n        /* \"#utility.yul\":8702:8711   */\n      add\n        /* \"#utility.yul\":8695:8711   */\n      swap1\n      pop\n        /* \"#utility.yul\":8730:8733   */\n      dup1\n        /* \"#utility.yul\":8727:8728   */\n      dup3\n        /* \"#utility.yul\":8724:8734   */\n      gt\n        /* \"#utility.yul\":8721:8757   */\n      iszero\n      tag_187\n      jumpi\n        /* \"#utility.yul\":8737:8755   */\n      tag_188\n      tag_88\n      jump\t// in\n    tag_188:\n        /* \"#utility.yul\":8721:8757   */\n    tag_187:\n        /* \"#utility.yul\":8573:8764   */\n      swap3\n      swap2\n      pop\n      pop\n      jump\t// out\n\n    auxdata: 0xa2646970667358221220f0d12506448edbc295cd9561f2ebce9619357cf9ea31594585095c7c4567b3cf64736f6c63781c302e382e33352d7072652e312b636f6d6d69742e6139396236643863004d\n}\n",
				"bytecode": {
					"linkReferences": {},
					"object": "60806040526040518060400160405280600e81526020017f68617070792062697274686461790000000000000000000000000000000000008152505f90816100479190610383565b50600f6001557ffffffffffffffffffffffffffffffffffffffffffffffffffffffffffffff82c6002555f60035f6101000a81548160ff021916908315150217905550735b38da6a701c568545dcfcb03fcb875f56beddc4600360016101000a81548173ffffffffffffffffffffffffffffffffffffffff021916908373ffffffffffffffffffffffffffffffffffffffff1602179055506040518060400160405280600381526020017f74776f0000000000000000000000000000000000000000000000000000000000815250600490816101239190610383565b5034801561012f575f5ffd5b50610452565b5f81519050919050565b7f4e487b71000000000000000000000000000000000000000000000000000000005f52604160045260245ffd5b7f4e487b71000000000000000000000000000000000000000000000000000000005f52602260045260245ffd5b5f60028204905060018216806101b057607f821691505b6020821081036101c3576101c261016c565b5b50919050565b5f819050815f5260205f209050919050565b5f6020601f8301049050919050565b5f82821b905092915050565b5f600883026102257fffffffffffffffffffffffffffffffffffffffffffffffffffffffffffffffff826101ea565b61022f86836101ea565b95508019841693508086168417925050509392505050565b5f819050919050565b5f819050919050565b5f61027361026e61026984610247565b610250565b610247565b9050919050565b5f819050919050565b61028c83610259565b6102a06102988261027a565b8484546101f6565b825550505050565b5f5f905090565b6102b76102a8565b6102c2818484610283565b505050565b5f5b828110156102e8576102dd5f8284016102af565b6001810190506102c9565b505050565b601f82111561033b578282111561033a57610307816101c9565b610310836101db565b610319856101db565b6020861015610326575f90505b808301610335828403826102c7565b505050505b5b505050565b5f82821c905092915050565b5f61035b5f1984600802610340565b1980831691505092915050565b5f610373838361034c565b9150826002028217905092915050565b61038c82610135565b67ffffffffffffffff8111156103a5576103a461013f565b5b6103af8254610199565b6103ba8282856102ed565b5f60209050601f8311600181146103eb575f84156103d9578287015190505b6103e38582610368565b86555061044a565b601f1984166103f9866101c9565b5f5b82811015610420578489015182556001820191506020850194506020810190506103fb565b8683101561043d5784890151610439601f89168261034c565b8355505b6001600288020188555050505b505050505050565b6108618061045f5f395ff3fe608060405234801561000f575f5ffd5b5060043610610086575f3560e01c80635ce9a367116100595780635ce9a367146100ee57806384e5b8311461010c578063acb34ce81461012a578063f32697161461014857610086565b80630685d0b31461008a578063323046b1146100a85780634e70b1dc146100c657806354c6d890146100e4575b5f5ffd5b610092610166565b60405161009f9190610369565b60405180910390f35b6100b061018c565b6040516100bd919061039a565b60405180910390f35b6100ce610192565b6040516100db9190610423565b60405180910390f35b6100ec61021e565b005b6100f6610264565b604051610103919061039a565b60405180910390f35b610114610287565b604051610121919061045d565b60405180910390f35b610132610299565b60405161013f9190610423565b60405180910390f35b610150610324565b60405161015d919061048e565b60405180910390f35b600360019054906101000a900473ffffffffffffffffffffffffffffffffffffffff1681565b60015481565b6004805461019f906104d4565b80601f01602080910402602001604051908101604052809291908181526020018280546101cb906104d4565b80156102165780601f106101ed57610100808354040283529160200191610216565b820191905f5260205f20905b8154815290600101906020018083116101f957829003601f168201915b505050505081565b6040518060400160405280601581526020017f686170707920626972746864617920746f20796f7500000000000000000000008152505f908161026191906106e2565b50565b5f5f601990505f601990505f818361027c91906107de565b905080935050505090565b60035f9054906101000a900460ff1681565b5f80546102a5906104d4565b80601f01602080910402602001604051908101604052809291908181526020018280546102d1906104d4565b801561031c5780601f106102f35761010080835404028352916020019161031c565b820191905f5260205f20905b8154815290600101906020018083116102ff57829003601f168201915b505050505081565b60025481565b5f73ffffffffffffffffffffffffffffffffffffffff82169050919050565b5f6103538261032a565b9050919050565b61036381610349565b82525050565b5f60208201905061037c5f83018461035a565b92915050565b5f819050919050565b61039481610382565b82525050565b5f6020820190506103ad5f83018461038b565b92915050565b5f81519050919050565b5f82825260208201905092915050565b8281835e5f83830152505050565b5f601f19601f8301169050919050565b5f6103f5826103b3565b6103ff81856103bd565b935061040f8185602086016103cd565b610418816103db565b840191505092915050565b5f6020820190508181035f83015261043b81846103eb565b905092915050565b5f8115159050919050565b61045781610443565b82525050565b5f6020820190506104705f83018461044e565b92915050565b5f819050919050565b61048881610476565b82525050565b5f6020820190506104a15f83018461047f565b92915050565b7f4e487b71000000000000000000000000000000000000000000000000000000005f52602260045260245ffd5b5f60028204905060018216806104eb57607f821691505b6020821081036104fe576104fd6104a7565b5b50919050565b7f4e487b71000000000000000000000000000000000000000000000000000000005f52604160045260245ffd5b5f819050815f5260205f209050919050565b5f6020601f8301049050919050565b5f82821b905092915050565b5f6008830261058d7fffffffffffffffffffffffffffffffffffffffffffffffffffffffffffffffff82610552565b6105978683610552565b95508019841693508086168417925050509392505050565b5f819050919050565b5f6105d26105cd6105c884610382565b6105af565b610382565b9050919050565b5f819050919050565b6105eb836105b8565b6105ff6105f7826105d9565b84845461055e565b825550505050565b5f5f905090565b610616610607565b6106218184846105e2565b505050565b5f5b828110156106475761063c5f82840161060e565b600181019050610628565b505050565b601f82111561069a57828211156106995761066681610531565b61066f83610543565b61067885610543565b6020861015610685575f90505b80830161069482840382610626565b505050505b5b505050565b5f82821c905092915050565b5f6106ba5f198460080261069f565b1980831691505092915050565b5f6106d283836106ab565b9150826002028217905092915050565b6106eb826103b3565b67ffffffffffffffff81111561070457610703610504565b5b61070e82546104d4565b61071982828561064c565b5f60209050601f83116001811461074a575f8415610738578287015190505b61074285826106c7565b8655506107a9565b601f19841661075886610531565b5f5b8281101561077f5784890151825560018201915060208501945060208101905061075a565b8683101561079c5784890151610798601f8916826106ab565b8355505b6001600288020188555050505b505050505050565b7f4e487b71000000000000000000000000000000000000000000000000000000005f52601160045260245ffd5b5f6107e882610382565b91506107f383610382565b925082820190508082111561080b5761080a6107b1565b5b9291505056fea2646970667358221220f0d12506448edbc295cd9561f2ebce9619357cf9ea31594585095c7c4567b3cf64736f6c63781c302e382e33352d7072652e312b636f6d6d69742e6139396236643863004d",
					"opcodes": "PUSH1 0x80 PUSH1 0x40 MSTORE PUSH1 0x40 MLOAD DUP1 PUSH1 0x40 ADD PUSH1 0x40 MSTORE DUP1 PUSH1 0xE DUP2 MSTORE PUSH1 0x20 ADD PUSH32 0x6861707079206269727468646179000000000000000000000000000000000000 DUP2 MSTORE POP PUSH0 SWAP1 DUP2 PUSH2 0x47 SWAP2 SWAP1 PUSH2 0x383 JUMP JUMPDEST POP PUSH1 0xF PUSH1 0x1 SSTORE PUSH32 0xFFFFFFFFFFFFFFFFFFFFFFFFFFFFFFFFFFFFFFFFFFFFFFFFFFFFFFFFFFFFF82C PUSH1 0x2 SSTORE PUSH0 PUSH1 0x3 PUSH0 PUSH2 0x100 EXP DUP2 SLOAD DUP2 PUSH1 0xFF MUL NOT AND SWAP1 DUP4 ISZERO ISZERO MUL OR SWAP1 SSTORE POP PUSH20 0x5B38DA6A701C568545DCFCB03FCB875F56BEDDC4 PUSH1 0x3 PUSH1 0x1 PUSH2 0x100 EXP DUP2 SLOAD DUP2 PUSH20 0xFFFFFFFFFFFFFFFFFFFFFFFFFFFFFFFFFFFFFFFF MUL NOT AND SWAP1 DUP4 PUSH20 0xFFFFFFFFFFFFFFFFFFFFFFFFFFFFFFFFFFFFFFFF AND MUL OR SWAP1 SSTORE POP PUSH1 0x40 MLOAD DUP1 PUSH1 0x40 ADD PUSH1 0x40 MSTORE DUP1 PUSH1 0x3 DUP2 MSTORE PUSH1 0x20 ADD PUSH32 0x74776F0000000000000000000000000000000000000000000000000000000000 DUP2 MSTORE POP PUSH1 0x4 SWAP1 DUP2 PUSH2 0x123 SWAP2 SWAP1 PUSH2 0x383 JUMP JUMPDEST POP CALLVALUE DUP1 ISZERO PUSH2 0x12F JUMPI PUSH0 PUSH0 REVERT JUMPDEST POP PUSH2 0x452 JUMP JUMPDEST PUSH0 DUP2 MLOAD SWAP1 POP SWAP2 SWAP1 POP JUMP JUMPDEST PUSH32 0x4E487B7100000000000000000000000000000000000000000000000000000000 PUSH0 MSTORE PUSH1 0x41 PUSH1 0x4 MSTORE PUSH1 0x24 PUSH0 REVERT JUMPDEST PUSH32 0x4E487B7100000000000000000000000000000000000000000000000000000000 PUSH0 MSTORE PUSH1 0x22 PUSH1 0x4 MSTORE PUSH1 0x24 PUSH0 REVERT JUMPDEST PUSH0 PUSH1 0x2 DUP3 DIV SWAP1 POP PUSH1 0x1 DUP3 AND DUP1 PUSH2 0x1B0 JUMPI PUSH1 0x7F DUP3 AND SWAP2 POP JUMPDEST PUSH1 0x20 DUP3 LT DUP2 SUB PUSH2 0x1C3 JUMPI PUSH2 0x1C2 PUSH2 0x16C JUMP JUMPDEST JUMPDEST POP SWAP2 SWAP1 POP JUMP JUMPDEST PUSH0 DUP2 SWAP1 POP DUP2 PUSH0 MSTORE PUSH1 0x20 PUSH0 KECCAK256 SWAP1 POP SWAP2 SWAP1 POP JUMP JUMPDEST PUSH0 PUSH1 0x20 PUSH1 0x1F DUP4 ADD DIV SWAP1 POP SWAP2 SWAP1 POP JUMP JUMPDEST PUSH0 DUP3 DUP3 SHL SWAP1 POP SWAP3 SWAP2 POP POP JUMP JUMPDEST PUSH0 PUSH1 0x8 DUP4 MUL PUSH2 0x225 PUSH32 0xFFFFFFFFFFFFFFFFFFFFFFFFFFFFFFFFFFFFFFFFFFFFFFFFFFFFFFFFFFFFFFFF DUP3 PUSH2 0x1EA JUMP JUMPDEST PUSH2 0x22F DUP7 DUP4 PUSH2 0x1EA JUMP JUMPDEST SWAP6 POP DUP1 NOT DUP5 AND SWAP4 POP DUP1 DUP7 AND DUP5 OR SWAP3 POP POP POP SWAP4 SWAP3 POP POP POP JUMP JUMPDEST PUSH0 DUP2 SWAP1 POP SWAP2 SWAP1 POP JUMP JUMPDEST PUSH0 DUP2 SWAP1 POP SWAP2 SWAP1 POP JUMP JUMPDEST PUSH0 PUSH2 0x273 PUSH2 0x26E PUSH2 0x269 DUP5 PUSH2 0x247 JUMP JUMPDEST PUSH2 0x250 JUMP JUMPDEST PUSH2 0x247 JUMP JUMPDEST SWAP1 POP SWAP2 SWAP1 POP JUMP JUMPDEST PUSH0 DUP2 SWAP1 POP SWAP2 SWAP1 POP JUMP JUMPDEST PUSH2 0x28C DUP4 PUSH2 0x259 JUMP JUMPDEST PUSH2 0x2A0 PUSH2 0x298 DUP3 PUSH2 0x27A JUMP JUMPDEST DUP5 DUP5 SLOAD PUSH2 0x1F6 JUMP JUMPDEST DUP3 SSTORE POP POP POP POP JUMP JUMPDEST PUSH0 PUSH0 SWAP1 POP SWAP1 JUMP JUMPDEST PUSH2 0x2B7 PUSH2 0x2A8 JUMP JUMPDEST PUSH2 0x2C2 DUP2 DUP5 DUP5 PUSH2 0x283 JUMP JUMPDEST POP POP POP JUMP JUMPDEST PUSH0 JUMPDEST DUP3 DUP2 LT ISZERO PUSH2 0x2E8 JUMPI PUSH2 0x2DD PUSH0 DUP3 DUP5 ADD PUSH2 0x2AF JUMP JUMPDEST PUSH1 0x1 DUP2 ADD SWAP1 POP PUSH2 0x2C9 JUMP JUMPDEST POP POP POP JUMP JUMPDEST PUSH1 0x1F DUP3 GT ISZERO PUSH2 0x33B JUMPI DUP3 DUP3 GT ISZERO PUSH2 0x33A JUMPI PUSH2 0x307 DUP2 PUSH2 0x1C9 JUMP JUMPDEST PUSH2 0x310 DUP4 PUSH2 0x1DB JUMP JUMPDEST PUSH2 0x319 DUP6 PUSH2 0x1DB JUMP JUMPDEST PUSH1 0x20 DUP7 LT ISZERO PUSH2 0x326 JUMPI PUSH0 SWAP1 POP JUMPDEST DUP1 DUP4 ADD PUSH2 0x335 DUP3 DUP5 SUB DUP3 PUSH2 0x2C7 JUMP JUMPDEST POP POP POP POP JUMPDEST JUMPDEST POP POP POP JUMP JUMPDEST PUSH0 DUP3 DUP3 SHR SWAP1 POP SWAP3 SWAP2 POP POP JUMP JUMPDEST PUSH0 PUSH2 0x35B PUSH0 NOT DUP5 PUSH1 0x8 MUL PUSH2 0x340 JUMP JUMPDEST NOT DUP1 DUP4 AND SWAP2 POP POP SWAP3 SWAP2 POP POP JUMP JUMPDEST PUSH0 PUSH2 0x373 DUP4 DUP4 PUSH2 0x34C JUMP JUMPDEST SWAP2 POP DUP3 PUSH1 0x2 MUL DUP3 OR SWAP1 POP SWAP3 SWAP2 POP POP JUMP JUMPDEST PUSH2 0x38C DUP3 PUSH2 0x135 JUMP JUMPDEST PUSH8 0xFFFFFFFFFFFFFFFF DUP2 GT ISZERO PUSH2 0x3A5 JUMPI PUSH2 0x3A4 PUSH2 0x13F JUMP JUMPDEST JUMPDEST PUSH2 0x3AF DUP3 SLOAD PUSH2 0x199 JUMP JUMPDEST PUSH2 0x3BA DUP3 DUP3 DUP6 PUSH2 0x2ED JUMP JUMPDEST PUSH0 PUSH1 0x20 SWAP1 POP PUSH1 0x1F DUP4 GT PUSH1 0x1 DUP2 EQ PUSH2 0x3EB JUMPI PUSH0 DUP5 ISZERO PUSH2 0x3D9 JUMPI DUP3 DUP8 ADD MLOAD SWAP1 POP JUMPDEST PUSH2 0x3E3 DUP6 DUP3 PUSH2 0x368 JUMP JUMPDEST DUP7 SSTORE POP PUSH2 0x44A JUMP JUMPDEST PUSH1 0x1F NOT DUP5 AND PUSH2 0x3F9 DUP7 PUSH2 0x1C9 JUMP JUMPDEST PUSH0 JUMPDEST DUP3 DUP2 LT ISZERO PUSH2 0x420 JUMPI DUP5 DUP10 ADD MLOAD DUP3 SSTORE PUSH1 0x1 DUP3 ADD SWAP2 POP PUSH1 0x20 DUP6 ADD SWAP5 POP PUSH1 0x20 DUP2 ADD SWAP1 POP PUSH2 0x3FB JUMP JUMPDEST DUP7 DUP4 LT ISZERO PUSH2 0x43D JUMPI DUP5 DUP10 ADD MLOAD PUSH2 0x439 PUSH1 0x1F DUP10 AND DUP3 PUSH2 0x34C JUMP JUMPDEST DUP4 SSTORE POP JUMPDEST PUSH1 0x1 PUSH1 0x2 DUP9 MUL ADD DUP9 SSTORE POP POP POP JUMPDEST POP POP POP POP POP POP JUMP JUMPDEST PUSH2 0x861 DUP1 PUSH2 0x45F PUSH0 CODECOPY PUSH0 RETURN INVALID PUSH1 0x80 PUSH1 0x40 MSTORE CALLVALUE DUP1 ISZERO PUSH2 0xF JUMPI PUSH0 PUSH0 REVERT JUMPDEST POP PUSH1 0x4 CALLDATASIZE LT PUSH2 0x86 JUMPI PUSH0 CALLDATALOAD PUSH1 0xE0 SHR DUP1 PUSH4 0x5CE9A367 GT PUSH2 0x59 JUMPI DUP1 PUSH4 0x5CE9A367 EQ PUSH2 0xEE JUMPI DUP1 PUSH4 0x84E5B831 EQ PUSH2 0x10C JUMPI DUP1 PUSH4 0xACB34CE8 EQ PUSH2 0x12A JUMPI DUP1 PUSH4 0xF3269716 EQ PUSH2 0x148 JUMPI PUSH2 0x86 JUMP JUMPDEST DUP1 PUSH4 0x685D0B3 EQ PUSH2 0x8A JUMPI DUP1 PUSH4 0x323046B1 EQ PUSH2 0xA8 JUMPI DUP1 PUSH4 0x4E70B1DC EQ PUSH2 0xC6 JUMPI DUP1 PUSH4 0x54C6D890 EQ PUSH2 0xE4 JUMPI JUMPDEST PUSH0 PUSH0 REVERT JUMPDEST PUSH2 0x92 PUSH2 0x166 JUMP JUMPDEST PUSH1 0x40 MLOAD PUSH2 0x9F SWAP2 SWAP1 PUSH2 0x369 JUMP JUMPDEST PUSH1 0x40 MLOAD DUP1 SWAP2 SUB SWAP1 RETURN JUMPDEST PUSH2 0xB0 PUSH2 0x18C JUMP JUMPDEST PUSH1 0x40 MLOAD PUSH2 0xBD SWAP2 SWAP1 PUSH2 0x39A JUMP JUMPDEST PUSH1 0x40 MLOAD DUP1 SWAP2 SUB SWAP1 RETURN JUMPDEST PUSH2 0xCE PUSH2 0x192 JUMP JUMPDEST PUSH1 0x40 MLOAD PUSH2 0xDB SWAP2 SWAP1 PUSH2 0x423 JUMP JUMPDEST PUSH1 0x40 MLOAD DUP1 SWAP2 SUB SWAP1 RETURN JUMPDEST PUSH2 0xEC PUSH2 0x21E JUMP JUMPDEST STOP JUMPDEST PUSH2 0xF6 PUSH2 0x264 JUMP JUMPDEST PUSH1 0x40 MLOAD PUSH2 0x103 SWAP2 SWAP1 PUSH2 0x39A JUMP JUMPDEST PUSH1 0x40 MLOAD DUP1 SWAP2 SUB SWAP1 RETURN JUMPDEST PUSH2 0x114 PUSH2 0x287 JUMP JUMPDEST PUSH1 0x40 MLOAD PUSH2 0x121 SWAP2 SWAP1 PUSH2 0x45D JUMP JUMPDEST PUSH1 0x40 MLOAD DUP1 SWAP2 SUB SWAP1 RETURN JUMPDEST PUSH2 0x132 PUSH2 0x299 JUMP JUMPDEST PUSH1 0x40 MLOAD PUSH2 0x13F SWAP2 SWAP1 PUSH2 0x423 JUMP JUMPDEST PUSH1 0x40 MLOAD DUP1 SWAP2 SUB SWAP1 RETURN JUMPDEST PUSH2 0x150 PUSH2 0x324 JUMP JUMPDEST PUSH1 0x40 MLOAD PUSH2 0x15D SWAP2 SWAP1 PUSH2 0x48E JUMP JUMPDEST PUSH1 0x40 MLOAD DUP1 SWAP2 SUB SWAP1 RETURN JUMPDEST PUSH1 0x3 PUSH1 0x1 SWAP1 SLOAD SWAP1 PUSH2 0x100 EXP SWAP1 DIV PUSH20 0xFFFFFFFFFFFFFFFFFFFFFFFFFFFFFFFFFFFFFFFF AND DUP2 JUMP JUMPDEST PUSH1 0x1 SLOAD DUP2 JUMP JUMPDEST PUSH1 0x4 DUP1 SLOAD PUSH2 0x19F SWAP1 PUSH2 0x4D4 JUMP JUMPDEST DUP1 PUSH1 0x1F ADD PUSH1 0x20 DUP1 SWAP2 DIV MUL PUSH1 0x20 ADD PUSH1 0x40 MLOAD SWAP1 DUP2 ADD PUSH1 0x40 MSTORE DUP1 SWAP3 SWAP2 SWAP1 DUP2 DUP2 MSTORE PUSH1 0x20 ADD DUP3 DUP1 SLOAD PUSH2 0x1CB SWAP1 PUSH2 0x4D4 JUMP JUMPDEST DUP1 ISZERO PUSH2 0x216 JUMPI DUP1 PUSH1 0x1F LT PUSH2 0x1ED JUMPI PUSH2 0x100 DUP1 DUP4 SLOAD DIV MUL DUP4 MSTORE SWAP2 PUSH1 0x20 ADD SWAP2 PUSH2 0x216 JUMP JUMPDEST DUP3 ADD SWAP2 SWAP1 PUSH0 MSTORE PUSH1 0x20 PUSH0 KECCAK256 SWAP1 JUMPDEST DUP2 SLOAD DUP2 MSTORE SWAP1 PUSH1 0x1 ADD SWAP1 PUSH1 0x20 ADD DUP1 DUP4 GT PUSH2 0x1F9 JUMPI DUP3 SWAP1 SUB PUSH1 0x1F AND DUP3 ADD SWAP2 JUMPDEST POP POP POP POP POP DUP2 JUMP JUMPDEST PUSH1 0x40 MLOAD DUP1 PUSH1 0x40 ADD PUSH1 0x40 MSTORE DUP1 PUSH1 0x15 DUP2 MSTORE PUSH1 0x20 ADD PUSH32 0x686170707920626972746864617920746F20796F750000000000000000000000 DUP2 MSTORE POP PUSH0 SWAP1 DUP2 PUSH2 0x261 SWAP2 SWAP1 PUSH2 0x6E2 JUMP JUMPDEST POP JUMP JUMPDEST PUSH0 PUSH0 PUSH1 0x19 SWAP1 POP PUSH0 PUSH1 0x19 SWAP1 POP PUSH0 DUP2 DUP4 PUSH2 0x27C SWAP2 SWAP1 PUSH2 0x7DE JUMP JUMPDEST SWAP1 POP DUP1 SWAP4 POP POP POP POP SWAP1 JUMP JUMPDEST PUSH1 0x3 PUSH0 SWAP1 SLOAD SWAP1 PUSH2 0x100 EXP SWAP1 DIV PUSH1 0xFF AND DUP2 JUMP JUMPDEST PUSH0 DUP1 SLOAD PUSH2 0x2A5 SWAP1 PUSH2 0x4D4 JUMP JUMPDEST DUP1 PUSH1 0x1F ADD PUSH1 0x20 DUP1 SWAP2 DIV MUL PUSH1 0x20 ADD PUSH1 0x40 MLOAD SWAP1 DUP2 ADD PUSH1 0x40 MSTORE DUP1 SWAP3 SWAP2 SWAP1 DUP2 DUP2 MSTORE PUSH1 0x20 ADD DUP3 DUP1 SLOAD PUSH2 0x2D1 SWAP1 PUSH2 0x4D4 JUMP JUMPDEST DUP1 ISZERO PUSH2 0x31C JUMPI DUP1 PUSH1 0x1F LT PUSH2 0x2F3 JUMPI PUSH2 0x100 DUP1 DUP4 SLOAD DIV MUL DUP4 MSTORE SWAP2 PUSH1 0x20 ADD SWAP2 PUSH2 0x31C JUMP JUMPDEST DUP3 ADD SWAP2 SWAP1 PUSH0 MSTORE PUSH1 0x20 PUSH0 KECCAK256 SWAP1 JUMPDEST DUP2 SLOAD DUP2 MSTORE SWAP1 PUSH1 0x1 ADD SWAP1 PUSH1 0x20 ADD DUP1 DUP4 GT PUSH2 0x2FF JUMPI DUP3 SWAP1 SUB PUSH1 0x1F AND DUP3 ADD SWAP2 JUMPDEST POP POP POP POP POP DUP2 JUMP JUMPDEST PUSH1 0x2 SLOAD DUP2 JUMP JUMPDEST PUSH0 PUSH20 0xFFFFFFFFFFFFFFFFFFFFFFFFFFFFFFFFFFFFFFFF DUP3 AND SWAP1 POP SWAP2 SWAP1 POP JUMP JUMPDEST PUSH0 PUSH2 0x353 DUP3 PUSH2 0x32A JUMP JUMPDEST SWAP1 POP SWAP2 SWAP1 POP JUMP JUMPDEST PUSH2 0x363 DUP2 PUSH2 0x349 JUMP JUMPDEST DUP3 MSTORE POP POP JUMP JUMPDEST PUSH0 PUSH1 0x20 DUP3 ADD SWAP1 POP PUSH2 0x37C PUSH0 DUP4 ADD DUP5 PUSH2 0x35A JUMP JUMPDEST SWAP3 SWAP2 POP POP JUMP JUMPDEST PUSH0 DUP2 SWAP1 POP SWAP2 SWAP1 POP JUMP JUMPDEST PUSH2 0x394 DUP2 PUSH2 0x382 JUMP JUMPDEST DUP3 MSTORE POP POP JUMP JUMPDEST PUSH0 PUSH1 0x20 DUP3 ADD SWAP1 POP PUSH2 0x3AD PUSH0 DUP4 ADD DUP5 PUSH2 0x38B JUMP JUMPDEST SWAP3 SWAP2 POP POP JUMP JUMPDEST PUSH0 DUP2 MLOAD SWAP1 POP SWAP2 SWAP1 POP JUMP JUMPDEST PUSH0 DUP3 DUP3 MSTORE PUSH1 0x20 DUP3 ADD SWAP1 POP SWAP3 SWAP2 POP POP JUMP JUMPDEST DUP3 DUP2 DUP4 MCOPY PUSH0 DUP4 DUP4 ADD MSTORE POP POP POP JUMP JUMPDEST PUSH0 PUSH1 0x1F NOT PUSH1 0x1F DUP4 ADD AND SWAP1 POP SWAP2 SWAP1 POP JUMP JUMPDEST PUSH0 PUSH2 0x3F5 DUP3 PUSH2 0x3B3 JUMP JUMPDEST PUSH2 0x3FF DUP2 DUP6 PUSH2 0x3BD JUMP JUMPDEST SWAP4 POP PUSH2 0x40F DUP2 DUP6 PUSH1 0x20 DUP7 ADD PUSH2 0x3CD JUMP JUMPDEST PUSH2 0x418 DUP2 PUSH2 0x3DB JUMP JUMPDEST DUP5 ADD SWAP2 POP POP SWAP3 SWAP2 POP POP JUMP JUMPDEST PUSH0 PUSH1 0x20 DUP3 ADD SWAP1 POP DUP2 DUP2 SUB PUSH0 DUP4 ADD MSTORE PUSH2 0x43B DUP2 DUP5 PUSH2 0x3EB JUMP JUMPDEST SWAP1 POP SWAP3 SWAP2 POP POP JUMP JUMPDEST PUSH0 DUP2 ISZERO ISZERO SWAP1 POP SWAP2 SWAP1 POP JUMP JUMPDEST PUSH2 0x457 DUP2 PUSH2 0x443 JUMP JUMPDEST DUP3 MSTORE POP POP JUMP JUMPDEST PUSH0 PUSH1 0x20 DUP3 ADD SWAP1 POP PUSH2 0x470 PUSH0 DUP4 ADD DUP5 PUSH2 0x44E JUMP JUMPDEST SWAP3 SWAP2 POP POP JUMP JUMPDEST PUSH0 DUP2 SWAP1 POP SWAP2 SWAP1 POP JUMP JUMPDEST PUSH2 0x488 DUP2 PUSH2 0x476 JUMP JUMPDEST DUP3 MSTORE POP POP JUMP JUMPDEST PUSH0 PUSH1 0x20 DUP3 ADD SWAP1 POP PUSH2 0x4A1 PUSH0 DUP4 ADD DUP5 PUSH2 0x47F JUMP JUMPDEST SWAP3 SWAP2 POP POP JUMP JUMPDEST PUSH32 0x4E487B7100000000000000000000000000000000000000000000000000000000 PUSH0 MSTORE PUSH1 0x22 PUSH1 0x4 MSTORE PUSH1 0x24 PUSH0 REVERT JUMPDEST PUSH0 PUSH1 0x2 DUP3 DIV SWAP1 POP PUSH1 0x1 DUP3 AND DUP1 PUSH2 0x4EB JUMPI PUSH1 0x7F DUP3 AND SWAP2 POP JUMPDEST PUSH1 0x20 DUP3 LT DUP2 SUB PUSH2 0x4FE JUMPI PUSH2 0x4FD PUSH2 0x4A7 JUMP JUMPDEST JUMPDEST POP SWAP2 SWAP1 POP JUMP JUMPDEST PUSH32 0x4E487B7100000000000000000000000000000000000000000000000000000000 PUSH0 MSTORE PUSH1 0x41 PUSH1 0x4 MSTORE PUSH1 0x24 PUSH0 REVERT JUMPDEST PUSH0 DUP2 SWAP1 POP DUP2 PUSH0 MSTORE PUSH1 0x20 PUSH0 KECCAK256 SWAP1 POP SWAP2 SWAP1 POP JUMP JUMPDEST PUSH0 PUSH1 0x20 PUSH1 0x1F DUP4 ADD DIV SWAP1 POP SWAP2 SWAP1 POP JUMP JUMPDEST PUSH0 DUP3 DUP3 SHL SWAP1 POP SWAP3 SWAP2 POP POP JUMP JUMPDEST PUSH0 PUSH1 0x8 DUP4 MUL PUSH2 0x58D PUSH32 0xFFFFFFFFFFFFFFFFFFFFFFFFFFFFFFFFFFFFFFFFFFFFFFFFFFFFFFFFFFFFFFFF DUP3 PUSH2 0x552 JUMP JUMPDEST PUSH2 0x597 DUP7 DUP4 PUSH2 0x552 JUMP JUMPDEST SWAP6 POP DUP1 NOT DUP5 AND SWAP4 POP DUP1 DUP7 AND DUP5 OR SWAP3 POP POP POP SWAP4 SWAP3 POP POP POP JUMP JUMPDEST PUSH0 DUP2 SWAP1 POP SWAP2 SWAP1 POP JUMP JUMPDEST PUSH0 PUSH2 0x5D2 PUSH2 0x5CD PUSH2 0x5C8 DUP5 PUSH2 0x382 JUMP JUMPDEST PUSH2 0x5AF JUMP JUMPDEST PUSH2 0x382 JUMP JUMPDEST SWAP1 POP SWAP2 SWAP1 POP JUMP JUMPDEST PUSH0 DUP2 SWAP1 POP SWAP2 SWAP1 POP JUMP JUMPDEST PUSH2 0x5EB DUP4 PUSH2 0x5B8 JUMP JUMPDEST PUSH2 0x5FF PUSH2 0x5F7 DUP3 PUSH2 0x5D9 JUMP JUMPDEST DUP5 DUP5 SLOAD PUSH2 0x55E JUMP JUMPDEST DUP3 SSTORE POP POP POP POP JUMP JUMPDEST PUSH0 PUSH0 SWAP1 POP SWAP1 JUMP JUMPDEST PUSH2 0x616 PUSH2 0x607 JUMP JUMPDEST PUSH2 0x621 DUP2 DUP5 DUP5 PUSH2 0x5E2 JUMP JUMPDEST POP POP POP JUMP JUMPDEST PUSH0 JUMPDEST DUP3 DUP2 LT ISZERO PUSH2 0x647 JUMPI PUSH2 0x63C PUSH0 DUP3 DUP5 ADD PUSH2 0x60E JUMP JUMPDEST PUSH1 0x1 DUP2 ADD SWAP1 POP PUSH2 0x628 JUMP JUMPDEST POP POP POP JUMP JUMPDEST PUSH1 0x1F DUP3 GT ISZERO PUSH2 0x69A JUMPI DUP3 DUP3 GT ISZERO PUSH2 0x699 JUMPI PUSH2 0x666 DUP2 PUSH2 0x531 JUMP JUMPDEST PUSH2 0x66F DUP4 PUSH2 0x543 JUMP JUMPDEST PUSH2 0x678 DUP6 PUSH2 0x543 JUMP JUMPDEST PUSH1 0x20 DUP7 LT ISZERO PUSH2 0x685 JUMPI PUSH0 SWAP1 POP JUMPDEST DUP1 DUP4 ADD PUSH2 0x694 DUP3 DUP5 SUB DUP3 PUSH2 0x626 JUMP JUMPDEST POP POP POP POP JUMPDEST JUMPDEST POP POP POP JUMP JUMPDEST PUSH0 DUP3 DUP3 SHR SWAP1 POP SWAP3 SWAP2 POP POP JUMP JUMPDEST PUSH0 PUSH2 0x6BA PUSH0 NOT DUP5 PUSH1 0x8 MUL PUSH2 0x69F JUMP JUMPDEST NOT DUP1 DUP4 AND SWAP2 POP POP SWAP3 SWAP2 POP POP JUMP JUMPDEST PUSH0 PUSH2 0x6D2 DUP4 DUP4 PUSH2 0x6AB JUMP JUMPDEST SWAP2 POP DUP3 PUSH1 0x2 MUL DUP3 OR SWAP1 POP SWAP3 SWAP2 POP POP JUMP JUMPDEST PUSH2 0x6EB DUP3 PUSH2 0x3B3 JUMP JUMPDEST PUSH8 0xFFFFFFFFFFFFFFFF DUP2 GT ISZERO PUSH2 0x704 JUMPI PUSH2 0x703 PUSH2 0x504 JUMP JUMPDEST JUMPDEST PUSH2 0x70E DUP3 SLOAD PUSH2 0x4D4 JUMP JUMPDEST PUSH2 0x719 DUP3 DUP3 DUP6 PUSH2 0x64C JUMP JUMPDEST PUSH0 PUSH1 0x20 SWAP1 POP PUSH1 0x1F DUP4 GT PUSH1 0x1 DUP2 EQ PUSH2 0x74A JUMPI PUSH0 DUP5 ISZERO PUSH2 0x738 JUMPI DUP3 DUP8 ADD MLOAD SWAP1 POP JUMPDEST PUSH2 0x742 DUP6 DUP3 PUSH2 0x6C7 JUMP JUMPDEST DUP7 SSTORE POP PUSH2 0x7A9 JUMP JUMPDEST PUSH1 0x1F NOT DUP5 AND PUSH2 0x758 DUP7 PUSH2 0x531 JUMP JUMPDEST PUSH0 JUMPDEST DUP3 DUP2 LT ISZERO PUSH2 0x77F JUMPI DUP5 DUP10 ADD MLOAD DUP3 SSTORE PUSH1 0x1 DUP3 ADD SWAP2 POP PUSH1 0x20 DUP6 ADD SWAP5 POP PUSH1 0x20 DUP2 ADD SWAP1 POP PUSH2 0x75A JUMP JUMPDEST DUP7 DUP4 LT ISZERO PUSH2 0x79C JUMPI DUP5 DUP10 ADD MLOAD PUSH2 0x798 PUSH1 0x1F DUP10 AND DUP3 PUSH2 0x6AB JUMP JUMPDEST DUP4 SSTORE POP JUMPDEST PUSH1 0x1 PUSH1 0x2 DUP9 MUL ADD DUP9 SSTORE POP POP POP JUMPDEST POP POP POP POP POP POP JUMP JUMPDEST PUSH32 0x4E487B7100000000000000000000000000000000000000000000000000000000 PUSH0 MSTORE PUSH1 0x11 PUSH1 0x4 MSTORE PUSH1 0x24 PUSH0 REVERT JUMPDEST PUSH0 PUSH2 0x7E8 DUP3 PUSH2 0x382 JUMP JUMPDEST SWAP2 POP PUSH2 0x7F3 DUP4 PUSH2 0x382 JUMP JUMPDEST SWAP3 POP DUP3 DUP3 ADD SWAP1 POP DUP1 DUP3 GT ISZERO PUSH2 0x80B JUMPI PUSH2 0x80A PUSH2 0x7B1 JUMP JUMPDEST JUMPDEST SWAP3 SWAP2 POP POP JUMP INVALID LOG2 PUSH5 0x6970667358 0x22 SLT KECCAK256 CREATE DATALOADN 0x2506 PREVRANDAO DUP15 0xDB 0xC2 SWAP6 0xCD SWAP6 PUSH2 0xF2EB 0xCE SWAP7 NOT CALLDATALOAD PUSH29 0xF9EA31594585095C7C4567B3CF64736F6C63781C302E382E33352D7072 PUSH6 0x2E312B636F6D PUSH14 0x69742E6139396236643863004D00 "
				},
				"gasEstimates": {
					"creation": {
						"codeDepositCost": "429000",
						"executionCost": "infinite",
						"totalCost": "infinite"
					},
					"external": {
						"birthdayboy()": "2560",
						"changevalue()": "infinite",
						"date()": "2448",
						"greetings()": "infinite",
						"isyear()": "2488",
						"localvariable()": "infinite",
						"num()": "infinite",
						"year()": "2491"
					}
				},
				"methodIdentifiers": {
					"birthdayboy()": "0685d0b3",
					"changevalue()": "54c6d890",
					"date()": "323046b1",
					"greetings()": "acb34ce8",
					"isyear()": "84e5b831",
					"localvariable()": "5ce9a367",
					"num()": "4e70b1dc",
					"year()": "f3269716"
				}
			},
			"storageLayout": {
				"storage": [
					{
						"astId": 4,
						"contract": "practice.sol:greet",
						"label": "greetings",
						"offset": 0,
						"slot": "0",
						"type": "t_string_storage"
					},
					{
						"astId": 7,
						"contract": "practice.sol:greet",
						"label": "date",
						"offset": 0,
						"slot": "1",
						"type": "t_uint256"
					},
					{
						"astId": 11,
						"contract": "practice.sol:greet",
						"label": "year",
						"offset": 0,
						"slot": "2",
						"type": "t_int256"
					},
					{
						"astId": 14,
						"contract": "practice.sol:greet",
						"label": "isyear",
						"offset": 0,
						"slot": "3",
						"type": "t_bool"
					},
					{
						"astId": 17,
						"contract": "practice.sol:greet",
						"label": "birthdayboy",
						"offset": 1,
						"slot": "3",
						"type": "t_address"
					},
					{
						"astId": 20,
						"contract": "practice.sol:greet",
						"label": "num",
						"offset": 0,
						"slot": "4",
						"type": "t_string_storage"
					}
				],
				"types": {
					"t_address": {
						"encoding": "inplace",
						"label": "address",
						"numberOfBytes": "20"
					},
					"t_bool": {
						"encoding": "inplace",
						"label": "bool",
						"numberOfBytes": "1"
					},
					"t_int256": {
						"encoding": "inplace",
						"label": "int256",
						"numberOfBytes": "32"
					},
					"t_string_storage": {
						"encoding": "bytes",
						"label": "string",
						"numberOfBytes": "32"
					},
					"t_uint256": {
						"encoding": "inplace",
						"label": "uint256",
						"numberOfBytes": "32"
					}
				}
			},
			"userdoc": {
				"kind": "user",
				"methods": {},
				"version": 1
			}
		}
	}
}