{
	"returns.sol": {
		"returnsType": {
			"abi": [
				{
					"inputs": [],
					"name": "destructiveAssignment",
					"outputs": [],
					"stateMutability": "pure",
					"type": "function"
				},
				{
					"inputs": [],
					"name": "returnMany",
					"outputs": [
						{
							"internalType": "uint256",
							"name": "i",
							"type": "uint256"
						},
						{
							"internalType": "bool",
							"name": "b",
							"type": "bool"
						}
					],
					"stateMutability": "pure",
					"type": "function"
				}
			],
			"devdoc": {
				"kind": "dev",
				"methods": {},
				"version": 1
			},
			"evm": {
				"assembly": "    /* \"returns.sol\":59:273  contract returnsType{... */\n  mstore(0x40, 0x80)\n  callvalue\n  dup1\n  iszero\n  tag_1\n  jumpi\n  revert(0x00, 0x00)\ntag_1:\n  pop\n  dataSize(sub_0)\n  dup1\n  dataOffset(sub_0)\n  0x00\n  codecopy\n  0x00\n  return\nstop\n\nsub_0: assembly {\n        /* \"returns.sol\":59:273  contract returnsType{... */\n      mstore(0x40, 0x80)\n      callvalue\n      dup1\n      iszero\n      tag_1\n      jumpi\n      revert(0x00, 0x00)\n    tag_1:\n      pop\n      jumpi(tag_2, lt(calldatasize, 0x04))\n      shr(0xe0, calldataload(0x00))\n      dup1\n      0x1acfc269\n      eq\n      tag_3\n      jumpi\n      dup1\n      0x86887544\n      eq\n      tag_4\n      jumpi\n    tag_2:\n      revert(0x00, 0x00)\n        /* \"returns.sol\":172:270  function destructiveAssignment() public pure {... */\n    tag_3:\n      tag_5\n      tag_6\n      jump\t// in\n    tag_5:\n      stop\n        /* \"returns.sol\":82:170  function returnMany() public pure returns(uint i,bool b){... */\n    tag_4:\n      tag_7\n      tag_8\n      jump\t// in\n    tag_7:\n      mload(0x40)\n      tag_9\n      swap3\n      swap2\n      swap1\n      tag_10\n      jump\t// in\n    tag_9:\n      mload(0x40)\n      dup1\n      swap2\n      sub\n      swap1\n      return\n        /* \"returns.sol\":172:270  function destructiveAssignment() public pure {... */\n    tag_6:\n        /* \"returns.sol\":227:234  bool _b */\n      0x00\n        /* \"returns.sol\":239:251  returnMany() */\n      tag_12\n        /* \"returns.sol\":239:249  returnMany */\n      tag_8\n        /* \"returns.sol\":239:251  returnMany() */\n      jump\t// in\n    tag_12:\n        /* \"returns.sol\":224:251  ( ,bool _b ) = returnMany() */\n      swap2\n      pop\n      pop\n        /* \"returns.sol\":261:266  false */\n      0x00\n        /* \"returns.sol\":258:266  _b=false */\n      swap1\n      pop\n        /* \"returns.sol\":217:270  {... */\n      pop\n        /* \"returns.sol\":172:270  function destructiveAssignment() public pure {... */\n      jump\t// out\n        /* \"returns.sol\":82:170  function returnMany() public pure returns(uint i,bool b){... */\n    tag_8:\n        /* \"returns.sol\":124:130  uint i */\n      0x00\n        /* \"returns.sol\":131:137  bool b */\n      0x00\n        /* \"returns.sol\":152:153  1 */\n      0x01\n        /* \"returns.sol\":155:159  true */\n      dup1\n        /* \"returns.sol\":144:160  return (1, true) */\n      swap2\n      pop\n      swap2\n      pop\n        /* \"returns.sol\":82:170  function returnMany() public pure returns(uint i,bool b){... */\n      swap1\n      swap2\n      jump\t// out\n        /* \"#utility.yul\":7:84   */\n    tag_14:\n        /* \"#utility.yul\":44:51   */\n      0x00\n        /* \"#utility.yul\":73:78   */\n      dup2\n        /* \"#utility.yul\":62:78   */\n      swap1\n      pop\n        /* \"#utility.yul\":7:84   */\n      swap2\n      swap1\n      pop\n      jump\t// out\n        /* \"#utility.yul\":90:208   */\n    tag_15:\n        /* \"#utility.yul\":177:201   */\n      tag_21\n        /* \"#utility.yul\":195:200   */\n      dup2\n        /* \"#utility.yul\":177:201   */\n      tag_14\n      jump\t// in\n    tag_21:\n        /* \"#utility.yul\":172:175   */\n      dup3\n        /* \"#utility.yul\":165:202   */\n      mstore\n        /* \"#utility.yul\":90:208   */\n      pop\n      pop\n      jump\t// out\n        /* \"#utility.yul\":214:304   */\n    tag_16:\n        /* \"#utility.yul\":248:255   */\n      0x00\n        /* \"#utility.yul\":291:296   */\n      dup2\n        /* \"#utility.yul\":284:297   */\n      iszero\n        /* \"#utility.yul\":277:298   */\n      iszero\n        /* \"#utility.yul\":266:298   */\n      swap1\n      pop\n        /* \"#utility.yul\":214:304   */\n      swap2\n      swap1\n      pop\n      jump\t// out\n        /* \"#utility.yul\":310:419   */\n    tag_17:\n        /* \"#utility.yul\":391:412   */\n      tag_24\n        /* \"#utility.yul\":406:411   */\n      dup2\n        /* \"#utility.yul\":391:412   */\n      tag_16\n      jump\t// in\n    tag_24:\n        /* \"#utility.yul\":386:389   */\n      dup3\n        /* \"#utility.yul\":379:413   */\n      mstore\n        /* \"#utility.yul\":310:419   */\n      pop\n      pop\n      jump\t// out\n        /* \"#utility.yul\":425:745   */\n    tag_10:\n        /* \"#utility.yul\":540:544   */\n      0x00\n        /* \"#utility.yul\":578:580   */\n      0x40\n        /* \"#utility.yul\":567:576   */\n      dup3\n        /* \"#utility.yul\":563:581   */\n      add\n        /* \"#utility.yul\":555:581   */\n      swap1\n      pop\n        /* \"#utility.yul\":591:662   */\n      tag_26\n        /* \"#utility.yul\":659:660   */\n      0x00\n        /* \"#utility.yul\":648:657   */\n      dup4\n        /* \"#utility.yul\":644:661   */\n      add\n        /* \"#utility.yul\":635:641   */\n      dup6\n        /* \"#utility.yul\":591:662   */\n      tag_15\n      jump\t// in\n    tag_26:\n        /* \"#utility.yul\":672:738   */\n      tag_27\n        /* \"#utility.yul\":734:736   */\n      0x20\n        /* \"#utility.yul\":723:732   */\n      dup4\n        /* \"#utility.yul\":719:737   */\n      add\n        /* \"#utility.yul\":710:716   */\n      dup5\n        /* \"#utility.yul\":672:738   */\n      tag_17\n      jump\t// in\n    tag_27:\n        /* \"#utility.yul\":425:745   */\n      swap4\n      swap3\n      pop\n      pop\n      pop\n      jump\t// out\n\n    auxdata: 0xa2646970667358221220b2e1578d6707a1ad9c9e49ab66d836890c86fa803768c2e407d64a5ba637ea9164736f6c634300081e0033\n}\n",
				"bytecode": {
					"linkReferences": {},
					"object": "6080604052348015600e575f5ffd5b5060fb8061001b5f395ff3fe6080604052348015600e575f5ffd5b50600436106030575f3560e01c80631acfc2691460345780638688754414603c575b5f5ffd5b603a6057565b005b60426067565b604051604e92919060a2565b60405180910390f35b5f605e6067565b9150505f905050565b5f5f600180915091509091565b5f819050919050565b6084816074565b82525050565b5f8115159050919050565b609c81608a565b82525050565b5f60408201905060b35f830185607d565b60be60208301846095565b939250505056fea2646970667358221220b2e1578d6707a1ad9c9e49ab66d836890c86fa803768c2e407d64a5ba637ea9164736f6c634300081e0033",
					"opcodes": "PUSH1 0x80 PUSH1 0x40 MSTORE CALLVALUE DUP1 ISZERO PUSH1 0xE JUMPI PUSH0 PUSH0 REVERT JUMPDEST POP PUSH1 0xFB DUP1 PUSH2 0x1B PUSH0 CODECOPY PUSH0 RETURN INVALID PUSH1 0x80 PUSH1 0x40 MSTORE CALLVALUE DUP1 ISZERO PUSH1 0xE JUMPI PUSH0 PUSH0 REVERT JUMPDEST POP PUSH1 0x4 CALLDATASIZE LT PUSH1 0x30 JUMPI PUSH0 CALLDATALOAD PUSH1 0xE0 SHR DUP1 PUSH4 0x1ACFC269 EQ PUSH1 0x34 JUMPI DUP1 PUSH4 0x86887544 EQ PUSH1 0x3C JUMPI JUMPDEST PUSH0 PUSH0 REVERT JUMPDEST PUSH1 0x3A PUSH1 0x57 JUMP JUMPDEST STOP JUMPDEST PUSH1 0x42 PUSH1 0x67 JUMP JUMPDEST PUSH1 0x40 MLOAD PUSH1 0x4E SWAP3 SWAP2 SWAP1 PUSH1 0xA2 JUMP JUMPDEST PUSH1 0x40 MLOAD DUP1 SWAP2 SUB SWAP1 RETURN JUMPDEST PUSH0 PUSH1 0x5E PUSH1 0x67 JUMP JUMPDEST SWAP2 POP POP PUSH0 SWAP1 POP POP JUMP JUMPDEST PUSH0 PUSH0 PUSH1 0x1 DUP1 SWAP2 POP SWAP2 POP SWAP1 SWAP2 JUMP JUMPDEST PUSH0 DUP2 SWAP1 POP SWAP2 SWAP1 POP JUMP JUMPDEST PUSH1 0x84 DUP2 PUSH1 0x74 JUMP JUMPDEST DUP3 MSTORE POP POP JUMP JUMPDEST PUSH0 DUP2 ISZERO ISZERO SWAP1 POP SWAP2 SWAP1 POP JUMP JUMPDEST PUSH1 0x9C DUP2 PUSH1 0x8A JUMP JUMPDEST DUP3 MSTORE POP POP JUMP JUMPDEST PUSH0 PUSH1 0x40 DUP3 ADD SWAP1 POP PUSH1 0xB3 PUSH0 DUP4 ADD DUP6 PUSH1 0x7D JUMP JUMPDEST PUSH1 0xBE PUSH1 0x20 DUP4 ADD DUP5 PUSH1 0x95 JUMP JUMPDEST SWAP4 SWAP3 POP POP POP JUMP INVALID LOG2 PUSH5 0x6970667358 0x22 SLT KECCAK256 0xB2 RJUMPI 0x578D PUSH8 0x7A1AD9C9E49AB66 0xD8 CALLDATASIZE DUP10 0xC DUP7 STATICCALL DUP1 CALLDATACOPY PUSH9 0xC2E407D64A5BA637EA SWAP2 PUSH5 0x736F6C6343 STOP ADDMOD 0x1E STOP CALLER "
				},
				"gasEstimates": {
					"creation": {
						"codeDepositCost": "50200",
						"executionCost": "97",
						"totalCost": "50297"
					},
					"external": {
						"destructiveAssignment()": "189",
						"returnMany()": "450"
					}
				},
				"methodIdentifiers": {
					"destructiveAssignment()": "1acfc269",
					"returnMany()": "86887544"
				}
			},
			"storageLayout": {
				"storage": [],
				"types": null
			},
			"userdoc": {
				"kind": "user",
				"methods": {},
				"version": 1
			}
		}
	}
}