{
	"callothercontract/callother.sol": {
		"testFromGod": {
			"abi": [
				{
					"inputs": [
						{
							"internalType": "address",
							"name": "_test",
							"type": "address"
						}
					],
					"name": "getx",
					"outputs": [
						{
							"internalType": "uint256",
							"name": "x",
							"type": "uint256"
						}
					],
					"stateMutability": "view",
					"type": "function"
				},
				{
					"inputs": [
						{
							"internalType": "address",
							"name": "_test",
							"type": "address"
						}
					],
					"name": "getxandvalue",
					"outputs": [
						{
							"internalType": "uint256",
							"name": "x",
							"type": "uint256"
						},
						{
							"internalType": "uint256",
							"name": "value",
							"type": "uint256"
						}
					],
					"stateMutability": "view",
					"type": "function"
				},
				{
					"inputs": [
						{
							"internalType": "address",
							"name": "_test",
							"type": "address"
						},
						{
							"internalType": "uint256",
							"name": "_x",
							"type": "uint256"
						}
					],
					"name": "payWithEther",
					"outputs": [],
					"stateMutability": "payable",
					"type": "function"
				},
				{
					"inputs": [
						{
							"internalType": "contract god",
							"name": "_test",
							"type": "address"
						},
						{
							"internalType": "uint256",
							"name": "_x",
							"type": "uint256"
						}
					],
					"name": "setx",
					"outputs": [],
					"stateMutability": "nonpayable",
					"type": "function"
				}
			],
			"devdoc": {
				"kind": "dev",
				"methods": {},
				"version": 1
			},
			"evm": {
				"assembly": "    /* \"callothercontract/callother.sol\":56:552  contract testFromGod{... */\n  mstore(0x40, 0x80)\n  callvalue\n  dup1\n  iszero\n  tag_1\n  jumpi\n  revert(0x00, 0x00)\ntag_1:\n  pop\n  dataSize(sub_0)\n  dup1\n  dataOffset(sub_0)\n  0x00\n  codecopy\n  0x00\n  return\nstop\n\nsub_0: assembly {\n        /* \"callothercontract/callother.sol\":56:552  contract testFromGod{... */\n      mstore(0x40, 0x80)\n      jumpi(tag_1, lt(calldatasize, 0x04))\n      shr(0xe0, calldataload(0x00))\n      dup1\n      0x33f71a92\n      eq\n      tag_2\n      jumpi\n      dup1\n      0x676977e3\n      eq\n      tag_3\n      jumpi\n      dup1\n      0x8ac771a3\n      eq\n      tag_4\n      jumpi\n      dup1\n      0xe85a793e\n      eq\n      tag_5\n      jumpi\n    tag_1:\n      revert(0x00, 0x00)\n        /* \"callothercontract/callother.sol\":83:158  function setx(god _test, uint _x) external{... */\n    tag_2:\n      callvalue\n      dup1\n      iszero\n      tag_6\n      jumpi\n      revert(0x00, 0x00)\n    tag_6:\n      pop\n      tag_7\n      0x04\n      dup1\n      calldatasize\n      sub\n      dup2\n      add\n      swap1\n      tag_8\n      swap2\n      swap1\n      tag_9\n      jump\t// in\n    tag_8:\n      tag_10\n      jump\t// in\n    tag_7:\n      stop\n        /* \"callothercontract/callother.sol\":164:263  function getx(address _test) external view returns(uint x){... */\n    tag_3:\n      callvalue\n      dup1\n      iszero\n      tag_11\n      jumpi\n      revert(0x00, 0x00)\n    tag_11:\n      pop\n      tag_12\n      0x04\n      dup1\n      calldatasize\n      sub\n      dup2\n      add\n      swap1\n      tag_13\n      swap2\n      swap1\n      tag_14\n      jump\t// in\n    tag_13:\n      tag_15\n      jump\t// in\n    tag_12:\n      mload(0x40)\n      tag_16\n      swap2\n      swap1\n      tag_17\n      jump\t// in\n    tag_16:\n      mload(0x40)\n      dup1\n      swap2\n      sub\n      swap1\n      return\n        /* \"callothercontract/callother.sol\":403:549  function getxandvalue(address _test) external view returns (uint x , uint value){... */\n    tag_4:\n      callvalue\n      dup1\n      iszero\n      tag_18\n      jumpi\n      revert(0x00, 0x00)\n    tag_18:\n      pop\n      tag_19\n      0x04\n      dup1\n      calldatasize\n      sub\n      dup2\n      add\n      swap1\n      tag_20\n      swap2\n      swap1\n      tag_14\n      jump\t// in\n    tag_20:\n      tag_21\n      jump\t// in\n    tag_19:\n      mload(0x40)\n      tag_22\n      swap3\n      swap2\n      swap1\n      tag_23\n      jump\t// in\n    tag_22:\n      mload(0x40)\n      dup1\n      swap2\n      sub\n      swap1\n      return\n        /* \"callothercontract/callother.sol\":269:397  function payWithEther(address _test, uint _x) external payable {... */\n    tag_5:\n      tag_24\n      0x04\n      dup1\n      calldatasize\n      sub\n      dup2\n      add\n      swap1\n      tag_25\n      swap2\n      swap1\n      tag_26\n      jump\t// in\n    tag_25:\n      tag_27\n      jump\t// in\n    tag_24:\n      stop\n        /* \"callothercontract/callother.sol\":83:158  function setx(god _test, uint _x) external{... */\n    tag_10:\n        /* \"callothercontract/callother.sol\":136:141  _test */\n      dup2\n        /* \"callothercontract/callother.sol\":136:146  _test.setx */\n      0xffffffffffffffffffffffffffffffffffffffff\n      and\n      0xc4d8f17e\n        /* \"callothercontract/callother.sol\":147:149  _x */\n      dup3\n        /* \"callothercontract/callother.sol\":136:150  _test.setx(_x) */\n      mload(0x40)\n      dup3\n      0xffffffff\n      and\n      0xe0\n      shl\n      dup2\n      mstore\n      0x04\n      add\n      tag_29\n      swap2\n      swap1\n      tag_17\n      jump\t// in\n    tag_29:\n      0x00\n      mload(0x40)\n      dup1\n      dup4\n      sub\n      dup2\n      0x00\n      dup8\n      dup1\n      extcodesize\n      iszero\n      dup1\n      iszero\n      tag_30\n      jumpi\n      revert(0x00, 0x00)\n    tag_30:\n      pop\n      gas\n      call\n      iszero\n      dup1\n      iszero\n      tag_32\n      jumpi\n      returndatacopy(0x00, 0x00, returndatasize)\n      revert(0x00, returndatasize)\n    tag_32:\n      pop\n      pop\n      pop\n      pop\n        /* \"callothercontract/callother.sol\":83:158  function setx(god _test, uint _x) external{... */\n      pop\n      pop\n      jump\t// out\n        /* \"callothercontract/callother.sol\":164:263  function getx(address _test) external view returns(uint x){... */\n    tag_15:\n        /* \"callothercontract/callother.sol\":215:221  uint x */\n      0x00\n        /* \"callothercontract/callother.sol\":240:245  _test */\n      dup2\n        /* \"callothercontract/callother.sol\":236:251  god(_test).getx */\n      0xffffffffffffffffffffffffffffffffffffffff\n      and\n      0xe276c799\n        /* \"callothercontract/callother.sol\":236:253  god(_test).getx() */\n      mload(0x40)\n      dup2\n      0xffffffff\n      and\n      0xe0\n      shl\n      dup2\n      mstore\n      0x04\n      add\n      0x20\n      mload(0x40)\n      dup1\n      dup4\n      sub\n      dup2\n      dup7\n      gas\n      staticcall\n      iszero\n      dup1\n      iszero\n      tag_35\n      jumpi\n      returndatacopy(0x00, 0x00, returndatasize)\n      revert(0x00, returndatasize)\n    tag_35:\n      pop\n      pop\n      pop\n      pop\n      mload(0x40)\n      returndatasize\n      not(0x1f)\n      0x1f\n      dup3\n      add\n      and\n      dup3\n      add\n      dup1\n      0x40\n      mstore\n      pop\n      dup2\n      add\n      swap1\n      tag_36\n      swap2\n      swap1\n      tag_37\n      jump\t// in\n    tag_36:\n        /* \"callothercontract/callother.sol\":233:253  x= god(_test).getx() */\n      swap1\n      pop\n        /* \"callothercontract/callother.sol\":164:263  function getx(address _test) external view returns(uint x){... */\n      swap2\n      swap1\n      pop\n      jump\t// out\n        /* \"callothercontract/callother.sol\":403:549  function getxandvalue(address _test) external view returns (uint x , uint value){... */\n    tag_21:\n        /* \"callothercontract/callother.sol\":463:469  uint x */\n      0x00\n        /* \"callothercontract/callother.sol\":472:482  uint value */\n      0x00\n        /* \"callothercontract/callother.sol\":511:516  _test */\n      dup3\n        /* \"callothercontract/callother.sol\":507:530  god(_test).getxandvalue */\n      0xffffffffffffffffffffffffffffffffffffffff\n      and\n      0xc719bb9a\n        /* \"callothercontract/callother.sol\":507:532  god(_test).getxandvalue() */\n      mload(0x40)\n      dup2\n      0xffffffff\n      and\n      0xe0\n      shl\n      dup2\n      mstore\n      0x04\n      add\n      0x40\n      dup1\n      mload\n      dup1\n      dup4\n      sub\n      dup2\n      dup7\n      gas\n      staticcall\n      iszero\n      dup1\n      iszero\n      tag_40\n      jumpi\n      returndatacopy(0x00, 0x00, returndatasize)\n      revert(0x00, returndatasize)\n    tag_40:\n      pop\n      pop\n      pop\n      pop\n      mload(0x40)\n      returndatasize\n      not(0x1f)\n      0x1f\n      dup3\n      add\n      and\n      dup3\n      add\n      dup1\n      0x40\n      mstore\n      pop\n      dup2\n      add\n      swap1\n      tag_41\n      swap2\n      swap1\n      tag_42\n      jump\t// in\n    tag_41:\n        /* \"callothercontract/callother.sol\":494:532  ( x, value)= god(_test).getxandvalue() */\n      dup1\n      swap3\n      pop\n      dup2\n      swap4\n      pop\n      pop\n      pop\n        /* \"callothercontract/callother.sol\":403:549  function getxandvalue(address _test) external view returns (uint x , uint value){... */\n      swap2\n      pop\n      swap2\n      jump\t// out\n        /* \"callothercontract/callother.sol\":269:397  function payWithEther(address _test, uint _x) external payable {... */\n    tag_27:\n        /* \"callothercontract/callother.sol\":348:353  _test */\n      dup2\n        /* \"callothercontract/callother.sol\":343:367  god (_test).payWithEther */\n      0xffffffffffffffffffffffffffffffffffffffff\n      and\n      0x19e31e7d\n        /* \"callothercontract/callother.sol\":375:384  msg.value */\n      callvalue\n        /* \"callothercontract/callother.sol\":386:388  _x */\n      dup4\n        /* \"callothercontract/callother.sol\":343:389  god (_test).payWithEther{value :msg.value}(_x) */\n      mload(0x40)\n      dup4\n      0xffffffff\n      and\n      0xe0\n      shl\n      dup2\n      mstore\n      0x04\n      add\n      tag_44\n      swap2\n      swap1\n      tag_17\n      jump\t// in\n    tag_44:\n      0x00\n      mload(0x40)\n      dup1\n      dup4\n      sub\n      dup2\n      dup6\n      dup9\n      dup1\n      extcodesize\n      iszero\n      dup1\n      iszero\n      tag_45\n      jumpi\n      revert(0x00, 0x00)\n    tag_45:\n      pop\n      gas\n      call\n      iszero\n      dup1\n      iszero\n      tag_47\n      jumpi\n      returndatacopy(0x00, 0x00, returndatasize)\n      revert(0x00, returndatasize)\n    tag_47:\n      pop\n      pop\n      pop\n      pop\n      pop\n        /* \"callothercontract/callother.sol\":269:397  function payWithEther(address _test, uint _x) external payable {... */\n      pop\n      pop\n      jump\t// out\n        /* \"#utility.yul\":88:205   */\n    tag_49:\n        /* \"#utility.yul\":197:198   */\n      0x00\n        /* \"#utility.yul\":194:195   */\n      0x00\n        /* \"#utility.yul\":187:199   */\n      revert\n        /* \"#utility.yul\":334:460   */\n    tag_51:\n        /* \"#utility.yul\":371:378   */\n      0x00\n        /* \"#utility.yul\":411:453   */\n      0xffffffffffffffffffffffffffffffffffffffff\n        /* \"#utility.yul\":404:409   */\n      dup3\n        /* \"#utility.yul\":400:454   */\n      and\n        /* \"#utility.yul\":389:454   */\n      swap1\n      pop\n        /* \"#utility.yul\":334:460   */\n      swap2\n      swap1\n      pop\n      jump\t// out\n        /* \"#utility.yul\":466:562   */\n    tag_52:\n        /* \"#utility.yul\":503:510   */\n      0x00\n        /* \"#utility.yul\":532:556   */\n      tag_69\n        /* \"#utility.yul\":550:555   */\n      dup3\n        /* \"#utility.yul\":532:556   */\n      tag_51\n      jump\t// in\n    tag_69:\n        /* \"#utility.yul\":521:556   */\n      swap1\n      pop\n        /* \"#utility.yul\":466:562   */\n      swap2\n      swap1\n      pop\n      jump\t// out\n        /* \"#utility.yul\":568:675   */\n    tag_53:\n        /* \"#utility.yul\":616:623   */\n      0x00\n        /* \"#utility.yul\":645:669   */\n      tag_71\n        /* \"#utility.yul\":663:668   */\n      dup3\n        /* \"#utility.yul\":645:669   */\n      tag_52\n      jump\t// in\n    tag_71:\n        /* \"#utility.yul\":634:669   */\n      swap1\n      pop\n        /* \"#utility.yul\":568:675   */\n      swap2\n      swap1\n      pop\n      jump\t// out\n        /* \"#utility.yul\":681:825   */\n    tag_54:\n        /* \"#utility.yul\":765:800   */\n      tag_73\n        /* \"#utility.yul\":794:799   */\n      dup2\n        /* \"#utility.yul\":765:800   */\n      tag_53\n      jump\t// in\n    tag_73:\n        /* \"#utility.yul\":758:763   */\n      dup2\n        /* \"#utility.yul\":755:801   */\n      eq\n        /* \"#utility.yul\":745:819   */\n      tag_74\n      jumpi\n        /* \"#utility.yul\":815:816   */\n      0x00\n        /* \"#utility.yul\":812:813   */\n      0x00\n        /* \"#utility.yul\":805:817   */\n      revert\n        /* \"#utility.yul\":745:819   */\n    tag_74:\n        /* \"#utility.yul\":681:825   */\n      pop\n      jump\t// out\n        /* \"#utility.yul\":831:992   */\n    tag_55:\n        /* \"#utility.yul\":888:893   */\n      0x00\n        /* \"#utility.yul\":926:932   */\n      dup2\n        /* \"#utility.yul\":913:933   */\n      calldataload\n        /* \"#utility.yul\":904:933   */\n      swap1\n      pop\n        /* \"#utility.yul\":942:986   */\n      tag_76\n        /* \"#utility.yul\":980:985   */\n      dup2\n        /* \"#utility.yul\":942:986   */\n      tag_54\n      jump\t// in\n    tag_76:\n        /* \"#utility.yul\":831:992   */\n      swap3\n      swap2\n      pop\n      pop\n      jump\t// out\n        /* \"#utility.yul\":998:1075   */\n    tag_56:\n        /* \"#utility.yul\":1035:1042   */\n      0x00\n        /* \"#utility.yul\":1064:1069   */\n      dup2\n        /* \"#utility.yul\":1053:1069   */\n      swap1\n      pop\n        /* \"#utility.yul\":998:1075   */\n      swap2\n      swap1\n      pop\n      jump\t// out\n        /* \"#utility.yul\":1081:1203   */\n    tag_57:\n        /* \"#utility.yul\":1154:1178   */\n      tag_79\n        /* \"#utility.yul\":1172:1177   */\n      dup2\n        /* \"#utility.yul\":1154:1178   */\n      tag_56\n      jump\t// in\n    tag_79:\n        /* \"#utility.yul\":1147:1152   */\n      dup2\n        /* \"#utility.yul\":1144:1179   */\n      eq\n        /* \"#utility.yul\":1134:1197   */\n      tag_80\n      jumpi\n        /* \"#utility.yul\":1193:1194   */\n      0x00\n        /* \"#utility.yul\":1190:1191   */\n      0x00\n        /* \"#utility.yul\":1183:1195   */\n      revert\n        /* \"#utility.yul\":1134:1197   */\n    tag_80:\n        /* \"#utility.yul\":1081:1203   */\n      pop\n      jump\t// out\n        /* \"#utility.yul\":1209:1348   */\n    tag_58:\n        /* \"#utility.yul\":1255:1260   */\n      0x00\n        /* \"#utility.yul\":1293:1299   */\n      dup2\n        /* \"#utility.yul\":1280:1300   */\n      calldataload\n        /* \"#utility.yul\":1271:1300   */\n      swap1\n      pop\n        /* \"#utility.yul\":1309:1342   */\n      tag_82\n        /* \"#utility.yul\":1336:1341   */\n      dup2\n        /* \"#utility.yul\":1309:1342   */\n      tag_57\n      jump\t// in\n    tag_82:\n        /* \"#utility.yul\":1209:1348   */\n      swap3\n      swap2\n      pop\n      pop\n      jump\t// out\n        /* \"#utility.yul\":1354:1850   */\n    tag_9:\n        /* \"#utility.yul\":1433:1439   */\n      0x00\n        /* \"#utility.yul\":1441:1447   */\n      0x00\n        /* \"#utility.yul\":1490:1492   */\n      0x40\n        /* \"#utility.yul\":1478:1487   */\n      dup4\n        /* \"#utility.yul\":1469:1476   */\n      dup6\n        /* \"#utility.yul\":1465:1488   */\n      sub\n        /* \"#utility.yul\":1461:1493   */\n      slt\n        /* \"#utility.yul\":1458:1577   */\n      iszero\n      tag_84\n      jumpi\n        /* \"#utility.yul\":1496:1575   */\n      tag_85\n      tag_49\n      jump\t// in\n    tag_85:\n        /* \"#utility.yul\":1458:1577   */\n    tag_84:\n        /* \"#utility.yul\":1616:1617   */\n      0x00\n        /* \"#utility.yul\":1641:1705   */\n      tag_86\n        /* \"#utility.yul\":1697:1704   */\n      dup6\n        /* \"#utility.yul\":1688:1694   */\n      dup3\n        /* \"#utility.yul\":1677:1686   */\n      dup7\n        /* \"#utility.yul\":1673:1695   */\n      add\n        /* \"#utility.yul\":1641:1705   */\n      tag_55\n      jump\t// in\n    tag_86:\n        /* \"#utility.yul\":1631:1705   */\n      swap3\n      pop\n        /* \"#utility.yul\":1587:1715   */\n      pop\n        /* \"#utility.yul\":1754:1756   */\n      0x20\n        /* \"#utility.yul\":1780:1833   */\n      tag_87\n        /* \"#utility.yul\":1825:1832   */\n      dup6\n        /* \"#utility.yul\":1816:1822   */\n      dup3\n        /* \"#utility.yul\":1805:1814   */\n      dup7\n        /* \"#utility.yul\":1801:1823   */\n      add\n        /* \"#utility.yul\":1780:1833   */\n      tag_58\n      jump\t// in\n    tag_87:\n        /* \"#utility.yul\":1770:1833   */\n      swap2\n      pop\n        /* \"#utility.yul\":1725:1843   */\n      pop\n        /* \"#utility.yul\":1354:1850   */\n      swap3\n      pop\n      swap3\n      swap1\n      pop\n      jump\t// out\n        /* \"#utility.yul\":1856:1978   */\n    tag_59:\n        /* \"#utility.yul\":1929:1953   */\n      tag_89\n        /* \"#utility.yul\":1947:1952   */\n      dup2\n        /* \"#utility.yul\":1929:1953   */\n      tag_52\n      jump\t// in\n    tag_89:\n        /* \"#utility.yul\":1922:1927   */\n      dup2\n        /* \"#utility.yul\":1919:1954   */\n      eq\n        /* \"#utility.yul\":1909:1972   */\n      tag_90\n      jumpi\n        /* \"#utility.yul\":1968:1969   */\n      0x00\n        /* \"#utility.yul\":1965:1966   */\n      0x00\n        /* \"#utility.yul\":1958:1970   */\n      revert\n        /* \"#utility.yul\":1909:1972   */\n    tag_90:\n        /* \"#utility.yul\":1856:1978   */\n      pop\n      jump\t// out\n        /* \"#utility.yul\":1984:2123   */\n    tag_60:\n        /* \"#utility.yul\":2030:2035   */\n      0x00\n        /* \"#utility.yul\":2068:2074   */\n      dup2\n        /* \"#utility.yul\":2055:2075   */\n      calldataload\n        /* \"#utility.yul\":2046:2075   */\n      swap1\n      pop\n        /* \"#utility.yul\":2084:2117   */\n      tag_92\n        /* \"#utility.yul\":2111:2116   */\n      dup2\n        /* \"#utility.yul\":2084:2117   */\n      tag_59\n      jump\t// in\n    tag_92:\n        /* \"#utility.yul\":1984:2123   */\n      swap3\n      swap2\n      pop\n      pop\n      jump\t// out\n        /* \"#utility.yul\":2129:2458   */\n    tag_14:\n        /* \"#utility.yul\":2188:2194   */\n      0x00\n        /* \"#utility.yul\":2237:2239   */\n      0x20\n        /* \"#utility.yul\":2225:2234   */\n      dup3\n        /* \"#utility.yul\":2216:2223   */\n      dup5\n        /* \"#utility.yul\":2212:2235   */\n      sub\n        /* \"#utility.yul\":2208:2240   */\n      slt\n        /* \"#utility.yul\":2205:2324   */\n      iszero\n      tag_94\n      jumpi\n        /* \"#utility.yul\":2243:2322   */\n      tag_95\n      tag_49\n      jump\t// in\n    tag_95:\n        /* \"#utility.yul\":2205:2324   */\n    tag_94:\n        /* \"#utility.yul\":2363:2364   */\n      0x00\n        /* \"#utility.yul\":2388:2441   */\n      tag_96\n        /* \"#utility.yul\":2433:2440   */\n      dup5\n        /* \"#utility.yul\":2424:2430   */\n      dup3\n        /* \"#utility.yul\":2413:2422   */\n      dup6\n        /* \"#utility.yul\":2409:2431   */\n      add\n        /* \"#utility.yul\":2388:2441   */\n      tag_60\n      jump\t// in\n    tag_96:\n        /* \"#utility.yul\":2378:2441   */\n      swap2\n      pop\n        /* \"#utility.yul\":2334:2451   */\n      pop\n        /* \"#utility.yul\":2129:2458   */\n      swap3\n      swap2\n      pop\n      pop\n      jump\t// out\n        /* \"#utility.yul\":2464:2582   */\n    tag_61:\n        /* \"#utility.yul\":2551:2575   */\n      tag_98\n        /* \"#utility.yul\":2569:2574   */\n      dup2\n        /* \"#utility.yul\":2551:2575   */\n      tag_56\n      jump\t// in\n    tag_98:\n        /* \"#utility.yul\":2546:2549   */\n      dup3\n        /* \"#utility.yul\":2539:2576   */\n      mstore\n        /* \"#utility.yul\":2464:2582   */\n      pop\n      pop\n      jump\t// out\n        /* \"#utility.yul\":2588:2810   */\n    tag_17:\n        /* \"#utility.yul\":2681:2685   */\n      0x00\n        /* \"#utility.yul\":2719:2721   */\n      0x20\n        /* \"#utility.yul\":2708:2717   */\n      dup3\n        /* \"#utility.yul\":2704:2722   */\n      add\n        /* \"#utility.yul\":2696:2722   */\n      swap1\n      pop\n        /* \"#utility.yul\":2732:2803   */\n      tag_100\n        /* \"#utility.yul\":2800:2801   */\n      0x00\n        /* \"#utility.yul\":2789:2798   */\n      dup4\n        /* \"#utility.yul\":2785:2802   */\n      add\n        /* \"#utility.yul\":2776:2782   */\n      dup5\n        /* \"#utility.yul\":2732:2803   */\n      tag_61\n      jump\t// in\n    tag_100:\n        /* \"#utility.yul\":2588:2810   */\n      swap3\n      swap2\n      pop\n      pop\n      jump\t// out\n        /* \"#utility.yul\":2816:3148   */\n    tag_23:\n        /* \"#utility.yul\":2937:2941   */\n      0x00\n        /* \"#utility.yul\":2975:2977   */\n      0x40\n        /* \"#utility.yul\":2964:2973   */\n      dup3\n        /* \"#utility.yul\":2960:2978   */\n      add\n        /* \"#utility.yul\":2952:2978   */\n      swap1\n      pop\n        /* \"#utility.yul\":2988:3059   */\n      tag_102\n        /* \"#utility.yul\":3056:3057   */\n      0x00\n        /* \"#utility.yul\":3045:3054   */\n      dup4\n        /* \"#utility.yul\":3041:3058   */\n      add\n        /* \"#utility.yul\":3032:3038   */\n      dup6\n        /* \"#utility.yul\":2988:3059   */\n      tag_61\n      jump\t// in\n    tag_102:\n        /* \"#utility.yul\":3069:3141   */\n      tag_103\n        /* \"#utility.yul\":3137:3139   */\n      0x20\n        /* \"#utility.yul\":3126:3135   */\n      dup4\n        /* \"#utility.yul\":3122:3140   */\n      add\n        /* \"#utility.yul\":3113:3119   */\n      dup5\n        /* \"#utility.yul\":3069:3141   */\n      tag_61\n      jump\t// in\n    tag_103:\n        /* \"#utility.yul\":2816:3148   */\n      swap4\n      swap3\n      pop\n      pop\n      pop\n      jump\t// out\n        /* \"#utility.yul\":3154:3628   */\n    tag_26:\n        /* \"#utility.yul\":3222:3228   */\n      0x00\n        /* \"#utility.yul\":3230:3236   */\n      0x00\n        /* \"#utility.yul\":3279:3281   */\n      0x40\n        /* \"#utility.yul\":3267:3276   */\n      dup4\n        /* \"#utility.yul\":3258:3265   */\n      dup6\n        /* \"#utility.yul\":3254:3277   */\n      sub\n        /* \"#utility.yul\":3250:3282   */\n      slt\n        /* \"#utility.yul\":3247:3366   */\n      iszero\n      tag_105\n      jumpi\n        /* \"#utility.yul\":3285:3364   */\n      tag_106\n      tag_49\n      jump\t// in\n    tag_106:\n        /* \"#utility.yul\":3247:3366   */\n    tag_105:\n        /* \"#utility.yul\":3405:3406   */\n      0x00\n        /* \"#utility.yul\":3430:3483   */\n      tag_107\n        /* \"#utility.yul\":3475:3482   */\n      dup6\n        /* \"#utility.yul\":3466:3472   */\n      dup3\n        /* \"#utility.yul\":3455:3464   */\n      dup7\n        /* \"#utility.yul\":3451:3473   */\n      add\n        /* \"#utility.yul\":3430:3483   */\n      tag_60\n      jump\t// in\n    tag_107:\n        /* \"#utility.yul\":3420:3483   */\n      swap3\n      pop\n        /* \"#utility.yul\":3376:3493   */\n      pop\n        /* \"#utility.yul\":3532:3534   */\n      0x20\n        /* \"#utility.yul\":3558:3611   */\n      tag_108\n        /* \"#utility.yul\":3603:3610   */\n      dup6\n        /* \"#utility.yul\":3594:3600   */\n      dup3\n        /* \"#utility.yul\":3583:3592   */\n      dup7\n        /* \"#utility.yul\":3579:3601   */\n      add\n        /* \"#utility.yul\":3558:3611   */\n      tag_58\n      jump\t// in\n    tag_108:\n        /* \"#utility.yul\":3548:3611   */\n      swap2\n      pop\n        /* \"#utility.yul\":3503:3621   */\n      pop\n        /* \"#utility.yul\":3154:3628   */\n      swap3\n      pop\n      swap3\n      swap1\n      pop\n      jump\t// out\n        /* \"#utility.yul\":3634:3777   */\n    tag_62:\n        /* \"#utility.yul\":3691:3696   */\n      0x00\n        /* \"#utility.yul\":3722:3728   */\n      dup2\n        /* \"#utility.yul\":3716:3729   */\n      mload\n        /* \"#utility.yul\":3707:3729   */\n      swap1\n      pop\n        /* \"#utility.yul\":3738:3771   */\n      tag_110\n        /* \"#utility.yul\":3765:3770   */\n      dup2\n        /* \"#utility.yul\":3738:3771   */\n      tag_57\n      jump\t// in\n    tag_110:\n        /* \"#utility.yul\":3634:3777   */\n      swap3\n      swap2\n      pop\n      pop\n      jump\t// out\n        /* \"#utility.yul\":3783:4134   */\n    tag_37:\n        /* \"#utility.yul\":3853:3859   */\n      0x00\n        /* \"#utility.yul\":3902:3904   */\n      0x20\n        /* \"#utility.yul\":3890:3899   */\n      dup3\n        /* \"#utility.yul\":3881:3888   */\n      dup5\n        /* \"#utility.yul\":3877:3900   */\n      sub\n        /* \"#utility.yul\":3873:3905   */\n      slt\n        /* \"#utility.yul\":3870:3989   */\n      iszero\n      tag_112\n      jumpi\n        /* \"#utility.yul\":3908:3987   */\n      tag_113\n      tag_49\n      jump\t// in\n    tag_113:\n        /* \"#utility.yul\":3870:3989   */\n    tag_112:\n        /* \"#utility.yul\":4028:4029   */\n      0x00\n        /* \"#utility.yul\":4053:4117   */\n      tag_114\n        /* \"#utility.yul\":4109:4116   */\n      dup5\n        /* \"#utility.yul\":4100:4106   */\n      dup3\n        /* \"#utility.yul\":4089:4098   */\n      dup6\n        /* \"#utility.yul\":4085:4107   */\n      add\n        /* \"#utility.yul\":4053:4117   */\n      tag_62\n      jump\t// in\n    tag_114:\n        /* \"#utility.yul\":4043:4117   */\n      swap2\n      pop\n        /* \"#utility.yul\":3999:4127   */\n      pop\n        /* \"#utility.yul\":3783:4134   */\n      swap3\n      swap2\n      pop\n      pop\n      jump\t// out\n        /* \"#utility.yul\":4140:4647   */\n    tag_42:\n        /* \"#utility.yul\":4219:4225   */\n      0x00\n        /* \"#utility.yul\":4227:4233   */\n      0x00\n        /* \"#utility.yul\":4276:4278   */\n      0x40\n        /* \"#utility.yul\":4264:4273   */\n      dup4\n        /* \"#utility.yul\":4255:4262   */\n      dup6\n        /* \"#utility.yul\":4251:4274   */\n      sub\n        /* \"#utility.yul\":4247:4279   */\n      slt\n        /* \"#utility.yul\":4244:4363   */\n      iszero\n      tag_116\n      jumpi\n        /* \"#utility.yul\":4282:4361   */\n      tag_117\n      tag_49\n      jump\t// in\n    tag_117:\n        /* \"#utility.yul\":4244:4363   */\n    tag_116:\n        /* \"#utility.yul\":4402:4403   */\n      0x00\n        /* \"#utility.yul\":4427:4491   */\n      tag_118\n        /* \"#utility.yul\":4483:4490   */\n      dup6\n        /* \"#utility.yul\":4474:4480   */\n      dup3\n        /* \"#utility.yul\":4463:4472   */\n      dup7\n        /* \"#utility.yul\":4459:4481   */\n      add\n        /* \"#utility.yul\":4427:4491   */\n      tag_62\n      jump\t// in\n    tag_118:\n        /* \"#utility.yul\":4417:4491   */\n      swap3\n      pop\n        /* \"#utility.yul\":4373:4501   */\n      pop\n        /* \"#utility.yul\":4540:4542   */\n      0x20\n        /* \"#utility.yul\":4566:4630   */\n      tag_119\n        /* \"#utility.yul\":4622:4629   */\n      dup6\n        /* \"#utility.yul\":4613:4619   */\n      dup3\n        /* \"#utility.yul\":4602:4611   */\n      dup7\n        /* \"#utility.yul\":4598:4620   */\n      add\n        /* \"#utility.yul\":4566:4630   */\n      tag_62\n      jump\t// in\n    tag_119:\n        /* \"#utility.yul\":4556:4630   */\n      swap2\n      pop\n        /* \"#utility.yul\":4511:4640   */\n      pop\n        /* \"#utility.yul\":4140:4647   */\n      swap3\n      pop\n      swap3\n      swap1\n      pop\n      jump\t// out\n\n    auxdata: 0xa26469706673582212206a57a48d33884a18c99db9010f344d470ff67af8f8980e0613c6e5de97a1ebcc64736f6c634300081f0033\n}\n",
				"bytecode": {
					"linkReferences": {},
					"object": "6080604052348015600e575f5ffd5b5061053a8061001c5f395ff3fe60806040526004361061003e575f3560e01c806333f71a9214610042578063676977e31461006a5780638ac771a3146100a6578063e85a793e146100e3575b5f5ffd5b34801561004d575f5ffd5b5061006860048036038101906100639190610367565b6100ff565b005b348015610075575f5ffd5b50610090600480360381019061008b91906103cf565b610169565b60405161009d9190610409565b60405180910390f35b3480156100b1575f5ffd5b506100cc60048036038101906100c791906103cf565b6101de565b6040516100da929190610422565b60405180910390f35b6100fd60048036038101906100f89190610449565b610259565b005b8173ffffffffffffffffffffffffffffffffffffffff1663c4d8f17e826040518263ffffffff1660e01b81526004016101389190610409565b5f604051808303815f87803b15801561014f575f5ffd5b505af1158015610161573d5f5f3e3d5ffd5b505050505050565b5f8173ffffffffffffffffffffffffffffffffffffffff1663e276c7996040518163ffffffff1660e01b8152600401602060405180830381865afa1580156101b3573d5f5f3e3d5ffd5b505050506040513d601f19601f820116820180604052508101906101d7919061049b565b9050919050565b5f5f8273ffffffffffffffffffffffffffffffffffffffff1663c719bb9a6040518163ffffffff1660e01b81526004016040805180830381865afa158015610228573d5f5f3e3d5ffd5b505050506040513d601f19601f8201168201806040525081019061024c91906104c6565b8092508193505050915091565b8173ffffffffffffffffffffffffffffffffffffffff166319e31e7d34836040518363ffffffff1660e01b81526004016102939190610409565b5f604051808303818588803b1580156102aa575f5ffd5b505af11580156102bc573d5f5f3e3d5ffd5b50505050505050565b5f5ffd5b5f73ffffffffffffffffffffffffffffffffffffffff82169050919050565b5f6102f2826102c9565b9050919050565b5f610303826102e8565b9050919050565b610313816102f9565b811461031d575f5ffd5b50565b5f8135905061032e8161030a565b92915050565b5f819050919050565b61034681610334565b8114610350575f5ffd5b50565b5f813590506103618161033d565b92915050565b5f5f6040838503121561037d5761037c6102c5565b5b5f61038a85828601610320565b925050602061039b85828601610353565b9150509250929050565b6103ae816102e8565b81146103b8575f5ffd5b50565b5f813590506103c9816103a5565b92915050565b5f602082840312156103e4576103e36102c5565b5b5f6103f1848285016103bb565b91505092915050565b61040381610334565b82525050565b5f60208201905061041c5f8301846103fa565b92915050565b5f6040820190506104355f8301856103fa565b61044260208301846103fa565b9392505050565b5f5f6040838503121561045f5761045e6102c5565b5b5f61046c858286016103bb565b925050602061047d85828601610353565b9150509250929050565b5f815190506104958161033d565b92915050565b5f602082840312156104b0576104af6102c5565b5b5f6104bd84828501610487565b91505092915050565b5f5f604083850312156104dc576104db6102c5565b5b5f6104e985828601610487565b92505060206104fa85828601610487565b915050925092905056fea26469706673582212206a57a48d33884a18c99db9010f344d470ff67af8f8980e0613c6e5de97a1ebcc64736f6c634300081f0033",
					"opcodes": "PUSH1 0x80 PUSH1 0x40 MSTORE CALLVALUE DUP1 ISZERO PUSH1 0xE JUMPI PUSH0 PUSH0 REVERT JUMPDEST POP PUSH2 0x53A DUP1 PUSH2 0x1C PUSH0 CODECOPY PUSH0 RETURN INVALID PUSH1 0x80 PUSH1 0x40 MSTORE PUSH1 0x4 CALLDATASIZE LT PUSH2 0x3E JUMPI PUSH0 CALLDATALOAD PUSH1 0xE0 SHR DUP1 PUSH4 0x33F71A92 EQ PUSH2 0x42 JUMPI DUP1 PUSH4 0x676977E3 EQ PUSH2 0x6A JUMPI DUP1 PUSH4 0x8AC771A3 EQ PUSH2 0xA6 JUMPI DUP1 PUSH4 0xE85A793E EQ PUSH2 0xE3 JUMPI JUMPDEST PUSH0 PUSH0 REVERT JUMPDEST CALLVALUE DUP1 ISZERO PUSH2 0x4D JUMPI PUSH0 PUSH0 REVERT JUMPDEST POP PUSH2 0x68 PUSH1 0x4 DUP1 CALLDATASIZE SUB DUP2 ADD SWAP1 PUSH2 0x63 SWAP2 SWAP1 PUSH2 0x367 JUMP JUMPDEST PUSH2 0xFF JUMP JUMPDEST STOP JUMPDEST CALLVALUE DUP1 ISZERO PUSH2 0x75 JUMPI PUSH0 PUSH0 REVERT JUMPDEST POP PUSH2 0x90 PUSH1 0x4 DUP1 CALLDATASIZE SUB DUP2 ADD SWAP1 PUSH2 0x8B SWAP2 SWAP1 PUSH2 0x3CF JUMP JUMPDEST PUSH2 0x169 JUMP JUMPDEST PUSH1 0x40 MLOAD PUSH2 0x9D SWAP2 SWAP1 PUSH2 0x409 JUMP JUMPDEST PUSH1 0x40 MLOAD DUP1 SWAP2 SUB SWAP1 RETURN JUMPDEST CALLVALUE DUP1 ISZERO PUSH2 0xB1 JUMPI PUSH0 PUSH0 REVERT JUMPDEST POP PUSH2 0xCC PUSH1 0x4 DUP1 CALLDATASIZE SUB DUP2 ADD SWAP1 PUSH2 0xC7 SWAP2 SWAP1 PUSH2 0x3CF JUMP JUMPDEST PUSH2 0x1DE JUMP JUMPDEST PUSH1 0x40 MLOAD PUSH2 0xDA SWAP3 SWAP2 SWAP1 PUSH2 0x422 JUMP JUMPDEST PUSH1 0x40 MLOAD DUP1 SWAP2 SUB SWAP1 RETURN JUMPDEST PUSH2 0xFD PUSH1 0x4 DUP1 CALLDATASIZE SUB DUP2 ADD SWAP1 PUSH2 0xF8 SWAP2 SWAP1 PUSH2 0x449 JUMP JUMPDEST PUSH2 0x259 JUMP JUMPDEST STOP JUMPDEST DUP2 PUSH20 0xFFFFFFFFFFFFFFFFFFFFFFFFFFFFFFFFFFFFFFFF AND PUSH4 0xC4D8F17E DUP3 PUSH1 0x40 MLOAD DUP3 PUSH4 0xFFFFFFFF AND PUSH1 0xE0 SHL DUP2 MSTORE PUSH1 0x4 ADD PUSH2 0x138 SWAP2 SWAP1 PUSH2 0x409 JUMP JUMPDEST PUSH0 PUSH1 0x40 MLOAD DUP1 DUP4 SUB DUP2 PUSH0 DUP8 DUP1 EXTCODESIZE ISZERO DUP1 ISZERO PUSH2 0x14F JUMPI PUSH0 PUSH0 REVERT JUMPDEST POP GAS CALL ISZERO DUP1 ISZERO PUSH2 0x161 JUMPI RETURNDATASIZE PUSH0 PUSH0 RETURNDATACOPY RETURNDATASIZE PUSH0 REVERT JUMPDEST POP POP POP POP POP POP JUMP JUMPDEST PUSH0 DUP2 PUSH20 0xFFFFFFFFFFFFFFFFFFFFFFFFFFFFFFFFFFFFFFFF AND PUSH4 0xE276C799 PUSH1 0x40 MLOAD DUP2 PUSH4 0xFFFFFFFF AND PUSH1 0xE0 SHL DUP2 MSTORE PUSH1 0x4 ADD PUSH1 0x20 PUSH1 0x40 MLOAD DUP1 DUP4 SUB DUP2 DUP7 GAS STATICCALL ISZERO DUP1 ISZERO PUSH2 0x1B3 JUMPI RETURNDATASIZE PUSH0 PUSH0 RETURNDATACOPY RETURNDATASIZE PUSH0 REVERT JUMPDEST POP POP POP POP PUSH1 0x40 MLOAD RETURNDATASIZE PUSH1 0x1F NOT PUSH1 0x1F DUP3 ADD AND DUP3 ADD DUP1 PUSH1 0x40 MSTORE POP DUP2 ADD SWAP1 PUSH2 0x1D7 SWAP2 SWAP1 PUSH2 0x49B JUMP JUMPDEST SWAP1 POP SWAP2 SWAP1 POP JUMP JUMPDEST PUSH0 PUSH0 DUP3 PUSH20 0xFFFFFFFFFFFFFFFFFFFFFFFFFFFFFFFFFFFFFFFF AND PUSH4 0xC719BB9A PUSH1 0x40 MLOAD DUP2 PUSH4 0xFFFFFFFF AND PUSH1 0xE0 SHL DUP2 MSTORE PUSH1 0x4 ADD PUSH1 0x40 DUP1 MLOAD DUP1 DUP4 SUB DUP2 DUP7 GAS STATICCALL ISZERO DUP1 ISZERO PUSH2 0x228 JUMPI RETURNDATASIZE PUSH0 PUSH0 RETURNDATACOPY RETURNDATASIZE PUSH0 REVERT JUMPDEST POP POP POP POP PUSH1 0x40 MLOAD RETURNDATASIZE PUSH1 0x1F NOT PUSH1 0x1F DUP3 ADD AND DUP3 ADD DUP1 PUSH1 0x40 MSTORE POP DUP2 ADD SWAP1 PUSH2 0x24C SWAP2 SWAP1 PUSH2 0x4C6 JUMP JUMPDEST DUP1 SWAP3 POP DUP2 SWAP4 POP POP POP SWAP2 POP SWAP2 JUMP JUMPDEST DUP2 PUSH20 0xFFFFFFFFFFFFFFFFFFFFFFFFFFFFFFFFFFFFFFFF AND PUSH4 0x19E31E7D CALLVALUE DUP4 PUSH1 0x40 MLOAD DUP4 PUSH4 0xFFFFFFFF AND PUSH1 0xE0 SHL DUP2 MSTORE PUSH1 0x4 ADD PUSH2 0x293 SWAP2 SWAP1 PUSH2 0x409 JUMP JUMPDEST PUSH0 PUSH1 0x40 MLOAD DUP1 DUP4 SUB DUP2 DUP6 DUP9 DUP1 EXTCODESIZE ISZERO DUP1 ISZERO PUSH2 0x2AA JUMPI PUSH0 PUSH0 REVERT JUMPDEST POP GAS CALL ISZERO DUP1 ISZERO PUSH2 0x2BC JUMPI RETURNDATASIZE PUSH0 PUSH0 RETURNDATACOPY RETURNDATASIZE PUSH0 REVERT JUMPDEST POP POP POP POP POP POP POP JUMP JUMPDEST PUSH0 PUSH0 REVERT JUMPDEST PUSH0 PUSH20 0xFFFFFFFFFFFFFFFFFFFFFFFFFFFFFFFFFFFFFFFF DUP3 AND SWAP1 POP SWAP2 SWAP1 POP JUMP JUMPDEST PUSH0 PUSH2 0x2F2 DUP3 PUSH2 0x2C9 JUMP JUMPDEST SWAP1 POP SWAP2 SWAP1 POP JUMP JUMPDEST PUSH0 PUSH2 0x303 DUP3 PUSH2 0x2E8 JUMP JUMPDEST SWAP1 POP SWAP2 SWAP1 POP JUMP JUMPDEST PUSH2 0x313 DUP2 PUSH2 0x2F9 JUMP JUMPDEST DUP2 EQ PUSH2 0x31D JUMPI PUSH0 PUSH0 REVERT JUMPDEST POP JUMP JUMPDEST PUSH0 DUP2 CALLDATALOAD SWAP1 POP PUSH2 0x32E DUP2 PUSH2 0x30A JUMP JUMPDEST SWAP3 SWAP2 POP POP JUMP JUMPDEST PUSH0 DUP2 SWAP1 POP SWAP2 SWAP1 POP JUMP JUMPDEST PUSH2 0x346 DUP2 PUSH2 0x334 JUMP JUMPDEST DUP2 EQ PUSH2 0x350 JUMPI PUSH0 PUSH0 REVERT JUMPDEST POP JUMP JUMPDEST PUSH0 DUP2 CALLDATALOAD SWAP1 POP PUSH2 0x361 DUP2 PUSH2 0x33D JUMP JUMPDEST SWAP3 SWAP2 POP POP JUMP JUMPDEST PUSH0 PUSH0 PUSH1 0x40 DUP4 DUP6 SUB SLT ISZERO PUSH2 0x37D JUMPI PUSH2 0x37C PUSH2 0x2C5 JUMP JUMPDEST JUMPDEST PUSH0 PUSH2 0x38A DUP6 DUP3 DUP7 ADD PUSH2 0x320 JUMP JUMPDEST SWAP3 POP POP PUSH1 0x20 PUSH2 0x39B DUP6 DUP3 DUP7 ADD PUSH2 0x353 JUMP JUMPDEST SWAP2 POP POP SWAP3 POP SWAP3 SWAP1 POP JUMP JUMPDEST PUSH2 0x3AE DUP2 PUSH2 0x2E8 JUMP JUMPDEST DUP2 EQ PUSH2 0x3B8 JUMPI PUSH0 PUSH0 REVERT JUMPDEST POP JUMP JUMPDEST PUSH0 DUP2 CALLDATALOAD SWAP1 POP PUSH2 0x3C9 DUP2 PUSH2 0x3A5 JUMP JUMPDEST SWAP3 SWAP2 POP POP JUMP JUMPDEST PUSH0 PUSH1 0x20 DUP3 DUP5 SUB SLT ISZERO PUSH2 0x3E4 JUMPI PUSH2 0x3E3 PUSH2 0x2C5 JUMP JUMPDEST JUMPDEST PUSH0 PUSH2 0x3F1 DUP5 DUP3 DUP6 ADD PUSH2 0x3BB JUMP JUMPDEST SWAP2 POP POP SWAP3 SWAP2 POP POP JUMP JUMPDEST PUSH2 0x403 DUP2 PUSH2 0x334 JUMP JUMPDEST DUP3 MSTORE POP POP JUMP JUMPDEST PUSH0 PUSH1 0x20 DUP3 ADD SWAP1 POP PUSH2 0x41C PUSH0 DUP4 ADD DUP5 PUSH2 0x3FA JUMP JUMPDEST SWAP3 SWAP2 POP POP JUMP JUMPDEST PUSH0 PUSH1 0x40 DUP3 ADD SWAP1 POP PUSH2 0x435 PUSH0 DUP4 ADD DUP6 PUSH2 0x3FA JUMP JUMPDEST PUSH2 0x442 PUSH1 0x20 DUP4 ADD DUP5 PUSH2 0x3FA JUMP JUMPDEST SWAP4 SWAP3 POP POP POP JUMP JUMPDEST PUSH0 PUSH0 PUSH1 0x40 DUP4 DUP6 SUB SLT ISZERO PUSH2 0x45F JUMPI PUSH2 0x45E PUSH2 0x2C5 JUMP JUMPDEST JUMPDEST PUSH0 PUSH2 0x46C DUP6 DUP3 DUP7 ADD PUSH2 0x3BB JUMP JUMPDEST SWAP3 POP POP PUSH1 0x20 PUSH2 0x47D DUP6 DUP3 DUP7 ADD PUSH2 0x353 JUMP JUMPDEST SWAP2 POP POP SWAP3 POP SWAP3 SWAP1 POP JUMP JUMPDEST PUSH0 DUP2 MLOAD SWAP1 POP PUSH2 0x495 DUP2 PUSH2 0x33D JUMP JUMPDEST SWAP3 SWAP2 POP POP JUMP JUMPDEST PUSH0 PUSH1 0x20 DUP3 DUP5 SUB SLT ISZERO PUSH2 0x4B0 JUMPI PUSH2 0x4AF PUSH2 0x2C5 JUMP JUMPDEST JUMPDEST PUSH0 PUSH2 0x4BD DUP5 DUP3 DUP6 ADD PUSH2 0x487 JUMP JUMPDEST SWAP2 POP POP SWAP3 SWAP2 POP POP JUMP JUMPDEST PUSH0 PUSH0 PUSH1 0x40 DUP4 DUP6 SUB SLT ISZERO PUSH2 0x4DC JUMPI PUSH2 0x4DB PUSH2 0x2C5 JUMP JUMPDEST JUMPDEST PUSH0 PUSH2 0x4E9 DUP6 DUP3 DUP7 ADD PUSH2 0x487 JUMP JUMPDEST SWAP3 POP POP PUSH1 0x20 PUSH2 0x4FA DUP6 DUP3 DUP7 ADD PUSH2 0x487 JUMP JUMPDEST SWAP2 POP POP SWAP3 POP SWAP3 SWAP1 POP JUMP INVALID LOG2 PUSH5 0x6970667358 0x22 SLT KECCAK256 PUSH11 0x57A48D33884A18C99DB901 0xF CALLVALUE 0x4D SELFBALANCE 0xF 0xF6 PUSH27 0xF8F8980E0613C6E5DE97A1EBCC64736F6C634300081F0033000000 "
				},
				"gasEstimates": {
					"creation": {
						"codeDepositCost": "267600",
						"executionCost": "304",
						"totalCost": "267904"
					},
					"external": {
						"getx(address)": "infinite",
						"getxandvalue(address)": "infinite",
						"payWithEther(address,uint256)": "infinite",
						"setx(address,uint256)": "infinite"
					}
				},
				"methodIdentifiers": {
					"getx(address)": "676977e3",
					"getxandvalue(address)": "8ac771a3",
					"payWithEther(address,uint256)": "e85a793e",
					"setx(address,uint256)": "33f71a92"
				}
			},
			"storageLayout": {
				"storage": [],
				"types": null
			},
			"userdoc": {
				"kind": "user",
				"methods": {},
				"version": 1
			}
		}
	}
}