{"abi":[{"type":"constructor","inputs":[],"stateMutability":"nonpayable"},{"type":"function","name":"MAX_TWEET_LENGTH","inputs":[],"outputs":[{"name":"","type":"uint16","internalType":"uint16"}],"stateMutability":"view"},{"type":"function","name":"changeTweetLength","inputs":[{"name":"newTweetLength","type":"uint16","internalType":"uint16"}],"outputs":[],"stateMutability":"nonpayable"},{"type":"function","name":"createTweets","inputs":[{"name":"_tweet","type":"string","internalType":"string"}],"outputs":[],"stateMutability":"nonpayable"},{"type":"function","name":"dislikeTweet","inputs":[{"name":"author","type":"address","internalType":"address"},{"name":"id","type":"uint256","internalType":"uint256"}],"outputs":[],"stateMutability":"nonpayable"},{"type":"function","name":"getAllTweets","inputs":[{"name":"_addr","type":"address","internalType":"address"}],"outputs":[{"name":"","type":"tuple[]","internalType":"struct twitter.Tweet[]","components":[{"name":"id","type":"uint256","internalType":"uint256"},{"name":"author","type":"address","internalType":"address"},{"name":"content","type":"string","internalType":"string"},{"name":"timestamp","type":"uint256","internalType":"uint256"},{"name":"likes","type":"uint256","internalType":"uint256"},{"name":"dislike","type":"uint256","internalType":"uint256"}]}],"stateMutability":"view"},{"type":"function","name":"getTweet","inputs":[{"name":"_i","type":"uint256","internalType":"uint256"}],"outputs":[{"name":"","type":"tuple","internalType":"struct twitter.Tweet","components":[{"name":"id","type":"uint256","internalType":"uint256"},{"name":"author","type":"address","internalType":"address"},{"name":"content","type":"string","internalType":"string"},{"name":"timestamp","type":"uint256","internalType":"uint256"},{"name":"likes","type":"uint256","internalType":"uint256"},{"name":"dislike","type":"uint256","internalType":"uint256"}]}],"stateMutability":"view"},{"type":"function","name":"likeTweet","inputs":[{"name":"author","type":"address","internalType":"address"},{"name":"id","type":"uint256","internalType":"uint256"}],"outputs":[],"stateMutability":"nonpayable"},{"type":"function","name":"owner","inputs":[],"outputs":[{"name":"","type":"address","internalType":"address"}],"stateMutability":"view"},{"type":"function","name":"tweets","inputs":[{"name":"","type":"address","internalType":"address"},{"name":"","type":"uint256","internalType":"uint256"}],"outputs":[{"name":"id","type":"uint256","internalType":"uint256"},{"name":"author","type":"address","internalType":"address"},{"name":"content","type":"string","internalType":"string"},{"name":"timestamp","type":"uint256","internalType":"uint256"},{"name":"likes","type":"uint256","internalType":"uint256"},{"name":"dislike","type":"uint256","internalType":"uint256"}],"stateMutability":"view"},{"type":"event","name":"TweetCreated","inputs":[{"name":"","type":"uint256","indexed":false,"internalType":"uint256"},{"name":"author","type":"address","indexed":false,"internalType":"address"},{"name":"content","type":"string","indexed":false,"internalType":"string"},{"name":"timestamp","type":"uint256","indexed":false,"internalType":"uint256"}],"anonymous":false},{"type":"event","name":"Tweetdisliked","inputs":[{"name":"disliker","type":"address","indexed":false,"internalType":"address"},{"name":"tweetAuthor","type":"address","indexed":false,"internalType":"address"},{"name":"tweetId","type":"uint256","indexed":false,"internalType":"uint256"},{"name":"newDislikeCount","type":"uint256","indexed":false,"internalType":"uint256"}],"anonymous":false},{"type":"event","name":"Tweetliked","inputs":[{"name":"liker","type":"address","indexed":false,"internalType":"address"},{"name":"tweetAuthor","type":"address","indexed":false,"internalType":"address"},{"name":"tweetId","type":"uint256","indexed":false,"internalType":"uint256"},{"name":"newLikeCount","type":"uint256","indexed":false,"internalType":"uint256"}],"anonymous":false}],"bytecode":{"object":"0x60806040526101185f5f6101000a81548161ffff021916908361ffff160217905550348015602b575f5ffd5b503360025f6101000a81548173ffffffffffffffffffffffffffffffffffffffff021916908373ffffffffffffffffffffffffffffffffffffffff160217905550611a0b806100795f395ff3fe608060405234801561000f575f5ffd5b5060043610610091575f3560e01c8063633782161161006457806363378216146101325780636eb107971461014e5780638da5cb5b1461016c578063ae775e951461018a578063c3ad5ecb146101a657610091565b806305a1b4a9146100955780630a7aa8a1146100ca57806312e7ee1c146100e657806358bfa4ab14610116575b5f5ffd5b6100af60048036038101906100aa9190610dd2565b6101d6565b6040516100c196959493929190610e9e565b60405180910390f35b6100e460048036038101906100df9190611030565b6102cd565b005b61010060048036038101906100fb9190611077565b6104e1565b60405161010d9190611249565b60405180910390f35b610130600480360381019061012b91906112a0565b610686565b005b61014c60048036038101906101479190610dd2565b610733565b005b6101566108e4565b60405161016391906112da565b60405180910390f35b6101746108f6565b60405161018191906112f3565b60405180910390f35b6101a4600480360381019061019f9190610dd2565b61091b565b005b6101c060048036038101906101bb919061130c565b610b6c565b6040516101cd91906113bd565b60405180910390f35b6001602052815f5260405f2081815481106101ef575f80fd5b905f5260205f2090600602015f9150915050805f015490806001015f9054906101000a900473ffffffffffffffffffffffffffffffffffffffff169080600201805461023a9061140a565b80601f01602080910402602001604051908101604052809291908181526020018280546102669061140a565b80156102b15780601f10610288576101008083540402835291602001916102b1565b820191905f5260205f20905b81548152906001019060200180831161029457829003601f168201915b5050505050908060030154908060040154908060050154905086565b5f5f9054906101000a900461ffff1661ffff1681511115610323576040517f08c379a000000000000000000000000000000000000000000000000000000000815260040161031a906114aa565b60405180910390fd5b5f6040518060c0016040528060015f3373ffffffffffffffffffffffffffffffffffffffff1673ffffffffffffffffffffffffffffffffffffffff1681526020019081526020015f208054905081526020013373ffffffffffffffffffffffffffffffffffffffff1681526020018381526020014281526020015f81526020015f815250905060015f3373ffffffffffffffffffffffffffffffffffffffff1673ffffffffffffffffffffffffffffffffffffffff1681526020019081526020015f2081908060018154018082558091505060019003905f5260205f2090600602015f909190919091505f820151815f01556020820151816001015f6101000a81548173ffffffffffffffffffffffffffffffffffffffff021916908373ffffffffffffffffffffffffffffffffffffffff16021790555060408201518160020190816104709190611679565b50606082015181600301556080820151816004015560a0820151816005015550507f16fd3c13e9d46923e0a8bce11c7b473ec508a72e6c96cd2404b29ce972afc29e815f01518260200151836040015184606001516040516104d59493929190611748565b60405180910390a15050565b606060015f8373ffffffffffffffffffffffffffffffffffffffff1673ffffffffffffffffffffffffffffffffffffffff1681526020019081526020015f20805480602002602001604051908101604052809291908181526020015f905b8282101561067b578382905f5260205f2090600602016040518060c00160405290815f8201548152602001600182015f9054906101000a900473ffffffffffffffffffffffffffffffffffffffff1673ffffffffffffffffffffffffffffffffffffffff1673ffffffffffffffffffffffffffffffffffffffff1681526020016002820180546105ce9061140a565b80601f01602080910402602001604051908101604052809291908181526020018280546105fa9061140a565b80156106455780601f1061061c57610100808354040283529160200191610645565b820191905f5260205f20905b81548152906001019060200180831161062857829003601f168201915b5050505050815260200160038201548152602001600482015481526020016005820154815250508152602001906001019061053f565b505050509050919050565b60025f9054906101000a900473ffffffffffffffffffffffffffffffffffffffff1673ffffffffffffffffffffffffffffffffffffffff163373ffffffffffffffffffffffffffffffffffffffff1614610715576040517f08c379a000000000000000000000000000000000000000000000000000000000815260040161070c906117dc565b60405180910390fd5b805f5f6101000a81548161ffff021916908361ffff16021790555050565b8060015f8473ffffffffffffffffffffffffffffffffffffffff1673ffffffffffffffffffffffffffffffffffffffff1681526020019081526020015f208281548110610783576107826117fa565b5b905f5260205f2090600602015f0154146107d2576040517f08c379a00000000000000000000000000000000000000000000000000000000081526004016107c990611871565b60405180910390fd5b60015f8373ffffffffffffffffffffffffffffffffffffffff1673ffffffffffffffffffffffffffffffffffffffff1681526020019081526020015f208181548110610821576108206117fa565b5b905f5260205f2090600602016004015f815480929190610840906118bc565b91905055507f1cd5b59dbf5660479d962647ec62431b211ee84953939993e37d9f64980f49ca33838360015f8773ffffffffffffffffffffffffffffffffffffffff1673ffffffffffffffffffffffffffffffffffffffff1681526020019081526020015f2085815481106108b8576108b76117fa565b5b905f5260205f209060060201600401546040516108d89493929190611903565b60405180910390a15050565b5f5f9054906101000a900461ffff1681565b60025f9054906101000a900473ffffffffffffffffffffffffffffffffffffffff1681565b8060015f8473ffffffffffffffffffffffffffffffffffffffff1673ffffffffffffffffffffffffffffffffffffffff1681526020019081526020015f20828154811061096b5761096a6117fa565b5b905f5260205f2090600602015f0154146109ba576040517f08c379a00000000000000000000000000000000000000000000000000000000081526004016109b190611871565b60405180910390fd5b5f60015f8473ffffffffffffffffffffffffffffffffffffffff1673ffffffffffffffffffffffffffffffffffffffff1681526020019081526020015f208281548110610a0a57610a096117fa565b5b905f5260205f2090600602016004015411610a5a576040517f08c379a0000000000000000000000000000000000000000000000000000000008152600401610a5190611990565b60405180910390fd5b60015f8373ffffffffffffffffffffffffffffffffffffffff1673ffffffffffffffffffffffffffffffffffffffff1681526020019081526020015f208181548110610aa957610aa86117fa565b5b905f5260205f2090600602016004015f815480929190610ac8906119ae565b91905055507f873d33125d2bc6e845efc60e9e1e71448a203a4f76ccd42141db1ed6112c95dc33838360015f8773ffffffffffffffffffffffffffffffffffffffff1673ffffffffffffffffffffffffffffffffffffffff1681526020019081526020015f208581548110610b4057610b3f6117fa565b5b905f5260205f20906006020160050154604051610b609493929190611903565b60405180910390a15050565b610b74610ced565b60015f3373ffffffffffffffffffffffffffffffffffffffff1673ffffffffffffffffffffffffffffffffffffffff1681526020019081526020015f208281548110610bc357610bc26117fa565b5b905f5260205f2090600602016040518060c00160405290815f8201548152602001600182015f9054906101000a900473ffffffffffffffffffffffffffffffffffffffff1673ffffffffffffffffffffffffffffffffffffffff1673ffffffffffffffffffffffffffffffffffffffff168152602001600282018054610c489061140a565b80601f0160208091040260200160405190810160405280929190818152602001828054610c749061140a565b8015610cbf5780601f10610c9657610100808354040283529160200191610cbf565b820191905f5260205f20905b815481529060010190602001808311610ca257829003601f168201915b5050505050815260200160038201548152602001600482015481526020016005820154815250509050919050565b6040518060c001604052805f81526020015f73ffffffffffffffffffffffffffffffffffffffff168152602001606081526020015f81526020015f81526020015f81525090565b5f604051905090565b5f5ffd5b5f5ffd5b5f73ffffffffffffffffffffffffffffffffffffffff82169050919050565b5f610d6e82610d45565b9050919050565b610d7e81610d64565b8114610d88575f5ffd5b50565b5f81359050610d9981610d75565b92915050565b5f819050919050565b610db181610d9f565b8114610dbb575f5ffd5b50565b5f81359050610dcc81610da8565b92915050565b5f5f60408385031215610de857610de7610d3d565b5b5f610df585828601610d8b565b9250506020610e0685828601610dbe565b9150509250929050565b610e1981610d9f565b82525050565b610e2881610d64565b82525050565b5f81519050919050565b5f82825260208201905092915050565b8281835e5f83830152505050565b5f601f19601f8301169050919050565b5f610e7082610e2e565b610e7a8185610e38565b9350610e8a818560208601610e48565b610e9381610e56565b840191505092915050565b5f60c082019050610eb15f830189610e10565b610ebe6020830188610e1f565b8181036040830152610ed08187610e66565b9050610edf6060830186610e10565b610eec6080830185610e10565b610ef960a0830184610e10565b979650505050505050565b5f5ffd5b5f5ffd5b7f4e487b71000000000000000000000000000000000000000000000000000000005f52604160045260245ffd5b610f4282610e56565b810181811067ffffffffffffffff82111715610f6157610f60610f0c565b5b80604052505050565b5f610f73610d34565b9050610f7f8282610f39565b919050565b5f67ffffffffffffffff821115610f9e57610f9d610f0c565b5b610fa782610e56565b9050602081019050919050565b828183375f83830152505050565b5f610fd4610fcf84610f84565b610f6a565b905082815260208101848484011115610ff057610fef610f08565b5b610ffb848285610fb4565b509392505050565b5f82601f83011261101757611016610f04565b5b8135611027848260208601610fc2565b91505092915050565b5f6020828403121561104557611044610d3d565b5b5f82013567ffffffffffffffff81111561106257611061610d41565b5b61106e84828501611003565b91505092915050565b5f6020828403121561108c5761108b610d3d565b5b5f61109984828501610d8b565b91505092915050565b5f81519050919050565b5f82825260208201905092915050565b5f819050602082019050919050565b6110d481610d9f565b82525050565b6110e381610d64565b82525050565b5f82825260208201905092915050565b5f61110382610e2e565b61110d81856110e9565b935061111d818560208601610e48565b61112681610e56565b840191505092915050565b5f60c083015f8301516111465f8601826110cb565b50602083015161115960208601826110da565b506040830151848203604086015261117182826110f9565b915050606083015161118660608601826110cb565b50608083015161119960808601826110cb565b5060a08301516111ac60a08601826110cb565b508091505092915050565b5f6111c28383611131565b905092915050565b5f602082019050919050565b5f6111e0826110a2565b6111ea81856110ac565b9350836020820285016111fc856110bc565b805f5b85811015611237578484038952815161121885826111b7565b9450611223836111ca565b925060208a019950506001810190506111ff565b50829750879550505050505092915050565b5f6020820190508181035f83015261126181846111d6565b905092915050565b5f61ffff82169050919050565b61127f81611269565b8114611289575f5ffd5b50565b5f8135905061129a81611276565b92915050565b5f602082840312156112b5576112b4610d3d565b5b5f6112c28482850161128c565b91505092915050565b6112d481611269565b82525050565b5f6020820190506112ed5f8301846112cb565b92915050565b5f6020820190506113065f830184610e1f565b92915050565b5f6020828403121561132157611320610d3d565b5b5f61132e84828501610dbe565b91505092915050565b5f60c083015f83015161134c5f8601826110cb565b50602083015161135f60208601826110da565b506040830151848203604086015261137782826110f9565b915050606083015161138c60608601826110cb565b50608083015161139f60808601826110cb565b5060a08301516113b260a08601826110cb565b508091505092915050565b5f6020820190508181035f8301526113d58184611337565b905092915050565b7f4e487b71000000000000000000000000000000000000000000000000000000005f52602260045260245ffd5b5f600282049050600182168061142157607f821691505b602082108103611434576114336113dd565b5b50919050565b7f747765657420736520746f6f206c6f6e6720626c6f636b636861696e206d65205f8201527f7061697361206c67746120686169210000000000000000000000000000000000602082015250565b5f611494602f83610e38565b915061149f8261143a565b604082019050919050565b5f6020820190508181035f8301526114c181611488565b9050919050565b5f819050815f5260205f209050919050565b5f6020601f8301049050919050565b5f82821b905092915050565b5f600883026115247fffffffffffffffffffffffffffffffffffffffffffffffffffffffffffffffff826114e9565b61152e86836114e9565b95508019841693508086168417925050509392505050565b5f819050919050565b5f61156961156461155f84610d9f565b611546565b610d9f565b9050919050565b5f819050919050565b6115828361154f565b61159661158e82611570565b8484546114f5565b825550505050565b5f5f905090565b6115ad61159e565b6115b8818484611579565b505050565b5f5b828110156115de576115d35f8284016115a5565b6001810190506115bf565b505050565b601f8211156116315782821115611630576115fd816114c8565b611606836114da565b61160f856114da565b602086101561161c575f90505b80830161162b828403826115bd565b505050505b5b505050565b5f82821c905092915050565b5f6116515f1984600802611636565b1980831691505092915050565b5f6116698383611642565b9150826002028217905092915050565b61168282610e2e565b67ffffffffffffffff81111561169b5761169a610f0c565b5b6116a5825461140a565b6116b08282856115e3565b5f60209050601f8311600181146116e1575f84156116cf578287015190505b6116d9858261165e565b865550611740565b601f1984166116ef866114c8565b5f5b82811015611716578489015182556001820191506020850194506020810190506116f1565b86831015611733578489015161172f601f891682611642565b8355505b6001600288020188555050505b505050505050565b5f60808201905061175b5f830187610e10565b6117686020830186610e1f565b818103604083015261177a8185610e66565b90506117896060830184610e10565b95945050505050565b7f594f5520415245204e4f5420544845204f574e455200000000000000000000005f82015250565b5f6117c6601583610e38565b91506117d182611792565b602082019050919050565b5f6020820190508181035f8301526117f3816117ba565b9050919050565b7f4e487b71000000000000000000000000000000000000000000000000000000005f52603260045260245ffd5b7f547765657420646f6573206e6f742065786973740000000000000000000000005f82015250565b5f61185b601483610e38565b915061186682611827565b602082019050919050565b5f6020820190508181035f8301526118888161184f565b9050919050565b7f4e487b71000000000000000000000000000000000000000000000000000000005f52601160045260245ffd5b5f6118c682610d9f565b91507fffffffffffffffffffffffffffffffffffffffffffffffffffffffffffffffff82036118f8576118f761188f565b5b600182019050919050565b5f6080820190506119165f830187610e1f565b6119236020830186610e1f565b6119306040830185610e10565b61193d6060830184610e10565b95945050505050565b7f547765657420686173206e6f206c696b657300000000000000000000000000005f82015250565b5f61197a601283610e38565b915061198582611946565b602082019050919050565b5f6020820190508181035f8301526119a78161196e565b9050919050565b5f6119b882610d9f565b91505f82036119ca576119c961188f565b5b60018203905091905056fea2646970667358221220d1001fd82555698f40eba75b16e5f7e5744d35af3ce873fb6e108e54a6baf3e764736f6c63430008210033","linkReferences":{}},"methodIdentifiers":{"MAX_TWEET_LENGTH()":"6eb10797","changeTweetLength(uint16)":"58bfa4ab","createTweets(string)":"0a7aa8a1","dislikeTweet(address,uint256)":"ae775e95","getAllTweets(address)":"12e7ee1c","getTweet(uint256)":"c3ad5ecb","likeTweet(address,uint256)":"63378216","owner()":"8da5cb5b","tweets(address,uint256)":"05a1b4a9"},"id":0}