{"abi":[{"type":"function","name":"createTweets","inputs":[{"name":"_tweet","type":"string","internalType":"string"}],"outputs":[],"stateMutability":"nonpayable"},{"type":"function","name":"getAllTweets","inputs":[{"name":"_addr","type":"address","internalType":"address"}],"outputs":[{"name":"","type":"tuple[]","internalType":"struct twitter.Tweet[]","components":[{"name":"author","type":"address","internalType":"address"},{"name":"content","type":"string","internalType":"string"},{"name":"timestamp","type":"uint256","internalType":"uint256"},{"name":"likes","type":"uint256","internalType":"uint256"},{"name":"dislike","type":"uint256","internalType":"uint256"}]}],"stateMutability":"view"},{"type":"function","name":"getTweet","inputs":[{"name":"_i","type":"uint256","internalType":"uint256"}],"outputs":[{"name":"","type":"tuple","internalType":"struct twitter.Tweet","components":[{"name":"author","type":"address","internalType":"address"},{"name":"content","type":"string","internalType":"string"},{"name":"timestamp","type":"uint256","internalType":"uint256"},{"name":"likes","type":"uint256","internalType":"uint256"},{"name":"dislike","type":"uint256","internalType":"uint256"}]}],"stateMutability":"view"},{"type":"function","name":"tweets","inputs":[{"name":"","type":"address","internalType":"address"},{"name":"","type":"uint256","internalType":"uint256"}],"outputs":[{"name":"author","type":"address","internalType":"address"},{"name":"content","type":"string","internalType":"string"},{"name":"timestamp","type":"uint256","internalType":"uint256"},{"name":"likes","type":"uint256","internalType":"uint256"},{"name":"dislike","type":"uint256","internalType":"uint256"}],"stateMutability":"view"}],"bytecode":{"object":"0x6080604052348015600e575f5ffd5b5061104a8061001c5f395ff3fe608060405234801561000f575f5ffd5b506004361061004a575f3560e01c806305a1b4a91461004e5780630a7aa8a11461008257806312e7ee1c1461009e578063c3ad5ecb146100ce575b5f5ffd5b61006860048036038101906100639190610748565b6100fe565b604051610079959493929190610814565b60405180910390f35b61009c60048036038101906100979190610998565b6101ee565b005b6100b860048036038101906100b391906109df565b610359565b6040516100c59190610b9e565b60405180910390f35b6100e860048036038101906100e39190610bbe565b6104f3565b6040516100f59190610c5c565b60405180910390f35b5f602052815f5260405f208181548110610116575f80fd5b905f5260205f2090600502015f9150915050805f015f9054906101000a900473ffffffffffffffffffffffffffffffffffffffff169080600101805461015b90610ca9565b80601f016020809104026020016040519081016040528092919081815260200182805461018790610ca9565b80156101d25780601f106101a9576101008083540402835291602001916101d2565b820191905f5260205f20905b8154815290600101906020018083116101b557829003601f168201915b5050505050908060020154908060030154908060040154905085565b61011861ffff1681511115610238576040517f08c379a000000000000000000000000000000000000000000000000000000000815260040161022f90610d49565b60405180910390fd5b5f6040518060a001604052803373ffffffffffffffffffffffffffffffffffffffff1681526020018381526020014281526020015f81526020015f81525090505f5f3373ffffffffffffffffffffffffffffffffffffffff1673ffffffffffffffffffffffffffffffffffffffff1681526020019081526020015f2081908060018154018082558091505060019003905f5260205f2090600502015f909190919091505f820151815f015f6101000a81548173ffffffffffffffffffffffffffffffffffffffff021916908373ffffffffffffffffffffffffffffffffffffffff16021790555060208201518160010190816103349190610f18565b5060408201518160020155606082015181600301556080820151816004015550505050565b60605f5f8373ffffffffffffffffffffffffffffffffffffffff1673ffffffffffffffffffffffffffffffffffffffff1681526020019081526020015f20805480602002602001604051908101604052809291908181526020015f905b828210156104e8578382905f5260205f2090600502016040518060a00160405290815f82015f9054906101000a900473ffffffffffffffffffffffffffffffffffffffff1673ffffffffffffffffffffffffffffffffffffffff1673ffffffffffffffffffffffffffffffffffffffff16815260200160018201805461043b90610ca9565b80601f016020809104026020016040519081016040528092919081815260200182805461046790610ca9565b80156104b25780601f10610489576101008083540402835291602001916104b2565b820191905f5260205f20905b81548152906001019060200180831161049557829003601f168201915b505050505081526020016002820154815260200160038201548152602001600482015481525050815260200190600101906103b6565b505050509050919050565b6104fb610669565b5f5f3373ffffffffffffffffffffffffffffffffffffffff1673ffffffffffffffffffffffffffffffffffffffff1681526020019081526020015f20828154811061054957610548610fe7565b5b905f5260205f2090600502016040518060a00160405290815f82015f9054906101000a900473ffffffffffffffffffffffffffffffffffffffff1673ffffffffffffffffffffffffffffffffffffffff1673ffffffffffffffffffffffffffffffffffffffff1681526020016001820180546105c490610ca9565b80601f01602080910402602001604051908101604052809291908181526020018280546105f090610ca9565b801561063b5780601f106106125761010080835404028352916020019161063b565b820191905f5260205f20905b81548152906001019060200180831161061e57829003601f168201915b5050505050815260200160028201548152602001600382015481526020016004820154815250509050919050565b6040518060a001604052805f73ffffffffffffffffffffffffffffffffffffffff168152602001606081526020015f81526020015f81526020015f81525090565b5f604051905090565b5f5ffd5b5f5ffd5b5f73ffffffffffffffffffffffffffffffffffffffff82169050919050565b5f6106e4826106bb565b9050919050565b6106f4816106da565b81146106fe575f5ffd5b50565b5f8135905061070f816106eb565b92915050565b5f819050919050565b61072781610715565b8114610731575f5ffd5b50565b5f813590506107428161071e565b92915050565b5f5f6040838503121561075e5761075d6106b3565b5b5f61076b85828601610701565b925050602061077c85828601610734565b9150509250929050565b61078f816106da565b82525050565b5f81519050919050565b5f82825260208201905092915050565b8281835e5f83830152505050565b5f601f19601f8301169050919050565b5f6107d782610795565b6107e1818561079f565b93506107f18185602086016107af565b6107fa816107bd565b840191505092915050565b61080e81610715565b82525050565b5f60a0820190506108275f830188610786565b818103602083015261083981876107cd565b90506108486040830186610805565b6108556060830185610805565b6108626080830184610805565b9695505050505050565b5f5ffd5b5f5ffd5b7f4e487b71000000000000000000000000000000000000000000000000000000005f52604160045260245ffd5b6108aa826107bd565b810181811067ffffffffffffffff821117156108c9576108c8610874565b5b80604052505050565b5f6108db6106aa565b90506108e782826108a1565b919050565b5f67ffffffffffffffff82111561090657610905610874565b5b61090f826107bd565b9050602081019050919050565b828183375f83830152505050565b5f61093c610937846108ec565b6108d2565b90508281526020810184848401111561095857610957610870565b5b61096384828561091c565b509392505050565b5f82601f83011261097f5761097e61086c565b5b813561098f84826020860161092a565b91505092915050565b5f602082840312156109ad576109ac6106b3565b5b5f82013567ffffffffffffffff8111156109ca576109c96106b7565b5b6109d68482850161096b565b91505092915050565b5f602082840312156109f4576109f36106b3565b5b5f610a0184828501610701565b91505092915050565b5f81519050919050565b5f82825260208201905092915050565b5f819050602082019050919050565b610a3c816106da565b82525050565b5f82825260208201905092915050565b5f610a5c82610795565b610a668185610a42565b9350610a768185602086016107af565b610a7f816107bd565b840191505092915050565b610a9381610715565b82525050565b5f60a083015f830151610aae5f860182610a33565b5060208301518482036020860152610ac68282610a52565b9150506040830151610adb6040860182610a8a565b506060830151610aee6060860182610a8a565b506080830151610b016080860182610a8a565b508091505092915050565b5f610b178383610a99565b905092915050565b5f602082019050919050565b5f610b3582610a0a565b610b3f8185610a14565b935083602082028501610b5185610a24565b805f5b85811015610b8c5784840389528151610b6d8582610b0c565b9450610b7883610b1f565b925060208a01995050600181019050610b54565b50829750879550505050505092915050565b5f6020820190508181035f830152610bb68184610b2b565b905092915050565b5f60208284031215610bd357610bd26106b3565b5b5f610be084828501610734565b91505092915050565b5f60a083015f830151610bfe5f860182610a33565b5060208301518482036020860152610c168282610a52565b9150506040830151610c2b6040860182610a8a565b506060830151610c3e6060860182610a8a565b506080830151610c516080860182610a8a565b508091505092915050565b5f6020820190508181035f830152610c748184610be9565b905092915050565b7f4e487b71000000000000000000000000000000000000000000000000000000005f52602260045260245ffd5b5f6002820490506001821680610cc057607f821691505b602082108103610cd357610cd2610c7c565b5b50919050565b7f747765657420736520746f6f206c6f6e6720626c6f636b636861696e206d65205f8201527f7061697361206c67746120686169210000000000000000000000000000000000602082015250565b5f610d33602f8361079f565b9150610d3e82610cd9565b604082019050919050565b5f6020820190508181035f830152610d6081610d27565b9050919050565b5f819050815f5260205f209050919050565b5f6020601f8301049050919050565b5f82821b905092915050565b5f60088302610dc37fffffffffffffffffffffffffffffffffffffffffffffffffffffffffffffffff82610d88565b610dcd8683610d88565b95508019841693508086168417925050509392505050565b5f819050919050565b5f610e08610e03610dfe84610715565b610de5565b610715565b9050919050565b5f819050919050565b610e2183610dee565b610e35610e2d82610e0f565b848454610d94565b825550505050565b5f5f905090565b610e4c610e3d565b610e57818484610e18565b505050565b5f5b82811015610e7d57610e725f828401610e44565b600181019050610e5e565b505050565b601f821115610ed05782821115610ecf57610e9c81610d67565b610ea583610d79565b610eae85610d79565b6020861015610ebb575f90505b808301610eca82840382610e5c565b505050505b5b505050565b5f82821c905092915050565b5f610ef05f1984600802610ed5565b1980831691505092915050565b5f610f088383610ee1565b9150826002028217905092915050565b610f2182610795565b67ffffffffffffffff811115610f3a57610f39610874565b5b610f448254610ca9565b610f4f828285610e82565b5f60209050601f831160018114610f80575f8415610f6e578287015190505b610f788582610efd565b865550610fdf565b601f198416610f8e86610d67565b5f5b82811015610fb557848901518255600182019150602085019450602081019050610f90565b86831015610fd25784890151610fce601f891682610ee1565b8355505b6001600288020188555050505b505050505050565b7f4e487b71000000000000000000000000000000000000000000000000000000005f52603260045260245ffdfea26469706673582212208bf86756d33e8526228becf47fe28e59d1617a7be82b04fc75c8f01f93c2e57664736f6c63430008210033","linkReferences":{}},"methodIdentifiers":{"createTweets(string)":"0a7aa8a1","getAllTweets(address)":"12e7ee1c","getTweet(uint256)":"c3ad5ecb","tweets(address,uint256)":"05a1b4a9"},"id":0}