{"abi":[{"type":"constructor","inputs":[],"stateMutability":"nonpayable"},{"type":"function","name":"MAX_TWEET_LENGTH","inputs":[],"outputs":[{"name":"","type":"uint16","internalType":"uint16"}],"stateMutability":"view"},{"type":"function","name":"changeTweetLength","inputs":[{"name":"newTweetLength","type":"uint16","internalType":"uint16"}],"outputs":[],"stateMutability":"nonpayable"},{"type":"function","name":"createTweets","inputs":[{"name":"_tweet","type":"string","internalType":"string"}],"outputs":[],"stateMutability":"nonpayable"},{"type":"function","name":"dislikeTweet","inputs":[{"name":"author","type":"address","internalType":"address"},{"name":"id","type":"uint256","internalType":"uint256"}],"outputs":[],"stateMutability":"nonpayable"},{"type":"function","name":"getAllTweets","inputs":[{"name":"_addr","type":"address","internalType":"address"}],"outputs":[{"name":"","type":"tuple[]","internalType":"struct twitter.Tweet[]","components":[{"name":"id","type":"uint256","internalType":"uint256"},{"name":"author","type":"address","internalType":"address"},{"name":"content","type":"string","internalType":"string"},{"name":"timestamp","type":"uint256","internalType":"uint256"},{"name":"likes","type":"uint256","internalType":"uint256"},{"name":"dislike","type":"uint256","internalType":"uint256"}]}],"stateMutability":"view"},{"type":"function","name":"getTweet","inputs":[{"name":"_i","type":"uint256","internalType":"uint256"}],"outputs":[{"name":"","type":"tuple","internalType":"struct twitter.Tweet","components":[{"name":"id","type":"uint256","internalType":"uint256"},{"name":"author","type":"address","internalType":"address"},{"name":"content","type":"string","internalType":"string"},{"name":"timestamp","type":"uint256","internalType":"uint256"},{"name":"likes","type":"uint256","internalType":"uint256"},{"name":"dislike","type":"uint256","internalType":"uint256"}]}],"stateMutability":"view"},{"type":"function","name":"likeTweet","inputs":[{"name":"author","type":"address","internalType":"address"},{"name":"id","type":"uint256","internalType":"uint256"}],"outputs":[],"stateMutability":"nonpayable"},{"type":"function","name":"owner","inputs":[],"outputs":[{"name":"","type":"address","internalType":"address"}],"stateMutability":"view"},{"type":"function","name":"tweets","inputs":[{"name":"","type":"address","internalType":"address"},{"name":"","type":"uint256","internalType":"uint256"}],"outputs":[{"name":"id","type":"uint256","internalType":"uint256"},{"name":"author","type":"address","internalType":"address"},{"name":"content","type":"string","internalType":"string"},{"name":"timestamp","type":"uint256","internalType":"uint256"},{"name":"likes","type":"uint256","internalType":"uint256"},{"name":"dislike","type":"uint256","internalType":"uint256"}],"stateMutability":"view"}],"bytecode":{"object":"0x60806040526101185f5f6101000a81548161ffff021916908361ffff160217905550348015602b575f5ffd5b503360025f6101000a81548173ffffffffffffffffffffffffffffffffffffffff021916908373ffffffffffffffffffffffffffffffffffffffff1602179055506117fc806100795f395ff3fe608060405234801561000f575f5ffd5b5060043610610091575f3560e01c8063633782161161006457806363378216146101325780636eb107971461014e5780638da5cb5b1461016c578063ae775e951461018a578063c3ad5ecb146101a657610091565b806305a1b4a9146100955780630a7aa8a1146100ca57806312e7ee1c146100e657806358bfa4ab14610116575b5f5ffd5b6100af60048036038101906100aa9190610c50565b6101d6565b6040516100c196959493929190610d1c565b60405180910390f35b6100e460048036038101906100df9190610eae565b6102cd565b005b61010060048036038101906100fb9190610ef5565b610495565b60405161010d91906110c7565b60405180910390f35b610130600480360381019061012b919061111e565b61063a565b005b61014c60048036038101906101479190610c50565b6106e7565b005b6101566107fd565b6040516101639190611158565b60405180910390f35b61017461080f565b6040516101819190611171565b60405180910390f35b6101a4600480360381019061019f9190610c50565b610834565b005b6101c060048036038101906101bb919061118a565b6109ea565b6040516101cd919061123b565b60405180910390f35b6001602052815f5260405f2081815481106101ef575f80fd5b905f5260205f2090600602015f9150915050805f015490806001015f9054906101000a900473ffffffffffffffffffffffffffffffffffffffff169080600201805461023a90611288565b80601f016020809104026020016040519081016040528092919081815260200182805461026690611288565b80156102b15780601f10610288576101008083540402835291602001916102b1565b820191905f5260205f20905b81548152906001019060200180831161029457829003601f168201915b5050505050908060030154908060040154908060050154905086565b5f5f9054906101000a900461ffff1661ffff1681511115610323576040517f08c379a000000000000000000000000000000000000000000000000000000000815260040161031a90611328565b60405180910390fd5b5f6040518060c0016040528060015f3373ffffffffffffffffffffffffffffffffffffffff1673ffffffffffffffffffffffffffffffffffffffff1681526020019081526020015f208054905081526020013373ffffffffffffffffffffffffffffffffffffffff1681526020018381526020014281526020015f81526020015f815250905060015f3373ffffffffffffffffffffffffffffffffffffffff1673ffffffffffffffffffffffffffffffffffffffff1681526020019081526020015f2081908060018154018082558091505060019003905f5260205f2090600602015f909190919091505f820151815f01556020820151816001015f6101000a81548173ffffffffffffffffffffffffffffffffffffffff021916908373ffffffffffffffffffffffffffffffffffffffff160217905550604082015181600201908161047091906114f7565b50606082015181600301556080820151816004015560a0820151816005015550505050565b606060015f8373ffffffffffffffffffffffffffffffffffffffff1673ffffffffffffffffffffffffffffffffffffffff1681526020019081526020015f20805480602002602001604051908101604052809291908181526020015f905b8282101561062f578382905f5260205f2090600602016040518060c00160405290815f8201548152602001600182015f9054906101000a900473ffffffffffffffffffffffffffffffffffffffff1673ffffffffffffffffffffffffffffffffffffffff1673ffffffffffffffffffffffffffffffffffffffff16815260200160028201805461058290611288565b80601f01602080910402602001604051908101604052809291908181526020018280546105ae90611288565b80156105f95780601f106105d0576101008083540402835291602001916105f9565b820191905f5260205f20905b8154815290600101906020018083116105dc57829003601f168201915b505050505081526020016003820154815260200160048201548152602001600582015481525050815260200190600101906104f3565b505050509050919050565b60025f9054906101000a900473ffffffffffffffffffffffffffffffffffffffff1673ffffffffffffffffffffffffffffffffffffffff163373ffffffffffffffffffffffffffffffffffffffff16146106c9576040517f08c379a00000000000000000000000000000000000000000000000000000000081526004016106c090611610565b60405180910390fd5b805f5f6101000a81548161ffff021916908361ffff16021790555050565b8060015f8473ffffffffffffffffffffffffffffffffffffffff1673ffffffffffffffffffffffffffffffffffffffff1681526020019081526020015f2082815481106107375761073661162e565b5b905f5260205f2090600602015f015414610786576040517f08c379a000000000000000000000000000000000000000000000000000000000815260040161077d906116a5565b60405180910390fd5b60015f8373ffffffffffffffffffffffffffffffffffffffff1673ffffffffffffffffffffffffffffffffffffffff1681526020019081526020015f2081815481106107d5576107d461162e565b5b905f5260205f2090600602016004015f8154809291906107f4906116f0565b91905055505050565b5f5f9054906101000a900461ffff1681565b60025f9054906101000a900473ffffffffffffffffffffffffffffffffffffffff1681565b8060015f8473ffffffffffffffffffffffffffffffffffffffff1673ffffffffffffffffffffffffffffffffffffffff1681526020019081526020015f2082815481106108845761088361162e565b5b905f5260205f2090600602015f0154146108d3576040517f08c379a00000000000000000000000000000000000000000000000000000000081526004016108ca906116a5565b60405180910390fd5b5f60015f8473ffffffffffffffffffffffffffffffffffffffff1673ffffffffffffffffffffffffffffffffffffffff1681526020019081526020015f2082815481106109235761092261162e565b5b905f5260205f2090600602016004015411610973576040517f08c379a000000000000000000000000000000000000000000000000000000000815260040161096a90611781565b60405180910390fd5b60015f8373ffffffffffffffffffffffffffffffffffffffff1673ffffffffffffffffffffffffffffffffffffffff1681526020019081526020015f2081815481106109c2576109c161162e565b5b905f5260205f2090600602016004015f8154809291906109e19061179f565b91905055505050565b6109f2610b6b565b60015f3373ffffffffffffffffffffffffffffffffffffffff1673ffffffffffffffffffffffffffffffffffffffff1681526020019081526020015f208281548110610a4157610a4061162e565b5b905f5260205f2090600602016040518060c00160405290815f8201548152602001600182015f9054906101000a900473ffffffffffffffffffffffffffffffffffffffff1673ffffffffffffffffffffffffffffffffffffffff1673ffffffffffffffffffffffffffffffffffffffff168152602001600282018054610ac690611288565b80601f0160208091040260200160405190810160405280929190818152602001828054610af290611288565b8015610b3d5780601f10610b1457610100808354040283529160200191610b3d565b820191905f5260205f20905b815481529060010190602001808311610b2057829003601f168201915b5050505050815260200160038201548152602001600482015481526020016005820154815250509050919050565b6040518060c001604052805f81526020015f73ffffffffffffffffffffffffffffffffffffffff168152602001606081526020015f81526020015f81526020015f81525090565b5f604051905090565b5f5ffd5b5f5ffd5b5f73ffffffffffffffffffffffffffffffffffffffff82169050919050565b5f610bec82610bc3565b9050919050565b610bfc81610be2565b8114610c06575f5ffd5b50565b5f81359050610c1781610bf3565b92915050565b5f819050919050565b610c2f81610c1d565b8114610c39575f5ffd5b50565b5f81359050610c4a81610c26565b92915050565b5f5f60408385031215610c6657610c65610bbb565b5b5f610c7385828601610c09565b9250506020610c8485828601610c3c565b9150509250929050565b610c9781610c1d565b82525050565b610ca681610be2565b82525050565b5f81519050919050565b5f82825260208201905092915050565b8281835e5f83830152505050565b5f601f19601f8301169050919050565b5f610cee82610cac565b610cf88185610cb6565b9350610d08818560208601610cc6565b610d1181610cd4565b840191505092915050565b5f60c082019050610d2f5f830189610c8e565b610d3c6020830188610c9d565b8181036040830152610d4e8187610ce4565b9050610d5d6060830186610c8e565b610d6a6080830185610c8e565b610d7760a0830184610c8e565b979650505050505050565b5f5ffd5b5f5ffd5b7f4e487b71000000000000000000000000000000000000000000000000000000005f52604160045260245ffd5b610dc082610cd4565b810181811067ffffffffffffffff82111715610ddf57610dde610d8a565b5b80604052505050565b5f610df1610bb2565b9050610dfd8282610db7565b919050565b5f67ffffffffffffffff821115610e1c57610e1b610d8a565b5b610e2582610cd4565b9050602081019050919050565b828183375f83830152505050565b5f610e52610e4d84610e02565b610de8565b905082815260208101848484011115610e6e57610e6d610d86565b5b610e79848285610e32565b509392505050565b5f82601f830112610e9557610e94610d82565b5b8135610ea5848260208601610e40565b91505092915050565b5f60208284031215610ec357610ec2610bbb565b5b5f82013567ffffffffffffffff811115610ee057610edf610bbf565b5b610eec84828501610e81565b91505092915050565b5f60208284031215610f0a57610f09610bbb565b5b5f610f1784828501610c09565b91505092915050565b5f81519050919050565b5f82825260208201905092915050565b5f819050602082019050919050565b610f5281610c1d565b82525050565b610f6181610be2565b82525050565b5f82825260208201905092915050565b5f610f8182610cac565b610f8b8185610f67565b9350610f9b818560208601610cc6565b610fa481610cd4565b840191505092915050565b5f60c083015f830151610fc45f860182610f49565b506020830151610fd76020860182610f58565b5060408301518482036040860152610fef8282610f77565b91505060608301516110046060860182610f49565b5060808301516110176080860182610f49565b5060a083015161102a60a0860182610f49565b508091505092915050565b5f6110408383610faf565b905092915050565b5f602082019050919050565b5f61105e82610f20565b6110688185610f2a565b93508360208202850161107a85610f3a565b805f5b858110156110b557848403895281516110968582611035565b94506110a183611048565b925060208a0199505060018101905061107d565b50829750879550505050505092915050565b5f6020820190508181035f8301526110df8184611054565b905092915050565b5f61ffff82169050919050565b6110fd816110e7565b8114611107575f5ffd5b50565b5f81359050611118816110f4565b92915050565b5f6020828403121561113357611132610bbb565b5b5f6111408482850161110a565b91505092915050565b611152816110e7565b82525050565b5f60208201905061116b5f830184611149565b92915050565b5f6020820190506111845f830184610c9d565b92915050565b5f6020828403121561119f5761119e610bbb565b5b5f6111ac84828501610c3c565b91505092915050565b5f60c083015f8301516111ca5f860182610f49565b5060208301516111dd6020860182610f58565b50604083015184820360408601526111f58282610f77565b915050606083015161120a6060860182610f49565b50608083015161121d6080860182610f49565b5060a083015161123060a0860182610f49565b508091505092915050565b5f6020820190508181035f83015261125381846111b5565b905092915050565b7f4e487b71000000000000000000000000000000000000000000000000000000005f52602260045260245ffd5b5f600282049050600182168061129f57607f821691505b6020821081036112b2576112b161125b565b5b50919050565b7f747765657420736520746f6f206c6f6e6720626c6f636b636861696e206d65205f8201527f7061697361206c67746120686169210000000000000000000000000000000000602082015250565b5f611312602f83610cb6565b915061131d826112b8565b604082019050919050565b5f6020820190508181035f83015261133f81611306565b9050919050565b5f819050815f5260205f209050919050565b5f6020601f8301049050919050565b5f82821b905092915050565b5f600883026113a27fffffffffffffffffffffffffffffffffffffffffffffffffffffffffffffffff82611367565b6113ac8683611367565b95508019841693508086168417925050509392505050565b5f819050919050565b5f6113e76113e26113dd84610c1d565b6113c4565b610c1d565b9050919050565b5f819050919050565b611400836113cd565b61141461140c826113ee565b848454611373565b825550505050565b5f5f905090565b61142b61141c565b6114368184846113f7565b505050565b5f5b8281101561145c576114515f828401611423565b60018101905061143d565b505050565b601f8211156114af57828211156114ae5761147b81611346565b61148483611358565b61148d85611358565b602086101561149a575f90505b8083016114a98284038261143b565b505050505b5b505050565b5f82821c905092915050565b5f6114cf5f19846008026114b4565b1980831691505092915050565b5f6114e783836114c0565b9150826002028217905092915050565b61150082610cac565b67ffffffffffffffff81111561151957611518610d8a565b5b6115238254611288565b61152e828285611461565b5f60209050601f83116001811461155f575f841561154d578287015190505b61155785826114dc565b8655506115be565b601f19841661156d86611346565b5f5b828110156115945784890151825560018201915060208501945060208101905061156f565b868310156115b157848901516115ad601f8916826114c0565b8355505b6001600288020188555050505b505050505050565b7f594f5520415245204e4f5420544845204f574e455200000000000000000000005f82015250565b5f6115fa601583610cb6565b9150611605826115c6565b602082019050919050565b5f6020820190508181035f830152611627816115ee565b9050919050565b7f4e487b71000000000000000000000000000000000000000000000000000000005f52603260045260245ffd5b7f547765657420646f6573206e6f742065786973740000000000000000000000005f82015250565b5f61168f601483610cb6565b915061169a8261165b565b602082019050919050565b5f6020820190508181035f8301526116bc81611683565b9050919050565b7f4e487b71000000000000000000000000000000000000000000000000000000005f52601160045260245ffd5b5f6116fa82610c1d565b91507fffffffffffffffffffffffffffffffffffffffffffffffffffffffffffffffff820361172c5761172b6116c3565b5b600182019050919050565b7f547765657420686173206e6f206c696b657300000000000000000000000000005f82015250565b5f61176b601283610cb6565b915061177682611737565b602082019050919050565b5f6020820190508181035f8301526117988161175f565b9050919050565b5f6117a982610c1d565b91505f82036117bb576117ba6116c3565b5b60018203905091905056fea2646970667358221220aa5fe36577a4c8f4f69a613c843efb1deab1a04cba4e650f0cd073d84d488be364736f6c63430008210033","linkReferences":{}},"methodIdentifiers":{"MAX_TWEET_LENGTH()":"6eb10797","changeTweetLength(uint16)":"58bfa4ab","createTweets(string)":"0a7aa8a1","dislikeTweet(address,uint256)":"ae775e95","getAllTweets(address)":"12e7ee1c","getTweet(uint256)":"c3ad5ecb","likeTweet(address,uint256)":"63378216","owner()":"8da5cb5b","tweets(address,uint256)":"05a1b4a9"},"id":0}