{"abi":[{"type":"function","name":"fund","inputs":[],"outputs":[],"stateMutability":"payable"},{"type":"function","name":"withdraw","inputs":[],"outputs":[],"stateMutability":"nonpayable"}],"bytecode":{"object":"0x6080604052348015600e575f5ffd5b506101488061001c5f395ff3fe608060405260043610610028575f3560e01c80633ccfd60b1461002c578063b60d428814610042575b5f5ffd5b348015610037575f5ffd5b5061004061004c565b005b61004a61004e565b005b565b670de0b6b3a76400003411610098576040517f08c379a000000000000000000000000000000000000000000000000000000000815260040161008f906100f4565b60405180910390fd5b565b5f82825260208201905092915050565b7f64696e27742073656e6420656e6f7567682065746800000000000000000000005f82015250565b5f6100de60158361009a565b91506100e9826100aa565b602082019050919050565b5f6020820190508181035f83015261010b816100d2565b905091905056fea26469706673582212209e5292333124cf584a0b44d71d2fdbe45a083be3b8b3b35f6ba17be3eee042bf64736f6c63430008210033","linkReferences":{}},"methodIdentifiers":{"fund()":"b60d4288","withdraw()":"3ccfd60b"},"id":0}