{"abi":[{"type":"constructor","inputs":[],"stateMutability":"nonpayable"},{"type":"function","name":"getValue","inputs":[],"outputs":[{"name":"","type":"uint256","internalType":"uint256"}],"stateMutability":"view"},{"type":"function","name":"owner","inputs":[],"outputs":[{"name":"","type":"address","internalType":"address"}],"stateMutability":"view"},{"type":"function","name":"retrieve","inputs":[],"outputs":[{"name":"","type":"uint256","internalType":"uint256"}],"stateMutability":"view"},{"type":"function","name":"setValue","inputs":[{"name":"_value","type":"uint256","internalType":"uint256"}],"outputs":[],"stateMutability":"nonpayable"},{"type":"function","name":"store","inputs":[{"name":"_number","type":"uint256","internalType":"uint256"}],"outputs":[],"stateMutability":"nonpayable"}],"bytecode":{"object":"0x6080604052348015600e575f5ffd5b503360015f6101000a81548173ffffffffffffffffffffffffffffffffffffffff021916908373ffffffffffffffffffffffffffffffffffffffff1602179055506103538061005c5f395ff3fe608060405234801561000f575f5ffd5b5060043610610055575f3560e01c806320965255146100595780632e64cec11461007757806355241077146100955780636057361d146100b15780638da5cb5b146100cd575b5f5ffd5b6100616100eb565b60405161006e91906101db565b60405180910390f35b61007f6100f3565b60405161008c91906101db565b60405180910390f35b6100af60048036038101906100aa9190610222565b6100fc565b005b6100cb60048036038101906100c69190610222565b610194565b005b6100d561019e565b6040516100e2919061028c565b60405180910390f35b5f5f54905090565b5f600254905090565b60015f9054906101000a900473ffffffffffffffffffffffffffffffffffffffff1673ffffffffffffffffffffffffffffffffffffffff163373ffffffffffffffffffffffffffffffffffffffff161461018b576040517f08c379a0000000000000000000000000000000000000000000000000000000008152600401610182906102ff565b60405180910390fd5b805f8190555050565b8060028190555050565b60015f9054906101000a900473ffffffffffffffffffffffffffffffffffffffff1681565b5f819050919050565b6101d5816101c3565b82525050565b5f6020820190506101ee5f8301846101cc565b92915050565b5f5ffd5b610201816101c3565b811461020b575f5ffd5b50565b5f8135905061021c816101f8565b92915050565b5f60208284031215610237576102366101f4565b5b5f6102448482850161020e565b91505092915050565b5f73ffffffffffffffffffffffffffffffffffffffff82169050919050565b5f6102768261024d565b9050919050565b6102868161026c565b82525050565b5f60208201905061029f5f83018461027d565b92915050565b5f82825260208201905092915050565b7f4e6f74206f776e657200000000000000000000000000000000000000000000005f82015250565b5f6102e96009836102a5565b91506102f4826102b5565b602082019050919050565b5f6020820190508181035f830152610316816102dd565b905091905056fea2646970667358221220ebdf874b8206c4eea16a8864d0809221fdc80f83c6d61ae55e5258bb3bad1eb364736f6c63430008210033","linkReferences":{}},"methodIdentifiers":{"getValue()":"20965255","owner()":"8da5cb5b","retrieve()":"2e64cec1","setValue(uint256)":"55241077","store(uint256)":"6057361d"},"id":0}